:020000040800F2
:10000000082700209D050008270200082902000893
:100010002D0200083102000835020008000000002F
:10002000000000000000000000000000390200088D
:100030003B020008000000003D0200083F020008EB
:10004000B7050008B7050008B7050008B7050008A0
:10005000B7050008B7050008B7050008B705000890
:10006000B7050008B7050008B7050008B705000880
:10007000B7050008B7050008B7050008B705000870
:10008000B7050008B7050008B7050008B705000860
:10009000B7050008B7050008B7050008B705000850
:1000A000B7050008B7050008B7050008B705000840
:1000B000B7050008B7050008B7050008B705000830
:1000C000B7050008B7050008B7050008B705000820
:1000D000B705000813050008B7050008B7050008B4
:1000E000B7050008B7050008B7050008B705000800
:1000F000B7050008B7050008B7050008B7050008F0
:10010000B7050008B7050008B7050008B7050008DF
:10011000B7050008B7050008B7050008B7050008CF
:10012000B7050008B7050008B7050008B7050008BF
:10013000B7050008B7050008B7050008B7050008AF
:10014000B7050008B7050008B7050008B70500089F
:10015000B7050008B7050008B7050008B70500088F
:10016000B7050008B7050008B7050008B70500087F
:10017000B7050008B7050008B7050008B70500086F
:10018000B7050008B705000800F002F800F03CF8D9
:100190000AA090E8000C82448344AAF10107DA45E2
:1001A00001D100F031F8AFF2090EBAE80F0013F0F8
:1001B000010F18BFFB1A43F0010318471CA70000EA
:1001C0003CA70000103A24BF78C878C1FAD852077B
:1001D00024BF30C830C144BF04680C6070470000C1
:1001E0000023002400250026103A28BF78C1FBD840
:1001F000520728BF30C148BF0B6070471FB50AF0D7
:100200009BF91FBD10B510BD0AF004F91146FFF7A8
:10021000F5FF01F048F90AF022F903B4FFF7F2FF05
:1002200003BC00F013F9704700BFFEE700BFFEE714
:1002300000BFFEE700BFFEE770477047704770479A
:100240000CB50020019000907548006840F48030A3
:100250007349086000BF7248006800F400300090E5
:100260000198401C0190009818B90198B0F5A04F72
:10027000F1D16B48006810F4003F02D001200090DB
:1002800001E0002000900098012845D164484030EA
:10029000006840F080506249403108606148006861
:1002A00040F440405F4908605D48083000685C49A0
:1002B000083108600846006840F4004008600846BD
:1002C000006840F4A05008605748091F0860081FE4
:1002D000006840F08070091F086000BF5048006847
:1002E00010F0007FFAD040F20570504908604C4889
:1002F0000830006820F003004949083108600846CA
:10030000006840F00200086000BF454808300068FF
:1003100000F00C000828F8D10CBD10B54448006866
:1003200040F47000424908603D48006840F0010018
:100330003B49086000203A490831086038480068A5
:100340003C490840364908603B48091D0860081FC1
:10035000006820F48020091F0860002030490C311B
:100360000860FFF76DFF4FF0006031498039086089
:1003700010BD70B500200022022300240221284D68
:1003800008352D6805F00C0020B1042806D0082897
:1003900034D107E0294D2A4E356033E0294D284EEF
:1003A00035602FE01E4D2D1D2D68C5F380541C4D6A
:1003B0002D1D2D6805F03F0154B1224DB5FBF1F51F
:1003C000174E361D3668C6F3881605FB06F209E09F
:1003D0001A4DB5FBF1F5124E361D3668C6F3881678
:1003E00005FB06F20E4D2D1D2D68C5F301456D1C54
:1003F0006B00B2FBF3F5124E356003E00F4D104E6B
:10040000356000BF00BF064D08352D68C5F30315E4
:100410000D4E705D0A4D2D68C540094E356070BDAA
:10042000003802400070004008544007003C024081
:1004300088ED00E0FFFFF6FE103000240024F400F9
:100440000000002000127A0004000020014600BFD6
:10045000704700BF4D4A128812F0400FFAD0C2B266
:100460004A4B9A80704710B588B00446012108466F
:1004700000F04AFC0121102000F0A0FC0722092115
:10048000434800F02EFA07220A21414800F029FAD9
:100490004FF4C060069002208DF81C008DF81D00FE
:1004A00000208DF81E0001208DF81F0006A9384895
:1004B00000F08CF902940020ADF80C00ADF80E00AD
:1004C000ADF81000ADF814000C20ADF8120002A930
:1004D0002E4800F0D4FD01212C4800F058FE4021A8
:1004E0002A4800F03CFF012240F22551274800F045
:1004F00004FF25208DF8040003208DF805008DF8F9
:10050000060001208DF8070001A800F06CF808B083
:1005100010BD10B540F225511C4800F029FF10B362
:100520001A4800F063FEC4B21A48008810F4004F65
:100530002BD11848008810F4804F0CD00A2C03D01F
:1005400000201449088020E01248008840F4004050
:100550001049088019E00D2C06D10E48008840F49F
:1005600080400C49088010E00A480088C0F30D0064
:1005700009490C5407480088401C06490880084671
:100580000088C72801DD0020088010BD0010014050
:1005900000000240140000200801002009488047A4
:1005A00009480047FEE7FEE7FEE7FEE7FEE7FEE755
:1005B000FEE7FEE7FEE7FEE704480549054A064B6D
:1005C000704700001B030008890100080821002073
:1005D0000827002008230020082300203349014376
:1005E000334A1160704770B5002100230F22C47890
:1005F00024B32F4C246804F4E064C4F5E064C4F32D
:100600000721C1F10404E3B20A4144789C40E1B2FD
:100610008478144021430C07210E264C057861553F
:10062000047804F01F050124AC4005786D114FF0EB
:10063000E02606EB8505C5F8004109E0047804F0E2
:100640001F040125A5401C4C0678761144F826505D
:1006500070BD1A4A0A400243154B1B1F1A607047AF
:1006600039B1134A121D12680243114B1B1D1A6047
:1006700006E00F4A121D126882430D4B1B1D1A60C3
:100680007047042808D14FF0E021096941F00401C6
:100690004FF0E022116107E04FF0E021096921F0FD
:1006A00004014FF0E0221161704700000000FA05DC
:1006B0000CED00E000E400E080E100E080FFFF1FBF
:1006C00010B504469848844208D10121084600F03C
:1006D00086FB0021012000F082FB76E093488442F3
:1006E00008D10121022000F07AFB0021022000F055
:1006F00076FB6AE08E48844208D10121042000F094
:100700006EFB0021042000F06AFB5EE08948844211
:1007100008D10121082000F062FB0021082000F030
:100720005EFB52E08448844208D10121102000F091
:1007300056FB0021102000F052FB46E07F48844227
:1007400008D10121202000F04AFB0021202000F0E8
:1007500046FB3AE07A48844208D10121402000F06B
:100760003EFB0021402000F03AFB2EE07548844219
:1007700008D10121802000F032FB0021802000F010
:100780002EFB22E07048844208D10121801500F040
:1007900026FB0021A01500F022FB16E06B488442E6
:1007A00008D10121401500F01AFB0021601500F06E
:1007B00016FB0AE06648844207D10121001500F0CB
:1007C0000EFB0021201500F00AFB10BDF0B50A4613
:1007D00000210023002400BF3DE0012505FA01F3BC
:1007E000156805EA03049C4234D105684F000326CE
:1007F000BE40B543056015794E00B54006683543E7
:1008000005601579012D02D01579022D16D1856864
:100810004F000326BE40B543856055794E00B54074
:10082000866835438560456801268E40B54345603E
:10083000456896798E40B6B235434560C5684F002D
:100840000326BE40B543C560D5794E00B540C668A5
:100850003543C560491C1029BFD3F0BD4FF6FF7169
:1008600001600021017141718171C171704708B54A
:100870004FF480320092009A0A430092009AC261BB
:10088000C161009AC261C2690092C269009208BD4A
:100890000246002013690B4201D0012000E0002035
:1008A00070470146086980B27047024600205369CC
:1008B0000B4201D0012000E000207047014648694A
:1008C00080B2704701837047418370470AB101834A
:1008D00000E0418370474161704742694A4042618C
:1008E0007047F0B5002300244D07ED0E02FA05F322
:1008F000CE1000F1200555F826504E07F70E0F26B2
:10090000BE40B543CF1000F1200646F82750CE1068
:1009100000F1200555F8265045EA0304CE1000F1F9
:10092000200545F82640F0BD0000024000040240CA
:1009300000080240000C0240001002400014024077
:1009400000180240001C0240002002400024024027
:1009500000280240F948006840F00100F7490860AB
:100960000020F64908310860F4480068F44908405E
:10097000F2490860F348091D0860F348EF498431E3
:100980000860F0481038091D0860EC48006820F441
:100990008020EA4908600020E8490C310860E749F6
:1009A0008C31086070470021E44A921C1170114696
:1009B0000870704710B501460022002300204A113C
:1009C000012A02D1DD4C236808E0022A03D1DB4C66
:1009D0007034236802E0D94C7434236801F01F029C
:1009E000012494401C4201D0012000E0002010BDF1
:1009F00038B5002000900024002500BF3120FFF70B
:100A0000D9FF05460098401C00900098B0F5A04F13
:100A100001D0002DF2D03120FFF7CCFF08B1012426
:100A200000E00024204638BD01460020C34A10687B
:100A300020F0F80040EAC10010607047C349086028
:100A400070470021BD4A703211701170012802D028
:100A500004280AD104E00121B84A7032117005E07F
:100A60000521B64A7032117000E000BF00BF704728
:100A7000B7490860704770B5049C41EA82150126A9
:100A8000C6EB530645EA0645054345EA0465AB4E09
:100A9000361D356070BDAD4908667047820142EA77
:100AA0000172A64B84331A607047A8498866704764
:100AB00010B5830143EA016343EA02739F4C883413
:100AC000236010BDA14908677047A049C8647047FA
:100AD00002460020994B0833186820F0EC6042EA87
:100AE00001031843954B08331860704702460020F5
:100AF000924B0833186820F0784042EA010318430B
:100B00008E4B083318607047014600208B4A08322C
:100B1000106820F0030008431060704787480830D1
:100B2000006800F00C00704701460020834A08323C
:100B3000106820F0F0000843106070470146002064
:100B40007E4A0832106820F4E05008431060704775
:100B500001460020794A0832106820F4604040EADB
:100B6000C10010607047F0B500210022002402256A
:100B700000260223714F08373F6807F00C0121B1AE
:100B8000042905D0082937D105E0724F076036E007
:100B9000714F076033E0694F3F1D3F68C7F38056D0
:100BA000664F3F1D3F6807F03F036EB16A4FB7FBCA
:100BB000F3F7DFF888C10CF1040CDCF800C0CCF3CB
:100BC000881C07FB0CF40CE0624FB7FBF3F7DFF86F
:100BD0006CC10CF1040CDCF800C0CCF3881C07FBE2
:100BE0000CF4564F3F1D3F68C7F301477F1C7D0043
:100BF000B4FBF5F7076002E0564F076000BF00BF87
:100C00004E4F08373F6807F0F0010909534F7A5CEF
:100C10000768D7404760494F08373F6807F4E051FD
:100C2000890A4E4F7A5C4768D7408760434F083740
:100C30003F6807F46041490B484F7A5C4768D740EA
:100C4000C760F0BD002100F44072B2F5407F0AD1C8
:100C50003A4A0832116821F4F811414A024011431E
:100C6000364A08321160354A70321268C0F30B03FD
:100C70001A43324B70331A60704735494439086063
:100C800070473349403908607047364908607047FB
:100C900001460020294A8C32106820F01F004A1EAD
:100CA0001043264A8C321060704701460020234AC8
:100CB0008C32106820F4F8504A1E40EA02201F4A85
:100CC0008C3210607047014600201C4A8C3210683C
:100CD00020F4401008431060704701460020174A76
:100CE0008C32106820F440000843106070470146C1
:100CF0000020124A8C32106820F440300843106003
:100D0000704719490860704739B10C4A303212688F
:100D100002430A4B30331A6006E0084A3032126848
:100D20008243064B30331A607047F9B1034A3432BC
:100D300012680243014B34331A601CE00038024051
:100D4000FFFFF6EA10300024003000200000474288
:100D5000800E47420024F40000127A001C0000209C
:100D6000FFFCFF0F5C014742E01147428F4A1268C7
:100D700082438E4B1A60704739B18C4A121D12683B
:100D800002438A4B1B1D1A6006E0884A121D126836
:100D90008243864B1B1D1A60704739B1834A0C325F
:100DA00012680243814B0C331A6006E07F4A0C3212
:100DB000126882437D4B0C331A60704739B17B4A0D
:100DC000103212680243794B10331A6006E0774AFA
:100DD000103212688243754B10331A60704739B174
:100DE000724A243A12680243704B243B1A6006E0B0
:100DF0006E4A243A126882436C4B243B1A60704757
:100E000039B16A4A203A12680243684B203B1A60A3
:100E100006E0664A203A12688243644B203B1A601F
:100E2000704739B1614A1C3A126802435F4B1C3B60
:100E30001A6006E05D4A1C3A126882435B4B1C3B19
:100E40001A60704739B1594A143A12680243574B35
:100E5000143B1A6006E0554A143A12688243534B19
:100E6000143B1A60704739B1504A103A1268024375
:100E70004E4B103B1A6006E04C4A103A126882430F
:100E80004A4B103B1A60704739B1484A1C3212680D
:100E90000243464B1C331A6006E0444A1C32126877
:100EA0008243424B1C331A60704739B13F4A2032AB
:100EB000126802433D4B20331A6006E03B4A203261
:100EC00012688243394B20331A60704739B1374A70
:100ED000243212680243354B24331A6006E0334A49
:100EE000243212688243314B24331A60704739B17F
:100EF0002E4A2C32126802432C4B2C331A6006E027
:100F00002A4A2C3212688243284B2C331A607047CD
:100F100039B1264A303212680243244B30331A600A
:100F200006E0224A303212688243204B30331A6086
:100F30007047012808D11D493C31096841F008017A
:100F40001A4A3C32116007E018493C31096821F027
:100F50000801164A3C321160704739B1134A273AEA
:100F600012780243114B273B1A7006E00F4A273ACA
:100F7000127882430D4B273B1A7070470B48403064
:100F8000006840F0807009494031086070470146B0
:100F90000020064A283A12680A4201D0012000E0E7
:100FA00000207047014926390870704734380240E4
:100FB00010B50446FA48844208D101211020FFF7F9
:100FC00052FF00211020FFF74EFF57E0F548844202
:100FD00009D101214804FFF735FF00214FF400300B
:100FE000FFF730FF4AE0F048844209D1012188042C
:100FF000FFF728FF00214FF48020FFF723FF3DE09B
:10100000EA48844209D10121C804FFF71BFF0021EF
:101010004FF40020FFF716FF30E0E548844209D185
:1010200001210805FFF70EFF00214FF48010FFF7A4
:1010300009FF23E0DF48844208D101212020FFF787
:1010400012FF00212020FFF70EFF17E0DA4884424C
:1010500009D101218807FFF7F5FE00214FF08040FC
:10106000FFF7F0FE0AE0D548844207D10121400590
:10107000FFF7E8FE00216005FFF7E4FE10BD2DE953
:10108000FF4705460E460024A14600BFA046B08992
:1010900000B100BF2C8A24F44054F08804432C8211
:1010A000AC8941F20C608443B0883189084371896E
:1010B00008430443AC81AC8A24F44074B0890443EF
:1010C000AC826846FFF74FFDB548854202D0B9486B
:1010D000854202D1DDF80C9001E0DDF80890A88986
:1010E00010F4004F08D009EBC90000EB091031687B
:1010F0004900B0FBF1F707E009EBC90000EB09106C
:1011000031688900B0FBF1F76420B7FBF0F004010F
:101110002009642101FB1078A88910F4004F08D041
:10112000322000EBC800B0FBF1F000F007000443F0
:1011300008E0322000EB08106421B0FBF1F000F071
:101140000F0004432C81BDE8FF874FF41651016066
:1011500000218180C18001810C2141810021818198
:10116000704710B502460020108A20F470600B888A
:101170004C8823438C882343CC8823431843108214
:1011800010BD0021018041808180C180704721B164
:10119000828942F40052828104E082894DF6FF7315
:1011A0001A4082817047028B02F47F420283028BD5
:1011B0000A430283704721B1828942F4004282814E
:1011C00003E08289C2F30E028281704721B1828AD4
:1011D00042F40062828204E0828A4FF2FF731A4076
:1011E00082827047C1F30802828070470146888876
:1011F000C0F308007047028A4FF6F0731A4002826B
:10120000028A0A430282704721B1828942F00202B7
:10121000828104E082894FF6FD731A408281704713
:1012200082894FF2FF731A40828182890A43828148
:101230007047028A4FF6DF731A400282028A0A431D
:101240000282704721B1028A42F48042028204E0A5
:10125000028A4BF6FF731A4002827047818941F07F
:1012600001018181704721B1828A42F008028282A5
:1012700004E0828A4FF6F7731A4082827047028B2D
:10128000D2B20283028B42EA01220283704721B16B
:10129000828A42F02002828204E0828A4FF6DF7363
:1012A0001A408282704721B1828A42F01002828203
:1012B00004E0828A4FF6EF731A4082827047828A76
:1012C0004FF6FB731A408282828A0A4382827047F9
:1012D00021B1828A42F00202828204E0828A4FF6C1
:1012E000FD731A40828270471AB1838A0B4383824E
:1012F00002E0838A8B4383827047F0B50346002463
:10130000002600250020A1F510676A3F00D100BF2C
:101310001846C1F3421401F01F06012707FA06F52B
:10132000012C01D10C3004E0022C01D1103000E07E
:1013300014301AB107682F43076002E00768AF4313
:101340000760F0BD02460020B1F5007F00D100BF6C
:1013500013880B4201D0012000E00020704701F407
:101360000072B2F5007F00D100BFCA43028070470F
:1013700070B502460024002300250020A1F5106668
:101380006A3E00D100BFC1F3421501F01F030126E0
:1013900006FA03F3012D13D19689334017E00000BC
:1013A000001001400044004000480040004C004054
:1013B000005000400014014000780040007C0040D4
:1013C000022D02D1168A334001E0968A33400C1276
:1013D000012606FA04F41688344013B10CB101203A
:1013E00000E0002070BD10B500220023A1F51064BC
:1013F0006A3C00D100BF0A1201249440A3B2DC432E
:10140000048010BD704770470EB500F0C2F800F0C0
:101410004DFF00F037F9044635480068B4FBF0F59D
:10142000284603F018FA01F0AFFD01F081FD02A893
:1014300006F01EFC002000F02CF9FFF7E4FFFFF798
:10144000E1FF2FE0012000F086F902A800216423CB
:101450000A46CDE90010084608F030FA022000F0F4
:101460007AF902A8002164230A46CDE90010084653
:1014700008F024FA032000F06EF902A8002164238A
:101480000A46CDE90010084608F018FA042000F0DA
:1014900062F902A8002164230A46CDE9001008463B
:1014A00008F00CFACEE700B58BB000F034FA0AA8C9
:1014B00003F08DFA0AA8032100220592CDE9062146
:1014C0000890114680220B48006B0A4BCDE9013091
:1014D000CDE9032102200023074A08A100900B4810
:1014E00006F009FF0AA803F086FC00200BB000BD3F
:1014F0003CA70008880200200914000841707020F1
:101500005461736B2053746172740000D001002029
:101510001CB5002000F0F7FC1020009001208DF891
:10152000040000208DF8060001208DF8070002203D
:101530008DF805006946E748FFF748F9062000F0F6
:10154000E2FC0820009001208DF8040000208DF8B6
:10155000060001208DF8070002208DF8050069467D
:10156000DD48FFF733F9042000F0CDFC0C2000909B
:1015700001208DF8040000208DF8060001208DF870
:10158000070002208DF805006946D448FFF71EF9D0
:101590001CBD70B500F001FAD148006840F00100B0
:1015A000CF4908600020CE4908310860CC48006867
:1015B000CC490840CA490860CB48091D0860081F8B
:1015C000006820F48020091F08600846006820F4A5
:1015D0007F0008600846006840F48030086000BF63
:1015E0006D1CB5F5A06F05D2BD480068012131EA38
:1015F0005040F5D1B5F5A06F00D170BD0024B848BA
:101600000830046824F0F00400BF0460046824F487
:10161000604444F400440460046824F4E05444F456
:10162000A0540460B148AE49091D0860081F006855
:1016300040F08070091F086000BFA94800680121C0
:1016400031EA5060F9D1AA48006840F00500A84985
:1016500008600846006840F4E0600860A048083070
:10166000006840F002009E490831086000BF9C48B5
:101670000830006800F00C000828F8D1FFF748FF98
:1016800000BFBAE71FB56846FFF76DFA019804B0CE
:1016900010BD10B50446052C29D2DFE804F0031470
:1016A000191E230010218B48FFF70CF908218A48E6
:1016B000FFF708F904218948FFF704F90821874852
:1016C000FFF700F914E010218248FFF7FBF80FE064
:1016D00008218148FFF7F6F80AE004217F48FFF768
:1016E000F1F805E008217D48FFF7ECF800E000BFC5
:1016F00000BF10BD10B50446052C29D2DFE804F068
:101700000314191E230010217248FFF7DDF8082189
:101710007148FFF7D9F804217048FFF7D5F8082180
:101720006E48FFF7D1F814E010216A48FFF7CCF8B3
:101730000FE008216848FFF7C7F80AE0042167486E
:10174000FFF7C2F805E008216448FFF7BDF800E0A4
:1017500000BF00BF10BD70B50546052D7ED2DFE885
:1017600005F00337495B6D005A48FFF7A7F80446B8
:1017700084F0100404F010015648FFF7A3F810207D
:1017800020EA04015348FFF79FF85348FFF796F803
:10179000044684F0080404F008014F48FFF792F86B
:1017A000082020EA04014C48FFF78EF84B48FFF769
:1017B00085F8044684F00C0404F00C014748FFF758
:1017C00081F80C2020EA04014448FFF77DF84AE044
:1017D0004048FFF773F8044684F0100404F0100149
:1017E0003C48FFF76FF8102020EA04013948FFF762
:1017F0006BF838E03848FFF761F8044684F00804D5
:1018000004F008013448FFF75DF8082020EA0401DD
:101810003148FFF759F826E03048FFF74FF8044603
:1018200084F0040404F004012C48FFF74BF8042072
:1018300020EA04012948FFF747F814E02748FFF79A
:101840003DF8044684F0080404F008012348FFF73B
:1018500039F8082020EA0401204800E002E0FFF700
:1018600033F800E000BF00BF70BD10B5FFF70AFFFE
:1018700004462048006840F080701E49086000203F
:101880001D4948600846006840F001000860204695
:1018900000F07DFD10BD1849486870472DE9F047FC
:1018A0008246FFF7EFFE4FF000098046134A0023FF
:1018B0004046494608F033FD064632460B46504640
:1018C000002108F02CFD04460D4620462946BDE8BF
:1018D000F0870000000002400018024000100240A3
:1018E00000380240FFFFF6FE103000240854400785
:1018F000003C0240FCED00E0001000E040420F0020
:10190000704710B504465B2C04D204F11001C8B234
:1019100000F058FE10BD10B500F000FE10BD10B56F
:1019200004465B2C04D204F11001C8B200F0EFFEB3
:1019300010BD70B504460D4600265B2C10D200BFCA
:1019400000BF00F0EFFD064600BF00BFF64840F8BC
:10195000245000BF00BF304600F0E8FD00BF00BFCC
:1019600070BD70B504460D4600265B2C13D200BF37
:1019700000BF00F0D7FD064600BF00BF04F1100114
:10198000C8B2294600F0BBFF00BF00BF304600F0E0
:10199000CDFD00BF00BF70BD704710B5002404E04E
:1019A000E2492046FFF7C5FF641C5B2CF8D310BD4D
:1019B00070B50446002600BF00BF00F0B3FD064628
:1019C00000BF00BF03F08AF800BF00BF304600F040
:1019D000ADFD00BF00BF5B2C04D2D34850F82450AB
:1019E00005B1A84703F08BF870BD10B50020FFF7D4
:1019F000DFFF10BD10B50120FFF7DAFF10BD10B5F5
:101A00000220FFF7D5FF10BD10B50320FFF7D0FF70
:101A100010BD10B50420FFF7CBFF10BD10B5052099
:101A2000FFF7C6FF10BD10B50620FFF7C1FF10BDC0
:101A300010B50720FFF7BCFF10BD10B50820FFF759
:101A4000B7FF10BD10B50920FFF7B2FF10BD10B5EC
:101A50000A20FFF7ADFF10BD10B50B20FFF7A8FF60
:101A600010BD10B50C20FFF7A3FF10BD10B50D2061
:101A7000FFF79EFF10BD10B50E20FFF799FF10BDB8
:101A800010B50F20FFF794FF10BD10B51020FFF721
:101A90008FFF10BD10B51120FFF78AFF10BD10B5E4
:101AA0001220FFF785FF10BD10B51320FFF780FF50
:101AB00010BD10B51420FFF77BFF10BD10B5152029
:101AC000FFF776FF10BD10B51620FFF771FF10BDB0
:101AD00010B51720FFF76CFF10BD10B51820FFF7E9
:101AE00067FF10BD10B51920FFF762FF10BD10B5DC
:101AF0001A20FFF75DFF10BD10B51B20FFF758FF40
:101B000010BD10B51C20FFF753FF10BD10B51D20F0
:101B1000FFF74EFF10BD10B51E20FFF749FF10BDA7
:101B200010B51F20FFF744FF10BD10B52020FFF7B0
:101B30003FFF10BD10B52120FFF73AFF10BD10B5D3
:101B40002220FFF735FF10BD10B52320FFF730FF2F
:101B500010BD10B52420FFF72BFF10BD10B52520B8
:101B6000FFF726FF10BD10B52620FFF721FF10BD9F
:101B700010B52720FFF71CFF10BD10B52820FFF778
:101B800017FF10BD10B52920FFF712FF10BD10B5CB
:101B90002A20FFF70DFF10BD10B52B20FFF708FF1F
:101BA00010BD10B52C20FFF703FF10BD10B52D2080
:101BB000FFF7FEFE10BD10B52E20FFF7F9FE10BD99
:101BC00010B52F20FFF7F4FE10BD10B53020FFF741
:101BD000EFFE10BD10B53120FFF7EAFE10BD10B5C5
:101BE0003220FFF7E5FE10BD10B53320FFF7E0FE11
:101BF00010BD10B53420FFF7DBFE10BD10B5352049
:101C0000FFF7D6FE10BD10B53620FFF7D1FE10BD90
:101C100010B53720FFF7CCFE10BD10B53820FFF708
:101C2000C7FE10BD10B53920FFF7C2FE10BD10B5BC
:101C30003A20FFF7BDFE10BD10B53B20FFF7B8FE00
:101C400010BD10B53C20FFF7B3FE10BD10B53D2010
:101C5000FFF7AEFE10BD10B53E20FFF7A9FE10BD88
:101C600010B53F20FFF7A4FE10BD10B54020FFF7D0
:101C70009FFE10BD10B54120FFF79AFE10BD10B5B4
:101C80004220FFF795FE10BD10B54320FFF790FEF0
:101C900010BD10B54420FFF78BFE10BD10B54520D8
:101CA000FFF786FE10BD10B54620FFF781FE10BD80
:101CB00010B54720FFF77CFE10BD10B54820FFF798
:101CC00077FE10BD10B54920FFF772FE10BD10B5AC
:101CD0004A20FFF76DFE10BD10B54B20FFF768FEE0
:101CE00010BD10B54C20FFF763FE10BD10B54D20A0
:101CF000FFF75EFE10BD10B54E20FFF759FE10BD78
:101D000010B54F20FFF754FE10BD10B55020FFF75F
:101D10004FFE10BD10B55120FFF74AFE10BD10B5A3
:101D20005220FFF745FE10BD8804002099190008D5
:101D300010B55320FFF73CFE10BD10B55420FFF73F
:101D400037FE10BD10B55520FFF732FE10BD10B59F
:101D50005620FFF72DFE10BD10B55720FFF728FEC7
:101D600010BD10B55820FFF723FE10BD10B5592047
:101D7000FFF71EFE10BD10B55A20FFF719FE10BD6B
:101D800070B50646FFF77EFC0546672E7BD034DC37
:101D9000192E63D00FDC182E6DD2DFE806F04E4FFF
:101DA000505152535455565758B259B2B2B2B2B2BA
:101DB0005AB25B5C5D5E262E59D00BDCA6F11A0090
:101DC0000C28E9D2DFE800F04C4D4B4E4F9D509D62
:101DD0009D9D5152632E52D008DC402E48D0602E7B
:101DE0004AD0612E49D0622E45D147E0642E47D0BB
:101DF000652E46D0662EF7D144E0A6F16800332860
:101E00007FD2DFE800F0417E7E427E7E43447E4505
:101E1000464748494A4B7E4C4D7E4E4F50515F607D
:101E20007E7E61627E7E636465666768697E6A6BDA
:101E30006C7E6D6E6F7E7E7E700000BF00BF00BF47
:101E400000BF00BF00BF00BF00BF00BF00BF00BF9A
:101E500000BF00BF00BF00BF00BF00BF00BF00BF8A
:101E600000BF00BF00BF00BF00BF00BF00BF00BF7A
:101E7000284670BD07E044E000BF00BF00BF00BFC0
:101E800000BF00BF00BF00BF00BF00BF00BF00BF5A
:101E900000BF00BF00BF00BF00BF00BF00BF00BF4A
:101EA00000BF00BF00BF00BFEF480068C0F382243E
:101EB000042C01D22846DCE7E01E4400B5FBF4F513
:101EC0002846D6E700BF00BF00BF00BF00BF00BF6D
:101ED00000BF00BF00BF00BF00BF00BF00BF00BF0A
:101EE00000BF00BF00BFE0480068C0F34234042CCC
:101EF00001D22846BDE7E01E4400B5FBF4F52846B4
:101F0000B7E70020B5E7672875D034DC1A2865D01C
:101F10000FDC6FD2DFE800F04F505152535455564A
:101F2000575859CD5ACDCDCDCDCD5BCD5C5D5E5FE3
:101F3000CD60272864D00BDCA0F11B010C29E8D26E
:101F4000DFE801F04D4B4E4FB75AB7B7B75B5C5D5A
:101F5000632870D008DC40285ED0602868D06128F3
:101F600067D0622846D165E0642865D0652864D0D2
:101F70006628F7D162E0A0F168013329C9D2DFE811
:101F800001F05F98986098986162986364656667ED
:101F90006869986A6B986C6D6E6F7B7C98987D7E93
:101FA00098987F8081828384859886878898898A9B
:101FB0008B9898988C0000BF00BF00BF00BF00BF87
:101FC00000BF00BF00BF00BF00BF00BF00BF00BF19
:101FD00000BF00BF00BF00BF00BF00BF00BF00BF09
:101FE00000BFA149283109680122824011439E4A5D
:101FF000283211605DE022E000BF00BF00BF00BFDB
:1020000099492C310968A0F120020123934019431A
:10201000954A2C3211604CE0934930310968A0F1A7
:1020200040020123934019438F4A3032116040E04F
:1020300000BF00BF00BF00BF00BF00BF00BF00BFA8
:1020400000BF00BF00BF00BF00BF00BF00BF00BF98
:1020500000BF00BF00BF00BF00BF00BF00BF00BF88
:10206000814938310968A0F1600201239340194386
:102070007D4A383211601CE000BF00BF00BF00BFC6
:1020800000BF00BF00BF00BF00BF00BF00BF00BF58
:1020900000BF00BF00BF00BF00BF73493C310968EB
:1020A000A0F180020123934019436F4A3C32116032
:1020B00000BF00BF7047672875D034DC1A2865D090
:1020C0000FDC6FD2DFE800F04F5051525354555699
:1020D000575859CD5ACDCDCDCDCD5BCD5C5D5E5F32
:1020E000CD60272864D00BDCA0F11B010C29E8D2BD
:1020F000DFE801F04D4B4E4FB75AB7B7B75B5C5DA9
:10210000632870D008DC40285ED0602868D0612841
:1021100067D0622846D165E0642865D0652864D020
:102120006628F7D162E0A0F168013329C9D2DFE85F
:1021300001F05F989860989861629863646566673B
:102140006869986A6B986C6D6E6F7B7C98987D7EE1
:1021500098987F8081828384859886878898898AE9
:102160008B9898988C0000BF00BF00BF00BF00BFD5
:1021700000BF00BF00BF00BF00BF00BF00BF00BF67
:1021800000BF00BF00BF00BF00BF00BF00BF00BF57
:1021900000BF354928310968012282409143324A03
:1021A000283211605DE022E000BF00BF00BF00BF29
:1021B0002D492C310968A0F1200201239340994355
:1021C000294A2C3211604CE0274930310968A0F1CE
:1021D0004002012393409943234A3032116040E08A
:1021E00000BF00BF00BF00BF00BF00BF00BF00BFF7
:1021F00000BF00BF00BF00BF00BF00BF00BF00BFE7
:1022000000BF00BF00BF00BF00BF00BF00BF00BFD6
:10221000154938310968A0F16002012393409943C0
:10222000114A383211601CE000BF00BF00BF00BF80
:1022300000BF00BF00BF00BF00BF00BF00BF00BFA6
:1022400000BF00BF00BF00BF00BF07493C310968A5
:10225000A0F18002012393409943034A3C3211606C
:1022600000BF00BF704700000838024010B50024CE
:1022700000BF00BF00F056F9044600BF00BF1021A8
:10228000A34800F0C6FE00BF00BF204600F04EF994
:1022900000BF00BF10BD10B5FFF7E8FF10BD10B5BF
:1022A00000209C490860FFF7E0FA10BD10B5FFF769
:1022B000F6FFFFF7F0FF10BD00BFFEE770B5054663
:1022C0000C46002614B900BFFFF7F6FF15B90A2027
:1022D000208070BD00BF00BF00F024F9064600BF9B
:1022E00000BF10228A49284601F04AFB00BF00BF08
:1022F000304600F01BF900BF00BF0020208000BF67
:10230000E7E72DE9F04105460C46002714B900BF68
:10231000FFF7D2FF1DB90A202080BDE8F08110210F
:10232000284601F015FB0646102E15D200BF00BF4F
:1023300000F0F8F8074600BF00BF10222946744895
:1023400001F01EFB00BF00BF384600F0EFF800BFF1
:1023500000BF0020208002E04FF47A70208000BF90
:10236000DBE710B5FFF797FA0446204610BD70472B
:1023700000B5014611B900BFFFF79EFF654A10681E
:1023800008B1002201E04FF4FA620A8000BD614901
:102390000860704770B50546284600F0CEF8044640
:1023A000183C204670BD70B50546284600F0C5F8BB
:1023B0000446103C204670BD70B50546284600F026
:1023C000BCF8044600BF204670BD30B502460B463F
:1023D0004FF0FF354FF00004AD1A9C4127D24FF06B
:1023E000FF352C0CAD1A9C410FD24FF0FF352C0A53
:1023F000AD1A9C4103D2190E474C605C45E0190CA4
:10240000454C645C04F108003FE04FF0FF35FF24C9
:10241000AD1A9C4105D2190A3F4C645C04F11000CE
:1024200033E019463C4C645C04F118002DE04FF693
:10243000FF750024AD1A9C4115D26FF07F45002432
:10244000AD1A9C4107D2140E44EA0321324C645C5D
:1024500004F1200019E0140C44EA03412E4C645CA2
:1024600004F1280011E0FF250024AD1A9C4107D299
:10247000140A44EA0361284C645C04F1300004E06F
:102480001146254C645C04F1380030BD70B504463B
:102490000CB9082070BD204600F052F805462846C9
:1024A000F8E770B504460CB9102070BD204600F066
:1024B00047F805462846F8E770B504460CB92020D1
:1024C00070BD204600F03CF805462846F8E72DE9A7
:1024D000F04304460D464FF0000184EA010085EA0E
:1024E0000101084302D14020BDE8F083E243E84304
:1024F000521C40F1000102EA040601EA05073046D9
:102500003946FFF762FF8046C8F13F094846EBE7CE
:10251000F40500202C00002044A5000872B6704786
:1025200062B67047EFF3108072B6704780F3108880
:10253000704730BF704720BF7047B0FA80F07047D7
:1025400090FAA0F0B0FA80F0704790FAA0F07047CF
:1025500010B5B0F1005F0AD3FE4CA04207D8440189
:1025600004EB810303F10852002414600CE0B0F185
:10257000804F09D3F84CA04206D8440104EB8103F4
:1025800003F184420024146010BD10B5B0F1005F67
:102590000AD3F04CA04207D8440104EB810303F1B5
:1025A0000852012414600CE0B0F1804F09D3EA4CCA
:1025B000A04206D8440104EB810303F184420124C4
:1025C000146010BD2DE9F04104464FF00008102CB6
:1025D0006BD2DFE804F0080E0F1014293E090A0B35
:1025E0000C11120D135300BF00BF00BF00BF00BF8E
:1025F0008AE000BF00BF00BF00BF00BF84E000BF93
:1026000000BFFFF78FFF804600BF00BFD3480068C0
:1026100020F48030D149086000BF00BF4046FFF77A
:1026200085FF00BF00BF6FE000BF00BFFFF77AFF6C
:10263000804600BF00BFC948006820F40030C74989
:10264000086000BF00BF4046FFF770FF00BF00BF3B
:102650005AE000BF00BFFFF765FF804600BF00BF24
:10266000BE48006820F48020BC49086000BF00BF5D
:102670004046FFF75BFF00BF00BF45E000BF00BF63
:10268000FFF750FF804600BF00BF4FF0E020006919
:1026900020F001004FF0E021086100BF00BF40467C
:1026A000FFF744FF00BF00BF2EE04FF0E02040687E
:1026B000401C102101EB4010C6B2B44223DAA4F151
:1026C0001000C11700EBD161C1F34715C11700EB32
:1026D000D1614911A0EB4111CFB200BF00BFFFF79C
:1026E00021FF804600BF00BF0120B8404FF0E0212D
:1026F00001EB8501C1F8800100BF00BF4046FFF734
:1027000015FF00BF00BF00BF00BFBDE8F0812DE98D
:10271000F04104464FF00008102C6BD2DFE804F0C3
:10272000080E0F1014293E090A0B0C11120D135339
:1027300000BF00BF00BF00BF00BF8AE000BF00BFF6
:1027400000BF00BF00BF84E000BF00BFFFF7EAFE8C
:10275000804600BF00BF8148006840F480307F4958
:10276000086000BF00BF4046FFF7E0FE00BF00BFAB
:102770006FE000BF00BFFFF7D5FE804600BF00BF7F
:102780007648006840F400307449086000BF00BF1C
:102790004046FFF7CBFE00BF00BF5AE000BF00BFBE
:1027A000FFF7C0FE804600BF00BF6C48006840F4E1
:1027B00080206A49086000BF00BF4046FFF7B6FEB0
:1027C00000BF00BF45E000BF00BFFFF7ABFE804683
:1027D00000BF00BF4FF0E020006940F001004FF063
:1027E000E021086100BF00BF4046FFF79FFE00BF29
:1027F00000BF2EE04FF0E0204068401C102101EBAC
:102800004010C7B2BC4223DAA4F11000C11700EB9C
:10281000D161C1F34715C11700EBD1614911A0EB9C
:102820004111CEB200BF00BFFFF77CFE804600BF63
:1028300000BF0120B0404FF0E02101EB8501C1F85D
:10284000000100BF00BF4046FFF770FE00BF00BFA1
:1028500000BF00BFBDE8F0812DE9F04104464FF014
:102860000008102C19D2DFE804F0080E0F10111523
:1028700016090A0B0C12130D141700BF00BF00BF7E
:1028800000BF00BF38E000BF00BF00BF00BF00BFF7
:1028900000BF00BF00BF00BF2EE04FF0E020406847
:1028A000401C102101EB4010C7B2BC4223DAA4F156
:1028B0001000C11700EBD161C1F34715C11700EB40
:1028C000D1614911A0EB4111CEB200BF00BFFFF7AB
:1028D00029FE804600BF00BF0120B0404FF0E0213C
:1028E00001EB8501C1F8800200BF00BF4046FFF741
:1028F0001DFE00BF00BF00BF00BFBDE8F0812DE995
:10290000F04706460D464FF0000A102E72D2DFE85F
:1029100006F0080E0F10112E44090A0B0C5A720D06
:10292000889F00BF00BF00BF00BF00BFE0E000BF46
:1029300000BFDDE000BF00BFFFF7F4FD824600BF2F
:1029400000BF06480C38046824F0FF042C430460E0
:1029500000BF05E0FFFF0F20FFFF0F4024ED00E068
:1029600000BF5046FFF7E2FD00BF00BFC0E000BF60
:1029700000BFFFF7D7FD824600BF00BFC94804680B
:1029800024F47F4444EA0524046000BF00BF50469D
:10299000FFF7CCFD00BF00BFAAE000BF00BFFFF7FC
:1029A000C1FD824600BF00BFBE48046824F47F0416
:1029B00044EA0544046000BF00BF5046FFF7B6FD7F
:1029C00000BF00BF94E000BF00BFFFF7ABFD824631
:1029D00000BF00BFB348001D046824F07F4444EAF0
:1029E0000564046000BF00BF5046FFF79FFD00BFB5
:1029F00000BF7DE043E000BF00BFFFF793FD8246CC
:102A000000BF00BFA7480830046824F0FF042C432F
:102A1000046000BF00BF5046FFF788FD00BF00BF45
:102A200066E000BF00BFFFF77DFD824600BF00BF2C
:102A30009C480830046824F47F0444EA0544046098
:102A400000BF00BF5046FFF771FD00BF00BF4FE061
:102A500000BF00BFFFF766FD824600BF00BF914880
:102A60000830046824F07F4444EA0564046000BF31
:102A700000BF5046FFF75AFD00BF00BF38E04FF0DF
:102A8000E0204068401C102101EB401000F0FF09DD
:102A90004E452CDAA6F11000C11700EB9171C1F37D
:102AA0008707C11700EB91718910A0EB810101F03C
:102AB000FF0800BF00BFFFF735FD824600BF00BF23
:102AC000794850F827404FEAC801FF2088408443E6
:102AD0004FEAC80105FA01F00443734840F8274063
:102AE00000BF00BF5046FFF721FD00BF00BF00BF81
:102AF00000BFBDE8F0872DE9F04706464FF0000A19
:102B0000102E70D2DFE806F0080F1215182A3D09C2
:102B10000A0B0C495C0D708400BF00BF00BF00BFF2
:102B200000BF624CBAE06FF00204B7E06FF001043E
:102B3000B4E04FF0FF34B1E000BF00BFFFF7F2FC9C
:102B4000824600BF00BF57480568ECB200BF00BF17
:102B50005046FFF7EBFC00BF00BF9FE000BF00BF87
:102B6000FFF7E0FC824600BF00BF4E480568C5F392
:102B7000072400BF00BF5046FFF7D8FC00BF00BFCE
:102B80008CE000BF00BFFFF7CDFC824600BF00BF56
:102B900044480568C5F3074480E000BF00BFFFF765
:102BA000C1FC824600BF00BF3E48001D05682C0ED8
:102BB00000BF00BF5046FFF7B9FC00BF00BF6DE08B
:102BC00000BF00BFFFF7AEFC824600BF00BF354824
:102BD00008300568ECB200BF00BF5046FFF7A6FC06
:102BE00000BF00BF5AE026E000BF00BFFFF79AFC1D
:102BF000824600BF00BF2B4808300568C5F3074474
:102C000000BF00BF5046FFF791FC00BF00BF45E08A
:102C100000BF00BFFFF786FC824600BF00BF21480F
:102C2000083005682C0E00BF00BF5046FFF77EFC41
:102C300000BF00BF32E04FF0E0204068401C102190
:102C400001EB401000F0FF094E4525DAA6F1100017
:102C5000C11700EB9171C1F38707C11700EB9171A8
:102C60008910A0EB810101F0FF0800BF00BFFFF752
:102C700059FC824600BF00BF0B4850F8275000BFE8
:102C800000BF5046FFF752FC00BF00BF4FEAC8002C
:102C900025FA00F0C4B200E0044C00BF00BF20469B
:102CA000BDE8F08718ED00E000E400E00080FFFFE1
:102CB0000146412903DB5A2901DC012200E0002200
:102CC000012A08D0612903DB7A2901DC012200E016
:102CD0000022012A01D1012200E0002210467047A3
:102CE0000146412903DB5A2901DC012200E00022D0
:102CF000012A08D0612903DB7A2901DC012200E0E6
:102D00000022012A01D1012200E00022012A08D07C
:102D1000302903DB392901DC012200E00022012AED
:102D200001D1012200E000221046704701466129CE
:102D300003DB7A2901DC012200E000221046704703
:102D40000146412903DB5A2901DC012200E000226F
:102D5000104670470146302903DB392901DC012286
:102D600000E00022104670470146302903DB372976
:102D700001DC012200E000221046704701463029A4
:102D800001DB392907DD412901DB462903DD612902
:102D900003DB662901DC012200E0002210467047B7
:102DA0000146202901D0092901D1012200E0002299
:102DB000104670470146202909D00D2907D00A295D
:102DC00005D00C2903D0092901D00B2901D10122FA
:102DD00000E00022104670470146202903DB7E29CF
:102DE00001DC012200E00022104670470146212943
:102DF00003DB7E2901DC012200E00022104670473F
:102E00000146202903DB7E2901DC012200E00022AB
:102E1000012A35D1202909D00D2907D00A2905D04A
:102E20000C2903D0092901D00B2901D1012200E08E
:102E300000222ABB412903DB5A2901DC012200E0E0
:102E40000022012A08D0612903DB7A2901DC012252
:102E500000E00022012A01D1012200E00022012A23
:102E600008D0302903DB392901DC012200E00022EF
:102E7000012A01D1012200E000220AB9012200E06A
:102E800000221046704701464AB2002A01DB1F2982
:102E900001DD7F2901D1012200E0002210467047A8
:102EA0000146412903DB5A2901DC012200E000220E
:102EB000012A02D101F1200200E00A46D0B2704797
:102EC0000146612903DB7A2901DC012200E00022AE
:102ED000012A02D1A1F1200200E00A46D0B27047D7
:102EE000F0B504460B462046FFF7EAFF05461846B4
:102EF000FFF7E6FF0646B54201D1012000E00020C1
:102F000007463846F0BD000070B50446002500BFF6
:102F100000BFFFF707FB054600BF00BF184804606D
:102F200000BF00BF2846FFF701FB00BF00BF70BD18
:102F300010B50120FFF7E8FF10BD014643F239024A
:102F4000104B03FB012222F00040704770B50026B1
:102F500000BF00BFFFF7E6FA064600BF00BF084803
:102F600005682846FFF7E9FF04460548046000BFEE
:102F700000BF3046FFF7DAFA00BF00BF204670BD41
:102F8000300000206D4EC641FC48FD4901600146FD
:102F9000416000218160C160016141618161C16165
:102FA00001620163C1624162F6498163C1634FF40A
:102FB0008061016441640146F34A116070472DE964
:102FC000F04105460B4694460027002402E03F02EC
:102FD0001F43641C042CFAD3604605F003062946FF
:102FE00046B1344603E001F8013B401E641C08B1C1
:102FF000042CF8D30A4601E080C2001F0428FBD24B
:10300000114602E001F8013B401E0028FAD1BDE85C
:10301000F08130B505460C46224600212846FFF7D0
:10302000CEFF30BD2DE9F04F85B00746884691466A
:1030300046463D46AE4207D94A464146384601F02B
:103040001DF905B0BDE8F08F4C4607EB0900451EA1
:1030500008EB0900461EA81B04900498042834D3EA
:1030600005F00300029006F003010191DDE9011073
:10307000884201D1012000E0002000900098012842
:1030800023D10298032810D0029840B2039008E0A0
:1030900016F8010905F80109641E0398401E40B2A4
:1030A000039014B103980028F2DAA5F1030AA6F1FF
:1030B000030B04E05BF804094AF80409241F042CFC
:1030C000F8D20AF103050BF1030604E016F8010932
:1030D00005F80109641E002CF8D100BFB1E72DE905
:1030E000F84F80468946154615B90120BDE8F88F8E
:1030F000B8F1000F01D10020F8E7B9F1000F01D1BC
:103100000020F3E70124294608EB050209EB05033B
:1031100002F0030C03F0030BDC4501D1012000E0B9
:10312000002000900098012829D1BCF1000F12D096
:10313000E2460AE0521E5B1E107893F800E07045EC
:1031400000D00024491EAAF1010A012C03D111B1BB
:10315000BAF1000FEED1012C11D116461F4608E03E
:10316000361F3F1F3068D7F800E0704500D00024BC
:10317000091F012C01D10429F2D232463B4608E056
:10318000521E5B1E107893F800E0704500D00024BA
:10319000491E012C01D10029F2D12046A6E7F0B545
:1031A00003460E461546D96BB1FBF5F005FB101C26
:1031B000BCF1000F02D0A5EB0C0200E00022941934
:1031C000586CA04201D20020F0BD0F191144DF63FA
:1031D000586C001B58640846F6E72DE9F041064696
:1031E0000F46B6FBF3FC03FB1C6109B15C1A00E05F
:1031F0000024B2FBF3FC03FB1C2109B15D1A00E0C3
:10320000002502EB0508A7F1010C08FB0C4C0CEBA8
:103210000200BDE8F0812DE9FE4F80468946144644
:103220001E46002000900CB901AC00BF00202060B9
:10323000524F00BF00BFFFF775F9009000BF00BFFD
:10324000F86B0290D7F844B04B46424601210298F1
:10325000FFF7C3FF05465D450FD900BF00BF0098CB
:10326000FFF764F900BF00BFA5EB0B00206042F23E
:10327000E27030800020BDE8FE8F4A464146384665
:10328000FFF78DFF8246BAF1000F0CD100BF00BFDF
:103290000098FFF74BF900BF00BF256042F2E270D3
:1032A00030800020E7E700BF00BF0098FFF73EF93D
:1032B00000BF00BF42F2107030805046DBE72DE9BE
:1032C000FC5F07460C4690460020009000BF00BF00
:1032D000FFF728F9009000BF00BFD7F80490D9F895
:1032E000380008B1484600E024488246DAF84450E5
:1032F000DAF83CB000BF00BF0098FFF717F900BF35
:1033000000BF012C0AD9BBFBF4F004FB10B60EB1D0
:10331000A01B00E00020019001982D1A42F21070CD
:10332000A8F800002846BDE8FC9F70B504460D468D
:103330002A4621461148FFF7C2FF0646304670BDB7
:1033400018B942F211720A807047104A02600022D6
:1033500042608260C260026142618261C261026257
:10336000826242630263C26242628263C263026437
:10337000426442F210720A8000BFE5E704060020B2
:10338000484541504C060020340000204E4F4E4529
:103390002DE9FF4F91B00446DDE92089002000901F
:1033A000B8F1000F02D10DF1180800BF0020C8F8D5
:1033B000000049462046FFF7C3FFB9F80000A0F51A
:1033C0001C51103902D015B0BDE8F08FFE480068DE
:1033D00020B942F2E770A9F80000F4E7DFF8ECA3A7
:1033E0000020059000BF00BFFFF79CF8009000BFD1
:1033F00000BF129880BB5546AB462E46DAF83C001B
:103400000D9004231A4614990D98FFF7E6FE0490D8
:1034100004990D9808440C90DDE91E2314990C982A
:10342000FFF7DBFE0390DDE9030108440590DAF8BD
:1034300044700598B8427DD900BF00BF0098FFF7DF
:1034400075F800BF00BF0598C01BC8F8000042F225
:10345000E270A9F80000B6E7FFE712980B90DDE9EB
:1034600012010844401E0A900025AB46D648066863
:103470003BE0B16B1298814205D1316C13988142C7
:1034800001D1354633E0B06B0990316CB06B084424
:10349000401E0890DDE90901814200D227E0099928
:1034A0000B98884203D8DDE9091088420FD20999A8
:1034B0000B98884203D308990A98884207D908993B
:1034C0000B9888420FD808990A9888420BD300BFFE
:1034D00000BF0098FFF72AF800BF00BF42F27F70DC
:1034E000A9F800006FE7B346F668002EC1D100BF0F
:1034F00045B925461298A0631298E063139820649A
:1035000013986064DAF83C000D9004231A4614996D
:103510000D98FFF762FE0490DAF844700498B84200
:1035200011D900BF00BF0098FFF700F800BF00BF2F
:10353000049800E024E0C01BC8F8000042F2E270EA
:10354000A9F800003FE7E86B0C90DDE91E23149911
:103550000C98FFF742FE03906F6C0398B8420FD9A6
:1035600000BF00BF0098FEF7E1FF00BF00BF039857
:10357000C01BC8F8000042F2D870A9F8000022E78A
:10358000149880000290042250460299FFF707FE2B
:103590000F900F9830BBDAF8447000BF00BF00985E
:1035A000FEF7C4FF00BF00BF129858B90598B84293
:1035B00004D90598C01BC8F800000EE00598C8F8AB
:1035C00000000AE00298B84204D90298C01BC8F86B
:1035D000000002E00298C8F8000042F2E270A9F888
:1035E0000000F0E60020019034E02846DDE91E12DC
:1035F000FFF7D5FD0E900E9820BBE86B0C906F6C1A
:1036000000BF00BF0098FEF791FF00BF00BF019907
:103610001498401A0790DDE91E2307990C98FFF7CC
:10362000DCFD05900598B84204D90598C01BC8F880
:10363000000002E00598C8F8000042F2D870A9F82E
:103640000000C0E6019ADDE90E0141F82200019870
:10365000401C0190149901988842C6D3A5420DD10F
:10366000C4F808B0E660BBF1000F02D0CBF80C4004
:1036700001E0554804605EB1B46009E068691090EB
:103680002561109860616C61109808B11098046110
:103690004F48206065600C98A06103990C9808441D
:1036A000401EE0610F9820620398A0621F9860633B
:1036B0001E9820631498E0621498606200BF00BFF7
:1036C0000098FEF733FF00BF00BF42F21070A9F868
:1036D000000000BF77E62DE9F04104460D460027C3
:1036E00000BF00BFFEF71EFF074600BF00BF666AAF
:1036F00000BF00BF3846FEF719FF00BF00BF42F20F
:10370000107028803046BDE8F0812DE9F041044674
:1037100088461546002700BF00BFFEF703FF074697
:1037200000BF00BF606A60B900BF00BF3846FEF747
:10373000FDFE00BF00BF42F2DE7028800020BDE821
:10374000F081E16A606A88420BD900BF00BF384649
:10375000FEF7ECFE00BF00BF42F29570288000200B
:10376000EDE7606A401E6062D4E9080150F821600C
:1037700000BF00BF3846FEF7D9FE00BF00BF42F2CF
:10378000107028803046DAE72DE9F04704460F46EE
:1037900015464FF0000900BF00BFFEF7C3FE81468B
:1037A00000BF00BFE06AC01B461EE06AB04213D8EB
:1037B00000BF00BF4846FEF7B9FE00BF00BF42F29F
:1037C00095702880002005E03400002004060020C9
:1037D000504F4F4CBDE8F087606AB0420BD900BF34
:1037E00000BF4846FEF7A2FE00BF00BF42F2957040
:1037F00028800020E7E7206A50F8268000BF00BF3D
:103800004846FEF793FE00BF00BF42F210702880CA
:103810004046D8E72DE9F04704460E4617464FF0DC
:10382000000A00BF00BFFEF77DFE824600BF00BF5A
:10383000E16A606A88420BD300BF00BF5046FEF7C2
:1038400075FE00BF00BF42F2DD703880BDE8F08732
:103850004FF00008656A08E0206A50F82590B145ED
:1038600002D14FF0010803E06D1CE06AA842F3D8D2
:1038700000BFB8F1010F06D1D4E9080150F82100CA
:10388000216A41F82500D4E9080140F82160606A06
:10389000401C606200BF00BF5046FEF747FE00BFFD
:1038A00000BF42F21070388000BFCFE72DE9F84F1B
:1038B00004460F461646002000904FF0FF3B00BF25
:1038C00000BFFEF72FFE009000BF00BFE16A606AF4
:1038D00088420CD300BF00BF0098FEF727FE00BF50
:1038E00000BF42F2DD7030805846BDE8F88F4FF0DF
:1038F0000009656A08E0206A50F82580B84502D1C1
:103900004FF0010903E06D1CE06AA842F3D800BF44
:10391000B9F1010F0FD1E06A401EA0EB050A00BF0C
:1039200000BF0098FEF702FE00BF00BF42F2107019
:1039300030805046D9E700BF00BF0098FEF7F6FD83
:1039400000BF00BF42F2887030805846CDE70000CB
:1039500010B502460B461146002001E0491C401CF0
:1039600019B10C780CB19842F8D310BD30B50446AB
:103970004FF0FF312046FFF7EBFF0546284630BDEC
:1039800070B504460D4616460CB9002070BD0DB941
:103990000020FBE721462A46002304E01078087047
:1039A000491C521C5B1C21B11AB1107808B1B342FA
:1039B000F4D301B10AB90020E8E7B34201D20020F4
:1039C00008702046E2E770B504460D464FF0FF321E
:1039D00029462046FFF7D4FF0646304670BD70B535
:1039E00003460C4615460BB9002070BD0CB90020EB
:1039F000FBE70DB91846F8E7194600E0491C11B17C
:103A000008780028FAD109B90020EEE722460026FE
:103A100004E010780870491C521C761C21B11AB1C0
:103A2000107808B1AE42F4D301B10AB90020DCE746
:103A3000002008701846D8E770B504460D464FF0D0
:103A4000FF3229462046FFF7CAFF0646304670BDC2
:103A50002DE9F04305460B469446BCF1000F02D118
:103A60000020BDE8F08335B90BB90020F9E71878DC
:103A700042421046F5E713B92A781046F1E7294685
:103A80001C460F4626467F1C761C4FF0000805E0BA
:103A9000491C641C7F1C761C08F10108087894F806
:103AA0000090484505D1087818B117B10EB1E0452E
:103AB000EED3E04501D10020D3E7087894F80090D8
:103AC000484505D0087894F80090A0EB09020BE077
:103AD000087808B9002207E02FB90EB9002203E0E8
:103AE0003078424200E03A781046BAE770B50446B2
:103AF0000D464FF0FF3229462046FFF7A9FF064644
:103B0000304670BD2DE9F74F82B080460E460498CE
:103B100018B9002005B0BDE8F08FB8F1000F09D149
:103B20000EB90020F6E73078FFF7BAF907467C4275
:103B30002046EFE73EB998F80000FFF7B1F90546D7
:103B40002C462046E6E7C146B246C846C34656461E
:103B5000CDF804A0D8460BF1010B019E701C01901A
:103B6000C84699F80000FFF79BF9054656469AF8B3
:103B70000000FFF795F907460020009015E009F1D5
:103B800001090AF1010A0BF1010B0198401C019097
:103B90000098401C009099F80000FFF781F9054655
:103BA0009AF80000FFF77CF90746BD420BD199F85F
:103BB000000040B1BBF1000F05D0019818B1049985
:103BC00000988842DBD304990098884201D10020F4
:103BD000A0E7BD4201D0EC1B16E00DB9002413E0B4
:103BE000BBF1000F0AD1019808B900240CE001993B
:103BF0000878FFF755F907467C4205E09BF800007E
:103C0000FFF74EF905462C46204683E770B504467B
:103C10000D464FF0FF3229462046FFF773FF064658
:103C2000304670BD30B504460B4615460CB9002031
:103C300030BD0BB90020FBE72146002201E0491C02
:103C4000521C31B1087820B10878A84201D09A42BC
:103C5000F5D309B90020EBE79A4201D30020E7E74A
:103C60000878A84201D00020E2E70846E0E770B5F6
:103C700005460C4622464FF0FF312846FFF7D2FF9B
:103C80000646304670BD2DE9F04305460E46174600
:103C900015B90020BDE8F0830EB90020FAE72C46E4
:103CA000A6F1010949462046FFF752FE80464444EA
:103CB0000CB90020EEE700E0641EAC4202D0207890
:103CC000B842F9D12078B84201D00020E2E720467E
:103CD000E0E770B505460C4622464FF0FF31284616
:103CE000FFF7D1FF0646304670BD70B504460D465D
:103CF00016460CB9002070BD0BB90020FBE7214629
:103D00001A4605E00878A84200D10E70491C521EE0
:103D100019B1087808B1002AF4D12046EBE7F0B5D4
:103D200004460D4616464FF0FF33324629462046DC
:103D3000FFF7DBFF07463846F0BD2DE9FF4F06468B
:103D40000F4615461EB9002004B0BDE8F08F0FB92C
:103D50000020F9E70DB90020F6E7681C00D001E06B
:103D60004FF0FF30039029463046FFF7F1FD8046C3
:103D700038460399FFF7ECFD04460CB93046E3E7FB
:103D8000444501D90020DFE706EB080BBBF1000F2B
:103D900001D10020D8E707EB040BBBF1000F01D1E4
:103DA0000020D1E7A8EB040002904FF000090020AA
:103DB000019000BF06EB09000090224639460098AA
:103DC000FFF746FE8246BAF1000F01D1012000E064
:103DD0000020019009F10109019810B9029881456C
:103DE000E8D9BAF1000F01D00020ADE70098ABE7A9
:103DF00070B504460D464FF0FF3229462046FFF7C6
:103E00009CFF0646304670BD2DE9FF4F8DB00F4632
:103E100015461A9E1D9818B9002011B0BDE8F08F04
:103E2000002003900490012F01DA01200390022D5D
:103E300001D3242D01D90120039096B33046FEF71B
:103E4000CBFF02900298012802D00120039028E0C5
:103E5000302E26D0A6F13000C0B207901B98012862
:103E600004D0A6F14100C0B2069003E0A6F16100C3
:103E7000C0B206900A2D02D80798A84209DB0A2D85
:103E800009D907980A2804D3A5F10A00069988429F
:103E900001D9012000E0002005900598012800D1FB
:103EA00003901D9C0398002846D1DDF834A0DDF86E
:103EB00034A0CDF830A001200B9007E00B98401CF7
:103EC000C0B20B900C98B0FBF5F00C900C98A84287
:103ED000F4D21098012800D100E0002009900B993D
:103EE00009980844B84225DC002001900B98B8429C
:103EF00001DA0B9800E038460A903EB1B8460A98BD
:103F0000391A0998081AC0B2089006E0DDE90910CC
:103F1000084400F0FF08002008900898002806DDFB
:103F2000302E01D1012000E00020049004E00020A8
:103F3000049001E001200390039800B1B846444486
:103F40001C9808B100202070641E4FF0000941E069
:103F50000398A8BBBAF1000F02D1B9F1000F1CD130
:103F6000BAFBF5F005FB10A000F0FF0BBBF10A0F48
:103F700004D20BF1300004F801090BE01B98012872
:103F800004D00BF1370004F8010903E00BF15700EE
:103F900004F80109BAFBF5FA1AE01098012810D1CB
:103FA000049808B9019828B1049850B1A8F101000B
:103FB000484506D12D2004F801090120019007E0B1
:103FC00003E02EB104F8016902E03F2004F8010982
:103FD00009F10109C145BBD3039808B100201CE7D2
:103FE0001D981AE72DE9FF5F05460E4617461C4649
:103FF000DDE90F9ADDF8388000233A46314628463D
:104000008DE81007FFF700FF8346584604B0BDE86F
:10401000F09F2DE9FF4F85B0044689461F46DDE934
:1040200013AB002C02DA6542012601E0254600268A
:1040300012983346CDE902ABCDE9007049462846D7
:10404000079AFFF7E1FE8046404609B0BDE8F08FD1
:104050002DE9FF4F8BB0064689461546B9F1000F92
:1040600002D10DF1240900BFC9F80060189810B9F9
:1040700007A8189000BF0021189801701EB90020F1
:104080000FB0BDE8F08F012D01D0242D01D9002003
:10409000F6E734462078FEF78DFE039004E0641CBA
:1040A0002078FEF787FE039003980128F7D0207848
:1040B0002B2802D02D280BD103E0641C4FF0000BFD
:1040C00009E00E98012800D1641C4FF0010B02E0BA
:1040D0004FF0000B00BF00BF0A9425B1082D1CD083
:1040E000102D36D11EE02078302814D1641C2078A1
:1040F000582802D078280BD100BF102567783846A1
:10410000FEF73CFE8246BAF1010F00D1641C01E0CB
:10411000082500BF00E00A251CE02078302800D1E7
:10412000641C17E02078302812D1641C20785828AD
:1041300002D078280AD100BF67783846FEF71EFE05
:104140008246BAF1010F00D1641C00E000BF00BF3D
:1041500000E000BF00BF4FF0000800200290019077
:1041600040E027783846FEF7BBFD0590059801280A
:1041700036D13846FEF7EEFD06900698012804D1A8
:10418000A7F13000C0B208900FE03846FEF7CEFD30
:1041900004900498012804D1A7F15700C0B20890F8
:1041A00003E0A7F13700C0B208900898A84214DADB
:1041B000029880B9304850F82500404509D308FBE3
:1041C00005F8089880440898804504D201200290A0
:1041D00001E001200290641C04E00120019001E054
:1041E0000120019001980028BBD00298012801D13C
:1041F0004FF0FF380A98844202D0C9F8004001E02D
:10420000C9F80060189880F800B0404638E7F8B563
:1042100004460D46164600200346324629460090C5
:104220002046FFF715FF07463846F8BD2DE9FC414B
:1042300005460E46174601A801233A46314600902E
:104240002846FFF705FF04469DF8040040B9B4F185
:10425000004F02D36FF0004000E02046804607E0A8
:10426000B4F1004F02D34FF0004000E060428046BE
:104270004046BDE8FC81000048A60008002800D1A7
:104280007047002900D17047002A00D170472DE9FE
:10429000F81F00F0030301F00304A34211D1C3F19E
:1042A000040303F00303012B1DD3012A00D2F2E023
:1042B00011F8014B00F8014BA3F10103A2F1010237
:1042C000F1E700F0010301F00104A34200D094E003
:1042D000012B44D311F8014B00F8014BA3F101036A
:1042E000A2F10102F4E7B2F5B47F26D3B1E8F81FDA
:1042F000A0E8F81FB1E8F81FA0E8F81FB1E8F81F20
:10430000A0E8F81FB1E8F81FA0E8F81FB1E8F81F0F
:10431000A0E8F81FB1E8F81FA0E8F81FB1E8F81FFF
:10432000A0E8F81FB1E8F81FA0E8F81FB1E8F81FEF
:10433000A0E8F81FA2F5B472D5E7282A06D3B1E8A1
:10434000F81FA0E8F81FA2F12802F6E7042A06D316
:1043500051F8043B40F8043BA2F10402F6E7202A9E
:1043600042D331F8023B20F8023B31F8023B20F8FF
:10437000023B31F8023B20F8023B31F8023B20F8C7
:10438000023B31F8023B20F8023B31F8023B20F8B7
:10439000023B31F8023B20F8023B31F8023B20F8A7
:1043A000023B31F8023B20F8023B31F8023B20F897
:1043B000023B31F8023B20F8023B31F8023B20F887
:1043C000023B31F8023B20F8023B31F8023B20F877
:1043D000023B31F8023B20F8023B31F8023B20F867
:1043E000023BA2F12002BAE7022A06D331F8023BCF
:1043F00020F8023BA2F10202F6E7102A42D311F89C
:10440000013B00F8013B11F8013B00F8013B11F8BA
:10441000013B00F8013B11F8013B00F8013B11F8AA
:10442000013B00F8013B11F8013B00F8013B11F89A
:10443000013B00F8013B11F8013B00F8013B11F88A
:10444000013B00F8013B11F8013B00F8013B11F87A
:10445000013B00F8013B11F8013B00F8013B11F86A
:10446000013B00F8013B11F8013B00F8013B11F85A
:10447000013B00F8013B11F8013B00F8013BA2F1C0
:104480001002BAE7012A06D311F8013B00F8013BFC
:10449000A2F10102F6E7BDE8F81F704710B5F94830
:1044A000006810B1F7480068804710BDF648006802
:1044B000F649096800EB8100F54908600846006884
:1044C00020F007000860704710B5F248006810B18E
:1044D000F0480068804710BD10B50446EE480068FB
:1044E00018B12046EC490968884710BD10B504464C
:1044F000EA48006818B12046E8490968884710BDB5
:1045000010B50446E648006818B12046E449096839
:10451000884710BDF0B50446DDE9055602EB85007D
:1045200020F007004FF0807C071F3846C7F800C016
:10453000071F38463C60DFF86CC3071F3846C7F8D2
:1045400000C04FF0123C071F3846C7F800C04FF0BC
:10455000033C071F3846C7F800C04FF0023C071F56
:104560003846C7F800C0071F38463B60071F38466B
:1045700039604FF0113C071F3846C7F800C04FF0B4
:10458000103C071F3846C7F800C04FF0093C071F12
:104590003846C7F800C04FF0083C071F3846C7F838
:1045A00000C04FF0073C071F3846C7F800C04FF067
:1045B000063C071F3846C7F800C04FF0053C071FF0
:1045C0003846C7F800C04FF0043C071F3846C7F80C
:1045D00000C016F0040F7CD04FF0007C071F384657
:1045E000C7F800C0DFF8C0C2071F3846C7F800C0D0
:1045F000DFF8B8C2071F3846C7F800C0DFF8B0C2FE
:10460000071F3846C7F800C0DFF8A8C2071F3846A2
:10461000C7F800C0DFF8A0C2071F3846C7F800C0BF
:10462000DFF898C2071F3846C7F800C0DFF890C20D
:10463000071F3846C7F800C0DFF888C2071F384692
:10464000C7F800C0DFF880C2071F3846C7F800C0AF
:10465000DFF878C2071F3846C7F800C0DFF870C21D
:10466000071F3846C7F800C0DFF868C2071F384682
:10467000C7F800C0DFF860C2071F3846C7F800C09F
:10468000DFF858C2071F3846C7F800C0DFF850C22D
:10469000071F3846C7F800C04FF0834C071F384645
:1046A000C7F800C0DFF83CC2071F3846C7F800C093
:1046B000DFF834C2071F3846C7F800C0DFF82CC245
:1046C000071F3846C7F800C0DFF824C2071F384666
:1046D00000E049E0C7F800C0DFF818C2071F3846FD
:1046E000C7F800C0DFF810C2071F3846C7F800C07F
:1046F000DFF808C2071F3846C7F800C04FF0824CE9
:10470000071F3846C7F800C0DFF8F4C1071F384656
:10471000C7F800C0DFF8ECC1071F3846C7F800C073
:10472000DFF8E4C1071F3846C7F800C04FF0814CDE
:10473000071F3846C7F800C0DFF8D0C1071F38464A
:10474000C7F800C04FF0804C071F3846C7F800C0BC
:104750004FF07E5C071F3846C7F800C04FF0000CD2
:10476000071F3846C7F800C0F0BD10B5684800689C
:1047700090F83C0010F0040F04D0654909680868FF
:1047800005F078FE6348006890F83C0010F0040FD4
:1047900004D060490968086805F079FE5E48006841
:1047A00010B15D4800688047FDF775F80446584829
:1047B000006858490968884215D055480068D0F803
:1047C0008C00201A52490968C1F8880050480068D6
:1047D000D0F890004E490968D1F8881008444C4937
:1047E0000968C1F890004B480068C0F88C40484800
:1047F0000068D0F8A80049490968884205D24748AE
:10480000006843490968C1F8A800002043490860CE
:1048100010BD10B54248006810B14148006880479B
:1048200010BD10B5002400BF00BFFDF77BFE04469D
:1048300000BF00BF3B480078401C3A49087000BFE9
:1048400000BF2046FDF772FE00BF00BF05F0CBF9A8
:1048500000F055F910BD01464A1E4FF0E0235A61A1
:10486000314A106820F07F4000BF10601A4612697C
:1048700042F005021A611A46126942F002021A61F8
:10488000704700005000002008A700080CA700088F
:104890003800002054000020440000204800002080
:1048A0004C000020AB9300080000F8410000F041EC
:1048B0000000E8410000E0410000D8410000D04184
:1048C0000000C8410000C0410000B8410000B041F4
:1048D0000000A8410000A041000098410000904164
:1048E000000088410000704100006041000050411C
:1048F0000000404100003041000020410000104114
:104900000000E0400000C0400000A0400000404027
:104910000001002004010020580000209400002025
:104920005C0000206400002020ED00E070470000E3
:10493000002419E000BF00BFFDF7F4FD044600BFEE
:1049400000BFFE480068401CFC490860FC48006845
:10495000401CFB49086000BF00BF2046FDF7E6FD94
:1049600000BF00BFFFF79AFDE4E710B58AB0044628
:104970000020F24908600B2000210591CDE90704D1
:1049800006910846EF490968EF4A1268EF4B1B6829
:10499000CDE90132CDE903103F200023AFF26F02D1
:1049A000EBA10090EF4803F0A6FC0AB010BD002177
:1049B0000AE001EB4102EC4B03EB82000022028192
:1049C000026042604A1CD1B24029F2D3704770B5F0
:1049D0000446FFF76BFD0020E4490870E4490870C5
:1049E000E4490870E4490860E4490860E449087053
:1049F000E4490870E4490870E4490860E449086043
:104A0000E4490860E448006858B1E448056845B1E5
:104A1000E148066803E0761E002028602D1D002E68
:104A2000F9D10020DE490860DE490860DE490860EF
:104A3000DE490860DE490860DE490860DE4908603A
:104A4000DE49087002F070F9FFF7B1FF204601F06F
:104A500085FB208800B170BD204601F07EFC2088D7
:104A600000B1F8E7204601F087FC208800B1F2E7AA
:104A7000204602F045F9208800B1ECE7204602F01C
:104A8000ECFC208800B1E6E7204603F05CF82088C3
:104A900000B1E0E7204604F07FFC208800B1DAE7AF
:104AA0002046FFF762FF208800B1D4E7204604F0DB
:104AB0007DFD208800B1CEE7204603F0C2FA2088B1
:104AC00000B1C8E7204605F08AFB208800B1C2E7A4
:104AD00000F006FDFFF72AFF00BFBCE7A4480078FE
:104AE000012800D07047A1480078FA2800DBF9E7D8
:104AF0009E480078401C9D49087000BFF2E710B541
:104B000000249B480078012800D010BD00BFFDF7AD
:104B100009FD044600BF9548007828B900BF20462B
:104B2000FDF704FD00BFF0E790480078401E8F4974
:104B3000087008460078002805DD00BF2046FDF714
:104B4000F5FC00BFE1E78B480078002805DD00BFD9
:104B50002046FDF7EBFC00BFD7E702F0EFF88949EC
:104B600008700846007800EB40007F4951F82000AB
:104B700082490860084600687F490968884205D173
:104B800000BF2046FDF7D2FC00BFBEE77B480068AF
:104B9000D0F88400401C79490968C1F8840088482D
:104BA0000068401C8649086005F090FC00BF204664
:104BB000FDF7BCFC00BF00BFA7E710B500246B48A1
:104BC0000078002800DD10BD6A480078002800DD6C
:104BD000F9E700BFFDF7A6FC044600BF02F0AEF8FF
:104BE000684908700846007800EB40005E4951F8BB
:104BF000200062490860084600685F4909688842E9
:104C000005D100BF2046FDF791FC00BFDBE75B4804
:104C10000068D0F88400401C58490968C1F8840035
:104C200067480068401C6649086005F04AFC00BF00
:104C30002046FDF77BFC00BF00BFC4E710B54D4820
:104C40000078012803D1FCF726FE5049086010BD0A
:104C500070B50446002545480078002803DD46F677
:104C60006250208070BD42480078012803D045F68C
:104C700089602080F6E73F480078FA2803DB45F298
:104C800009202080EEE700BF00BFFDF74BFC054682
:104C900000BF00BF37480078401C36490870FFF756
:104CA000CDFF00BF00BF2846FDF740FC00BF00BF9E
:104CB0000020208000BFD5E710B52E48007880B9CD
:104CC000FCF7E9FD31490968441A31480068A042FF
:104CD00001D22F4804602F480068A04201D22D481D
:104CE000046010BD70B504460025204800780028F7
:104CF00003DD46F66550208070BD1D480078012810
:104D000003D045F689602080F6E71A48007818B984
:104D100046F664502080EFE700BF00BFFDF702FCBD
:104D2000054600BF00BF13480078401E11490870B7
:104D30000846007800284FDD00BF43E060000020F7
:104D4000A8000020E4A60008E0A60008DCA60008F1
:104D500075432F4F532D4949492049646C652054B0
:104D600061736B008C1A0020501B0020640000202F
:104D700065000020980000200001002004010020B0
:104D80007E0000207F000020800000208C0000209A
:104D900090000020940000200CA7000808A700083D
:104DA00044000020480000204C000020500000205B
:104DB00054000020580000205C000020C6000020A5
:104DC000BC00002000BF2846FDF7B0FB00BF00BFBD
:104DD00046F6635020808FE7FFF76EFF00BF00BFED
:104DE0002846FDF7A3FB00BF00BFFFF7E6FE00204B
:104DF000208000BF80E710B50446FB480078E8B982
:104E000001F09CFFF949087008460078F8490870DD
:104E1000F648007800EB4000F64951F82000F649CA
:104E2000086008460068F54908600120EE490870EE
:104E300005F036FB43F69920208002E045F68A60B3
:104E4000208010BD01460020088047F2C1607047F5
:104E500030B548B14568C1F8B45000F10804226883
:104E600093681D6AC56113E091F83450022D02D099
:104E7000072D08D103E0E2A5C1F8B45007E0E2A590
:104E8000C1F8B45003E0E3A5C1F8B45000BF00BFBF
:104E900030BDF0B58E6896F8375007893FB90127C5
:104EA000078100274F600F600160416023E00789A0
:104EB0007F1C0781026806E0946894F83770AF425F
:104EC00000DD02E05268002AF6D100BF32B90027A7
:104ED0004F6043680B60596041600CE017682FB960
:104EE000116000270F604A60016004E013680B60E6
:104EF0004A6059601160F0BD10B5C287016300239C
:104F00000AE000244C600C600C614C610C83CC61A5
:104F1000886020315C1CA3B29342F2DB10BD2DE906
:104F2000F041054695F8370000EB4000B14901EB30
:104F300080042F69EE6887B946B90020208120607F
:104F4000606095F8370001F01BFF0EE02089401EDD
:104F5000208100203061266007E02089401E2081EA
:104F6000FE600EB9676000E0376100202861E860EC
:104F7000BDE8F08170B504460D4645B12A4621468C
:104F8000A54804F05AFB032084F8360002E0022012
:104F900084F836002046FFF7C2FF70BD2DE9F041CE
:104FA00005460C4616461F469448006880F8346053
:104FB00000209249096881F8350039468F48006819
:104FC000FFF7D8FF6CB104F10808EC600122294614
:104FD0008A480068FFF790FF29464046FFF759FFCF
:104FE00006E0002085490968C88784490968086384
:104FF000824801682046FFF72BFFBDE8F08110B51D
:105000000489012C03D100240460446011E00C6881
:1050100024B94A680024146002600AE04C6824B98C
:105020000B6800245C60436003E00B684A685A60C8
:1050300013600489641E048100244C600C6010BD60
:105040002DE9F0410446256BE68F0AE0D5F80C8087
:1050500008F1080729463846FFF7D1FF2035701EB2
:1050600086B2002EF2DC0020E0872063BDE8F081EC
:1050700030B50346086BCC8F08E0C5689D4202D16D
:105080000361C26104E02030651EACB2002CF4DC88
:1050900000BF30BD10B590F8373003EB4303554CDB
:1050A00004EB83010B893BB901230B810023C3600F
:1050B00003610860486009E00B895B1C0B810B6889
:1050C000C360002303610A681061086010BD10B559
:1050D00090F8373003EB4303464C04EB83010B8914
:1050E0003BB901230B810023C36003610860486062
:1050F00008E00B895B1C0B810023C3604A680261D6
:10510000D060486010BD10B5044694F8370001F037
:1051100027FE94F8370036490978884203D12046A3
:10512000FFF7D5FF02E02046FFF7B4FF10BD70B5D2
:1051300005460C46164694F8360008286FD2DFE87C
:1051400000F0040508090607313200BF00BF00BFA8
:1051500066E000BF94F83400032804D132462146AB
:105160002846FFF785FF00202065A4F85400266438
:1051700015B12046FFF764FF94F83600032802D1EA
:10518000204604F0F7FA2046FFF7BDFF002004F1A7
:105190003404A0704FF0010060704FF0000004F87C
:1051A00034093DE000BF94F83400032804D13246AE
:1051B00021462846FFF75CFF00202065A4F8540034
:1051C000266415B12046FFF73BFF204604F0D2FAD3
:1051D000042004F13404A0704FF0010060704FF01F
:1051E000000004F834091BE0650000207F00002067
:1051F0007E000020501B0020040100200001002040
:105200005461736B205100005461736B2053656DC2
:105210000000000020000000D8000020FFE700BFD1
:1052200000BF70BD30B5AFF21405C1F8B45000F145
:10523000080422681AB193681D6AC56102E0AFF2E2
:105240002C05C56130BD2DE9F04304460F4684F8B6
:105250003770256BB4F83E8013E0D5F80C9009F157
:1052600008063089012807D929463046FFF7C7FECE
:1052700029463046FFF70DFE2035A8F101001FFA40
:1052800080F8B8F1000FE8D1BDE8F083002101609B
:1052900041600181704703895B1C038103684B6097
:1052A00000230B60026802B1116001600389012BC9
:1052B00000D14160704730B50346086BCC8F08E0E1
:1052C000C5689D4202D10361C26104E02030651EC1
:1052D000ACB2002CF4DC00BF30BD70B506460C4605
:1052E000154694F83600082852D2DFE800F004058D
:1052F00008090607303100BF00BF00BF49E000BF0A
:1053000094F83400032804D12A4621463046FFF79A
:10531000D2FF00202065A4F8540025642046FFF742
:105320008FFE94F83600032802D1204604F022FABA
:105330002046FFF7E8FE002004F13404A0704FF08F
:10534000020060704FF0000004F8340921E000BF53
:1053500094F83400032804D12A4621463046FFF74A
:10536000AAFF00202065A4F8540025642046FFF71A
:1053700067FE204604F0FEF9042004F13404A07016
:105380004FF0020060704FF0000004F8340900E0B4
:1053900000BF00BF70BDF0B50446059E086BCD8F01
:1053A0000AE0C768A74204D1046142610383C66171
:1053B00004E020306F1EBDB2002DF2DC00BFF0BD56
:1053C0002DE9F84306460C4617469846089D94F882
:1053D000360008285ED2DFE800F004050809060759
:1053E000333400BF00BF00BF55E000BF94F8340065
:1053F000032807D143463A46214630460095FFF739
:10540000CAFF03E02765A4F85480256436B120461E
:10541000FFF716FE21463046FFF704FF94F83600EA
:10542000032802D1204604F0A5F92046FFF76BFEC1
:10543000002004F13404A070607004F834092AE0FC
:1054400000BF94F83400032807D143463A4621466A
:1054500030460095FFF79FFF03E02765A4F85480CE
:10546000256436B12046FFF7EBFD21463046FFF7B5
:10547000D9FE94F83600072802D1204604F07AF9C4
:10548000042004F13404A0704FF00000607004F8B0
:10549000340900E000BF00BFBDE8F88310B5014645
:1054A0000C8924B1012C03D0022C0CD101E000BFE7
:1054B00014E008684A6802610024C4601461D06086
:1054C0000A6048600AE008684A68C36800241C61F2
:1054D000C4600261D0600B60486000BF00BF10BDB7
:1054E000244A2549254A264A2649274A2748284A40
:1054F000284A294A294A2A482A482B4A2B482C4A12
:105500002C482D4A2D482E482E482F482F4A304AE5
:10551000304A3148314A324A3248334833483448B5
:10552000344835483548364A364A374A374A384883
:1055300038483948394A3A4A3A4A3B483B483C4855
:105540003C493D483D4A3E4A3E4A3F4A3F4A404A1E
:10555000404A4148414A424A42484348434A444AF1
:105560004448454A454A4648464800BF00BF00BF38
:105570007047000070A70008D4A8000871A70008B1
:1055800072A7000874A7000878A700087CA7000885
:1055900079A70008A4A70008A5A70008A6A70008E7
:1055A000A8A70008AAA70008AEA70008B0A700088F
:1055B000D0A70008D2A70008D4A70008D6A70008E3
:1055C000D8A70008DAA70008DCA7000808A8000888
:1055D00009A800080AA800080CA800080EA80008DE
:1055E0000FA8000810A8000812A8000814A80008B6
:1055F00016A8000818A800081AA800081CA8000887
:105600004CA800084DA800084EA800084FA80008A4
:1056100050A8000852A8000854A800087CA8000858
:105620007DA800087EA800087FA8000880A80008C0
:1056300082A8000884A8000888A8000889A8000893
:105640008AA800088BA800088CA800088DA800086C
:105650008EA800088FA8000890A8000892A800084B
:1056600093A8000894A8000896A8000898A8000825
:1056700099A800089CA80008CCA80008CDA800089C
:10568000CEA80008D0A80008F7A1C161002141619F
:10569000F649096811B90021816105E0F3490968FB
:1056A0008161F24909684861F049086070472DE955
:1056B000F04104460F4616461D464FF00008EC48E0
:1056C0000078002804DD42F6E1602880BDE8F08122
:1056D0001CB945F6C3502880F8E700BF00BFFCF7AF
:1056E00021FF804600BF00BFE2482060676026625D
:1056F0000020606204F10800FFF7C8FD2046FFF7B4
:10570000C3FFDD480088401CDB49088000BF00BFA4
:105710004046FCF70BFF00BF00BF0020288000BF01
:10572000D4E770B50446D5482060D5A0606000205D
:10573000206204F108052846FFF7A8FD70BD426904
:1057400081693AB9C94B196009B100234B61002343
:10575000836109E019B900239361436104E0916119
:105760004A6100238361436170472DE9FC5F054670
:105770008846144600200090BD480078002805DDCA
:1057800043F2C92020800020BDE8FC9F25B945F6E2
:10579000C35020800020F7E7B8F1000F03D0B8F124
:1057A000010F02D100E000BF04E045F62560208033
:1057B0000020E9E700BFAF492868884204D045F6D9
:1057C000C45020800020DFE700BF00BFFCF7AAFE26
:1057D000009000BF00BF05F10809B9F8086037461E
:1057E000B8F1000F03D0B8F1010F49D120E0A7B9FB
:1057F0002846FFF7A4FFA0480088401E9E49088065
:105800002846FFF78EFF00BF00BF0098FCF78EFE12
:1058100000BF00BF0020208009E000BF00BF00984B
:10582000FCF784FE00BF00BF47F25F10208032E02B
:10583000FCF731F801900AE0D9F800A0DAF808B0D6
:1058400059462846019AFFF748FD701E86B2002E81
:10585000F2D12846FFF773FF87480088401E86492B
:1058600008802846FFF75DFF00BF00BF0098FCF7E7
:105870005DFE00BF00BFFFF7A0F9002020800AE016
:1058800000BF00BF0098FCF751FE00BF00BF45F607
:105890002560208000BF00BF384675E72DE9F04144
:1058A00006460F4614461D46DDF818807648006807
:1058B000446775480068A0F87C5000207249096868
:1058C00088674346012239463046FFF767FBBDE84B
:1058D000F0812DE9F04F8BB00546884693469946F6
:1058E000DDE914740020019061480078002806DD8D
:1058F00046F2AE10208000200BB0BDE8F08F25B935
:1059000045F6C35020800020F6E748F20101A9EBDC
:105910000100894537D01ADC40F20111A9EB0100E2
:1059200089452CD00CDCB9F1010F24D0B9F1020F5C
:1059300022D0B9F1040F20D0B9F1080F2BD11DE00E
:1059400001281DD003281CD0072824D11AE0B0F567
:10595000807F1CD006DC012816D0032815D007282C
:1059600019D113E0A0F58070013811D0022810D0B1
:10597000062810D10EE000BF00BF00BF00BF00BF6F
:1059800000BF00BF00BF00BF00BF00BF00BF00BF1F
:1059900000BF00BF04E045F6256020800020ABE793
:1059A00000BF34492868884204D045F6C45020809E
:1059B0000020A1E719F4807F02D04FF0010A01E036
:1059C0004FF0000A0FB10020386009F00F000A9074
:1059D00000BF00BFFCF7A6FD019000BF00BF0A9802
:1059E00001287DD002287CD0042802D0082879D153
:1059F0005EE0286A00EA0806464516D1BAF1010FB2
:105A000002D1286AB04328621F48006886670FB138
:105A1000686A386000BF00BF0198FCF787FD00BFCF
:105A200000BF00202080304666E719F4004F0BD0FD
:105A300000BF00BF0198FCF779FD00BF00BF46F230
:105A4000B0102080002057E71048007800281FDDA4
:105A500000BF00BF0198FCF769FD00BF00BF46F61C
:105A600063502080002047E72000000068000020ED
:105A700064000020464C41476C0000204E4F4E45CC
:105A80003F464C41470000000001002098000020E4
:105A90004B464246294602A8CDF800B0FFF7FEFE6D
:105AA00000BF00BF0198FCF741FD00BF00BFEEE062
:105AB000286A00EA0806D6B1BAF1010F02D1286AB5
:105AC000B0432862FA48006886670FB1686A386098
:105AD00000BF00BF0198FCF729FD00BF00BF02E036
