:020000040800F2
:10000000F869012081370008350700083707000824
:1000100041070008450700084907000800000000E4
:100020000000000000000000000000004D07000874
:100030004F07000800000000DF9401089F920008AD
:100040009B3700089B3700089B3700089B37000848
:100050009B3700089B3700089B3700089B37000838
:100060009B3700089B3700089B3700089B37000828
:100070009B3700089B3700089B3700089B37000818
:100080003B6C01089B3700089B3700089B37000832
:100090009B3700089B3700089B3700089B370008F8
:1000A0009B3700089B3700089B3700089B370008E8
:1000B0006F6C01083D3400089B3700089B3700082F
:1000C0009B3700089B3700089B3700089B370008C8
:1000D0009B370008ED3600089B3700089B37000867
:1000E0009B3700089B3700089B3700089B370008A8
:1000F0009B3700089B3700089B3700089B37000898
:100100009B370008B53000089B3700089B37000874
:100110009B3700089B3700089B3700089B37000877
:100120009B3700089B3700089B3700089B37000867
:100130009B3700089B3700089B3700089B37000857
:100140009B3700089B3700089B3700089B37000847
:100150009B3700089B3700089B3700089B37000837
:100160009B3700089B3700089B3700089B37000827
:100170009B3700089B3700089B3700089B37000817
:100180009B3700089B370008DFF80CD019F0C4F843
:10019000004800478B030008F869012000BF704742
:1001A00000BF000030BF72B6704762B6704780F380
:1001B0000888704710B5B94890F8560030B101284A
:1001C00008D002280AD0032810D10BE0B4A000F018
:1001D000F1FB0BE0B8A000F0EDFB07E0BCA000F0E5
:1001E000E9FB03E0C0A000F0E5FB00BF00BFAB48A7
:1001F00090F82C10C2A000F0DDFBA848B0F8541015
:10020000C6A000F0D7FBA548D0E91220030343EABB
:100210001251C6A000F0CEFBA048016DC9A000F0AD
:10022000C9FB10BD86B00026CCA011F028F985B21C
:10023000CCA000F0BFFB00240BE004EB840000EB3B
:10024000C400CD4942182146CCA000F0B3FB601C8D
:10025000C4B2AC42F1DB16F0B8FC11E006EB86004C
:1002600000EBC600C4494318BCA2C6A101A819F0FE
:1002700077F901A9C5A000F09DFBC9A016F080FC8C
:10028000ECE70EB5CEA000F095FB0BE0002001F0EE
:1002900087F802A8002128230A46CDE90010084665
:1002A0000DF06AF8F2E78CB00BA80BF048FCCAA07E
:1002B00000F080FB0BA8032100220592CDE9062166
:1002C000089011464FF40072C948D0F8CC00C84BD2
:1002D000CDE90130CDE9032101200023C54AC6A1A3
:1002E0000090CA480BF08FFEC9A000F063FBCEA0BF
:1002F00000F060FB0BA8032100220592CDE9062146
:10030000089011464FF40072CE48D0F8CC00CD4B87
:10031000CDE90130CDE9032102200023CA4ACBA157
:100320000090CE480BF06FFECDA000F043FB2BE019
:100330004021D24803F0ACFB8021D04803F0A6FB5B
:100340000BA800214FF47A730A46CDE90010084645
:100350000DF012F84021C94803F098FB8021C748EE
:1003600003F096FB0BA800214FF47A730A46CDE9FF
:10037000001008460DF000F80AA800F0E5FF04465A
:1003800014B10A9800F0E2FCD2E700B58DB005F098
:100390007AFE06F00DFD4FF4A06003F003FA4FF46F
:1003A000E13003F04DF9A82003F0C6F800F0E4FABC
:1003B00000F03FFF17F049FF00200DF068FC15E04A
:1003C000AFA000F0F7FA4FF4FA7003F0FEF8B0A017
:1003D00000F0F0FA4FF4FA7003F0F7F8B048006854
:1003E00008B9012000E00020AD49086001F048FE96
:1003F0000028E5D1FFF7DEFE0DF042FDA9490122FC
:100400000868A9A10FF0DCF90EE0A8A000F0D2FA6C
:100410004FF4FA7003F0D9F8A148006808B9012038
:1004200000E000209E4908600AAA0BA9A5A00DF0D3
:10043000BDFD0028E9D10B98810AA3A000F0BAFA0B
:100440000A98810AA6A000F0B5FA0CA808F0FDFFF2
:10045000AAA000F0AFFA0CA8032100220592CDE972
:100460000621089011464FF40072A848D0F8CC003D
:10047000A64BCDE90130CDE9032101200023A44A98
:10048000A4A10090A7480BF0BEFD0CA809F0E5F967
:10049000A5A000F08FFA00200DB000BDB01E002016
:1004A0004361726420547970653A53445343205633
:1004B000312E310D0A0000004361726420547970BE
:1004C000653A534453432056322E300D0A00000043
:1004D0004361726420547970653A5344484320560E
:1004E000322E300D0A00000043617264205479708E
:1004F000653A4D4D4320436172640D0A00000000CF
:1005000043617264204D616E7566616374757265D6
:100510007249443A25640D0A000000004361726488
:10052000205243413A25640D0A0000004361726481
:100530002043617061636974793A2564204D420DEE
:100540000A0000004361726420426C6F636B536960
:100550007A653A25640D0A0D0A0000006D7573690D
:1005600063000000BDF8C8EBD2F4C0D6B2A5B7C591
:10057000C8CECEF10A000000D829012025642E251E
:10058000730A000025732F25730000000D0ABCB408
:10059000BDABB2A5B7C5202D2D25732D2D0D0A009D
:1005A0006D757369632FB3C2D0C586B4202D20CE7C
:1005B000D2D3D6CFEBC4E3C1CB2E6D703300000095
:1005C000BDF8C8EBCFB5CDB3BCFCC5CCC9A8C3E85A
:1005D000C8CECEF10A0000000D0AD5FDD4DAB4B4BD
:1005E000BDA8CFB5CDB3C8CECEF10D0A0000000036
:1005F000E80A00208302000853797374656D205463
:1006000061736B2053746172740000004C0A002007
:100610000D0AB4B4BDA8CFB5CDB3C8CECEF1BDE1FF
:10062000CAF80D0A000000000D0AD5FDD4DAB4B4F2
:10063000BDA8D2F4C0D6B2A5B7C5C8CECEF10D0ABA
:100640000000000084130020250200086D70332094
:100650005461736B2053746172740000E8120020BF
:100660000D0AB4B4BDA8D2F4C0D6B2A5B7C5C8CEE1
:10067000CEF1BDE1CAF80D0A000000000000024002
:1006800053442043617264204572726F72210A00E4
:10069000506C6561736520436865636B21200A00B7
:1006A0009802404260290120303A00005344204320
:1006B000617264204661746673204572726F7221A4
:1006C0000000000030000000534420546F74616C3F
:1006D0002053697A653A2564204D420A00000000E3
:1006E00053442020467265652053697A653A202577
:1006F00064202020204D420A00000000B3F5CABC4F
:10070000BBAF686F6F6BBAAFCAFD0A004C02002026
:10071000A7020008417070205461736B205374610C
:1007200072740000B0010020BFAACABCC8CECEF1CE
:100730000A000000704707A000F03CF900BFFEE788
:1007400000BFFEE700BFFEE700BFFEE7704770474F
:10075000704770470AD3B2BCFEB4EDCEF3A3ACBD74
:10076000F8C8EBCBC0D1ADBBB70A00000CB5002078
:10077000019000907548006840F48030734908602B
:1007800000BF7248006800F4003000900198401CDF
:100790000190009818B90198B0F5A04FF1D16B48BD
:1007A000006810F4003F02D00120009001E000201A
:1007B00000900098012845D164484030006840F01E
:1007C00080506249403108606148006840F4404010
:1007D0005F4908605D48083000685C49083108607E
:1007E0000846006840F4004008600846006840F48D
:1007F000A05008605748091F0860081F006840F0B3
:100800008070091F086000BF5048006810F0007F2A
:10081000FAD040F20570504908604C480830006832
:1008200020F003004949083108600846006840F09C
:100830000200086000BF45480830006800F00C0066
:100840000828F8D10CBD10B54448006840F4700089
:10085000424908603D48006840F001003B4908609B
:1008600000203A4908310860384800683C4908408F
:10087000364908603B48091D0860081F006820F4DD
:100880008020091F0860002030490C310860FFF704
:100890006DFF4FF0006031498039086010BD70B5C0
:1008A00000200022022300240221284D08352D6853
:1008B00005F00C0020B1042806D0082834D107E048
:1008C000294D2A4E356033E0294D284E35602FE002
:1008D0001E4D2D1D2D68C5F380541C4D2D1D2D68FA
:1008E00005F03F0154B1224DB5FBF1F5174E361D11
:1008F0003668C6F3881605FB06F209E01A4DB5FB0B
:10090000F1F5124E361D3668C6F3881605FB06F261
:100910000E4D2D1D2D68C5F301456D1C6B00B2FBFE
:10092000F3F5124E356003E00F4D104E356000BFF9
:1009300000BF064D08352D68C5F303150D4E705DDB
:100940000A4D2D68C540094E356070BD0038024023
:100950000070004008544007003C024088ED00E071
:10096000FFFFF6FE103000240024F40000000020F9
:1009700000127A00040000201CB50121084603F093
:10098000B7FAC020009001208DF8040000208DF8F7
:10099000060003208DF8050001208DF80700694648
:1009A000034802F0F7FFC021014803F06FF81CBDB7
:1009B000000002400FB430B5C1B0684620B9002035
:1009C00041B030BC5DF814FB45A840906846409AA1
:1009D000449918F0D9FD6C46002505E0207802F016
:1009E00026FE641C681CC5B220780028F6D1409011
:1009F0000A2002F0EAFD2846E2E77FB505460E46EA
:100A00000020029000241DE0002C09DDE11704EB1A
:100A100011710911B4EB011102D10DA0FFF7CAFF4A
:100A2000285D8DF808009DF808100AA0FFF7C2FFA6
:100A300003A8002104230A46CDE9001008460CF063
:100A40009BFC641CB442DFD301A0FFF7B3FF7FBD62
:100A50000D0A000025303258200000001CB501218D
:100A6000102003F045FA4FF4F060009001208DF85B
:100A7000040000208DF8060003208DF805000120F9
:100A80008DF807006946F64802F084FF4FF4F04005
:100A9000009000208DF804008DF8060003208DF8EA
:100AA000050001208DF807006946ED4802F072FF4D
:100AB0004FF4F061EA4802F0E9FF1CBD7CB5044642
:100AC00000208DF804008DF8060003208DF8050045
:100AD00001208DF807004FF4F0652946E04802F048
:100AE000D5FF2CB1802000906946DD4802F052FF0E
:100AF000012C06D04FF4807000906946D84802F06F
:100B000049FF022C06D04FF4007000906946D4488B
:100B100002F040FF032C06D04FF48060009069463D
:100B2000CF4802F037FF01208DF8040000208DF837
:100B3000060003208DF8050001208DF8070034B170
:100B4000012C0FD0022C1AD0032C32D124E08020AB
:100B500000906946C24802F01DFF8021C04802F0A3
:100B600097FF2AE04FF4807000906946BC4802F07D
:100B700011FF4FF48071BA4802F08AFF1DE04FF474
:100B8000007000906946B64802F004FF4FF400710F
:100B9000B34802F07DFF10E04FF48060009069469A
:100BA000AF4802F0F7FE4FF48061AD4802F070FFED
:100BB00003E0ACA0FFF7FEFE00BF00BF00207CBD3D
:100BC00070B50446A64802F050FF0546C5F3C320A1
:100BD0002060002070BD10B5FFF740FF0020FFF738
:100BE0006DFF0020A4490872401E08604860002084
:100BF0004872A24981F8510081F8500010BD08B533
:100C00006846FFF7DDFF009800F00F009A49097A67
:100C1000890088409A4909680844994908609648BB
:100C2000007A401C944908720846007A042805DBC3
:100C30009348008880B20090002008728E49087A9C
:100C4000FFF73CFF8C48007A002855D18A4840685D
:100C50008B490968884206D08948006886494860FF
:100C60000020487245E08448006885490968884248
:100C70003CD08148407A401C7F4948720846407AFF
:100C8000022836DB084600687D49096848407B49F0
:100C900091F85010794A42F83100104690F850000F
:100CA00052F830107648026876A0FFF783FE744849
:100CB0000068724991F85010704A02EBC101486017
:100CC000104690F85000401C114681F8500008462C
:100CD00090F850000A2802DB002081F85000684894
:100CE0000068654908600020487202E000206249FF
:100CF00048726A486249086008BD01465F4890F83A
:100D000050005E4A92F8512090421DD05B4890F806
:100D100051005A4A52F830000860104690F85100CD
:100D200002EBC00040684860104690F85100401C3B
:100D300082F85100104690F851000A2802DB00208A
:100D400082F85100012070470020FCE710B50446EE
:100D5000102C27D2DFE804F008090A0B0C0D0E0F47
:100D60001011161718191A1B00BF00BF00BF00BFD3
:100D700000BF00BF00BF00BF00BF214648A0FFF773
:100D800019FE10E000BF00BF00BF00BF00BFA4F10C
:100D90000A0000EB8000454A02EB400144A0FFF747
:100DA00009FE00E000BF00BF10BD10B500204349A0
:100DB00081F8210081F8200041498875087548753F
:100DC000401E0861FFF707FF002010BD01203D49CC
:100DD00008700020704700203A4908707047374873
:100DE00090F82000354981F8210000207047014625
:100DF000324890F82000314A92F82120904216D0D3
:100E00002E4890F8212090F82100401C2B4B83F8AD
:100E10002100184650F822000860184690F821007A
:100E2000082806DB00201A4682F8210001E0002095
:100E30000860002070470146204890F820001F4AB3
:100E400092F82120904207D01C4890F821001B4ABC
:100E500052F82000086001E0002008600020704780
:100E6000001002406B6579207363616E20657272B9
:100E700020636F6C0D0A0000841B0020901B002073
:100E8000580000206368673A253034782C2073744A
:100E9000613A253034780D0A000000000000FFFFA1
:100EA000B0B4CFC23A25640A00000000140000204C
:100EB000B0B4CFC23A25730A00000000E41B002042
:100EC000081C0020500000200146F74890F8202020
:100ED00090F82000401CF44B83F82000184640F89E
:100EE000221090F82000082803DB00201A4682F820
:100EF00020000020704710B5EF20FFF7E5FF00202D
:100F000010BD10B50346002010BD70B5024600208C
:100F10000F21002312E0E54D05EBC1052E790125D7
:100F2000B54005EA02043CB901EB00205D1CEBB2C0
:100F3000042B01DD002003E04D1E69B20029EADA2E
:100F400000BF70BD7CB5DA48007800B97CBD68464A
:100F5000FFF7D3FE0546012D4AD1D6A0DDE90012E8
:100F6000FFF728FDD848006901990843401C08D1C3
:100F700000F09EFAD449886008468168D3A0FFF744
:100F800019FDD149019808610198FFF7BEFF044699
:100F9000CD4804602146D1A0FFF70CFDDDE900013A
:100FA000084211D12146D0A0FFF704FDC648407D7C
:100FB00030B92146CFA0FFF7FDFC2046FFF784FFA4
:100FC0000120C14908750BE0CEA0FFF7F3FC0198A2
:100FD000401C05D1CEA0FFF7EDFC0020BA490875F2
:100FE0004FF4FA60B849C86000F062FAB649486048
:100FF000B548007D01280ED1B349886842F21071CE
:1010000000F059FA012810D1AF48407D68B901209D
:10101000AD49487509E0AC48007D30B9AA48407D2B
:10102000012802D10020A8494875A748807D0128E1
:101030001BD1A548407DC0B9A348007D012814D12B
:10104000A14AD168506800F036FA01280DD19E48B7
:101050000068012803D09C490868FFF735FF00F0BD
:1010600027FA99494860C820C86000BF6EE700B5FC
:10107000FFF7B1FE00BD10B5FFF797FEFFF7A6FE24
:1010800010BD9148006989490A7B012191400842BD
:1010900001D1012070470020FCE708B543E0FFF7CD
:1010A000AEFDFFF74FFF6846FFF7A1FE009800284E
:1010B00039D00098C0B200EB8000974A02EB800163
:1010C00096A0FFF777FC0098000A0090009848B1BE
:1010D0000098C0B200EB80008F4A02EB800192A022
:1010E000FFF768FC0098000A0090009848B100984B
:1010F000C0B200EB8000884A02EB80018AA0FFF7B3
:1011000059FC0098000A0090009848B10098C0B2BD
:1011100000EB8000804A02EB800183A0FFF74AFCCD
:1011200082A0FFF747FCBAE700B582480068401C80
:1011300004D1FFF74BFE00207E490860002000BD6F
:1011400000B57C48006828B9FFF745FE4FF0FF3036
:1011500078490860002000BD00B57648006818B9DD
:10116000FFF73DFE002000BD6FF00600FBE778B5FD
:1011700005460024002028606846FFF738FE009EE0
:101180006C480068401C01D1C01F78BD009808B9A8
:101190000020FAE7009810F0FF0F00D0641C0098C0
:1011A000000A0090009810F0FF0F00D0641C009817
:1011B000000A0090009810F0FF0F00D0641C009807
:1011C000000A0090009810F0FF0F00D0641C2E6001
:1011D0002046DAE770B504460D46164655480068C5
:1011E000401C01D1C01F70BD324629462046FFF782
:1011F00088FEF8E718B504466846FFF7F8FD009842
:1012000010F0FF0F11D0009830F0FF000DD10098C2
:10121000EF2803D100982060002018BD0098C0B2CC
:10122000454951F82000206001E0002020600020A6
:10123000F3E71CB50121112002F05AFE182000909E
:1012400000208DF8040003208DF8050001208DF8A2
:1012500007006946394802F09DFB012000900220FA
:101260008DF807006946364802F094FB00203549A6
:1012700081F8210081F820001CBD0146314890F81A
:10128000202090F82000401C2E4B83F820001846A8
:1012900040F8221090F82000082803DB00201A46AE
:1012A00082F8200000207047E41B002044A10108C0
:1012B000500000206368673A20253034782C2025C0
:1012C0003034780D0A000000081C0020B5B1C7B00A
:1012D000CAB1BBF9CEAA25640D0A0000B0B4CFC2D2
:1012E0002025640D0A000000B0B4CFC2202530389C
:1012F000780D0A00D0B4D2BBB8F6BCFCD6B52564D4
:101300000D0A0000C6E4CBFBB1E4BBAF0D0A000040
:10131000CEDEBCFC0D0A0000C4A101086B65793A61
:101320002025732000000000257320002D2D0D0ABC
:10133000000000005400002068A3010800100240D3
:1013400000000240201C00200146554890F8200073
:10135000534A92F82120904216D0514890F821200B
:1013600090F82100401C4E4B83F82100184650F89D
:1013700022000860184690F82100082806DB0020AB
:101380001A4682F8210001E0002008600020704722
:10139000434890F82000424981F82100002070471E
:1013A00010B5044614B101203E4908703D4800784C
:1013B00000285ED010213C4802F04EFB50B10821BD
:1013C000394802F049FB28B10121384802F044FBBA
:1013D00001284ED1142002F0D5F8002031490870C0
:1013E0001021314802F038FB18B90120FFF745FF02
:1013F00053E008212C4802F02FFB18B90220FFF718
:101400003CFF4AE00121294802F026FB012804D1D3
:1014100024480078FFF731FF3FE01021224802F016
:101420001BFB40B90821204802F016FB18B9042024
:10143000FFF723FF31E010211B4802F00DFB48B9F4
:1014400001211A4802F008FB012803D10520FFF70B
:1014500014FF22E00821144802F0FEFAE8B9012145
:10146000124802F0F9FA012817D10620FFF705FF0C
:1014700013E010210C4802F0EFFA01280DD10821E9
:10148000094802F0E9FA012807D10121074802F0D2
:10149000E3FA10B9012003490870002010BD0000D4
:1014A000201C0020640000200010024000000240C8
:1014B00016490868704730B502460D46FFF7F8FF39
:1014C0000346934201D39C1A02E0D01AC0F1FF34C4
:1014D000AC4201D3012030BD0020FCE700B502463C
:1014E000FFF7E6FF1060002000BD30B50446FFF7AF
:1014F000DFFF054606E021462846FFF7DCFF01280E
:1015000000D100E0F7E700BF30BD0000240100205B
:101510000020FE490860091D0860091D0860091DBA
:101520000860FA4924310860091D0860091D086037
:10153000F748F649383108600020091D08607047F7
:1015400001460020012900D011B9F24B197000E0CA
:10155000262070470146ED4A121D106820F0FF005A
:1015600008431060704770B5044606E0E748343021
:10157000056815F0450F00D000E0F7E700BF042034
:1015800003F0D3FB20B1042003F0DAFB032070BD8D
:10159000012003F0CAFB20B1012003F0D1FB0120A0
:1015A000F5E7DA4810300068A04201D01020EEE7DD
:1015B00040F2FF5003F0C4FBD44814300068082107
:1015C0000840C0B2E3E72DE9FC4107460D4600267E
:1015D00000240020009001900820CF4908601020CE
:1015E0004860402088600020C8604FF48060086137
:1015F000084603F00AFB1020FFF7B5FF044614B1BC
:101600002046BDE8FC81C54800880004C249086046
:1016100037204860402088600020C8604FF4806018
:101620000861084603F0F1FA3720FFF79CFF0446F3
:101630000CB12046E5E74FF0FF30B94908600820BB
:101640004860302088600220C860002008610120C6
:101650004861084603F005FB0020AF4908603320CD
:101660004860402088600020C8604FF480600861B6
:10167000084603F0CAFA3320FFF775FF04460CB1A1
:101680002046BEE70DE04FF4001003F04EFB40B1E2
:101690009E48803000684DF82600761C022E00D34C
:1016A00006E09A483430006840F22A610842EAD0E5
:1016B00000BF082003F039FB20B1082003F040FBF5
:1016C00004209EE7022003F030FB20B1022003F04B
:1016D00037FB022095E7202003F027FB20B12020D4
:1016E00003F02EFB06208CE74FF4007003F01DFB87
:1016F00028B14FF4007003F023FB072081E740F28C
:10170000FF5003F01DFB00980006009901F47F4193
:1017100040EA0120009901F47F0140EA112000997C
:1017200040EA1160686001980006019901F47F4168
:1017300040EA0120019901F47F0140EA112001995A
:1017400040EA1160286020465BE77CB5054600242E
:1017500000200090019000260DB1022600E0002636
:101760006A481430006810F0007F01D00E207CBD64
:101770006A49098888B26946FFF725FF04460CB11B
:101780002046F4E7019810F4802F2CD0634800889D
:1017900000046149086037204860402088600020CC
:1017A000C8604FF480600861084603F02EFA3720C5
:1017B000FFF7D9FE04460CB12046D8E7564806602C
:1017C000062055494860402088600020C8604FF4DA
:1017D00080600861084603F018FA0620FFF7C3FE90
:1017E00004462046C3E72520C1E770B5044600251E
:1017F0004C480078032802D12725284670BD494867
:10180000007838B147480078012803D0454800786F
:10181000022819D1B4F5805F02D127252846EDE7CB
:10182000E0B2FFF792FF054675B93848001D006821
:1018300020F4C0503549091D08600846006820435F
:1018400008600846006808602846D7E710B50446D7
:1018500031480460072030494860402088600020FB
:10186000C8604FF480600861084603F0CEF9072095
:10187000FFF779FE10BDF0B5014600200022294B8C
:101880001B7881F85630254B1B88A1F85430264B25
:101890001B681A0E93090B70C2F383034B7002F09E
:1018A00003038B70204B1B68C3F30742CA701E4BA7
:1018B0001B88C3F307220A711B4B1A784A715B68B5
:1018C0001A0E1301CB80184B5B68C3F30742CB8819
:1018D00043EA1213CB8002F00F030B72124B9B886A
:1018E000C3F30722D3094B72C2F380138B72C2F386
:1018F0004013CB72C2F300130B7300234B73094BDD
:101900001B78C3B1074B1B78012B0FE0002C014063
:10191000FF07C00070000020601C00206C00002049
:10192000741C0020680000208C1E002003D0FE4B99
:101930001B78032B4FD193071B0D0B61FB4B1A79BF
:101940000B6943EA82030B61F84B9B681A0E0B6923
:1019500043EA92130B61C2F3C2030B7502F0070353
:101960004B75F24B9B68C3F3074253098B75C2F367
:101970008203CB7593075B0F0B76EC4B1B89C3F38C
:1019800007220B7E43EAD2130B760B695B1C002403
:10199000C1E912340B7E9B1C012404FA03F3DC170B
:1019A000D1E91256A5FB037C06FB03C305FB0433F8
:1019B000C1E912730C7A0123A3400B650024D1E91D
:1019C00012650B6DA6FB037C05FB03C306FB04330A
:1019D000C1E912732EE0D44B1B78022B2AD1D34BD2
:1019E0001A7993069B0A0B61D04B9B681A0E0B6900
:1019F00043EA02230B61CD4B9B68C3F307420B699B
:101A000013430B61C94B1B89C3F307220B695B1C92
:101A10004FF40074A3FB04464FF480630025A4FB3D
:101A2000037C06FB03C304FB0533C1E912734FF4C7
:101A300000730B65C2F3801301F8193F93065B0E28
:101A40004B70BA4B1A7A4B7843EAD2134B7002F0C0
:101A50007F038B70B54BDB681A0ED309CB70C2F3D2
:101A600041130B71C2F382034B7193071B0F8B71F0
:101A7000AE4BDB68C3F307428B7943EA92138B7159
:101A8000C2F34013CB7100230B7202F001034B72BF
:101A9000A64B9B89C3F30722D3098B72C2F3801331
:101AA000CB72C2F340130B73C2F300134B73C2F338
:101AB00081038B7302F00303CB739C4B1A7B530897
:101AC0000B7401234B749A4B1B681A0ECA74A1F154
:101AD0001901974B1B68C3F307424FEA0224CC85D8
:101AE000934B1B88C3F30722CB8D43EA0203CB85BC
:101AF0008F4B1A784FEA02640C635B684FEA1362FB
:101B00000B6B43EA02440C63894B5B68C3F30742E7
:101B10000B6B43EA02240C63854B9B88C3F30722BB
:101B20000B6B43EA02030B63814B1A794FF03403CA
:101B30005A547F4B9B684FEA13624FF035035A5457
:101B40007B4B9B68C3F307424FEA02648C63784B7C
:101B50001B89C3F307228B6B43EA02448C63744BEB
:101B60001A7A8B6B43EA02248C63714BDB684FEA71
:101B700013628B6B43EA02038B636D4BDB68C3F329
:101B800007424FF03C035B5C43EA12144FF03C0306
:101B90005C544FEA02734FEA1354CC87644B9B8921
:101BA000C3F30722CB8F43EA0203CB87604B1A7B38
:101BB0004FEA52044FF040035C544FF001044FF0E1
:101BC00041035C54F0BD70B500264FF4803505E04C
:101BD0005848046814F0450F00D003E02800A5F130
:101BE0000105F5D100BF15B114F0040F05D003268F
:101BF000042003F0A5F8304670BD012003F095F8ED
:101C000018B10126012003F09BF840F2FF5003F0C9
:101C100097F83046F0E72DE9F04105460E464FF0C3
:101C2000000805E04348076817F0450F00D000E0C2
:101C3000F8E700BF042003F078F828B1042003F08F
:101C40007FF80320BDE8F081012003F06EF820B199
:101C5000012003F075F80120F4E7364824380068C5
:101C6000A84201D01020EDE740F2FF5003F068F8E1
:101C700030482038046814F4604F03D1200C3080C1
:101C80004046DFE714F4005F01D01320DAE714F4D4
:101C9000804F01D01020D5E714F4004F01D00F2061
:101CA000D0E74046CEE738B500240120009002F08E
:101CB000A6FF10B92524204638BD1B48007804280B
:101CC00025D000201C49086002204860C0208860A0
:101CD0000020C8604FF480600861084602F095FF5C
:101CE000FFF771FF04460CB12046E5E711482038A4
:101CF00000680F4908600F481C38006848600D48AC
:101D00001838006888600B4814380068C8600648B6
:101D10000078B0B104480078012812D00248007859
:101D200006280ED0004809E0680000208C1E002024
:101D30009C1E0020342C0140601C002000780228EA
:101D400016D10020FE4908600320486040208860CA
:101D50000020C8604FF480600861084602F055FF1B
:101D600069460320FFF757FF04460CB12046A3E75E
:101D7000F4480078032816D1BDF800000004F049AB
:101D8000086003204860402088600020C8604FF44D
:101D900080600861084602F038FFFFF714FF044630
:101DA0000CB1204688E7E748007804282AD0BDF81F
:101DB0000000E5490860BDF800000004E049086043
:101DC00009204860C02088600020C8604FF480600F
:101DD0000861084602F019FFFFF7F5FE04460CB152
:101DE000204669E7D9480068D9490860D748001DEE
:101DF00000684860D548083000688860D3480C30D7
:101E00000068C860002057E710B506E0CF482030D2
:101E1000046814F0450F00D000E0F7E700BF04208D
:101E200002F083FF20B1042002F08AFF032010BDDE
:101E300040F2FF5002F084FF0020F8E770B5002662
:101E40004FF4803506E0C1482030046814F0450F97
:101E500000D003E02800A5F10105F4D100BF15B1C1
:101E600014F0040F05D00326042002F069FF304669
:101E700070BD14F0400F03D00026402002F060FF38
:101E80003046F5E770B500254FF4803404E080203B
:101E900002F04BFF00B103E02000A4F10104F6D1F1
:101EA00000BF0CB9032070BD40F2FF5002F048FFA4
:101EB0002846F8E72DE9F0470027002400260025F2
:101EC000A046A1467620A349087500200860486016
:101ED0008860C8600861084602F06DFE032002F0C9
:101EE0008AFE9A481038006840F48070974910398B
:101EF000086000BF12E000209149086048608860D7
:101F0000C8604FF480600861084602F07EFEFFF76B
:101F1000B9FF044604B903E0781CC7B24A2FEADBD4
:101F200000BF14B12046BDE8F0874FF4D570844956
:101F3000086008204860402088600020C8604FF496
:101F400080600861084602F060FEFFF777FF0446F4
:101F500024B901207B4908704FF08049002078495E
:101F6000086037204860402088600020C8604FF437
:101F700080600861084602F048FE3720FFF7F3FA58
:101F80000446002C4BD134E000206D490860372016
:101F90004860402088600020C8604FF4806008617D
:101FA000084602F032FE3720FFF7DDFA04460CB196
:101FB0002046B8E7684849EA0000614908602920DE
:101FC0004860402088600020C8604FF4806008614D
:101FD000084602F01AFEFFF717FF04460CB1204630
:101FE000A1E75A480668012080EAD67080F001080F
:101FF0006D1CB8F1000F03D14FF6FF708542C3D3BB
:102000004FF6FF70854202D31B2420468BE706F073
:102010008040060032D002204A4908702EE01CE0C1
:102020004E484749086001204860402088600020F1
:10203000C8604FF480600861084602F0E6FDFFF7D3
:10204000E3FE04460CB120466DE7404806680120D7
:1020500080EAD67080F001086D1CB8F1000F03D142
:102060004FF6FF708542DBD34FF6FF70854202D3F7
:102070001B24204657E7032032490870204652E7C8
:102080003EB500240121364801F032FF0121C8028B
:1020900001F088FF0121C80201F0D9FF4FF4F85088
:1020A000019002208DF808008DF8090000208DF8BD
:1020B0000A0001208DF80B0001A92A4801F06AFCF2
:1020C0000420019001A9284801F064FC0C22082199
:1020D000244801F0EAFC0C220921224801F0E5FC29
:1020E0000C220A211F4801F0E0FC0C220B211D48A4
:1020F00001F0DBFC0C2211461A4801F0D6FC0C2240
:102100000221194801F0D1FC00214FF4006001F0D8
:102110009EFFFFF7FDF931208DF8000000208DF8BB
:1021200001008DF8020001208DF80300684601F0DF
:102130003EFBFFF7BFFE0446CCB9FFF7B4FD15E048
:10214000601C0020680000206C000020142C01405E
:102150008C1E0020481C0020000010800080FF80A2
:102160000C00400000080240000C024004461CB96C
:10217000FE48FFF780FB044634B9FC49B1F854101F
:102180000804FFF763FB044624B94FF40060FFF72F
:102190002CFB04461CB1F6480078032806D10F201A
:1021A000FFF7D8F90120FFF7CBF9044620463EBDE2
:1021B00010B5002002F01FFD002010BD70B590B0DA
:1021C00004460E46154600BFEA4802F040FC0028CF
:1021D000FAD1E84802F012FB4FF000600190E648A7
:1021E0000290039404950020059006904FF48060BF
:1021F0000790800008908000099000200A904FF41A
:1022000040300B9004200C9003200D904FF4000000
:102210000E9080100F9001A9D64802F091FB20216A
:10222000D44802F0DDFB0121D24802F0C3FB10B01C
:1022300070BD0146002002E04910421CD0B20129C5
:10224000FAD170472DE9F84F8146174698460A9C07
:102250004FF0000AD3464D464FF0FF36B9F1000F5C
:1022600002D12620BDE8F88F0020C3495439086008
:10227000BF480078022805D10402780A40EAC8570E
:102280004FEA68280020BD4988604860401E086009
:10229000012048610020C8600861084602F0E1FCA6
:1022A000B5486C38006810F0007F01D00E20D9E7E7
:1022B000002C21DDB4F5006F1EDC601E20421BD116
:1022C0002046FFF7B6FF0090AD4804601020AC49EF
:1022D0004860402088600020C8604FF4806008613A
:1022E000084602F092FC1020FFF73DF98246BAF151
:1022F000000F03D05046B5E72620B3E70098000151
:102300009E498860084644604FF0FF300860012015
:1023100048610220C86000200861084602F0A1FC64
:102320009748076011209649486040208860002047
:10233000C8604FF480600861084602F066FC112016
:10234000FFF711F98246BAF1000F01D0504689E734
:102350008C480078002859D1FDF725FF17E04FF48D
:10236000004002F0E2FC70B14FF0000B05E0824843
:10237000006845F82B000BF1010BBBF1080FF6D3F9
:102380002035814E03E00EB904206BE7761E7A48B3
:102390004C38006840F22A610842E0D0082002F080
:1023A000C4FC20B1082002F0CBFC04205AE7022034
:1023B00002F0BBFC20B1022002F0C2FC022051E777
:1023C000202002F0B2FC20B1202002F0B9FC06204F
:1023D00048E74FF4007002F0A8FC28B14FF40070F9
:1023E00002F0AEFC07203DE703E063480068286088
:1023F0002D1D4FF4001002F098FC0028F5D1FDF7D8
:10240000D4FE40F2FF5002F09BFC39E05D480078BA
:10241000012835D100205D4908705D4908705D498B
:10242000087055484438006840F22A310843524940
:102430004439086050485438006840F008004E495C
:1024400054390860002221464846FFF7B7FE00E0F5
:10245000761E48485838006810F0006F07D14D4884
:10246000007820B94948007808B9002EF0D10EB99B
:102470000420F7E64548007810B1444890F800A0E1
:102480005046EFE62DE9FF5F17469846DDE90E4618
:102490004FF00009CA464FF0FF353F4900980860E9
:1024A0004FF000003D49086031480078022805D10E
:1024B0000402780A40EAC8574FEA682800202F49EA
:1024C00088604860401E0860012048610020C860A4
:1024D0000861084602F0C5FB30481838006810F063
:1024E000007F03D00E2004B0BDE8F09F002C21DD5A
:1024F000B4F5006F1EDC601E20421BD12046FFF7A2
:1025000098FE83461E48046010201D494860402004
:1025100088600020C8604FF480600861084602F0BF
:1025200074FB1020FFF71FF88146B9F1000F03D0AC
:102530004846D8E72620D6E7012E70D906FB04F0DE
:10254000B0F1007F01D32620CDE74FEA0B100B49F5
:10255000886006FB04F048604FF0FF3008600120FF
:1025600048610220C8600020086119E0B01E002008
:102570006800002058640240802C0140741C002038
:10258000601C002070000020FFFF7F007200002010
:102590007100002073000020740000202C2C0140EA
:1025A000084602F05EFBFA4807601220F8494860CE
:1025B000402088600020C8604FF4806008610846B1
:1025C00002F023FB1220FEF7CEFF8146B9F1000F87
:1025D00001D0484687E7EF48007800287DD1FDF715
:1025E000E2FD1EE04FF4004002F09FFBA0B14FF06F
:1025F000000A07E0E8480068E849096841F82A004D
:102600000AF1010ABAF1080FF4D3E4480068203057
:10261000E2490860E24D04E015B9042063E7ADE04B
:102620006D1EDD484C38006840F22A310842D9D08E
:10263000082002F07AFB20B1082002F081FB042080
:1026400051E7022002F071FB20B1022002F078FB7A
:10265000022048E7202002F068FB20B1202002F091
:102660006FFB06203FE74FF4007002F05EFB28B1DD
:102670004FF4007002F064FB072034E709E0C6481D
:102680000068C64909680860C4480068001DC3495D
:1026900008604FF4001002F048FB0028EFD14FF41F
:1026A000807002F042FB20B3BE48007838B1BD48CC
:1026B0000078012803D0BB480078022819D10020F7
:1026C000B34908600C204860402088600020C86042
:1026D0004FF480600861084600E011E002F095FACE
:1026E0000C20FEF740FF8146B9F1000F01D04846AB
:1026F000F9E6FDF75AFD40F2FF5002F021FB3DE004
:10270000A4480078012839D10020A7490870012089
:10271000A64908700020A64908709F484438006800
:1027200040F22A3108439C49443908609A48543899
:10273000006840F0080098495439086006FB04F12D
:1027400000220098FFF73AFD00E06D1E99480068EE
:1027500010F0006F01D1002DF7D10DB90420C2E6B1
:1027600000BF9348007818B98F4800780028F8D047
:102770008D48007810B18C4890F800904846B2E639
:102780001CB504460020019000908B48008800048E
:102790007F4908600D204860402088600020C860A4
:1027A0004FF480600861084602F02FFA7A484C38EE
:1027B0000068009003E078484C380068009000986A
:1027C00010F0450FF7D0012002F0AFFA20B1012040
:1027D00002F0B6FA01201CBD042002F0A6FA20B1D6
:1027E000042002F0ADFA0320F5E76B48703800686A
:1027F0000D2801D01020EEE740F2FF5002F0A0FAC1
:1028000065486C38006801900198C0F3432020703F
:102810000020E0E72DE9FF5F86B017469846149D3B
:102820004FF0000630460590049004468146039020
:10283000824602900195DDF818B0DDF818B0BBF1C2
:10284000000F03D126200AB0BDE8F09F00205249B6
:1028500054390860594988604860401E086001206A
:1028600048610020C8600861084602F0FAF94A4849
:102870006C38006810F0007F01D00E20E3E7494873
:102880000078022805D10502780A40EAC8574FEAC5
:102890006828002D1FDDB5F5006F1CDC681E28427E
:1028A00019D12846FFF7C5FC05903948056010206E
:1028B00037494860402088600020C8604FF480603D
:1028C0000861084602F0A1F91020FEF74CFE06460A
:1028D0001EB13046B7E72620B5E737480088000428
:1028E0002B4908600D204860402088600020C860A7
:1028F0004FF480600861084602F087F90D20FEF76A
:1029000032FE06460EB130469DE723486C3800681B
:1029100003904FF0FF341CE0641E27480088000439
:102920001B4908600D204860402088600020C86076
:102930004FF480600861084602F067F90D20FEF749
:1029400012FE06460EB130467DE713486C3800682B
:102950000390039810F4807F01D1002CDCD10CB9D6
:10296000292070E70A48076018200949486040207C
:1029700088600020C8604FF480600861084602F05B
:1029800044F91820FEF7EFFD0646CEB130465AE76F
:10299000601C002070000020802C0140740000208A
:1029A000FFFF7F00680000207200002071000020FF
:1029B00073000020006402406C000020741C0020A2
:1029C0000020F849087005980001F749886008461A
:1029D00045604FF0FF300860012048610020C8606A
:1029E0000861084602F03DF94FF0FF34EF480078E7
:1029F00000287BD1FDF7D7FB43E04FF4804002F085
:102A000094F9C8B30198A0EB0900202821D20198BD
:102A1000A0EB090010F0030F04D10198A0EB09000E
:102A2000800804E00198A0EB09008008401C029097
:102A30004FF0000A09E0DE49DBF8000008600AF107
:102A4000010A0BF1040B09F1040902988245F2D343
:102A50000FE04FF0000A05E05BF82A00D449086057
:102A60000AF1010ABAF1080FF6D30BF1200B09F1B4
:102A700020096FF0404404E0FFE70CB90420E2E6CF
:102A8000641ECB484C38006840F21A610842B4D04A
:102A9000082002F04AF920B1082002F051F9042080
:102AA000D1E6022002F041F920B1022002F048F9FB
:102AB0000220C8E6102002F038F920B1102002F000
:102AC0003FF90520BFE64FF4007002F02EF930B157
:102AD0004FF4007002F034F90720B4E606E0FDF789
:102AE00064FB40F2FF5002F02BF943E0AF4800785E
:102AF00001283FD10020AF490870AA490870AE49AB
:102B00000870AB484438006840F21A310843A849BD
:102B100044390860402229460698FFF74FFBA44835
:102B20005438006840F00800A1495439086000E0BA
:102B3000641EA248006810F0006F01D1002CF7D18C
:102B40001CB9FFF79DFA04207DE64FF0FF3400E04A
:102B5000641E9948007820B99648007808B9002C7E
:102B6000F6D10CB904206EE69248007810B1914875
:102B7000007868E640F2FF5002F0E2F804A8FFF7A0
:102B8000FFFD064603E004A8FFF7FAFD06463EB93E
:102B90009DF810000728F6D09DF810000628F2D006
:102BA000304650E62DE9FF5F84B0DDE9124700268C
:102BB000002003900290002580468146019007FB8B
:102BC00004FBDDF810A0DDF810A0BAF1000F03D16E
:102BD000262008B0BDE8F09F0020754954390860F0
:102BE000714988604860401E0860012048610020EB
:102BF000C8600861084602F034F86D486C38006817
:102C000010F0007F01D00E20E3E76D480078022825
:102C100008D10402DDE90601400A40EAC150491228
:102C2000CDE90601002C1FDDB4F5006F1CDC601E31
:102C3000204219D12046FFF7FCFA03906148046056
:102C4000102060494860402088600020C8604FF430
:102C500080600861084601F0D8FF1020FEF783FC71
:102C600006461EB13046B4E72620B2E7012F6FD9E1
:102C700007FB04F0B0F1007F01D32620A9E75048FC
:102C8000007838B14E480078012803D04C480078CD
:102C900002282DD14C48008800044A49086037209A
:102CA0004860402088600020C8604FF48060086160
:102CB000084601F0AAFF3720FEF755FC06460EB184
:102CC000304686E73F48076017203E49486040206D
:102CD00088600020C8604FF480600861084601F0F9
:102CE00094FF1720FEF73FFC06460EB1304670E712
:102CF0003449069808601920486040208860002008
:102D0000C8604FF480600861084601F07EFF19201A
:102D1000FEF729FC06460EB130465AE7039800013B
:102D20002149886007FB04F048604FF0FF300860DD
:102D3000012048610020C8600861084601F091FF49
:102D40001A480078002871D1451EFDF72CFA54E08E
:102D5000F7E04FF4804001F0E8FF10B3ABEB080060
:102D6000202833D2ABEB080010F0030F03D1ABEBFC
:102D70000800800803E0ABEB08008008401C0190CD
:102D80004FF0000909E00A49DAF80000086009F18B
:102D900001090AF1040A08F1040801988145F2D3F7
:102DA00024E026E071000020741C00207000002048
:102DB000802C01407200002073000020006402405B
:102DC00068000020601C00206C0000204FF000090B
:102DD00005E05AF82900F849086009F10109B9F13C
:102DE000080FF6D30AF1200A08F120086FF04045D9
:102DF00003E00DB90420ECE66D1EEF484C38006886
:102E000040F21A310842A4D0082001F08EFF20B110
:102E1000082001F095FF0420DBE6022001F085FF89
:102E200028B1022001F08CFF0220D2E640E0102001
:102E300001F07BFF20B1102001F082FF0520C8E6E1
:102E40004FF4007001F071FF28B14FF4007001F0F1
:102E500077FF0720BDE64FF4807001F066FF00B3F6
:102E6000D648007838B1D5480078012803D0D34837
:102E70000078022815D10020D14908600C20486054
:102E8000402088600020C8604FF4806008610846D8
:102E900001F0BBFE0C20FEF766FB06460EB1304685
:102EA00097E6FDF782F940F2FF5001F049FF48E054
:102EB000C4480078012844D10020C349087001208B
:102EC000C24908700020C2490870BB4844380068F5
:102ED00040F21A310843B8494439086007FB04F14D
:102EE00040220498FFF76AF9B3485438006840F06C
:102EF0000800B149543908604FF0FF3500E06D1EFD
:102F0000B448006810F0006F01D1002DF7D11DB951
:102F1000FFF7B6F804205CE64FF0FF3500E06D1EC9
:102F2000AB48007820B9A848007808B9002DF6D140
:102F30000DB904204DE6A448007810B1A2480078ED
:102F400047E640F2FF5001F0FBFE02A8FFF718FC35
:102F5000064603E002A8FFF713FC06463EB99DF8BB
:102F600008000728F6D09DF808000628F2D0304661
:102F70002FE610B54FF4807001F0D7FE88B3934868
:102F80000078012814D100208D4908600C20486089
:102F9000402088600020C8604FF4806008610846C7
:102FA00001F033FE0C20FEF7DEFA8749087002E0DC
:102FB00000208549087080484838006840F48070D7
:102FC0007D4948390860081D00684CF23A31884351
:102FD00079494439086001207D4908707A480078B1
:102FE00010BDFFE7022001F0A0FE78B1022001F041
:102FF000A7FE7148443800684CF23A3188436E4964
:1030000044390860022070490870E9E7082001F09F
:103010008CFE78B1082001F093FE674844380068C0
:103020004CF23A31884364494439086004206649C7
:103030000870D5E7202001F078FE78B1202001F05B
:103040007FFE5D48443800684CF23A3188435A4963
:103050004439086006205C490870C1E7102001F07F
:1030600064FE78B1102001F06BFE534844380068CC
:103070004CF23A318843504944390860052052499E
:103080000870ADE74FF4007001F04FFE80B14FF4CF
:10309000007001F055FE4848443800684CF23A315F
:1030A000884345494439086007204749087097E735
:1030B000002095E710B5FFF75CFF10BD70B5044622
:1030C000002514B92625284670BD43480088000411
:1030D0003B4908600D204860402088600020C8609F
:1030E0004FF480600861084601F08FFD0D20FEF767
:1030F0003AFA05460DB12846E6E72F486C380068D5
:1031000020602846E0E708B5002000906846FFF7F9
:10311000D5FF08B1FF2008BD0098C0F34320FAE7AF
:103120002DE9FE4F83460E46914600200290002571
:1031300034462248007818B1680240EAD455640247
:103140001BF0030F1ED04FF0000A18E04FF4007080
:1031500000904FEA4A20071945EBE0733A461F48B2
:10316000FFF770F802904FF400721C49584615F0B2
:1031700047FE0BF5007B0AF1010000F0FF0ACA458B
:10318000E4DB16E0B9F1010F09D14FF400702246DB
:103190002B4600905846FFF755F8029009E04FF48F
:1031A000007022462B46CDE900095846FFF76AF920
:1031B00002900298BDE8FE8F802C0140680000203C
:1031C000601C0020700000207200002071000020B0
:1031D00073000020006402406C0000208C1C002062
:1031E0002DE9FE4F064689469246002002900025B2
:1031F0004C462148007818B1680240EAD455640270
:1032000016F0030F1ED04FF0000B18E04FF40072C1
:1032100031461A4815F0F4FD4FF4007000904FEA63
:103220004B20071945EBE0733A461448FFF7F2FAD2
:10323000029006F500760BF1010000F0FF0BD3457C
:10324000E4DB16E0BAF1010F09D14FF40070224619
:103250002B4600903046FFF7DDFA029009E04FF46C
:10326000007022462B46CDE9000A3046FFF79AFC53
:1032700002900298BDE8FE8F680000208C1C0020A0
:1032800000B587B00121084600F032FE0121480751
:1032900000F077FE1020059003208DF81800022022
:1032A0008DF81B0005A9364800F074FB0020019042
:1032B000029003900220049001A9002001F0A1F9DE
:1032C0000121002001F0BAF90021084601F004FABA
:1032D00007B000BD38B50446E0B28DF800002012FA
:1032E0008DF801009DF80100803800019DF8001064
:1032F00040EA211085B22946002001F0EDF938BDE1
:1033000000B587B00121084600F0F2FD0121480711
:1033100000F037FE2020059003208DF818000220D1
:103320008DF81B0005A9164800F034FB0020019021
:10333000029003900220049001A9102001F061F98D
:103340000121102001F07AF90021084601F0D1F99D
:1033500007B000BD38B50446E0B28DF80000201279
:103360008DF801009DF80100803800019DF80010E3
:1033700040EA211085B22946002001F0BAF938BD93
:10338000000002401CB50121084600F0B1FD0320F9
:10339000009001208DF8040000208DF80600032025
:1033A0008DF8050001208DF807006946564800F0A9
:1033B000F1FA1CBD7FB505460C460121022000F044
:1033C000E0FD0295ADF804400020ADF80600ADF830
:1033D0000C0001A94D4801F082FD012211464B4825
:1033E00002F01EFA0121494801F002FE1D208DF86D
:1033F000000001208DF8010003208DF8020001205B
:103400008DF80300684600F0D2F9FFF7BBFF7FBDDF
:1034100010B500213D4801F0EBFD0021022000F035
:10342000B0FD10BD10B50121374800F031FB10BDD3
:1034300010B50121344800F029FB10BD10B5344807
:103440000078B8B1334800683349098830F8110072
:1034500084B22046FFF73EFF2E4800682E490988B7
:1034600000EB4100408884B22046FFF773FFFFF76E
:10347000DFFF16E0294800682749098830F8110065
:1034800084B22046FFF726FF2448006822490988B5
:1034900000EB4100408884B22046FFF75BFFFFF756
:1034A000C1FF1D480088801C1B4908800846008811
:1034B000B0F5106F0CDB1648007818B100201449E5
:1034C000087002E0012012490870002012490880AB
:1034D00001210E4802F0CCF910BD70B505460C462E
:1034E0000C4805600D4804600DA0FDF763FA70BD3F
:1034F00010B50221044800F0C9FA10BD10B5022130
:10350000014800F0C5FA10BD000002400004004070
:1035100078000020800000207A0000208400002035
:10352000C9E8D6C3BAC3C1CB444143B5C4627566CA
:1035300066D6B8D5EB0A000070B504466FF00400FB
:1035400000F083F9E11704EB5171C1F3C7012F4A71
:103550001170E11704EB5171CD104FF47A704543AF
:1035600001202B4908804FF0E020006940F0020064
:103570004FF0E021086108464561006940F0010014
:10358000086170BDFEB504464FF47A70B4FBF0F0EC
:103590003C21B0FBF1F085B24FF47A70B4FBF0F04F
:1035A000B0FBF1F201FB12064FF47A70B4FBF0F1BC
:1035B00000FB114702A800213B463246CDE900102E
:1035C0002946002009F0D8FEFEBD70B5044608E08B
:1035D00044F2A01501E0FCF7E1FD2800A5F101058A
:1035E000F9D12000A4F10104F2D170BD70B50446F8
:1035F00007E0112501E0FCF7D1FD2800A5F1010548
:10360000F9D12000A4F10104F3D170BD8C00002099
:103610008E000020014600BF704700BF544A128848
:1036200012F0400FFAD0C2B2514B9A80704700BFDF
:103630004F49098811F0400FFAD04D4988807047F2
:1036400010B588B004460121084600F051FC012164
:10365000102000F0A7FC07220921464800F025FAB7
:1036600007220A21434800F020FA4FF4C060069078
:1036700002208DF81C008DF81D0000208DF81E0022
:1036800001208DF81F0006A93A4800F083F9029442
:103690000020ADF80C00ADF80E00ADF81000ADF84C
:1036A00014000C20ADF8120002A9314800F0DBFD37
:1036B00001212F4800F05FFE40212D4800F043FF1C
:1036C000012240F225512A4800F00BFF25208DF8F9
:1036D000040003208DF805008DF8060001208DF808
:1036E000070001A800F063F808B010BD10B505F0A0
:1036F0002BFF40F225511E4800F02EFF10B31C484E
:1037000000F068FEC4B21C48008810F4004F2BD1B2
:103710001948008810F4804F0CD00A2C03D00020E8
:103720001549088020E01448008840F40040124900
:10373000088019E00D2C06D10F48008840F4804025
:103740000D49088010E00C480088C0F30D000B49BB
:103750000C5409480088401C074908800846008826
:10376000C72801DD0020088005F0FFFE10BD000025
:10377000001001400000024090000020081F0020BF
:103780000648804706480047FEE7FEE7FEE7FEE7FB
:10379000FEE7FEE7FEE7FEE7FEE7FEE74708000874
:1037A0008901000833490143334A1160704770B5FD
:1037B000002100230F22C47824B32F4C246804F482
:1037C000E064C4F5E064C4F30721C1F10404E3B28A
:1037D0000A4144789C40E1B28478144021430C07AC
:1037E000210E264C05786155047804F01F0501244C
:1037F000AC4005786D114FF0E02606EB8505C5F865
:10380000004109E0047804F01F040125A5401C4C88
:103810000678761144F8265070BD1A4A0A400243D1
:10382000154B1B1F1A60704739B1134A121D1268DD
:103830000243114B1B1D1A6006E00F4A121D12684D
:1038400082430D4B1B1D1A607047042808D14FF0AE
:10385000E021096941F004014FF0E022116107E025
:103860004FF0E021096921F004014FF0E0221161DD
:10387000704700000000FA050CED00E000E400E0F5
:1038800080E100E080FFFF1F10B50446A04884429D
:1038900008D10121084600F096FB0021012000F02C
:1038A00092FB76E09B48844208D10121022000F07F
:1038B0008AFB0021022000F086FB6AE096488442E1
:1038C00008D10121042000F07EFB0021042000F03B
:1038D0007AFB5EE09148844208D10121082000F083
:1038E00072FB0021082000F06EFB52E08C488442FD
:1038F00008D10121102000F066FB0021102000F00B
:1039000062FB46E08748844208D10121202000F074
:103910005AFB0021202000F056FB3AE08248844206
:1039200008D10121402000F04EFB0021402000F092
:103930004AFB2EE07D48844208D10121802000F01E
:1039400042FB0021802000F03EFB22E078488442C8
:1039500008D10121801500F036FB0021A01500F0F0
:1039600032FB16E07348844208D10121401500F073
:103970002AFB0021601500F026FB0AE06E48844215
:1039800007D10121001500F01EFB0021201500F0D9
:103990001AFB10BDF0B50A4600210023002400BF29
:1039A0003DE0012505FA01F3156805EA03049C4290
:1039B00034D105684F000326BE40B5430560157934
:1039C0004E00B5400668354305601579012D02D0DB
:1039D0001579022D16D185684F000326BE40B543E8
:1039E000856055794E00B5408668354385604568E9
:1039F00001268E40B5434560456896798E40B6B243
:103A000035434560C5684F000326BE40B543C560D9
:103A1000D5794E00B540C6683543C560491C1029AC
:103A2000BFD3F0BD4FF6FF710160002101714171FC
:103A30008171C171704708B54FF480320092009ACD
:103A40000A430092009AC261C161009AC261C269D0
:103A50000092C269009208BD0246002013690B4221
:103A600001D0012000E0002070470146086980B2C3
:103A700070470246002053690B4201D0012000E04C
:103A8000002070470146486980B270470183704743
:103A9000418370470AB1018300E04183704741616F
:103AA000704742694A4042617047F0B500230024E4
:103AB0004D07ED0E02FA05F3CE1000F1200555F882
:103AC00026504E07F70E0F26BE40B543CF1000F12B
:103AD000200646F82750CE1000F1200555F8265054
:103AE00045EA0304CE1000F1200545F82640F0BD5C
:103AF00010B503460C4622B921461846FFF7C8FF09
:103B000005E0012A03D121461846FFF7BFFF10BD8B
:103B1000000002400004024000080240000C024085
:103B2000001002400014024000180240001C024035
:103B3000002002400024024000280240F9480068AA
:103B400040F00100F74908600020F649083108609C
:103B5000F4480068F4490840F2490860F348091D38
:103B60000860F348EF4984310860F0481038091DB7
:103B70000860EC48006820F48020EA4908600020D2
:103B8000E8490C310860E7498C3108607047002132
:103B9000E44A921C117011460870704710B5014636
:103BA0000022002300204A11012A02D1DD4C2368A3
:103BB00008E0022A03D1DB4C7034236802E0D94CC0
:103BC0007434236801F01F02012494401C4201D088
:103BD000012000E0002010BD38B500200090002436
:103BE000002500BF3120FFF7D9FF05460098401C93
:103BF00000900098B0F5A04F01D0002DF2D03120F8
:103C0000FFF7CCFF08B1012400E00024204638BDB6
:103C100001460020C34A106820F0F80040EAC100C5
:103C200010607047C349086070470021BD4A703278
:103C300011701170012802D004280AD104E001217A
:103C4000B84A7032117005E00521B64A7032117021
:103C500000E000BF00BF7047B7490860704770B50B
:103C6000049C41EA82150126C6EB530645EA064547
:103C7000054345EA0465AB4E361D356070BDAD4960
:103C800008667047820142EA0172A64B84331A60CB
:103C90007047A8498866704710B5830143EA0163FD
:103CA00043EA02739F4C8834236010BDA149086722
:103CB0007047A049C864704702460020994B0833FA
:103CC000186820F0EC6042EA01031843954B083372
:103CD0001860704702460020924B0833186820F0A5
:103CE000784042EA010318438E4B0833186070474E
:103CF000014600208B4A0832106820F00300084378
:103D00001060704787480830006800F00C0070476A
:103D100001460020834A0832106820F0F000084372
:103D200010607047014600207E4A0832106820F477
:103D3000E05008431060704701460020794A08327D
:103D4000106820F4604040EAC10010607047F0B590
:103D5000002100220024022500260223714F08378B
:103D60003F6807F00C0121B1042905D0082937D19B
:103D700005E0724F076036E0714F076033E0694F2E
:103D80003F1D3F68C7F38056664F3F1D3F6807F0F1
:103D90003F036EB16A4FB7FBF3F7DFF888C10CF150
:103DA000040CDCF800C0CCF3881C07FB0CF40CE01E
:103DB000624FB7FBF3F7DFF86CC10CF1040CDCF8D1
:103DC00000C0CCF3881C07FB0CF4564F3F1D3F6826
:103DD000C7F301477F1C7D00B4FBF5F7076002E0E5
:103DE000564F076000BF00BF4E4F08373F6807F0CF
:103DF000F0010909534F7A5C0768D7404760494F83
:103E000008373F6807F4E051890A4E4F7A5C4768EB
:103E1000D7408760434F08373F6807F46041490B3C
:103E2000484F7A5C4768D740C760F0BD002100F476
:103E30004072B2F5407F0AD13A4A0832116821F443
:103E4000F811414A02401143364A08321160354A9E
:103E500070321268C0F30B031A43324B70331A608E
:103E60007047354944390860704733494039086024
:103E7000704736490860704701460020294A8C3255
:103E8000106820F01F004A1E1043264A8C32106032
:103E9000704701460020234A8C32106820F4F85005
:103EA0004A1E40EA02201F4A8C32106070470146C9
:103EB00000201C4A8C32106820F440100843106027
:103EC000704701460020174A8C32106820F44000E9
:103ED00008431060704701460020124A8C32106877
:103EE00020F440300843106070471949086070475B
:103EF00039B10C4A3032126802430A4B30331A602F
:103F000006E0084A303212688243064B30331A60AA
:103F10007047F9B1034A343212680243014B34331B
:103F20001A601CE000380240FFFFF6EA103000245F
:103F30000030002000004742800E47420024F40079
:103F400000127A0098000020FFFCFF0F5C0147423E
:103F5000E01147428F4A126882438E4B1A607047C5
:103F600039B18C4A121D126802438A4B1B1D1A601C
:103F700006E0884A121D12688243864B1B1D1A6098
:103F8000704739B1834A0C3212680243814B0C33BB
:103F90001A6006E07F4A0C32126882437D4B0C3374
:103FA0001A60704739B17B4A103212680243794B6C
:103FB00010331A6006E0774A103212688243754B5C
:103FC00010331A60704739B1724A243A12680243BA
:103FD000704B243B1A6006E06E4A243A1268824312
:103FE0006C4B243B1A60704739B16A4A203A126818
:103FF0000243684B203B1A6006E0664A203A12688A
:104000008243644B203B1A60704739B1614A1C3AC5
:10401000126802435F4B1C3B1A6006E05D4A1C3A83
:10402000126882435B4B1C3B1A60704739B1594A96
:10403000143A12680243574B143B1A6006E0554A83
:10404000143A12688243534B143B1A60704739B1DB
:10405000504A103A126802434E4B103B1A6006E079
:104060004C4A103A126882434A4B103B1A60704720
:1040700039B1484A1C3212680243464B1C331A605D
:1040800006E0444A1C3212688243424B1C331A60D9
:10409000704739B13F4A2032126802433D4B20330A
:1040A0001A6006E03B4A203212688243394B2033C3
:1040B0001A60704739B1374A243212680243354BCF
:1040C00024331A6006E0334A243212688243314BAB
:1040D00024331A60704739B12E4A2C3212680243D9
:1040E0002C4B2C331A6006E02A4A2C321268824389
:1040F000284B2C331A60704739B1264A3032126887
:104100000243244B30331A6006E0224A30321268F0
:104110008243204B30331A607047012808D11D4973
:104120003C31096841F008011A4A3C32116007E04D
:1041300018493C31096821F00801164A3C321160E7
:10414000704739B1134A273A12780243114B273B83
:104150001A7006E00F4A273A127882430D4B273B2C
:104160001A7070470B484030006840F08070094971
:1041700040310860704701460020064A283A12681C
:104180000A4201D0012000E0002070470149263991
:10419000087070473438024010B50446FA4884422B
:1041A00008D101211020FFF752FF00211020FFF756
:1041B0004EFF57E0F548844209D101214804FFF73A
:1041C00035FF00214FF40030FFF730FF4AE0F048A0
:1041D000844209D101218804FFF728FF00214FF410
:1041E0008020FFF723FF3DE0EA48844209D1012106
:1041F000C804FFF71BFF00214FF40020FFF716FF54
:1042000030E0E548844209D101210805FFF70EFF9F
:1042100000214FF48010FFF709FF23E0DF488442BC
:1042200008D101212020FFF712FF00212020FFF7F5
:104230000EFF17E0DA48844209D101218807FFF711
:10424000F5FE00214FF08040FFF7F0FE0AE0D54870
:10425000844207D101214005FFF7E8FE00216005F7
:10426000FFF7E4FE10BD2DE9FF4705460E4600248A
:10427000A14600BFA046B08900B100BF2C8A24F43B
:104280004054F08804432C82AC8941F20C60844392
:10429000B08831890843718908430443AC81AC8AF2
:1042A00024F44074B0890443AC826846FFF74FFDA4
:1042B000B548854202D0B948854202D1DDF80C905C
:1042C00001E0DDF80890A88910F4004F08D009EB50
:1042D000C90000EB091031684900B0FBF1F707E0B5
:1042E00009EBC90000EB091031688900B0FBF1F758
:1042F0006420B7FBF0F004012009642101FB107871
:10430000A88910F4004F08D0322000EBC800B0FBA1
:10431000F1F000F00700044308E0322000EB081041
:104320006421B0FBF1F000F00F0004432C81BDE8E4
:10433000FF874FF41651016000218180C180018107
:104340000C21418100218181704710B50246002077
:10435000108A20F470600B884C8823438C88234398
:10436000CC8823431843108210BD00210180418076
:104370008180C180704721B1828942F400528281DC
:1043800004E082894DF6FF731A4082817047028BE8
:1043900002F47F420283028B0A430283704721B1F9
:1043A000828942F40042828103E08289C2F30E02D4
:1043B0008281704721B1828A42F40062828204E0E5
:1043C000828A4FF2FF731A4082827047C1F308025B
:1043D0008280704701468888C0F308007047028ACF
:1043E0004FF6F0731A400282028A0A430282704733
:1043F00021B1828942F00202828104E082894FF673
:10440000FD731A408281704782894FF2FF731A4010
:10441000828182890A4382817047028A4FF6DF7364
:104420001A400282028A0A430282704721B1028A3C
:1044300042F48042028204E0028A4BF6FF731A4083
:1044400002827047818941F001018181704721B169
:10445000828A42F00802828204E0828A4FF6F77371
:104460001A4082827047028BD2B20283028B42EAE8
:1044700001220283704721B1828A42F020028282A7
:1044800004E0828A4FF6DF731A408282704721B1BE
:10449000828A42F01002828204E0828A4FF6EF7331
:1044A0001A4082827047828A4FF6FB731A408282DA
:1044B000828A0A438282704721B1828A42F00202D4
:1044C000828204E0828A4FF6FD731A40828270472E
:1044D0001AB1838A0B43838202E0838A8B438382EF
:1044E0007047F0B503460024002600250020A1F502
:1044F00010676A3F00D100BF1846C1F3421401F0B3
:104500001F06012707FA06F5012C01D10C3004E043
:10451000022C01D1103000E014301AB107682F438B
:10452000076002E00768AF430760F0BD0246002065
:10453000B1F5007F00D100BF13880B4201D00120EC
:1045400000E00020704701F40072B2F5007F00D156
:1045500000BFCA430280704770B5024600240023A2
:1045600000250020A1F510666A3E00D100BFC1F30E
:10457000421501F01F03012606FA03F3012D13D1A2
:104580009689334017E000000010014000440040CD
:1045900000480040004C0040005000400014014022
:1045A00000780040007C0040022D02D1168A334082
:1045B00001E0968A33400C12012606FA04F41688AC
:1045C000344013B10CB1012000E0002070BD10B5E3
:1045D00000220023A1F510646A3C00D100BF0A123A
:1045E00001249440A3B2DC43048010BD10B5012126
:1045F0004807FFF71BFD00214FF00050FFF716FDA5
:1046000010BD30B5002200237B4C226840F6FE74BA
:104610008440A243D1E900452C438D682C43CD68EA
:1046200044EA050303FA00F42243734C226030BDD0
:104630000021016041608160C160704739B16E4AFC
:104640001268012383401A436B4B1A6006E06A4AE2
:104650001268012383409A43674B1A60704710B574
:1046600051B1654A121D126804090123A3401A437F
:10467000614B1B1D1A6009E05F4A121D1268040994
:104680000123A3409A435C4B1B1D1A6010BD40B12F
:104690005949091D096841F00301574A121D11606B
:1046A00007E05549091D096821F00301524A121D0E
:1046B0001160704710B53AB14F4B1B6801FA00F416
:1046C00023434D4C236006E04B4B1B6801FA00F47A
:1046D000A343494C236010BD08B500220092464A0E
:1046E000009200F10802009B1A440092009A1160A7
:1046F00008BD08B5002200923F4A009200F1140262
:10470000009B1A440092009A116008BD30B5002445
:104710000023082802D142EA012401E042EA0144D0
:10472000354B00F120052B441C6030BD08B5014617
:1047300000200090304800902C2000EB9100009A5F
:10474000104400900098006880B208BD41B12A4A28
:1047500012684FF4805383401A43274B1A6007E0D6
:10476000254A12684FF4805383409A43224B1A60C3
:10477000704710B53AB1204B1B6801FA00F423438F
:104780001D4C236006E01C4B1B6801FA00F4A34398
:10479000194C236010BD10B502460020164B34336F
:1047A0001B6801FA02F4234201D0012000E000203E
:1047B00010BD01FA00F2104B34331A60704730B567
:1047C0000246002000230C4C246801FA02F504EA9A
:1047D0000503094C3434246801FA02F52C4202D056
:1047E0000BB1012000E0002030BD01FA00F2024BC5
:1047F00034331A607047000000740040016821F0F3
:10480000010101600021016041608160C1600161BE
:1048100021214161DA49884204D13D21D84A103A28
:1048200091608CE0D6491831884205D14FF474610B
:10483000D34A103A916082E0D1493031884205D1A3
:104840004FF47411CE4A103A916078E0CC49483167
:10485000884205D14FF07461C94A103A91606EE008
:10486000C7496031884204D1C649C54A103AD1606F
:1048700065E0C3497831884204D1C349C04A103A3F
:10488000D1605CE0BE499031884204D1BF49BC4A46
:10489000103AD16053E0BA49A831884205D14FF0AF
:1048A0003D51B74A103AD16049E0B949884204D134
:1048B0003D21B74A083A116041E0B54918318842B4
:1048C00005D14FF47461B24A083A116037E0B0493B
:1048D0003031884205D14FF47411AD4A083A116065
:1048E0002DE0AB494831884205D14FF07461A84AA8
:1048F000083A116023E0A6496031884204D1A149F9
:10490000A34A121F11601AE0A1497831884204D1EC
:104910009D499F4A121F116011E09D4990318842C4
:1049200004D19A499A4A121F116008E09849A831A7
:10493000884204D14FF03D51954A121F11607047D3
:1049400010B500220268934B1A40CC680B682343D1
:104950004C6923438C692343CC6923430C6A23436A
:104960004C6A23438C6A23434C6B23438C6B234355
:104970001A430260426922F00702D1E90B34234353
:104980001A4342610B6943604B6883608B68C36064
:1049900010BD0021016041608160C1600161416121
:1049A0008161C161016241628162C16201634163EF
:1049B0008163704721B1026842F00102026003E0A6
:1049C000026822F001020260704721B1026842F4DD
:1049D0000042026003E0026822F400420260704775
:1049E00021B1026842F02002026003E0026822F076
:1049F000200202607047416070470146486880B2FB
:104A0000704722B1036843F40023036003E00368A6
:104A100023F4002303600161704721B1026842F46E
:104A20008022026003E0026822F480220260704764
:104A30000AB1016100E0C1607047014600200A68C8
:104A400012F4002F01D0012000E000207047014641
:104A500000200A6812F0010F01D0012000E00020C0
:104A60007047014600204A6902F03800704730B5AF
:104A700003460A4600200024454DAB4202D240497D
:104A8000103901E04249103912F0005F01D04C6842
:104A900000E00C68404D2C40144201D0012000E0A1
:104AA000002030BD02463A4B9A4202D234481038B8
:104AB00001E03748103811F0005F03D0364B0B404F
:104AC000C36002E0344B0B408360704710B511F0B7
:104AD000800F09D022B1436943F08003436103E0B2
:104AE000436923F08003436180290BD02AB1036816
:104AF00001F01E042343036004E0036801F01E0478
:104B0000A343036010BD70B50246002000240025B9
:104B10001F4EB24202D21A4B103B01E01C4B103B1D
:104B20001E4E314206D01E2606EAD124166806EA39
:104B3000040502E0566906F0800511F0005F01D01F
:104B40005C6800E01C68144E34400C4202D00DB189
:104B5000012000E0002070BD02460D4B9A4202D2B7
:104B60000748103801E00A48103811F0005F03D000
:104B7000094B0B40C36002E0074B0B40836070475A
:104B8000106002403D000020400F002000003D204A
:104B9000106402403F801CF07D0F7D0F3C0F3C0FE6
:104BA00010B50121C802FFF752FA00214FF400604E
:104BB000FFF74DFA10BD00216B4A116847F6FF62FE
:104BC0009143027D83681A4343681A43C3681A43BA
:104BD00003681A4303691A431143634A116070471B
:104BE00000210175016041608160C1600161704711
:104BF0005E49086070475C49091F086070475A4861
:104C0000001F006800F0030070470021564B1B1D79
:104C100002681A601A1D11686FF30A01D0E90123B6
:104C20001A43C3681A4303691A4311434E4A0832B0
:104C3000116070470021016041608160C1600161C5
:104C4000704749480C300068C0B2704708B501464B
:104C500000200090444810300844009000980068FC
:104C600008BD0021404B203302681A601B1D4268BA
:104C70001A601A1D116821F0F701D0E902231A43C6
:104C800003691A4343691A431143374A28321160B2
:104C900070474FF0FF310160002141608160C160C9
:104CA00001614161704730482C30006870472E48E0
:104CB0007C30006870472C497C31086070472A4876
:104CC0004430006870472A49086070472849091D28
:104CD00008607047264908310860704724490C3144
:104CE000086070472349086070472349086070478F
:104CF00001218143214A11607047214908607047B2
:104D00001B4914390860704739B1174A38321268A4
:104D10000243154B38331A6006E0134A38321268E2
:104D20008243114B38331A607047014600200E4A07
:104D3000303212680A4201D0012000E000207047A2
:104D4000094934310860704701460020064A303274
:104D500012680A4201D0012000E000207047024999
:104D60003431086070470000042C0140A0802542C7
:104D7000A0852542AC812542B0812542B4812542DF
:104D8000B881254210B50446FE48844208D101216D
:104D90000846FFF75CF900210120FFF758F99DE074
:104DA000B4F1804F08D101210846FFF73FF90021F7
:104DB0000120FFF73BF991E0F348844208D101213B
:104DC0000220FFF733F900210220FFF72FF985E0D9
:104DD000EE48844208D101210420FFF727F9002181
:104DE0000420FFF723F979E0E948844208D1012142
:104DF0000820FFF71BF900210820FFF717F96DE0E5
:104E0000E448844208D101211020FFF70FF9002166
:104E10001020FFF70BF961E0DF48844208D101213F
:104E20002020FFF703F900212020FFF7FFF855E0CD
:104E3000DA48844208D101210220FFF708F9002155
:104E40000220FFF704F949E0D548844209D1012145
:104E50000804FFF7FCF800214FF48030FFF7F7F863
:104E60003CE0D048844209D101214804FFF7EFF823
:104E700000214FF40030FFF7EAF82FE0CA488442DF
:104E800009D101218804FFF7E2F800214FF48020C6
:104E9000FFF7DDF822E0C548844208D10121402017
:104EA000FFF7C4F800214020FFF7C0F816E0C04823
:104EB000844208D101218020FFF7B8F8002180202A
:104EC000FFF7B4F80AE0BB48844207D101218015FE
:104ED000FFF7ACF80021A015FFF7A8F810BD0022DD
:104EE0000288A84B98420ED0AC4B98420BD0B0F140
:104EF000804F08D0A44B984205D0A44B984202D0D2
:104F0000A34B984204D14FF68F731A404B881A4333
:104F1000A04B984207D0A04B984204D04FF6FF43D5
:104F20001A400B891A4302804B68C3620B880385C1
:104F3000944B984202D0994B984201D18B7A0386C8
:104F40000123838270474FF0FF31416000210180CF
:104F500001814180817270470185828270470A46D3
:104F6000002101884FF68F7319401143018070476B
:104F700041627047C16270470146486A7047014606
:104F8000088D704721B1028842F00202028004E0DD
:104F900002884FF6FD731A400280704721B10288E3
:104FA00042F00402028004E002884FF6FB731A40CC
:104FB0000280704721B1028842F08002028004E042
:104FC00002884FF67F731A400280704702884FF6BE
:104FD000F7731A40028002880A43028070470288F1
:104FE0004FF6FF431A40028002880A43028070474E
:104FF00021B1028842F00102028004E002884FF6EB
:10500000FE731A400280704770B50024002200230E
:10501000058C4FF6FE7635400584028C8388048B20
:105020004FF68F752C40B51E2C400D882C43751EF5
:105030002A408D892A434D882A43524DA84202D0E6
:10504000564DA84213D14FF6F7752A40CD892A4311
:105050004FF6FB752A408D882A434FF6FF652B409B
:105060004FF6FF552B400D8A2B434D8A2B438380EF
:1050700004838D684563028470BD70B500240022EE
:105080000023058C4FF6EF7635400584028C83882B
:10509000048B48F6FF752C404FF6FF452C400D88D9
:1050A0004FF6FF7606EA05252C434FF6DF752A40BA
:1050B0008D8906EA05152A434D8806EA05152A4317
:1050C000304DA84202D0354DA8421DD14FF67F7514
:1050D0002A40CD894FF6FF7606EA05152A434FF69A
:1050E000BF752A408D8806EA05152A434FF6FF351D
:1050F0002B404FF2FF752B400D8A06EA85052B43A6
:105100004D8A06EA85052B43838004838D68856379
:10511000028470BD70B5002400220023058C4FF678
:10512000FF6635400584028C8388848B4FF68F752B
:105130002C404FF6FC752C400D882C434FF6FF5544
:105140002A408D894FF6FF7606EA05252A434D88C9
:1051500006EA05252A430B4DA84202D00F4DA8426E
:1051600038D14FF2FF752A40CD894FF6FF7606EA17
:1051700005252A434FF6FF352A408D8806EA052586
:105180002A4319E0000001400004004000080040EC
:10519000000C0040001000400014004000040140DA
:1051A0000040014000440140004801400018004018
:1051B000001C0040002000404EF6FF752B404DF6CD
:1051C000FF752B400D8A06EA05152B434D8A06EA2A
:1051D00005152B43838084838D68C563028470BD6D
:1051E00070B5002200230024058C4EF6FF76354072
:1051F0000584038C8488828B48F6FF752A404FF61D
:10520000FF452A400D884FF6FF7606EA05252A431A
:105210004DF6FF752B408D8906EA05352B434D88E9
:1052200006EA05352B43FE4DA84202D0FD4DA842AB
:1052300008D14BF6FF752C400D8A4FF6FF7606EA33
:1052400085152C43848082838D680564038470BD3A
:10525000002101804180818081608181C181018242
:105260004182704770B5034600200024184618306C
:1052700001258D40ACB21D8CA5431D8409B10829C0
:105280000AD100EB610005684FF68F763540056066
:105290000568154305600FE00D1FC5F34E05284452
:1052A000056848F6FF763540056005684FF6FF76DD
:1052B00006EA02263543056070BD4163704781638D
:1052C0007047C1637047016470470A460021018B33
:1052D0004FF68F7319401143018370470A4600212E
:1052E000018B48F6FF7319404FF6FF7303EA022360
:1052F0001943018370470A460021818B4FF68F7353
:1053000019401143818370470A460021818B48F67A
:10531000FF7319404FF6FF7303EA02231943818399
:1053200070470A460021018B4FF6F773194011436D
:10533000018370470A460021018B4FF2FF73194029
:105340004FF6FF7303EA02231943018370470A46AD
:105350000021818B4FF6F773194011438183704709
:105360000A460021818B4FF2FF7319404FF6FF73FD
:1053700003EA02231943818370470A460021018B07
:105380004FF6FB7319401143018370470A46002111
:10539000018B4FF6FF3319404FF6FF7303EA0223E8
:1053A0001943018370470A460021818B4FF6FB7336
:1053B00019401143818370470A460021818B4FF6C3
:1053C000FF3319404FF6FF7303EA02231943818329
:1053D00070470A460021018B4FF67F731940114335
:1053E000018370470A460021018BC1F30E014FF67D
:1053F000FF7303EA02231943018370470A46002121
:10540000818B4FF67F7319401143818370470A46A1
:105410000021818BC1F30E014FF6FF7303EA0223D3
:105420001943818370470A460021018C4FF6FD73B2
:1054300019401143018470470A460021018C4FF640
:10544000F77319401143018470470A460021018C0B
:105450004FF6DF7319404FF6FF7303EA0213194347
:10546000018470470A460021018C4FF67F73194072
:105470004FF6FF7303EA02131943018470470A468B
:105480000021018C4FF6FF5319404FF6FF7303EADA
:1054900002231943018470470A460021018C4FF210
:1054A000FF7319404FF6FF7303EA02231943018487
:1054B00070470A460021018C4DF6FF7319404FF6E4
:1054C000FF7303EA023319430184704730B50023A8
:1054D00001248C40A3B2048C9C430484048C02FA03
:1054E00001F5ADB22C43048430BD30B50023042453
:1054F0008C40A3B2048C9C430484048C02FA01F512
:10550000ADB22C43048430BD828B4FF2FF331A407E
:105510008283828B4FF6FF7303EA01231A4382834F
:105520007047F0B50C461546002100220026078C76
:105530004EF6FF7C07EA0C070784818B028C4FF63E
:10554000FF7707EA043640F6FF4739404FF6FF770A
:1055500007EA052739434FF6FF7707EA0337394350
:1055600045F6FF773A4046F480573A4381830284F8
:10557000F0BD828B4FF6F3731A408283828B0A430D
:1055800082837047F0B50C461546002100220026A4
:10559000078C4FF6FF6C07EA0C070784818B028C9F
:1055A0004FF6FF7707EA04264FF60C7739404FF69F
:1055B000FF7707EA03172F4339434FF2FF573A406B
:1055C00046F480773A4381830284F0BD028B4FF228
:1055D000FF331A400283028B4FF6FF7303EA012365
:1055E0001A4302837047F0B50C461546002100228D
:1055F0000026078C4FF6EF7C07EA0C070784018B27
:10560000028C4FF6FF7707EA041640F6FF47394051
:105610004FF6FF7707EA033739434FF6FF7703E08A
:10562000000001400004014007EA052739434FF616
:105630005F773A4046F010073A4301830284F0BD99
:10564000028B4FF6F3731A400283028B0A430283E4
:105650007047F0B50C46154600210022068C4FF627
:10566000FE773E400684018B028C4FF60C7631406B
:105670007E1C06EA03162E4331434FF6F576324080
:1056800044F00106324301830284F0BD70B5054643
:105690000C46208850B92389A28861882846FFF7E4
:1056A000D8FFE1882846FFF7CBFF25E020880428B3
:1056B0000AD12389A28861882846FFF794FFE188F0
:1056C0002846FFF783FF17E0208808280AD123899E
:1056D000A28861882846FFF755FFE1882846FFF732
:1056E00048FF09E02389A28861882846FFF719FF4F
:1056F000E1882846FFF708FF70BD00210180418046
:10570000012181800021C180018170472DE9F04194
:1057100005460C4600260127608808B9022600E0ED
:105720000026A088012801D1022700E00127208857
:10573000A0B92389A28861882846FFF78AFFE188FB
:105740002846FFF77DFF23893A4631462846FFF772
:105750004AFFE1882846FFF739FF13E02389A28832
:1057600061882846FFF73FFFE1882846FFF72EFFB4
:1057700023893A4631462846FFF76BFFE1882846E1
:10578000FFF75EFFBDE8F0810146486B70470146B8
:10579000886B70470146C86B70470146086C7047BC
:1057A0000A884B881A438B881A43CB881A430B8983
:1057B0001A434B891A438B891A43A0F84420704737
:1057C0000021018041808180C180018141818181EE
:1057D000704731B1B0F8442042F40042A0F84420B0
:1057E00005E0B0F84420C2F30E02A0F84420704750
:1057F00021B1828842F00402828004E082884FF660
:10580000FB731A408280704721B1828842F0010206
:10581000828004E082884FF6FE731A4082807047CF
:105820001AB183890B43838102E083898B4383818F
:1058300070478182704702460020138A0B4201D0D4
:10584000012000E000207047CA430282704730B553
:105850000246002000230024158A05EA01039589E9
:1058600005EA010413B10CB1012000E0002030BDB5
:10587000CA430282704741EA0203A0F848307047E9
:105880001AB183890B43838102E083898B4383812F
:10589000704721B1828842F00802828004E0828849
:1058A0004FF6F7731A408280704701894FF6F872FD
:1058B0001140018170470A46002101894FF68F731C
:1058C000194011430181704730B504460D46294601
:1058D0002046FFF7F0FF208940F00700208130BD0F
:1058E0002DE9F04104460D4616461F46602D06D1AF
:1058F0003B46012231462046FFF775FE05E03B4658
:10590000012231462046FFF7A4FE29462046FFF734
:10591000D2FF208940F007002081BDE8F08130B53A
:105920000C4600210189C9B24FF6FF7505EA03252F
:10593000154325432943018130BD2DE9F04105463A
:105940000E4617469846002443463A4631462846B6
:10595000FFF7E5FF2C894FF6F870044044F0070488
:105960004FF68F70044044F070042C81BDE8F08144
:10597000F0B504460D4616461F463B4632462946BC
:105980002046FFF7CCFF208940F480402081F0BD05
:1059900082884FF68F731A40828082880A43828001
:1059A000704702894FF6F8731A40028102890A4350
:1059B0000281704702894FF67F731A400281028983
:1059C0000A4302817047F0B50C4615461E46002179
:1059D000002200230189028B038C4FF6F8773940AF
:1059E00021434FF6FC473A4040F201173A434FF645
:1059F000DD773B404FF6FF7707EA06172F433B431F
:105A0000018102830384F0BD21B1828842F08002CB
:105A1000828004E082884FF67F731A40828070474C
:105A2000A0F850107047000030B943F2DB014FF08E
:105A3000204242F8201005E043F2D2014FF020420C
:105A400042F820106FF07042411C4FF0204343F8A1
:105A5000212011461A4602EB8002C2F80411704759
:105A6000D0E901121143C26811430269114342692E
:105A7000114382691143C2691143026A1143426AA8
:105A80001143826A1143C26A1143026B11434FF002
:105A90002043026843F822108168082908D11A4679
:105AA000016852F8211041F04001026843F82210C9
:105AB000416B0968426B526841EA0211426B92687D
:105AC00041EA0221426B928941EA0241426B128A09
:105AD00041EA0251426B127D41EA0261426B9269D6
