:020000040800F2
:10000000206E01206D3800082D0800082F08000818
:10001000390800083D0800084108000800000000F9
:10002000000000000000000000000000450800087B
:1000300047080008000000001F9A01088B93000881
:100040008738000887380008873800088738000894
:100050008738000887380008873800088738000884
:100060008738000887380008873800088738000874
:100070008738000887380008873800088738000864
:10008000ED700108873800088738000887380008B5
:100090008738000887380008873800088738000844
:1000A0008738000887380008873800088738000834
:1000B0008738000829350008873800088738000885
:1000C0008738000887380008873800088738000814
:1000D00087380008D93700088738000887380008B3
:1000E00087380008873800088738000887380008F4
:1000F00087380008873800088738000887380008E4
:1001000087380008A13100088738000887380008C0
:1001100087380008873800088738000887380008C3
:1001200087380008873800088738000887380008B3
:1001300087380008873800088738000887380008A3
:100140008738000887380008873800088738000893
:100150008738000887380008873800088738000883
:100160008738000887380008873800088738000873
:100170008738000887380008873800088738000863
:100180008738000887380008DFF80CD019F064FBC6
:10019000004800473F040008206E012000BF704760
:1001A00000BF000030BF72B6704762B6704780F380
:1001B0000888704710B5EC4890F8560030B1012817
:1001C00008D002280AD0032810D10BE0E7A000F0E5
:1001D0006DFC0BE0EBA000F069FC07E0EFA000F085
:1001E00065FC03E0F3A000F061FC00BF00BFDE4847
:1001F00090F82C10F5A000F059FCDB48B0F8541032
:10020000F9A000F053FCD848D0E91220030343EAD8
:100210001251F9A000F04AFCD348016DFCA000F097
:1002200045FC10BDF0B591B005460026294608A84A
:100230000FF0C0FF044640F2FF10079004BB069881
:10024000F0B11BE0694608A810F003F8044614B9A1
:100250009DF8090000B912E00698007808B10698E8
:1002600001E00DF10900074638460DF0D7FE0446BF
:1002700004F0F000502801D1701C86B2E2E700BF04
:10028000304611B0F0BD2DE9F0438FB08146002714
:10029000E5A011F00AFA85B2E5A000F007FC002401
:1002A00012E00120009004EBC40000EB0410E549CB
:1002B00001EB400218230421204618F09AFF142075
:1002C00003F0F9F9601CC4B2AC42EADB284616F030
:1002D00028FD16F0D3FE1DE000200DF069FD8046DC
:1002E0004146D9A000F0E2FB07EBC70000EB071086
:1002F000D44901EB4003CCA2D7A101A819F0C0FB5F
:1003000001A816F054FED64846780B2E00D102E024
:10031000D448C788E0E700BF0EA9D3480BF079FFA7
:10032000BDF83810D1A000F0C1FB0FB0BDE8F083DC
:100330000EB5D6A000F0BAFB0BE0002001F0E9F802
:1003400002A8002132230A46CDE9001008460DF02C
:1003500089F8F2E78CB0A82003F064F90BA80BF041
:1003600064FCD0A000F0A2FB0BA8032100220592A0
:10037000CDE90621089011464FF40072CF48D0F81D
:10038000CC00CE4BCDE90130CDE903210120002383
:10039000CB4ACCA10090D0480BF0ABFECFA000F030
:1003A00085FBD4A000F082FB0BA80321002205925C
:1003B000CDE90621089011464FF40072D448D0F8D8
:1003C000CC00D34BCDE90130CDE90321022000233D
:1003D000D04AD1A10090A4480BF08BFED2A000F02F
:1003E00065FB2BE04021D74803F0C8FB8021D548AE
:1003F00003F0C2FB0BA800214FF47A730A46CDE943
:10040000001008460DF02EF84021CE4803F0B4FB52
:100410008021CC4803F0B2FB0BA800214FF47A7383
:100420000A46CDE9001008460DF01CF80AA800F0B5
:10043000E9FF0A9810B10A9800F030FDD2E700B544
:100440008DB005F096FE06F029FD4FF4A06003F094
:100450001FFA4FF4E13003F069F9BBA000F026FB6E
:1004600000F006FB00F084FF00200DF086FC15E094
:10047000B8A000F01BFB4FF4FA7003F01CF9B9A010
:1004800000F014FB4FF4FA7003F015F9B948006856
:1004900008B9012000E00020B649086001F066FEBE
:1004A0000028E5D1FFF786FE0DF076FDB249012266
:1004B0000868B2A10FF012FA0EE0B1A000F0F6FA4F
:1004C0004FF4FA7003F0F7F8AA48006808B9012061
:1004D00000E00020A74908600AAA0BA9AEA00DF011
:1004E000F3FD0028E9D10B98810AACA000F0DEFAF8
:1004F0000A98810AAFA000F0D9FA18F015FE18B9D1
:10050000B3A000F0D3FA02E0B6A000F0CFFA0120C9
:1005100018F050F80CA809F00EF8B6A000F0C6FAD2
:100520000CA8032100220592CDE90621089011466E
:100530004FF40072B348D0F8CC00B24BCDE9013093
:10054000CDE9032101200023AF4AB0A10090B348B8
:100550000BF0CFFD0CA809F0F6F9B1A000F0A6FA57
:1005600000200DB000BD0000D01E00204361726469
:1005700020547970653A534453432056312E310D3F
:100580000A0000004361726420547970653A534454
:1005900053432056322E300D0A000000436172642E
:1005A00020547970653A534448432056322E300D1A
:1005B0000A0000004361726420547970653A4D4D21
:1005C0004320436172640D0A0000000043617264BD
:1005D000204D616E75666163747572657249443A47
:1005E00025640D0A000000004361726420524341FB
:1005F0003A25640D0A000000436172642043617073
:1006000061636974793A2564204D420D0A00000047
:100610004361726420426C6F636B53697A653A255B
:10062000640D0A0D0A0000006D7573696300000017
:10063000BDF8C8EBD2F4C0D6B2A5B7C5C8CECEF1CE
:100640000A000000F8290120C4DAB4E620757365B9
:10065000643D2025640A000025732F2573000000E7
:10066000E4350120FC35012008130020C9BEB3FD8C
:10067000D2F4C0D6C8CECEF1BFD8D6C6BFE9BDE150
:10068000CAF86572723D3D25640A0000BDF8C8EBEA
:10069000CFB5CDB3BCFCC5CCC9A8C3E8C8CECEF19C
:1006A0000A0000000D0AD5FDD4DAB4B4BDA8CFB558
:1006B000CDB3C8CECEF10D0A00000000080B00201B
:1006C0003103000853797374656D205461736B2096
:1006D00053746172740000006C0A00200D0AB4B4F7
:1006E000BDA8CFB5CDB3C8CECEF1BDE1CAF80D0AD5
:1006F000000000000D0AD5FDD4DAB4B4BDA8D2F4D0
:10070000C0D6B2A5B7C5C8CECEF10D0A0000000014
:10071000A4130020870200086D7033205461736BAE
:1007200020537461727400000D0AB4B4BDA8D2F4F1
:10073000C0D6B2A5B7C5C8CECEF1BDE1CAF80D0A84
:100740000000000000000240656E74657220636F57
:1007500072650A0053442043617264204572726FCF
:1007600072210A00506C6561736520436865636B94
:1007700021200A009802404280290120303A0000DE
:10078000534420436172642046617466732045724D
:10079000726F7221000000003000000053442054AA
:1007A0006F74616C2053697A653A2564204D420A62
:1007B0000000000053442020467265652053697A8A
:1007C000653A202564202020204D420A00000000C8
:1007D0006F70656E20666F6E7420737563636373EC
:1007E000650A00006F70656E20666F6E742066612A
:1007F000696C0A00B3F5CABCBBAF686F6F6BBAAF68
:10080000CAFD0A006C0200205503000841707020E8
:100810005461736B2053746172740000D001002026
:10082000BFAACABCC8CECEF10A000000704707A01C
:1008300000F03CF900BFFEE700BFFEE700BFFEE7A7
:1008400000BFFEE770477047704770470AD3B2BCDD
:10085000FEB4EDCEF3A3ACBDF8C8EBCBC0D1ADBBBD
:10086000B70A00000CB500200190009075480068A0
:1008700040F480307349086000BF7248006800F49B
:10088000003000900198401C0190009818B9019820
:10089000B0F5A04FF1D16B48006810F4003F02D0D2
:1008A0000120009001E0002000900098012845D12F
:1008B00064484030006840F0805062494031086030
:1008C0006148006840F440405F4908605D48083076
:1008D00000685C49083108600846006840F4004040
:1008E00008600846006840F4A05008605748091F97
:1008F0000860081F006840F08070091F086000BF92
:100900005048006810F0007FFAD040F2057050495E
:1009100008604C480830006820F00300494908315D
:1009200008600846006840F00200086000BF4548C3
:100930000830006800F00C000828F8D10CBD10B594
:100940004448006840F47000424908603D4800682F
:1009500040F001003B49086000203A490831086036
:10096000384800683C490840364908603B48091D42
:100970000860081F006820F48020091F086000201C
:1009800030490C310860FFF76DFF4FF000603149CE
:100990008039086010BD70B50020002202230024B9
:1009A0000221284D08352D6805F00C0020B10428DF
:1009B00006D0082834D107E0294D2A4E356033E0AF
:1009C000294D284E35602FE01E4D2D1D2D68C5F395
:1009D00080541C4D2D1D2D6805F03F0154B1224D52
:1009E000B5FBF1F5174E361D3668C6F3881605FBC4
:1009F00006F209E01A4DB5FBF1F5124E361D3668C8
:100A0000C6F3881605FB06F20E4D2D1D2D68C5F3A5
:100A100001456D1C6B00B2FBF3F5124E356003E02F
:100A20000F4D104E356000BF00BF064D08352D68D4
:100A3000C5F303150D4E705D0A4D2D68C540094E76
:100A4000356070BD00380240007000400854400717
:100A5000003C024088ED00E0FFFFF6FE103000246D
:100A60000024F4000000002000127A00040000209E
:100A70001CB50121084603F0B1FAC0200090012006
:100A80008DF8040000208DF8060003208DF8050085
:100A900001208DF807006946034802F0F1FFC021EC
:100AA000014803F069F81CBD000002400FB430B5E6
:100AB000C1B0684620B9002041B030BC5DF814FBDD
:100AC00045A840906846409A449918F0EDFF6C465E
:100AD000002505E0207802F020FE641C681CC5B2E9
:100AE00020780028F6D140902846E5E7F8B505467D
:100AF0000E4600200090002414E0002C09DDE117D0
:100B000004EB11710911B4EB011102D122A0FFF71E
:100B1000CDFF285D8DF800009DF800101FA0FFF7A5
:100B2000C5FF641CB442E8D31BA0FFF7BFFFF8BDAC
:100B30002DE9F04705460E4617464FF0000A0024FF
:100B400026E015F804804FF000091DE0B24504D9F5
:100B500014A0FFF7ABFF4FF0000A18F0800F04D08D
:100B60002A2111A0FFF7A2FF02E00DA0FFF79EFFD0
:100B70004FEA48604FEA10680AF1010000F0FF0AEE
:100B800009F1010000F0FF09B9F1080FDEDB641C78
:100B9000BC42D6D3BDE8F0870D0A0000253032589C
:100BA000200000000A000000256300001CB50121A0
:100BB000102003F013FA4FF4F060009001208DF83C
:100BC000040000208DF8060003208DF805000120A8
:100BD0008DF807006946FE4802F052FF4FF4F040DE
:100BE000009000208DF804008DF8060003208DF899
:100BF000050001208DF807006946F54802F040FF26
:100C00004FF4F061F24802F0B7FF1CBD7CB504461A
:100C100000208DF804008DF8060003208DF80500F3
:100C200001208DF807004FF4F0652946E84802F0EE
:100C3000A3FF2CB1802000906946E54802F020FF18
:100C4000012C06D04FF4807000906946E04802F015
:100C500017FF022C06D04FF4007000906946DC4864
:100C600002F00EFF032C06D04FF48060009069461E
:100C7000D74802F005FF01208DF8040000208DF810
:100C8000060003208DF8050001208DF8070034B11F
:100C9000012C0FD0022C1AD0032C32D124E080205A
:100CA00000906946CA4802F0EBFE8021C84802F075
:100CB00065FF2AE04FF4807000906946C44802F056
:100CC000DFFE4FF48071C24802F058FF1DE04FF480
:100CD000007000906946BE4802F0D2FE4FF40071E9
:100CE000BB4802F04BFF10E04FF480600090694673
:100CF000B74802F0C5FE4FF48061B54802F03EFFF0
:100D000003E0B4A0FFF7D2FE00BF00BF00207CBD0F
:100D100070B50446AE4802F01EFF0546C5F3C32079
:100D20002060002070BD10B5FFF740FF0020FFF7E6
:100D30006DFF0020AC490872401E0860486000202A
:100D40004872AA4981F8510081F8500010BD08B5D9
:100D50006846FFF7DDFF009800F00F00A249097A0E
:100D600089008840A24909680844A14908609E4852
:100D7000007A401C9C4908720846007A042805DB6A
:100D80009B48008880B20090002008729649087A3B
:100D9000FFF73CFF9448007A002855D192484068FC
:100DA00093490968884206D0914800688E49486096
:100DB0000020487245E08C4800688D4909688842E7
:100DC0003CD08948407A401C874948720846407A9E
:100DD000022836DB0846006885490968484083498F
:100DE00091F85010814A42F83100104690F85000B6
:100DF00052F830107E4802687EA0FFF757FE7C480C
:100E000000687A4991F85010784A02EBC1014860B5
:100E1000104690F85000401C114681F850000846DA
:100E200090F850000A2802DB002081F8500070483A
:100E300000686D4908600020487202E000206A499D
:100E4000487272486A49086008BD0146674890F8D0
:100E50005000664A92F8512090421DD0634890F8A5
:100E60005100624A52F830000860104690F8510074
:100E700002EBC00040684860104690F85100401CEA
:100E800082F85100104690F851000A2802DB002039
:100E900082F85100012070470020FCE710B504469D
:100EA000102C23D2DFE804F008090A0B0C0D0E0FFA
:100EB000101112131415161700BF00BF00BF00BF9A
:100EC00000BF00BF00BF00BF00BF10E000BF00BFF9
:100ED00000BF00BF00BFA4F10A0000EB80004C4A35
:100EE00002EB40014BA0FFF7E1FD00E000BF00BFB7
:100EF00010BD10B500204A4981F8210081F820007A
:100F00004849887508754875401E0861FFF70BFF52
:100F1000002010BD012044490870002070470020C7
:100F20004149087070473E4890F820003C4981F8DC
:100F30002100002070470146394890F82000384AC7
:100F400092F82120904216D0354890F8212090F850
:100F50002100401C324B83F82100184650F8220033
:100F60000860184690F82100082806DB00201A4681
:100F700082F8210001E0002008600020704701464F
:100F8000274890F82000264A92F82120904207D066
:100F9000234890F82100224A52F82000086001E01E
:100FA000002008600020704701461D4890F820206E
:100FB00090F82000401C1A4B83F82000184640F897
:100FC000221090F82000082832DB00201A462DE07D
:100FD000001002406B6579207363616E2065727248
:100FE00020636F6C0D0A0000A41B0020B01B0020C2
:100FF000580000206368673A253034782C207374D9
:10100000613A253034780D0A000000000000FFFF2F
:1010100014000020B0B4CFC23A25730A00000000CB
:10102000041C0020281C00205000002082F8200012
:101030000020704710B5EF20FFF7B6FF002010BD6D
:1010400010B50346002010BD70B5024600200F21E8
:10105000002312E0FB4D05EBC1052E790125B540BB
:1010600005EA02043CB901EB00205D1CEBB2042B45
:1010700001DD002003E04D1E69B20029EADA00BF5D
:1010800070BD7CB5F048007800B97CBD6846FFF7BC
:10109000DCFE0546012D4AD1ECA0DDE90012FFF788
:1010A00005FDEF48006901990843401C08D100F094
:1010B00075FAEB49886008468168EAA0FFF7F6FCFC
:1010C000E749019808610198FFF7BEFF0446E4482C
:1010D00004602146E7A0FFF7E9FCDDE900010842D2
:1010E00011D12146E6A0FFF7E1FCDD48407D30B993
:1010F0002146E6A0FFF7DAFC2046FFF755FF012066
:10110000D74908750BE0E5A0FFF7D0FC0198401C1B
:1011100005D1E5A0FFF7CAFC0020D14908754FF4BE
:10112000FA60CF49C86000F039FACD494860CC4830
:10113000007D01280ED1CA49886842F2107100F082
:1011400030FA012810D1C648407D68B90120C44951
:10115000487509E0C248007D30B9C148407D01288A
:1011600002D10020BE494875BD48807D01281BD1B1
:10117000BB48407DC0B9BA48007D012814D1B84AA7
:10118000D168506800F00DFA01280DD1B44800680C
:10119000012803D0B2490868FFF706FF00F0FEF906
:1011A000AF494860C820C86000BF6EE700B5FFF7D0
:1011B000B6FE00BD10B5FFF79CFEFFF7ABFE10BDFD
:1011C000A74800699F490A7B01219140084201D14B
:1011D000012070470020FCE708B543E0FFF7B7FDAA
:1011E000FFF74FFF6846FFF7A6FE0098002839D0AA
:1011F0000098C0B200EB8000AD4A02EB8001ADA0C8
:10120000FFF754FC0098000A0090009848B100983D
:10121000C0B200EB8000A64A02EB8001A8A0FFF755
:1012200045FC0098000A0090009848B10098C0B2B0
:1012300000EB80009E4A02EB8001A1A0FFF736FC84
:101240000098000A0090009848B10098C0B200EBE6
:101250008000974A02EB800199A0FFF727FC99A034
:10126000FFF724FCBAE700B598480068401C04D199
:10127000FFF750FE002095490860002000BD00B532
:101280009248006828B9FFF74AFE4FF0FF308F49B7
:101290000860002000BD00B58C48006818B9FFF751
:1012A00042FE002000BD6FF00600FBE778B5054662
:1012B0000024002028606846FFF73DFE009E83481A
:1012C0000068401C01D1C01F78BD009808B90020FB
:1012D000FAE7009810F0FF0F00D0641C0098000A95
:1012E0000090009810F0FF0F00D0641C0098000AD6
:1012F0000090009810F0FF0F00D0641C0098000AC6
:101300000090009810F0FF0F00D0641C2E60204663
:10131000DAE770B504460D4616466C480068401C76
:1013200001D1C01F70BD324629462046FFF788FE16
:10133000F8E718B504466846FFF7FDFD009810F081
:10134000FF0F11D0009830F0FF000DD10098EF286A
:1013500003D100982060002018BD0098C0B25C49FD
:1013600051F82000206001E0002020600020F3E719
:101370001CB50121102002F031FE3F20009000201A
:101380008DF8040003208DF8050001208DF807007A
:101390006946504802F074FB00204F4981F8210053
:1013A00081F820001CBD10B5044621464BA0FFF774
:1013B0007DFB0F2C10D100BFBFF34F8F4C4800684E
:1013C00000F4E0604B490843001D49490860BFF341
:1013D0004F8F00BF00BFFEE73F4890F8201090F805
:1013E0002000401C3C4A82F82000104640F8214072
:1013F00090F82000082803DB0020114681F8200027
:10140000002010BD0146344890F82000324A92F87E
:101410002120904271D0304890F8212090F821008E
:10142000401C2D4B83F82100184650F8220008601C
:10143000184690F82100082861DB00201A4682F83F
:1014400021005CE074A40108500000206368673A42
:1014500020253034782C20253034780D0A00000007
:10146000281C0020B5B1C7B0CAB1BBF9CEAA25640B
:101470000D0A0000B0B4CFC22025640D0A000000A0
:10148000B0B4CFC220253038780D0A00D0B4D2BB1A
:10149000B8F6BCFCD6B525640D0A0000C6E4CBFB4B
:1014A000B1E4BBAF0D0A0000CEDEBCFC0D0A0000AB
:1014B000F4A401086B65793A202573200000000030
:1014C000257320002D2D0D0A00000000540000207F
:1014D00098A6010800100240401C0020D0B4C8EBC0
:1014E000D2BBB8F6BCFCD6B53D25640A00000000AE
:1014F0000CED00E00000FA05FFE700200860002086
:101500007047224890F82000204981F821000020EF
:1015100070472DE9F0410646012716B101201C490C
:1015200008701C4802F017FB0446E04384B204F044
:101530003F0417480078C0B1BCB11748048032207E
:1015400002F096F8002012490870002507E014F018
:10155000010F01D0681C47436410681CC5B2062DFA
:10156000F5DB3846FFF71FFF0DE01CB901200849E5
:10157000087008E008480088844204D006480480C7
:101580000120034908700020BDE8F081401C0020C4
:101590006600002000100240640000201649086820
:1015A000704730B502460D46FFF7F8FF03469342F9
:1015B00001D39C1A02E0D01AC0F1FF34AC4201D32F
:1015C000012030BD0020FCE700B50246FFF7E6FF32
:1015D0001060002000BD30B50446FFF7DFFF054670
:1015E00006E021462846FFF7DCFF012800D100E095
:1015F000F7E700BF30BD0000240100200020FE49B5
:101600000860091D0860091D0860091D0860FA4985
:1016100024310860091D0860091D0860F748F64973
:10162000383108600020091D08607047014600201D
:10163000012900D011B9F24B197000E02620704743
:101640000146ED4A121D106820F0FF0008431060AB
:10165000704770B5044606E0E7483430056815F079
:10166000450F00D000E0F7E700BF042003F0D3FBF4
:1016700020B1042003F0DAFB032070BD012003F049
:10168000CAFB20B1012003F0D1FB0120F5E7DA48C5
:1016900010300068A04201D01020EEE740F2FF5069
:1016A00003F0C4FBD4481430006808210840C0B2DD
:1016B000E3E72DE9FC4107460D4600260024002003
:1016C000009001900820CF49086010204860402019
:1016D00088600020C8604FF480600861084603F00D
:1016E0000AFB1020FFF7B5FF044614B12046BDE801
:1016F000FC81C54800880004C24908603720486062
:10170000402088600020C8604FF48060086108466F
:1017100003F0F1FA3720FFF79CFF04460CB1204696
:10172000E5E74FF0FF30B9490860082048603020F5
:1017300088600220C86000200861012048610846D6
:1017400003F005FB0020AF490860332048604020CB
:1017500088600020C8604FF480600861084603F08C
:10176000CAFA3320FFF775FF04460CB12046BEE7E6
:101770000DE04FF4001003F04EFB40B19E48803066
:1017800000684DF82600761C022E00D306E09A4829
:101790003430006840F22A610842EAD000BF0820D5
:1017A00003F039FB20B1082003F040FB04209EE742
:1017B000022003F030FB20B1022003F037FB0220AF
:1017C00095E7202003F027FB20B1202003F02EFB1B
:1017D00006208CE74FF4007003F01DFB28B14FF496
:1017E000007003F023FB072081E740F2FF5003F075
:1017F0001DFB00980006009901F47F4140EA01209A
:10180000009901F47F0140EA1120009940EA11603B
:10181000686001980006019901F47F4140EA0120C7
:10182000019901F47F0140EA1120019940EA116019
:10183000286020465BE77CB5054600240020009028
:10184000019000260DB1022600E000266A481430FF
:10185000006810F0007F01D00E207CBD6A49098825
:1018600088B26946FFF725FF04460CB12046F4E72D
:10187000019810F4802F2CD063480088000461493F
:10188000086037204860402088600020C8604FF41E
:1018900080600861084603F02EFA3720FFF7D9FE72
:1018A00004460CB12046D8E7564806600620554944
:1018B0004860402088600020C8604FF48060086164
:1018C000084603F018FA0620FFF7C3FE0446204638
:1018D000C3E72520C1E770B5044600254C480078D1
:1018E000032802D12725284670BD4948007838B121
:1018F00047480078012803D045480078022819D1CC
:10190000B4F5805F02D127252846EDE7E0B2FFF766
:1019100092FF054675B93848001D006820F4C05094
:101920003549091D086008460068204308600846DC
:10193000006808602846D7E710B5044631480460BF
:10194000072030494860402088600020C8604FF47C
:1019500080600861084603F0CEF90720FFF779FEA2
:1019600010BDF0B5014600200022294B1B7881F8FC
:101970005630254B1B88A1F85430264B1B681A0E95
:1019800093090B70C2F383034B7002F003038B7057
:10199000204B1B68C3F30742CA701E4B1B88C3F35E
:1019A00007220A711B4B1A784A715B681A0E1301E1
:1019B000CB80184B5B68C3F30742CB8843EA121312
:1019C000CB8002F00F030B72124B9B88C3F30722EC
:1019D000D3094B72C2F380138B72C2F34013CB72E4
:1019E000C2F300130B7300234B73094B1B78C3B175
:1019F000074B1B78012B0FE0002C0140FF07C000B4
:101A000070000020801C00206C000020941C00202E
:101A100068000020AC1E002003D0FE4B1B78032B77
:101A20004FD193071B0D0B61FB4B1A790B6943EAEE
:101A300082030B61F84B9B681A0E0B6943EA921301
:101A40000B61C2F3C2030B7502F007034B75F24B37
:101A50009B68C3F3074253098B75C2F38203CB75AE
:101A600093075B0F0B76EC4B1B89C3F307220B7EAE
:101A700043EAD2130B760B695B1C0024C1E91234D4
:101A80000B7E9B1C012404FA03F3DC17D1E91256E8
:101A9000A5FB037C06FB03C305FB0433C1E91273FA
:101AA0000C7A0123A3400B650024D1E912650B6D6C
:101AB000A6FB037C05FB03C306FB0433C1E91273D9
:101AC0002EE0D44B1B78022B2AD1D34B1A799306E4
:101AD0009B0A0B61D04B9B681A0E0B6943EA0223E9
:101AE0000B61CD4B9B68C3F307420B6913430B613A
:101AF000C94B1B89C3F307220B695B1C4FF40074AD
:101B0000A3FB04464FF480630025A4FB037C06FB83
:101B100003C304FB0533C1E912734FF400730B6573
:101B2000C2F3801301F8193F93065B0E4B70BA4B5A
:101B30001A7A4B7843EAD2134B7002F07F038B7012
:101B4000B54BDB681A0ED309CB70C2F341130B718E
:101B5000C2F382034B7193071B0F8B71AE4BDB6893
:101B6000C3F307428B7943EA92138B71C2F340139C
:101B7000CB7100230B7202F001034B72A64B9B89C1
:101B8000C3F30722D3098B72C2F38013CB72C2F363
:101B900040130B73C2F300134B73C2F381038B73B7
:101BA00002F00303CB739C4B1A7B53080B74012385
:101BB0004B749A4B1B681A0ECA74A1F11901974B0A
:101BC0001B68C3F307424FEA0224CC85934B1B8862
:101BD000C3F30722CB8D43EA0203CB858F4B1A78E0
:101BE0004FEA02640C635B684FEA13620B6B43EAD3
:101BF00002440C63894B5B68C3F307420B6B43EAF7
:101C000002240C63854B9B88C3F307220B6B43EACA
:101C100002030B63814B1A794FF034035A547F4B04
:101C20009B684FEA13624FF035035A547B4B9B6815
:101C3000C3F307424FEA02648C63784B1B89C3F3FA
:101C400007228B6B43EA02448C63744B1A7A8B6BCA
:101C500043EA02248C63714BDB684FEA13628B6B9F
:101C600043EA02038B636D4BDB68C3F307424FF01B
:101C70003C035B5C43EA12144FF03C035C544FEAB4
:101C800002734FEA1354CC87644B9B89C3F307223A
:101C9000CB8F43EA0203CB87604B1A7B4FEA520497
:101CA0004FF040035C544FF001044FF041035C548B
:101CB000F0BD70B500264FF4803505E05848046843
:101CC00014F0450F00D003E02800A5F10105F5D17F
:101CD00000BF15B114F0040F05D00326042003F053
:101CE000A5F8304670BD012003F095F818B1012623
:101CF000012003F09BF840F2FF5003F097F83046C4
:101D0000F0E72DE9F04105460E464FF0000805E0EA
:101D10004348076817F0450F00D000E0F8E700BF20
:101D2000042003F078F828B1042003F07FF80320A2
:101D3000BDE8F081012003F06EF820B1012003F02E
:101D400075F80120F4E7364824380068A84201D02D
:101D50001020EDE740F2FF5003F068F830482038DB
:101D6000046814F4604F03D1200C30804046DFE754
:101D700014F4005F01D01320DAE714F4804F01D08F
:101D80001020D5E714F4004F01D00F20D0E74046D3
:101D9000CEE738B500240120009002F0A6FF10B96C
:101DA0002524204638BD1B480078042825D0002073
:101DB0001C49086002204860C02088600020C8607C
:101DC0004FF480600861084602F095FFFFF771FF4D
:101DD00004460CB12046E5E71148203800680F4959
:101DE00008600F481C38006848600D4818380068C3
:101DF00088600B4814380068C86006480078B0B1A5
:101E000004480078012812D00248007806280ED035
:101E1000004809E068000020AC1E0020BC1E002025
:101E2000342C0140801C00200078022816D10020AC
:101E3000FE49086003204860402088600020C86098
:101E40004FF480600861084602F055FF69460320A0
:101E5000FFF757FF04460CB12046A3E7F44800788B
:101E6000032816D1BDF800000004F04908600320E3
:101E70004860402088600020C8604FF4806008619E
:101E8000084602F038FFFFF714FF04460CB1204665
:101E900088E7E748007804282AD0BDF80000E54923
:101EA0000860BDF800000004E049086009204860AF
:101EB000C02088600020C8604FF480600861084638
:101EC00002F019FFFFF7F5FE04460CB1204669E762
:101ED000D9480068D9490860D748001D00684860A3
:101EE000D548083000688860D3480C300068C86066
:101EF000002057E710B506E0CF482030046814F002
:101F0000450F00D000E0F7E700BF042002F083FF98
:101F100020B1042002F08AFF032010BD40F2FF50E0
:101F200002F084FF0020F8E770B500264FF48035FA
:101F300006E0C1482030046814F0450F00D003E0EB
:101F40002800A5F10105F4D100BF15B114F0040F6C
:101F500005D00326042002F069FF304670BD14F05E
:101F6000400F03D00026402002F060FF3046F5E726
:101F700070B500254FF4803404E0802002F04BFF60
:101F800000B103E02000A4F10104F6D100BF0CB9B8
:101F9000032070BD40F2FF5002F048FF2846F8E7EA
:101FA0002DE9F0470027002400260025A046A14681
:101FB0007620A34908750020086048608860C860E2
:101FC0000861084602F06DFE032002F08AFE9A487E
:101FD0001038006840F4807097491039086000BFDD
:101FE00012E000209149086048608860C8604FF4A2
:101FF00080600861084602F07EFEFFF7B9FF0446E4
:1020000004B903E0781CC7B24A2FEADB00BF14B161
:102010002046BDE8F0874FF4D57084490860082059
:102020004860402088600020C8604FF480600861EC
:10203000084602F060FEFFF777FF044624B901204E
:102040007B4908704FF080490020784908603720AC
:102050004860402088600020C8604FF480600861BC
:10206000084602F048FE3720FFF7F3FA0446002C3A
:102070004BD134E000206D49086037204860402093
:1020800088600020C8604FF480600861084602F054
:1020900032FE3720FFF7DDFA04460CB12046B8E7E0
:1020A000684849EA000061490860292048604020EA
:1020B00088600020C8604FF480600861084602F024
:1020C0001AFEFFF717FF04460CB12046A1E75A4855
:1020D0000668012080EAD67080F001086D1CB8F116
:1020E000000F03D14FF6FF708542C3D34FF6FF7048
:1020F000854202D31B2420468BE706F08040060071
:1021000032D002204A4908702EE01CE04E48474970
:10211000086001204860402088600020C8604FF4BB
:1021200080600861084602F0E6FDFFF7E3FE044622
:102130000CB120466DE740480668012080EAD67061
:1021400080F001086D1CB8F1000F03D14FF6FF704D
:102150008542DBD34FF6FF70854202D31B24204615
:1021600057E7032032490870204652E73EB5002465
:102170000121364801F032FF0121C80201F088FF39
:102180000121C80201F0D9FF4FF4F850019002205C
:102190008DF808008DF8090000208DF80A00012054
:1021A0008DF80B0001A92A4801F06AFC0420019077
:1021B00001A9284801F064FC0C220821244801F000
:1021C000EAFC0C220921224801F0E5FC0C220A213C
:1021D0001F4801F0E0FC0C220B211D4801F0DBFC44
:1021E0000C2211461A4801F0D6FC0C220221194893
:1021F00001F0D1FC00214FF4006001F09EFFFFF7D9
:10220000FDF931208DF8000000208DF801008DF8D7
:10221000020001208DF80300684601F03EFBFFF745
:10222000BFFE0446CCB9FFF7B4FD15E0801C0020CA
:10223000680000206C000020142C0140AC1E00201F
:10224000681C0020000010800080FF800C0040000F
:1022500000080240000C024004461CB9FE48FFF78B
:1022600080FB044634B9FC49B1F854100804FFF768
:1022700063FB044624B94FF40060FFF72CFB0446CF
:102280001CB1F6480078032806D10020FFF7D8F9E2
:102290000120FFF7CBF9044620463EBD10B50020D3
:1022A00002F01FFD002010BD70B590B004460E4630
:1022B000154600BFEA4802F040FC0028FAD1E84881
:1022C00002F012FB4FF000600190E6480290039488
:1022D00004950020059006904FF4806007908000E0
:1022E00008908000099000200A904FF440300B9035
:1022F00004200C9003200D904FF400000E908010ED
:102300000F9001A9D64802F091FB2021D44802F099
:10231000DDFB0121D24802F0C3FB10B070BD0146C5
:10232000002002E04910421CD0B20129FAD17047C6
:102330002DE9F84F8146174698460A9C4FF0000A4F
:10234000D3464D464FF0FF36B9F1000F02D126209B
:10235000BDE8F88F0020C34954390860BF480078B1
:10236000022805D10402780A40EAC8574FEA6828D3
:102370000020BD4988604860401E08600120486117
:102380000020C8600861084602F0E1FCB5486C38DE
:10239000006810F0007F01D00E20D9E7002C21DD6D
:1023A000B4F5006F1EDC601E20421BD12046FFF7F3
:1023B000B6FF0090AD4804601020AC494860402052
:1023C00088600020C8604FF480600861084602F011
:1023D00092FC1020FFF73DF98246BAF1000F03D0BE
:1023E0005046B5E72620B3E7009800019E49886073
:1023F000084644604FF0FF30086001204861022029
:10240000C86000200861084602F0A1FC97480760F8
:10241000112096494860402088600020C8604FF431
:1024200080600861084602F066FC1120FFF711F990
:102430008246BAF1000F01D0504689E78C480078F7
:10244000002859D1FDF7AFFE17E04FF4004002F02D
:10245000E2FC70B14FF0000B05E08248006845F8DF
:102460002B000BF1010BBBF1080FF6D32035814E89
:1024700003E00EB904206BE7761E7A484C380068FA
:1024800040F22A610842E0D0082002F0C4FC20B1EA
:10249000082002F0CBFC04205AE7022002F0BBFC2B
:1024A00020B1022002F0C2FC022051E7202002F0FD
:1024B000B2FC20B1202002F0B9FC062048E74FF41E
:1024C000007002F0A8FC28B14FF4007002F0AEFCDE
:1024D00007203DE703E06348006828602D1D4FF4A6
:1024E000001002F098FC0028F5D1FDF75EFE40F2E6
:1024F000FF5002F09BFC39E05D480078012835D19F
:1025000000205D4908705D4908705D4908705548B4
:102510004438006840F22A3108435249443908607F
:1025200050485438006840F008004E49543908605B
:10253000002221464846FFF7B7FE00E0761E4848D5
:102540005838006810F0006F07D14D48007820B966
:102550004948007808B9002EF0D10EB90420F7E6FA
:102560004548007810B1444890F800A05046EFE686
:102570002DE9FF5F17469846DDE90E464FF000094A
:10258000CA464FF0FF353F49009808604FF0000001
:102590003D49086031480078022805D10402780AD4
:1025A00040EAC8574FEA682800202F4988604860F1
:1025B000401E0860012048610020C860086108468C
:1025C00002F0C5FB30481838006810F0007F03D0D7
:1025D0000E2004B0BDE8F09F002C21DDB4F5006FA3
:1025E0001EDC601E20421BD12046FFF798FE83466A
:1025F0001E48046010201D4948604020886000206B
:10260000C8604FF480600861084602F074FB102037
:10261000FFF71FF88146B9F1000F03D04846D8E70D
:102620002620D6E7012E70D906FB04F0B0F1007F1A
:1026300001D32620CDE74FEA0B100B49886006FB3B
:1026400004F048604FF0FF3008600120486102202C
:10265000C8600020086119E0D01E0020680000203A
:1026600058640240802C0140941C0020801C0020F3
:1026700070000020FFFF7F0072000020710000202A
:1026800073000020740000202C2C0140084602F04A
:102690005EFBFA4807601220F849486040208860D5
:1026A0000020C8604FF480600861084602F023FBF8
:1026B0001220FEF7CEFF8146B9F1000F01D0484647
:1026C00087E7EF48007800287DD1FDF76CFD1EE01C
:1026D0004FF4004002F09FFBA0B14FF0000A07E06A
:1026E000E8480068E849096841F82A000AF1010A47
:1026F000BAF1080FF4D3E44800682030E2490860DA
:10270000E24D04E015B9042063E7ADE06D1EDD483D
:102710004C38006840F22A310842D9D0082002F033
:102720007AFB20B1082002F081FB042051E702204F
:1027300002F071FB20B1022002F078FB022048E792
:10274000202002F068FB20B1202002F06FFB062061
:102750003FE74FF4007002F05EFB28B14FF40070C9
:1027600002F064FB072034E709E0C6480068C64968
:1027700009680860C4480068001DC34908604FF438
:10278000001002F048FB0028EFD14FF4807002F0F7
:1027900042FB20B3BE48007838B1BD48007801281C
:1027A00003D0BB480078022819D10020B349086043
:1027B0000C204860402088600020C8604FF4806092
:1027C0000861084600E011E002F095FA0C20FEF7DF
:1027D00040FF8146B9F1000F01D04846F9E6FDF708
:1027E000E4FC40F2FF5002F021FB3DE0A4480078F9
:1027F000012839D10020A74908700120A649087096
:102800000020A64908709F484438006840F22A31E9
:1028100008439C49443908609A485438006840F09D
:10282000080098495439086006FB04F1002200981A
:10283000FFF73AFD00E06D1E9948006810F0006F48
:1028400001D1002DF7D10DB90420C2E600BF934895
:10285000007818B98F4800780028F8D08D480078A3
:1028600010B18C4890F800904846B2E61CB504467A
:102870000020019000908B48008800047F49086088
:102880000D204860402088600020C8604FF48060C0
:102890000861084602F02FFA7A484C380068009028
:1028A00003E078484C3800680090009810F0450F1D
:1028B000F7D0012002F0AFFA20B1012002F0B6FA01
:1028C00001201CBD042002F0A6FA20B1042002F071
:1028D000ADFA0320F5E76B48703800680D2801D089
:1028E0001020EEE740F2FF5002F0A0FA65486C3885
:1028F000006801900198C0F3432020700020E0E7B9
:102900002DE9FF5F86B017469846149D4FF00006EC
:10291000304605900490044681460390824602901A
:102920000195DDF818B0DDF818B0BBF1000F03D148
:1029300026200AB0BDE8F09F0020524954390860B3
:10294000594988604860401E0860012048610020A5
:10295000C8600861084602F0FAF94A486C38006815
:1029600010F0007F01D00E20E3E7494800780228EC
:1029700005D10502780A40EAC8574FEA6828002DB9
:102980001FDDB5F5006F1CDC681E284219D12846F2
:10299000FFF7C5FC059039480560102037494860AD
:1029A000402088600020C8604FF4806008610846BD
:1029B00002F0A1F91020FEF74CFE06461EB130468B
:1029C000B7E72620B5E73748008800042B490860A0
:1029D0000D204860402088600020C8604FF480606F
:1029E0000861084602F087F90D20FEF732FE064620
:1029F0000EB130469DE723486C38006803904FF0D5
:102A0000FF341CE0641E2748008800041B4908604E
:102A10000D204860402088600020C8604FF480602E
:102A20000861084602F067F90D20FEF712FE06461F
:102A30000EB130467DE713486C3800680390039868
:102A400010F4807F01D1002CDCD10CB9292070E773
:102A50000A48076018200949486040208860002023
:102A6000C8604FF480600861084602F044F91820FD
:102A7000FEF7EFFD0646CEB130465AE7801C002037
:102A800070000020802C014074000020FFFF7F00B8
:102A900068000020720000207100002073000020F8
:102AA000006402406C000020941C00200020F849C3
:102AB000087005980001F7498860084645604FF0A6
:102AC000FF300860012048610020C86008610846A6
:102AD00002F03DF94FF0FF34EF48007800287BD139
:102AE000FDF761FB43E04FF4804002F094F9C8B376
:102AF0000198A0EB0900202821D20198A0EB090041
:102B000010F0030F04D10198A0EB0900800804E045
:102B10000198A0EB09008008401C02904FF0000AC9
:102B200009E0DE49DBF8000008600AF1010A0BF158
:102B3000040B09F1040902988245F2D30FE04FF02B
:102B4000000A05E05BF82A00D44908600AF1010A8E
:102B5000BAF1080FF6D30BF1200B09F120096FF041
:102B6000404404E0FFE70CB90420E2E6641ECB48D1
:102B70004C38006840F21A610842B4D0082002F0D4
:102B80004AF920B1082002F051F90420D1E60220D0
:102B900002F041F920B1022002F048F90220C8E613
:102BA000102002F038F920B1102002F03FF9052082
:102BB000BFE64FF4007002F02EF930B14FF4007010
:102BC00002F034F90720B4E606E0FDF7EEFA40F231
:102BD000FF5002F02BF943E0AF48007801283FD1C5
:102BE0000020AF490870AA490870AE490870AB4888
:102BF0004438006840F21A310843A8494439086053
:102C0000402229460698FFF74FFBA4485438006835
:102C100040F00800A1495439086000E0641EA24851
:102C2000006810F0006F01D1002CF7D11CB9FFF73C
:102C30009DFA04207DE64FF0FF3400E0641E9948C1
:102C4000007820B99648007808B9002CF6D10CB964
:102C500004206EE69248007810B19148007868E64A
:102C600040F2FF5002F0E2F804A8FFF7FFFD06462D
:102C700003E004A8FFF7FAFD06463EB99DF81000F0
:102C80000728F6D09DF810000628F2D0304650E60E
:102C90002DE9FF5F84B0DDE9124700260020039094
:102CA0000290002580468146019007FB04FBDDF879
:102CB00010A0DDF810A0BAF1000F03D1262008B053
:102CC000BDE8F09F0020754954390860714988605B
:102CD0004860401E0860012048610020C86008610B
:102CE000084602F034F86D486C38006810F0007F38
:102CF00001D00E20E3E76D480078022808D10402D5
:102D0000DDE90601400A40EAC1504912CDE9060159
:102D1000002C1FDDB4F5006F1CDC601E204219D1B1
:102D20002046FFF7FCFA03906148046010206049D8
:102D30004860402088600020C8604FF480600861CF
:102D4000084601F0D8FF1020FEF783FC06461EB1AE
:102D50003046B4E72620B2E7012F6FD907FB04F015
:102D6000B0F1007F01D32620A9E75048007838B1A0
:102D70004E480078012803D04C48007802282DD115
:102D80004C48008800044A490860372048604020C9
:102D900088600020C8604FF480600861084601F038
:102DA000AAFF3720FEF755FC06460EB1304686E7EF
:102DB0003F48076017203E49486040208860002057
:102DC000C8604FF480600861084601F094FF172046
:102DD000FEF73FFC06460EB1304670E734490698D0
:102DE000086019204860402088600020C8604FF4C7
:102DF00080600861084601F07EFF1920FEF729FC7B
:102E000006460EB130465AE7039800012149886012
:102E100007FB04F048604FF0FF3008600120486174
:102E20000020C8600861084601F091FF1A48007848
:102E3000002871D1451EFDF7B6F954E0F7E04FF4D4
:102E4000804001F0E8FF10B3ABEB0800202833D23C
:102E5000ABEB080010F0030F03D1ABEB08008008C8
:102E600003E0ABEB08008008401C01904FF0000924
:102E700009E00A49DAF80000086009F101090AF1DD
:102E8000040A08F1040801988145F2D324E026E001
:102E900071000020941C002070000020802C014054
:102EA00072000020730000200064024068000020CF
:102EB000801C00206C0000204FF0000905E05AF84B
:102EC0002900F849086009F10109B9F1080FF6D3A2
:102ED0000AF1200A08F120086FF0404503E00DB91F
:102EE0000420ECE66D1EEF484C38006840F21A31C1
:102EF0000842A4D0082001F08EFF20B1082001F084
:102F000095FF0420DBE6022001F085FF28B10220B6
:102F100001F08CFF0220D2E640E0102001F07BFFA0
:102F200020B1102001F082FF0520C8E64FF40070A8
:102F300001F071FF28B14FF4007001F077FF072016
:102F4000BDE64FF4807001F066FF00B3D64800780C
:102F500038B1D5480078012803D0D348007802283A
:102F600015D10020D14908600C20486040208860BD
:102F70000020C8604FF480600861084601F0BBFE85
:102F80000C20FEF766FB06460EB1304697E6FDF7CD
:102F90000CF940F2FF5001F049FF48E0C4480078C6
:102FA000012844D10020C34908700120C24908709B
:102FB0000020C2490870BB484438006840F21A310A
:102FC0000843B8494439086007FB04F140220498DB
:102FD000FFF76AF9B3485438006840F00800B14977
:102FE000543908604FF0FF3500E06D1EB4480068AA
:102FF00010F0006F01D1002DF7D11DB9FFF7B6F821
:1030000004205CE64FF0FF3500E06D1EAB48007811
:1030100020B9A848007808B9002DF6D10DB90420D0
:103020004DE6A448007810B1A248007847E640F287
:10303000FF5001F0FBFE02A8FFF718FC064603E074
:1030400002A8FFF713FC06463EB99DF808000728C2
:10305000F6D09DF808000628F2D030462FE610B5CD
:103060004FF4807001F0D7FE88B3934800780128B0
:1030700014D100208D4908600C20486040208860F1
:103080000020C8604FF480600861084601F033FEFC
:103090000C20FEF7DEFA8749087002E0002085491F
:1030A000087080484838006840F480707D4948398D
:1030B0000860081D00684CF23A3188437949443968
:1030C000086001207D4908707A48007810BDFFE74C
:1030D000022001F0A0FE78B1022001F0A7FE7148A5
:1030E000443800684CF23A3188436E4944390860EC
:1030F000022070490870E9E7082001F08CFE78B1E1
:10310000082001F093FE6748443800684CF23A31D9
:103110008843644944390860042066490870D5E74B
:10312000202001F078FE78B1202001F07FFE5D487C
:10313000443800684CF23A3188435A4944390860AF
:1031400006205C490870C1E7102001F064FE78B1E8
:10315000102001F06BFE5348443800684CF23A31BD
:103160008843504944390860052052490870ADE74A
:103170004FF4007001F04FFE80B14FF4007001F089
:1031800055FE4848443800684CF23A318843454976
:103190004439086007204749087097E7002095E701
:1031A00010B5FFF75CFF10BD70B50446002514B9DB
:1031B0002625284670BD4348008800043B49086026
:1031C0000D204860402088600020C8604FF4806077
:1031D0000861084601F08FFD0D20FEF73AFA05461A
:1031E0000DB12846E6E72F486C3800682060284675
:1031F000E0E708B5002000906846FFF7D5FF08B16A
:10320000FF2008BD0098C0F34320FAE72DE9FE4FE8
:1032100083460E46914600200290002534462248FF
:10322000007818B1680240EAD45564021BF0030F1D
:103230001ED04FF0000A18E04FF4007000904FEAE3
:103240004A20071945EBE0733A461F48FFF770F82C
:1032500002904FF400721C49584616F071F80BF5B5
:10326000007B0AF1010000F0FF0ACA45E4DB16E02A
:10327000B9F1010F09D14FF4007022462B4600909E
:103280005846FFF755F8029009E04FF400702246C7
:103290002B46CDE900095846FFF76AF902900298DB
:1032A000BDE8FE8F802C014068000020801C0020BB
:1032B00070000020720000207100002073000020C8
:1032C000006402406C000020AC1C00202DE9FE4F81
:1032D0000646894692460020029000254C46214829
:1032E000007818B1680240EAD455640216F0030F62
:1032F0001ED04FF0000B18E04FF4007231461A4810
:1033000016F01EF84FF4007000904FEA4B2007199A
:1033100045EBE0733A461448FFF7F2FA029006F5DF
:1033200000760BF1010000F0FF0BD345E4DB16E063
:10333000BAF1010F09D14FF4007022462B460090DC
:103340003046FFF7DDFA029009E04FF400702246A4
:103350002B46CDE9000A3046FFF79AFC029002980E
:10336000BDE8FE8F68000020AC1C002000B587B0CF
:103370000121084600F032FE0121480700F077FEE7
:103380001020059003208DF8180002208DF81B00F6
:1033900005A9364800F074FB0020019002900390CC
:1033A0000220049001A9002001F0A1F901210020D0
:1033B00001F0BAF90021084601F004FA07B000BD97
:1033C00038B50446E0B28DF8000020128DF80100F7
:1033D0009DF80100803800019DF8001040EA21109E
:1033E00085B22946002001F0EDF938BD00B587B05F
:1033F0000121084600F0F2FD0121480700F037FEE8
:103400002020059003208DF8180002208DF81B0065
:1034100005A9164800F034FB0020019002900390AB
:103420000220049001A9102001F061F9012110206F
:1034300001F07AF90021084601F0D1F907B000BD8A
:1034400038B50446E0B28DF8000020128DF8010076
:103450009DF80100803800019DF8001040EA21101D
:1034600085B22946002001F0BAF938BD00000240BB
:103470001CB50121084600F0B1FD03200090012099
:103480008DF8040000208DF8060003208DF805005B
:1034900001208DF807006946564800F0F1FA1CBD7E
:1034A0007FB505460C460121022000F0E0FD0295A3
:1034B000ADF804400020ADF80600ADF80C0001A9FD
:1034C0004D4801F082FD012211464B4802F01EFAE0
:1034D0000121494801F002FE1D208DF80000012065
:1034E0008DF8010003208DF8020001208DF8030003
:1034F000684600F0D2F9FFF7BBFF7FBD10B5002191
:103500003D4801F0EBFD0021022000F0B0FD10BDB0
:1035100010B50121374800F031FB10BD10B5012175
:10352000344800F029FB10BD10B534480078B8B11C
:10353000334800683349098830F8110084B22046C6
:10354000FFF73EFF2E4800682E49098800EB410036
:10355000408884B22046FFF773FFFFF7DFFF16E0D5
:10356000294800682749098830F8110084B22046AC
:10357000FFF726FF244800682249098800EB410034
:10358000408884B22046FFF75BFFFFF7C1FF1D486C
:103590000088801C1B49088008460088B0F5106F21
:1035A0000CDB1648007818B100201449087002E0BE
:1035B00001201249087000201249088001210E489C
:1035C00002F0CCF910BD70B505460C460C480560FC
:1035D0000D4804600DA0FDF769FA70BD10B5022119
:1035E000044800F0C9FA10BD10B50221014800F0EE
:1035F000C5FA10BD00000240000400407800002021
:10360000800000207A00002084000020C9E8D6C392
:10361000BAC3C1CB444143B5C462756666D6B8D55A
:10362000EB0A000070B504466FF0040000F083F967
:10363000E11704EB5171C1F3C7012F4A1170E11773
:1036400004EB5171CD104FF47A70454301202B49A2
:1036500008804FF0E020006940F002004FF0E021C8
:10366000086108464561006940F00100086170BDCD
:10367000FEB504464FF47A70B4FBF0F03C21B0FB89
:10368000F1F085B24FF47A70B4FBF0F0B0FBF1F2D8
:1036900001FB12064FF47A70B4FBF0F100FB114706
:1036A00002A800213B463246CDE900102946002001
:1036B00009F0D8FEFEBD70B5044608E044F2A0153E
:1036C00001E0FCF76BFD2800A5F10105F9D1200010
:1036D000A4F10104F2D170BD70B5044607E01125D4
:1036E00001E0FCF75BFD2800A5F10105F9D1200000
:1036F000A4F10104F3D170BD8C0000208E000020E5
:10370000014600BF704700BF544A128812F0400FB4
:10371000FAD0C2B2514B9A80704700BF4F49098816
:1037200011F0400FFAD04D498880704710B588B02D
:1037300004460121084600F051FC0121102000F050
:10374000A7FC07220921464800F025FA07220A2192
:10375000434800F020FA4FF4C060069002208DF834
:103760001C008DF81D0000208DF81E0001208DF832
:103770001F0006A93A4800F083F902940020ADF832
:103780000C00ADF80E00ADF81000ADF814000C20E0
:10379000ADF8120002A9314800F0DBFD01212F48ED
:1037A00000F05FFE40212D4800F043FF012240F26F
:1037B00025512A4800F00BFF25208DF80400032036
:1037C0008DF805008DF8060001208DF8070001A88E
:1037D00000F063F808B010BD10B505F02BFF40F203
:1037E00025511E4800F02EFF10B31C4800F068FE63
:1037F000C4B21C48008810F4004F2BD1194800882F
:1038000010F4804F0CD00A2C03D0002015490880FA
:1038100020E01448008840F400401249088019E074
:103820000D2C06D10F48008840F480400D490880D7
:1038300010E00C480088C0F30D000B490C540948F7
:103840000088401C0749088008460088C72801DD19
:103850000020088005F0FFFE10BD000000100140B0
:103860000000024090000020281F002006488047EA
:1038700006480047FEE7FEE7FEE7FEE7FEE7FEE755
:10388000FEE7FEE7FEE7FEE73F09000889010008C2
:1038900033490143334A1160704770B5002100235A
:1038A0000F22C47824B32F4C246804F4E064C4F5D8
:1038B000E064C4F30721C1F10404E3B20A4144788F
:1038C0009C40E1B28478144021430C07210E264C21
:1038D00005786155047804F01F050124AC40057893
:1038E0006D114FF0E02606EB8505C5F8004109E0B3
:1038F000047804F01F040125A5401C4C06787611BD
:1039000044F8265070BD1A4A0A400243154B1B1F4B
:103910001A60704739B1134A121D12680243114BE5
:103920001B1D1A6006E00F4A121D126882430D4BE0
:103930001B1D1A607047042808D14FF0E021096967
:1039400041F004014FF0E022116107E04FF0E02167
:10395000096921F004014FF0E02211617047000075
:103960000000FA050CED00E000E400E080E100E07A
:1039700080FFFF1F10B50446A048844208D10121F2
:10398000084600F096FB0021012000F092FB76E053
:103990009B48844208D10121022000F08AFB0021CB
:1039A000022000F086FB6AE09648844208D101219B
:1039B000042000F07EFB0021042000F07AFB5EE092
:1039C0009148844208D10121082000F072FB0021B7
:1039D000082000F06EFB52E08C48844208D101219F
:1039E000102000F066FB0021102000F062FB46E092
:1039F0008748844208D10121202000F05AFB002191
:103A0000202000F056FB3AE08248844208D1012190
:103A1000402000F04EFB0021402000F04AFB2EE049
:103A20007D48844208D10121802000F042FB002122
:103A3000802000F03EFB22E07848844208D101213A
:103A4000801500F036FB0021A01500F032FB16E0D7
:103A50007348844208D10121401500F02AFB00215F
:103A6000601500F026FB0AE06E48844207D1012170
:103A7000001500F01EFB0021201500F01AFB10BD00
:103A8000F0B50A4600210023002400BF3DE00125D7
:103A900005FA01F3156805EA03049C4234D1056870
:103AA0004F000326BE40B543056015794E00B54072
:103AB0000668354305601579012D02D01579022D70
:103AC00016D185684F000326BE40B5438560557901
:103AD0004E00B540866835438560456801268E40B6
:103AE000B5434560456896798E40B6B2354345602A
:103AF000C5684F000326BE40B543C560D5794E006A
:103B0000B540C6683543C560491C1029BFD3F0BD18
:103B10004FF6FF7101600021017141718171C17126
:103B2000704708B54FF480320092009A0A43009221
:103B3000009AC261C161009AC261C2690092C26901
:103B4000009208BD0246002013690B4201D00120FB
:103B500000E0002070470146086980B270470246C5
:103B6000002053690B4201D0012000E00020704783
:103B70000146486980B270470183704741837047AE
:103B80000AB1018300E04183704741617047426997
:103B90004A4042617047F0B5002300244D07ED0E06
:103BA00002FA05F3CE1000F1200555F826504E0715
:103BB000F70E0F26BE40B543CF1000F1200646F8A1
:103BC0002750CE1000F1200555F8265045EA030491
:103BD000CE1000F1200545F82640F0BD10B5034693
:103BE0000C4622B921461846FFF7C8FF05E0012A16
:103BF00003D121461846FFF7BFFF10BD0000024069
:103C00000004024000080240000C02400010024084
:103C10000014024000180240001C02400020024034
:103C20000024024000280240F948006840F00100EA
:103C3000F74908600020F64908310860F448006838
:103C4000F4490840F2490860F348091D0860F34848
:103C5000EF4984310860F0481038091D0860EC48CD
:103C6000006820F48020EA4908600020E8490C310F
:103C70000860E7498C31086070470021E44A921CD3
:103C8000117011460870704710B5014600220023DC
:103C900000204A11012A02D1DD4C236808E0022AE3
:103CA00003D1DB4C7034236802E0D94C74342368B0
:103CB00001F01F02012494401C4201D0012000E0C9
:103CC000002010BD38B5002000900024002500BF62
:103CD0003120FFF7D9FF05460098401C009000985E
:103CE000B0F5A04F01D0002DF2D03120FFF7CCFF6E
:103CF00008B1012400E00024204638BD0146002020
:103D0000C34A106820F0F80040EAC1001060704714
:103D1000C349086070470021BD4A703211701170AC
:103D2000012802D004280AD104E00121B84A7032E7
:103D3000117005E00521B64A7032117000E000BF35
:103D400000BF7047B7490860704770B5049C41EAEE
:103D500082150126C6EB530645EA0645054345EAAA
:103D60000465AB4E361D356070BDAD4908667047C1
:103D7000820142EA0172A64B84331A607047A84957
:103D80008866704710B5830143EA016343EA027312
:103D90009F4C8834236010BDA14908677047A04933
:103DA000C864704702460020994B0833186820F019
:103DB000EC6042EA01031843954B083318607047E2
:103DC00002460020924B0833186820F0784042EAFF
:103DD000010318438E4B08331860704701460020DA
:103DE0008B4A0832106820F00300084310607047C7
:103DF00087480830006800F00C007047014600203A
:103E0000834A0832106820F0F000084310607047C1
:103E1000014600207E4A0832106820F4E050084332
:103E20001060704701460020794A0832106820F47B
:103E3000604040EAC10010607047F0B500210022E8
:103E40000024022500260223714F08373F6807F03F
:103E50000C0121B1042905D0082937D105E0724FA2
:103E6000076036E0714F076033E0694F3F1D3F68E0
:103E7000C7F38056664F3F1D3F6807F03F036EB1A2
:103E80006A4FB7FBF3F7DFF888C10CF1040CDCF8DC
:103E900000C0CCF3881C07FB0CF40CE0624FB7FBAE
:103EA000F3F7DFF86CC10CF1040CDCF800C0CCF3C4
:103EB000881C07FB0CF4564F3F1D3F68C7F30147B2
:103EC0007F1C7D00B4FBF5F7076002E0564F0760EA
:103ED00000BF00BF4E4F08373F6807F0F0010909E7
:103EE000534F7A5C0768D7404760494F08373F68AF
:103EF00007F4E051890A4E4F7A5C4768D7408760E3
:103F0000434F08373F6807F46041490B484F7A5CDC
:103F10004768D740C760F0BD002100F44072B2F599
:103F2000407F0AD13A4A0832116821F4F811414A17
:103F300002401143364A08321160354A7032126825
:103F4000C0F30B031A43324B70331A607047354984
:103F50004439086070473349403908607047364932
:103F60000860704701460020294A8C32106820F012
:103F70001F004A1E1043264A8C32106070470146CB
:103F80000020234A8C32106820F4F8504A1E40EA80
:103F900002201F4A8C3210607047014600201C4AE4
:103FA0008C32106820F440100843106070470146BE
:103FB0000020174A8C32106820F44000084310603B
:103FC000704701460020124A8C32106820F44030BD
:103FD00008431060704719490860704739B10C4AAE
:103FE0003032126802430A4B30331A6006E0084A46
:103FF000303212688243064B30331A607047F9B191
:10400000034A343212680243014B34331A601CE015
:1040100000380240FFFFF6EA103000240030002094
:1040200000004742800E47420024F40000127A004C
:1040300098000020FFFCFF0F5C014742E01147425F
:104040008F4A126882438E4B1A60704739B18C4A8E
:10405000121D126802438A4B1B1D1A6006E0884A33
:10406000121D12688243864B1B1D1A60704739B1BE
:10407000834A0C3212680243814B0C331A6006E00B
:104080007F4A0C32126882437D4B0C331A607047B2
:1040900039B17B4A103212680243794B10331A60EF
:1040A00006E0774A103212688243754B10331A606B
:1040B000704739B1724A243A12680243704B243B6C
:1040C0001A6006E06E4A243A126882436C4B243B25
:1040D0001A60704739B16A4A203A12680243684B45
:1040E000203B1A6006E0664A203A12688243644B1D
:1040F000203B1A60704739B1614A1C3A126802438A
:104100005F4B1C3B1A6006E05D4A1C3A1268824312
:104110005B4B1C3B1A60704739B1594A143A12681C
:104120000243574B143B1A6006E0554A143A126892
:104130008243534B143B1A60704739B1504A103ACE
:10414000126802434E4B103B1A6006E04C4A103A8C
:10415000126882434A4B103B1A60704739B1484A93
:104160001C3212680243464B1C331A6006E0444A74
:104170001C3212688243424B1C331A60704739B1BB
:104180003F4A2032126802433D4B20331A6006E05A
:104190003B4A203212688243394B20331A60704701
:1041A00039B1374A243212680243354B24331A603E
:1041B00006E0334A243212688243314B24331A60BA
:1041C000704739B12E4A2C32126802432C4B2C33E3
:1041D0001A6006E02A4A2C3212688243284B2C339C
:1041E0001A60704739B1264A303212680243244BB4
:1041F00030331A6006E0224A303212688243204B84
:1042000030331A607047012808D11D493C310968D4
:1042100041F008011A4A3C32116007E018493C316C
:10422000096821F00801164A3C321160704739B123
:10423000134A273A12780243114B273B1A7006E0C3
:104240000F4A273A127882430D4B273B1A7070476A
:104250000B484030006840F08070094940310860E8
:10426000704701460020064A283A12680A4201D0E7
:10427000012000E00020704701492639087070478E
:104280003438024010B50446FA48844208D101216E
:104290001020FFF752FF00211020FFF74EFF57E0DC
:1042A000F548844209D101214804FFF735FF002178
:1042B0004FF40030FFF730FF4AE0F048844209D164
:1042C00001218804FFF728FF00214FF48020FFF729
:1042D00023FF3DE0EA48844209D10121C804FFF7E9
:1042E0001BFF00214FF40020FFF716FF30E0E548E8
:1042F000844209D101210805FFF70EFF00214FF488
:104300008010FFF709FF23E0DF48844208D1012134
:104310002020FFF712FF00212020FFF70EFF17E0FB
:10432000DA48844209D101218807FFF7F5FE002110
:104330004FF08040FFF7F0FE0AE0D548844207D1F5
:1043400001214005FFF7E8FE00216005FFF7E4FECC
:1043500010BD2DE9FF4705460E460024A14600BFCB
:10436000A046B08900B100BF2C8A24F44054F088E4
:1043700004432C82AC8941F20C608443B0883189BB
:104380000843718908430443AC81AC8A24F4407427
:10439000B0890443AC826846FFF74FFDB5488542BB
:1043A00002D0B948854202D1DDF80C9001E0DDF879
:1043B0000890A88910F4004F08D009EBC90000EB61
:1043C000091031684900B0FBF1F707E009EBC900BB
:1043D00000EB091031688900B0FBF1F76420B7FBEE
:1043E000F0F004012009642101FB1078A88910F481
:1043F000004F08D0322000EBC800B0FBF1F000F015
:104400000700044308E0322000EB08106421B0FBF1
:10441000F1F000F00F0004432C81BDE8FF874FF45A
:104420001651016000218180C18001810C214181F0
:1044300000218181704710B502460020108A20F4C7
:1044400070600B884C8823438C882343CC8823439B
:104450001843108210BD0021018041808180C180FD
:10446000704721B1828942F40052828104E082893E
:104470004DF6FF731A4082817047028B02F47F422F
:104480000283028B0A430283704721B1828942F47E
:104490000042828103E08289C2F30E02828170476A
:1044A00021B1828A42F40062828204E0828A4FF261
:1044B000FF731A4082827047C1F3080282807047FE
:1044C00001468888C0F308007047028A4FF6F073EF
:1044D0001A400282028A0A430282704721B182890D
:1044E00042F00202828104E082894FF6FD731A4095
:1044F0008281704782894FF2FF731A4082818289DC
:104500000A4382817047028A4FF6DF731A400282A3
:10451000028A0A430282704721B1028A42F4804231
:10452000028204E0028A4BF6FF731A40028270474F
:10453000818941F001018181704721B1828A42F075
:104540000802828204E0828A4FF6F7731A40828260
:104550007047028BD2B20283028B42EA01220283AD
:10456000704721B1828A42F02002828204E0828A6E
:104570004FF6DF731A408282704721B1828A42F07F
:104580001002828204E0828A4FF6EF731A40828220
:104590007047828A4FF6FB731A408282828A0A43EE
:1045A0008282704721B1828A42F00202828204E054
:1045B000828A4FF6FD731A40828270471AB1838A4D
:1045C0000B43838202E0838A8B4383827047F0B57A
:1045D00003460024002600250020A1F510676A3F4D
:1045E00000D100BF1846C1F3421401F01F06012795
:1045F00007FA06F5012C01D10C3004E0022C01D1A0
:10460000103000E014301AB107682F43076002E051
:104610000768AF430760F0BD02460020B1F5007F98
:1046200000D100BF13880B4201D0012000E0002020
:10463000704701F40072B2F5007F00D100BFCA4399
:104640000280704770B50246002400230025002038
:10465000A1F510666A3E00D100BFC1F3421501F01A
:104660001F03012606FA03F3012D13D19689334067
:1046700017E00000001001400044004000480040E6
:10468000004C004000500040001401400078004001
:10469000007C0040022D02D1168A334001E0968A48
:1046A00033400C12012606FA04F41688344013B184
:1046B0000CB1012000E0002070BD10B500220023E5
:1046C000A1F510646A3C00D100BF0A120124944095
:1046D000A3B2DC43048010BD10B501214807FFF7E9
:1046E0001BFD00214FF00050FFF716FD10BD30B547
:1046F000002200237B4C226840F6FE748440A243D3
:10470000D1E900452C438D682C43CD6844EA05036C
:1047100003FA00F42243734C226030BD0021016093
:1047200041608160C160704739B16E4A12680123EF
:1047300083401A436B4B1A6006E06A4A12680123F1
:1047400083409A43674B1A60704710B551B1654A70
:10475000121D126804090123A3401A43614B1B1D5B
:104760001A6009E05F4A121D126804090123A34080
:104770009A435C4B1B1D1A6010BD40B15949091D7D
:10478000096841F00301574A121D116007E05549BD
:10479000091D096821F00301524A121D116070477A
:1047A00010B53AB14F4B1B6801FA00F423434D4C4E
:1047B000236006E04B4B1B6801FA00F4A343494C0D
:1047C000236010BD08B500220092464A009200F115
:1047D0000802009B1A440092009A116008BD08B5B7
:1047E000002200923F4A009200F11402009B1A44FA
:1047F0000092009A116008BD30B5002400230828FB
:1048000002D142EA012401E042EA0144354B00F1C1
:1048100020052B441C6030BD08B5014600200090E7
:10482000304800902C2000EB9100009A104400903A
:104830000098006880B208BD41B12A4A12684FF45E
:10484000805383401A43274B1A6007E0254A1268B9
:104850004FF4805383409A43224B1A60704710B53F
:104860003AB1204B1B6801FA00F423431D4C23602E
:1048700006E01C4B1B6801FA00F4A343194C2360AB
:1048800010BD10B502460020164B34331B6801FAE8
:1048900002F4234201D0012000E0002010BD01FA03
:1048A00000F2104B34331A60704730B502460020D6
:1048B00000230C4C246801FA02F504EA0503094CB4
:1048C0003434246801FA02F52C4202D00BB10120E5
:1048D00000E0002030BD01FA00F2024B34331A60D0
:1048E0007047000000740040016821F00101016080
:1048F0000021016041608160C1600161212141614D
:10490000DA49884204D13D21D84A103A91608CE0BE
:10491000D6491831884205D14FF47461D34A103A10
:10492000916082E0D1493031884205D14FF4741151
:10493000CE4A103A916078E0CC494831884205D19E
:104940004FF07461C94A103A91606EE0C749603116
:10495000884204D1C649C54A103AD16065E0C349CE
:104960007831884204D1C349C04A103AD1605CE032
:10497000BE499031884204D1BF49BC4A103AD16047
:1049800053E0BA49A831884205D14FF03D51B74AAA
:10499000103AD16049E0B949884204D13D21B74A73
:1049A000083A116041E0B5491831884205D14FF409
:1049B0007461B24A083A116037E0B0493031884238
:1049C00005D14FF47411AD4A083A11602DE0AB499E
:1049D0004831884205D14FF07461A84A083A116005
:1049E00023E0A6496031884204D1A149A34A121F9D
:1049F00011601AE0A1497831884204D19D499F4A4B
:104A0000121F116011E09D499031884204D19A49EA
:104A10009A4A121F116008E09849A831884204D1CF
:104A20004FF03D51954A121F1160704710B500229A
:104A30000268934B1A40CC680B6823434C692343AC
:104A40008C692343CC6923430C6A23434C6A234378
:104A50008C6A23434C6B23438C6B23431A430260C1
:104A6000426922F00702D1E90B3423431A43426121
:104A70000B6943604B6883608B68C36010BD002185
:104A8000016041608160C160016141618161C1611A
:104A9000016241628162C162016341638163704767
:104AA00021B1026842F00102026003E0026822F0D4
:104AB00001020260704721B1026842F400420260C4
:104AC00003E0026822F400420260704721B10268EC
:104AD00042F02002026003E0026822F0200202603D
:104AE0007047416070470146486880B2704722B104
:104AF000036843F40023036003E0036823F4002306
:104B000003600161704721B1026842F480220260B3
:104B100003E0026822F48022026070470AB101615A
:104B200000E0C1607047014600200A6812F4002FBF
:104B300001D0012000E000207047014600200A68F3
:104B400012F0010F01D0012000E000207047014663
:104B500000204A6902F03800704730B503460A4623
:104B600000200024454DAB4202D24049103901E0FB
:104B70004249103912F0005F01D04C6800E00C6827
:104B8000404D2C40144201D0012000E0002030BDF7
:104B900002463A4B9A4202D23448103801E0374874
:104BA000103811F0005F03D0364B0B40C36002E0B9
:104BB000344B0B408360704710B511F0800F09D063
:104BC00022B1436943F08003436103E0436923F06A
:104BD0008003436180290BD02AB1036801F01E04D1
:104BE0002343036004E0036801F01E04A343036051
:104BF00010BD70B502460020002400251F4EB242B1
:104C000002D21A4B103B01E01C4B103B1E4E3142AE
:104C100006D01E2606EAD124166806EA040502E03C
:104C2000566906F0800511F0005F01D05C6800E075
:104C30001C68144E34400C4202D00DB1012000E03B
:104C4000002070BD02460D4B9A4202D20748103830
:104C500001E00A48103811F0005F03D0094B0B4007
:104C6000C36002E0074B0B40836070471060024056
:104C70003D000020400F002000003D201064024055
:104C80003F801CF07D0F7D0F3C0F3C0F10B50121C4
:104C9000C802FFF752FA00214FF40060FFF74DFA07
:104CA00010BD00216B4A116847F6FF629143027DF7
:104CB00083681A4343681A43C3681A4303681A4354
:104CC00003691A431143634A11607047002101755B
:104CD000016041608160C160016170475E490860A8
:104CE00070475C49091F086070475A48001F0068F8
:104CF00000F0030070470021564B1B1D02681A602C
:104D00001A1D11686FF30A01D0E901231A43C36821
:104D10001A4303691A4311434E4A0832116070471F
:104D20000021016041608160C160016170474948B4
:104D30000C300068C0B2704708B5014600200090F2
:104D400044481030084400900098006808BD0021D5
:104D5000404B203302681A601B1D42681A601A1DFE
:104D6000116821F0F701D0E902231A4303691A43BD
:104D700043691A431143374A2832116070474FF094
:104D8000FF310160002141608160C16001614161CA
:104D9000704730482C30006870472E487C300068DF
:104DA00070472C497C31086070472A4844300068BD
:104DB00070472A49086070472849091D08607047F4
:104DC000264908310860704724490C310860704753
:104DD00023490860704723490860704701218143D7
:104DE000214A116070472149086070471B491439F6
:104DF0000860704739B1174A383212680243154BC0
:104E000038331A6006E0134A383212688243114B75
:104E100038331A607047014600200E4A303212685B
:104E20000A4201D0012000E00020704709493431D6
:104E30000860704701460020064A303212680A4274
:104E400001D0012000E000207047024934310860A1
:104E500070470000042C0140A0802542A085254217
:104E6000AC812542B0812542B4812542B8812542DA
:104E700010B50446FE48844208D101210846FFF7D8
:104E80005CF900210120FFF758F99DE0B4F1804F53
:104E900008D101210846FFF73FF900210120FFF763
:104EA0003BF991E0F348844208D101210220FFF749
:104EB00033F900210220FFF72FF985E0EE48844204
:104EC00008D101210420FFF727F900210420FFF772
:104ED00023F979E0E948844208D101210820FFF74D
:104EE0001BF900210820FFF717F96DE0E448844220
:104EF00008D101211020FFF70FF900211020FFF742
:104F00000BF961E0DF48844208D101212020FFF73E
:104F100003F900212020FFF7FFF855E0DA4884422A
:104F200008D101210220FFF708F900210220FFF734
:104F300004F949E0D548844209D101210804FFF76A
:104F4000FCF800214FF48030FFF7F7F83CE0D04840
:104F5000844209D101214804FFF7EFF800214FF402
:104F60000030FFF7EAF82FE0CA48844209D1012156
:104F70008804FFF7E2F800214FF48020FFF7DDF806
:104F800022E0C548844208D101214020FFF7C4F83F
:104F900000214020FFF7C0F816E0C048844208D145
:104FA00001218020FFF7B8F800218020FFF7B4F836
:104FB0000AE0BB48844207D101218015FFF7ACF815
:104FC0000021A015FFF7A8F810BD00220288A84B09
:104FD00098420ED0AC4B98420BD0B0F1804F08D025
:104FE000A44B984205D0A44B984202D0A34B9842C0
:104FF00004D14FF68F731A404B881A43A04B984246
:1050000007D0A04B984204D04FF6FF431A400B89BB
:105010001A4302804B68C3620B880385944B984205
:1050200002D0994B984201D18B7A03860123838267
:1050300070474FF0FF3141600021018001814180C4
:10504000817270470185828270470A46002101887B
:105050004FF68F73194011430180704741627047CA
:10506000C16270470146486A70470146088D704723
:1050700021B1028842F00202028004E002884FF669
:10508000FD731A400280704721B1028842F0040289
:10509000028004E002884FF6FB731A4002807047DA
:1050A00021B1028842F08002028004E002884FF6BB
:1050B0007F731A400280704702884FF6F7731A40D8
:1050C000028002880A430280704702884FF6FF433D
:1050D0001A40028002880A430280704721B1028888
:1050E00042F00102028004E002884FF6FE731A408B
:1050F0000280704770B5002400220023058C4FF613
:10510000FE7635400584028C8388048B4FF68F75BC
:105110002C40B51E2C400D882C43751E2A408D89CD
:105120002A434D882A43524DA84202D0564DA842E8
:1051300013D14FF6F7752A40CD892A434FF6FB75F8
:105140002A408D882A434FF6FF652B404FF6FF55C6
:105150002B400D8A2B434D8A2B43838004838D681B
:105160004563028470BD70B5002400220023058CC5
:105170004FF6EF7635400584028C8388048B48F621
:10518000FF752C404FF6FF452C400D884FF6FF76FB
:1051900006EA05252C434FF6DF752A408D8906EA7D
:1051A00005152A434D8806EA05152A43304DA842C5
:1051B00002D0354DA8421DD14FF67F752A40CD89CA
:1051C0004FF6FF7606EA05152A434FF6BF752A40CB
:1051D0008D8806EA05152A434FF6FF352B404FF21E
:1051E000FF752B400D8A06EA85052B434D8A06EA9A
:1051F00085052B43838004838D688563028470BD9D
:1052000070B5002400220023058C4FF6FF66354060
:105210000584028C8388848B4FF68F752C404FF663
:10522000FC752C400D882C434FF6FF552A408D8984
:105230004FF6FF7606EA05252A434D8806EA05253E
:105240002A430B4DA84202D00F4DA84238D14FF24D
:10525000FF752A40CD894FF6FF7606EA05252A43D9
:105260004FF6FF352A408D8806EA05252A4319E0C6
:10527000000001400004004000080040000C004015
:1052800000100040001400400004014000400140B4
:10529000004401400048014000180040001C00404C
:1052A000002000404EF6FF752B404DF6FF752B4059
:1052B0000D8A06EA05152B434D8A06EA05152B4390
:1052C000838084838D68C563028470BD70B50022BD
:1052D00000230024058C4EF6FF7635400584038CB0
:1052E0008488828B48F6FF752A404FF6FF452A4096
:1052F0000D884FF6FF7606EA05252A434DF6FF7521
:105300002B408D8906EA05352B434D8806EA053585
:105310002B43FE4DA84202D0FD4DA84208D14BF6CA
:10532000FF752C400D8A4FF6FF7606EA85152C4353
:10533000848082838D680564038470BD00210180B0
:105340004180818081608181C18101824182704779
:1053500070B50346002000241846183001258D4002
:10536000ACB21D8CA5431D8409B108290AD100EBFC
:10537000610005684FF68F76354005600568154376
:1053800005600FE00D1FC5F34E052844056848F67B
:10539000FF763540056005684FF6FF7606EA02267F
:1053A0003543056070BD4163704781637047C163D9
:1053B0007047016470470A460021018B4FF68F73D6
:1053C00019401143018370470A460021018B48F6BA
:1053D000FF7319404FF6FF7303EA02231943018359
:1053E00070470A460021818B4FF68F731940114395
:1053F000818370470A460021818B48F6FF7319406C
:105400004FF6FF7303EA02231943818370470A466C
:105410000021018B4FF6F773194011430183704748
:105420000A460021018B4FF2FF7319404FF6FF73BC
:1054300003EA02231943018370470A460021818B46
:105440004FF6F77319401143818370470A460021D4
:10545000818B4FF2FF7319404FF6FF7303EA02236B
:105460001943818370470A460021018B4FF6FB7375
:1054700019401143018370470A460021018B4FF602
:10548000FF3319404FF6FF7303EA022319430183E8
:1054900070470A460021818B4FF6FB731940114378
:1054A000818370470A460021818B4FF6FF331940F4
:1054B0004FF6FF7303EA02231943818370470A46BC
:1054C0000021018B4FF67F73194011430183704710
:1054D0000A460021018BC1F30E014FF6FF7303EA68
:1054E00002231943018370470A460021818B4FF63E
:1054F0007F7319401143818370470A460021818BD5
:10550000C1F30E014FF6FF7303EA022319438183AF
:1055100070470A460021018C4FF6FD731940114374
:10552000018470470A460021018C4FF6F773194039
:105530001143018470470A460021018C4FF6DF7346
:1055400019404FF6FF7303EA0213194301847047B1
:105550000A460021018C4FF67F7319404FF6FF7306
:1055600003EA02131943018470470A460021018CA3
:105570004FF6FF5319404FF6FF7303EA0223194316
:10558000018470470A460021018C4FF2FF731940D5
:105590004FF6FF7303EA02231943018470470A465A
:1055A0000021018C4DF6FF7319404FF6FF7303EA9B
:1055B000023319430184704730B5002301248C4025
:1055C000A3B2048C9C430484048C02FA01F5ADB2AE
:1055D0002C43048430BD30B5002304248C40A3B296
:1055E000048C9C430484048C02FA01F5ADB22C4374
:1055F000048430BD828B4FF2FF331A408283828B4A
:105600004FF6FF7303EA01231A4382837047F0B514
:105610000C461546002100220026078C4EF6FF7C22
:1056200007EA0C070784818B028C4FF6FF7707EAA5
:10563000043640F6FF4739404FF6FF7707EA052763
:1056400039434FF6FF7707EA0337394345F6FF77CB
:105650003A4046F480573A4381830284F0BD828BFE
:105660004FF6F3731A408283828B0A43828370471A
:10567000F0B50C461546002100220026078C4FF697
:10568000FF6C07EA0C070784818B028C4FF6FF77CB
:1056900007EA04264FF60C7739404FF6FF7707EA02
:1056A00003172F4339434FF2FF573A4046F48077B0
:1056B0003A4381830284F0BD028B4FF2FF331A40DC
:1056C0000283028B4FF6FF7303EA01231A4302831E
:1056D0007047F0B50C461546002100220026078CC5
:1056E0004FF6EF7C07EA0C070784018B028C4FF61C
:1056F000FF7707EA041640F6FF4739404FF6FF7779
:1057000007EA033739434FF6FF7703E00000014013
:105710000004014007EA052739434FF65F773A4016
:1057200046F010073A4301830284F0BD028B4FF626
:10573000F3731A400283028B0A4302837047F0B569
:105740000C46154600210022068C4FF6FE773E409F
:105750000684018B028C4FF60C7631407E1C06EAE3
:1057600003162E4331434FF6F576324044F00106DE
:10577000324301830284F0BD70B505460C46208893
:1057800050B92389A28861882846FFF7D8FFE188AD
:105790002846FFF7CBFF25E0208804280AD123897B
:1057A000A28861882846FFF794FFE1882846FFF722
:1057B00083FF17E0208808280AD12389A2886188FE
:1057C0002846FFF755FFE1882846FFF748FF09E024
:1057D0002389A28861882846FFF719FFE1882846B7
:1057E000FFF708FF70BD0021018041800121818009
:1057F0000021C180018170472DE9F04105460C462A
:1058000000260127608808B9022600E00026A0884B
:10581000012801D1022700E001272088A0B92389AF
:10582000A28861882846FFF78AFFE1882846FFF7AB
:105830007DFF23893A4631462846FFF74AFFE18833
:105840002846FFF739FF13E02389A288618828469C
:10585000FFF73FFFE1882846FFF72EFF23893A46EE
:1058600031462846FFF76BFFE1882846FFF75EFFC9
:10587000BDE8F0810146486B70470146886B704770
:105880000146C86B70470146086C70470A884B8810
:105890001A438B881A43CB881A430B891A434B89C6
:1058A0001A438B891A43A0F84420704700210180D5
:1058B00041808180C180018141818181704731B106
:1058C000B0F8442042F40042A0F8442005E0B0F8CB
:1058D0004420C2F30E02A0F84420704721B1828810
:1058E00042F00402828004E082884FF6FB731A4083
:1058F0008280704721B1828842F00102828004E0F8
:1059000082884FF6FE731A40828070471AB18389ED
:105910000B43838102E083898B43838170478182BB
:10592000704702460020138A0B4201D0012000E09C
:1059300000207047CA430282704730B502460020FB
:1059400000230024158A05EA0103958905EA01046C
:1059500013B10CB1012000E0002030BDCA43028227
:10596000704741EA0203A0F8483070471AB18389B2
:105970000B43838102E083898B438381704721B18C
:10598000828842F00802828004E082884FF6F77332
:105990001A408280704701894FF6F87211400181E8
:1059A00070470A46002101894FF68F731940114351
:1059B0000181704730B504460D4629462046FFF761
:1059C000F0FF208940F00700208130BD2DE9F04133
:1059D00004460D4616461F46602D06D13B46012261
:1059E00031462046FFF775FE05E03B460122314671
:1059F0002046FFF7A4FE29462046FFF7D2FF208964
:105A000040F007002081BDE8F08130B50C46002150
:105A10000189C9B24FF6FF7505EA032515432543F1
:105A20002943018130BD2DE9F04105460E46174658
:105A30009846002443463A4631462846FFF7E5FF9C
:105A40002C894FF6F870044044F007044FF68F702D
:105A5000044044F070042C81BDE8F081F0B50446A8
:105A60000D4616461F463B46324629462046FFF75E
:105A7000CCFF208940F480402081F0BD82884FF621
:105A80008F731A40828082880A438280704702891D
:105A90004FF6F8731A40028102890A430281704767
:105AA00002894FF67F731A40028102890A430281FC
:105AB0007047F0B50C4615461E4600210022002313
:105AC0000189028B038C4FF6F877394021434FF65A
:105AD000FC473A4040F201173A434FF6DD773B402E
