:020000040800F2
:10000000206E0120353800083D0800083F08000830
:10001000490800084D0800085108000800000000C9
:10002000000000000000000000000000550800086B
:100030005708000800000000FF9801083D930008E1
:100040004F3800084F3800084F3800084F38000874
:100050004F3800084F3800084F3800084F38000864
:100060004F3800084F3800084F3800084F38000854
:100070004F3800084F3800084F3800084F38000844
:10008000D96F01084F3800084F3800084F38000872
:100090004F3800084F3800084F3800084F38000824
:1000A0004F3800084F3800084F3800084F38000814
:1000B0004F380008F13400084F3800084F38000866
:1000C0004F3800084F3800084F3800084F380008F4
:1000D0004F380008A33700084F3800084F38000891
:1000E0004F3800084F3800084F3800084F380008D4
:1000F0004F3800084F3800084F3800084F380008C4
:100100004F3800086F3100084F3800084F3800089A
:100110004F3800084F3800084F3800084F380008A3
:100120004F3800084F3800084F3800084F38000893
:100130004F3800084F3800084F3800084F38000883
:100140004F3800084F3800084F3800084F38000873
:100150004F3800084F3800084F3800084F38000863
:100160004F3800084F3800084F3800084F38000853
:100170004F3800084F3800084F3800084F38000843
:100180004F3800084F380008DFF80CD019F0DAFAC1
:10019000004800474F040008206E012040BA704715
:1001A000C0BA704700BF704700BF000040BA704738
:1001B000C0BA704730BF72B6704762B6704780F3FE
:1001C0000888704710B5EC4890F8560030B1012807
:1001D00008D002280AD0032810D10BE0E7A000F0D5
:1001E0006FFC0BE0EBA000F06BFC07E0EFA000F071
:1001F00067FC03E0F3A000F063FC00BF00BFDE4833
:1002000090F82C10F5A000F05BFCDB48B0F854101F
:10021000F9A000F055FCD848D0E91220030343EAC6
:100220001251F9A000F04CFCD348016DFCA000F085
:1002300047FC10BDF0B591B005460026294608A838
:100240000FF07DFF044640F2FF10079004BB0698B4
:10025000F0B11BE0694608A80FF0C0FF044614B9CE
:100260009DF8090000B912E00698007808B10698D8
:1002700001E00DF10900074638460DF093FE0446F3
:1002800004F0F000502801D1701C86B2E2E700BFF4
:10029000304611B0F0BD2DE9F0438FB08146002704
:1002A000E5A011F0C8F985B2E5A000F009FC002432
:1002B00012E00120009004EBC40000EB0410E549BB
:1002C00001EB400218230421204618F000FF1420FF
:1002D00003F0D5F9601CC4B2AC42EADB284616F044
:1002E00096FC16F041FE1DE000200DF023FD804637
:1002F0004146D9A000F0E4FB07EBC70000EB071074
:10030000D44901EB4003CCA2D7A101A819F028FBE6
:1003100001A816F0C2FDD64846780B2E00D102E0A7
:10032000D448C788E0E700BF0EA9D3480BF038FFD8
:10033000BDF83810D1A000F0C3FB0FB0BDE8F083CA
:100340000EB5D6A000F0BCFB0BE0002001F0E7F8F2
:1003500002A8002132230A46CDE9001008460DF01C
:1003600043F8F2E78CB0A82003F040F90BA80BF09B
:1003700024FCD0A000F0A4FB0BA8032100220592CE
:10038000CDE90621089011464FF40072CF48D0F80D
:10039000CC00CE4BCDE90130CDE903210120002373
:1003A000CB4ACCA10090D0480BF069FECFA000F062
:1003B00087FBD4A000F084FB0BA803210022059248
:1003C000CDE90621089011464FF40072D448D0F8C8
:1003D000CC00D34BCDE90130CDE90321022000232D
:1003E000D04AD1A10090A4480BF049FED2A000F061
:1003F00067FB2BE04021D74803F0A2FB8021D548C2
:1004000003F09CFB0BA800214FF47A730A46CDE958
:10041000001008460CF0E8FF4021CE4803F08EFBA8
:100420008021CC4803F08CFB0BA800214FF47A7399
:100430000A46CDE9001008460CF0D6FF0AA800F0E5
:10044000E7FF0A9810B10A9800F032FDD2E700B534
:100450008DB005F064FE06F0FBFC4FF4A06003F0E5
:10046000FBF94FF4E13003F046F9BBA000F028FBA4
:1004700000F008FB00F082FF00200DF040FC15E0CA
:10048000B8A000F01DFB4FF4FA7003F0F8F8B9A023
:1004900000F016FB4FF4FA7003F0F1F8B948006869
:1004A00008B9012000E00020B649086001F050FEC4
:1004B0000028E5D1FFF786FE0DF032FDB24901229A
:1004C0000868B2A10FF0CAF90EE0B1A000F0F8FA86
:1004D0004FF4FA7003F0D3F8AA48006808B9012075
:1004E00000E00020A74908600AAA0BA9AEA00DF001
:1004F000AFFD0028E9D10B98810AACA000F0E0FA2A
:100500000A98810AAFA000F0DBFA18F07BFD18B959
:10051000B3A000F0D5FA02E0B6A000F0D1FA0120B5
:1005200017F0B6FF0CA808F0DEFFB6A000F0C8FA7E
:100530000CA8032100220592CDE90621089011465E
:100540004FF40072B348D0F8CC00B24BCDE9013083
:10055000CDE9032101200023AF4AB0A10090B348A8
:100560000BF08DFD0CA809F0C6F9B1A000F0A8FAB7
:1005700000200DB000BD0000D01E00204361726459
:1005800020547970653A534453432056312E310D2F
:100590000A0000004361726420547970653A534444
:1005A00053432056322E300D0A000000436172641E
:1005B00020547970653A534448432056322E300D0A
:1005C0000A0000004361726420547970653A4D4D11
:1005D0004320436172640D0A0000000043617264AD
:1005E000204D616E75666163747572657249443A37
:1005F00025640D0A000000004361726420524341EB
:100600003A25640D0A000000436172642043617062
:1006100061636974793A2564204D420D0A00000037
:100620004361726420426C6F636B53697A653A254B
:10063000640D0A0D0A0000006D7573696300000007
:10064000BDF8C8EBD2F4C0D6B2A5B7C5C8CECEF1BE
:100650000A000000DC290120C4DAB4E620757365C5
:10066000643D2025640A000025732F2573000000D7
:10067000E4350120FC35012008130020C9BEB3FD7C
:10068000D2F4C0D6C8CECEF1BFD8D6C6BFE9BDE140
:10069000CAF86572723D3D25640A0000BDF8C8EBDA
:1006A000CFB5CDB3BCFCC5CCC9A8C3E8C8CECEF18C
:1006B0000A0000000D0AD5FDD4DAB4B4BDA8CFB548
:1006C000CDB3C8CECEF10D0A00000000080B00200B
:1006D0004103000853797374656D205461736B2076
:1006E00053746172740000006C0A00200D0AB4B4E7
:1006F000BDA8CFB5CDB3C8CECEF1BDE1CAF80D0AC5
:10070000000000000D0AD5FDD4DAB4B4BDA8D2F4BF
:10071000C0D6B2A5B7C5C8CECEF10D0A0000000004
:10072000A4130020970200086D7033205461736B8E
:1007300020537461727400000D0AB4B4BDA8D2F4E1
:10074000C0D6B2A5B7C5C8CECEF1BDE1CAF80D0A74
:100750000000000000000240656E74657220636F47
:1007600072650A0053442043617264204572726FBF
:1007700072210A00506C6561736520436865636B84
:1007800021200A009802404280290120303A0000CE
:10079000534420436172642046617466732045723D
:1007A000726F72210000000030000000534420549A
:1007B0006F74616C2053697A653A2564204D420A52
:1007C0000000000053442020467265652053697A7A
:1007D000653A202564202020204D420A00000000B8
:1007E0006F70656E20666F6E7420737563636373DC
:1007F000650A00006F70656E20666F6E742066611A
:10080000696C0A00B3F5CABCBBAF686F6F6BBAAF57
:10081000CAFD0A006C0200206503000841707020C8
:100820005461736B2053746172740000D001002016
:10083000BFAACABCC8CECEF10A000000704707A00C
:1008400000F03EF900BFFEE700BFFEE700BFFEE795
:1008500000BFFEE770477047704770470AD3B2BCCD
:10086000FEB4EDCEF3A3ACBDF8C8EBCBC0D1ADBBAD
:10087000B70A00000CB5002001900090764800688F
:1008800040F480307449086000BF7348006800F489
:10089000003000900198401C0190009818B9019810
:1008A000B0F5A04FF1D16C48006800F4003010B1F1
:1008B0000120009001E0002000900098012846D11E
:1008C00065484030006840F080506349403108601E
:1008D0006248006840F44040604908605E48083063
:1008E00000685D49083108600846006840F400402F
:1008F00008600846006840F4A05008605848091F86
:100900000860081F006840F08070091F086000BF81
:100910005148006800F000700028F9D040F20570DE
:10092000504908604C480830006820F003004A49EC
:10093000083108600846006840F00200086000BF07
:1009400045480830006800F00C000828F8D10CBDBC
:1009500010B54548006840F47000434908603E48BF
:10096000006840F001003C49086000203A49083125
:100970000860394800683D490840374908603C48EC
:10098000091D0860081F006820F48020091F086006
:10099000002031490C310860FFF76CFF4FF0006018
:1009A00031498039086010BD70B500200022022353
:1009B00000240221284D08352D6805F00C0020B1D7
:1009C000042806D0082834D107E02A4D2A4E356085
:1009D00033E02A4D284E35602FE01F4D2D1D2D6828
:1009E000C5F380541C4D2D1D2D6805F03F0154B1F9
:1009F000224DB5FBF1F5184E361D3668C6F3881644
:100A000005FB06F209E01B4DB5FBF1F5124E361D54
:100A10003668C6F3881605FB06F20F4D2D1D2D68AE
:100A2000C5F301456D1C6B00B2FBF3F5124E35604A
:100A300003E0104D104E356000BF00BF064D083575
:100A40002D68C5F303150E4E705D0B4D2D68C54026
:100A5000094E356070BD0000003802400070004053
:100A600008544007003C024088ED00E0FFFFF6FE1E
:100A7000103000240024F4000000002000127A004E
:100A8000040000201CB50121084603F089FAC020AB
:100A9000009001208DF8040000208DF8060003204E
:100AA0008DF8050001208DF807006946034802F023
:100AB000C9FFC021014803F041F81CBD00000240FD
:100AC0000FB430B5C1B0684620B9002041B030BC89
:100AD0005DF814FB45A840906846409A449918F088
:100AE00053FF6C46002505E0207802F0FAFD641CF7
:100AF000681CC5B220780028F6D140902846E5E76A
:100B0000F8B505460E4600200090002414E0002CA5
:100B100009DDE11704EB11710911A4EB011111B901
:100B200022A0FFF7CDFF285D8DF800009DF8001092
:100B30001FA0FFF7C5FF641CB442E8D31BA0FFF75A
:100B4000BFFFF8BD2DE9F04705460E4617464FF0AA
:100B5000000A002426E015F804804FF000091DE08B
:100B6000B24504D914A0FFF7ABFF4FF0000A08F01C
:100B7000800020B12A2111A0FFF7A2FF02E00DA002
:100B8000FFF79EFF4FEA48604FEA10680AF1010044
:100B900000F0FF0A09F1010000F0FF09B9F1080FA8
:100BA000DEDB641CBC42D6D3BDE8F0870D0A000032
:100BB00025303258200000000A00000025630000A4
:100BC0001CB50121102003F0EBF94FF4F060009008
:100BD00001208DF8040000208DF8060003208DF818
:100BE000050001208DF807006946FE4802F02AFF43
:100BF0004FF4F040009000208DF804008DF80600BE
:100C000003208DF8050001208DF807006946F5489E
:100C100002F018FF4FF4F061F24802F08FFF1CBDA4
:100C20007CB5044600208DF804008DF806000320F2
:100C30008DF8050001208DF807004FF4F065294676
:100C4000E84802F07BFF2CB1802000906946E5481F
:100C500002F0F8FE012C06D04FF480700090694637
:100C6000E04802F0EFFE022C06D04FF40070009036
:100C70006946DC4802F0E6FE032C06D04FF48060A3
:100C800000906946D74802F0DDFE01208DF804008F
:100C900000208DF8060003208DF8050001208DF856
:100CA000070034B1012C0FD0022C1AD0032C32D102
:100CB00024E0802000906946CA4802F0C3FE8021EB
:100CC000C84802F03DFF2AE04FF48070009069466A
:100CD000C44802F0B7FE4FF48071C24802F030FF02
:100CE0001DE04FF4007000906946BE4802F0AAFE75
:100CF0004FF40071BB4802F023FF10E04FF4806016
:100D000000906946B74802F09DFE4FF48061B548F7
:100D100002F016FF03E0B4A0FFF7D2FE00BF00BF51
:100D200000207CBD70B50446AE4802F0F6FE0546D4
:100D3000C5F3C3202060002070BD10B5FFF740FF51
:100D40000020FFF76DFF0020AC490872401E0860CC
:100D5000486000204872AA4981F8510081F850008B
:100D600010BD08B56846FFF7DDFF009800F00F00E2
:100D7000A249097A89008840A24909680844A14922
:100D800008609E48007A401C9C4908720846007A18
:100D9000042805DB9B48008880B200900020087280
:100DA0009649087AFFF73CFF9448007A002855D10D
:100DB0009248406893490968884206D09148006883
:100DC0008E4948600020487245E08C4800688D4993
:100DD000096888423CD08948407A401C874948725B
:100DE0000846407A022836DB0846006885490968CB
:100DF0004840834991F85010814A42F8310010462A
:100E000090F8500052F830107E4802687EA0FFF73C
:100E100057FE7C4800687A4991F85010784A02EBF6
:100E2000C1014860104690F85000401C114681F8FE
:100E30005000084690F850000A2802DB002081F894
:100E40005000704800686D4908600020487202E058
:100E500000206A49487272486A49086008BD014624
:100E6000674890F85000664A92F8512090421DD091
:100E7000634890F85100624A52F83000086010460A
:100E800090F8510002EBC00040684860104690F8AE
:100E90005100401C82F85100104690F851000A2879
:100EA00002DB002082F85100012070470020FCE79F
:100EB00010B50446102C23D2DFE804F008090A0B11
:100EC0000C0D0E0F101112131415161700BF00BFD2
:100ED00000BF00BF00BF00BF00BF00BF00BF10E0E9
:100EE00000BF00BF00BF00BF00BFA4F10A0000EBBD
:100EF00080004C4A02EB40014BA0FFF7E1FD00E00F
:100F000000BF00BF10BD10B500204A4981F8210084
:100F100081F820004849887508754875401E0861A9
:100F2000FFF70BFF002010BD01204449087000208E
:100F3000704700204149087070473E4890F82000F3
:100F40003C4981F82100002070470146394890F85B
:100F50002000384A92F82120904216D0354890F867
:100F6000212090F82100401C324B83F821001846C4
:100F700050F822000860184690F82100082806DB87
:100F800000201A4682F8210001E0002008600020BD
:100F900070470146274890F82000264A92F8212001
:100FA000904207D0234890F82100224A52F82000AE
:100FB000086001E0002008600020704701461D48DD
:100FC00090F8202090F82000401C1A4B83F8200055
:100FD000184640F8221090F82000082832DB002044
:100FE0001A462DE0001002406B6579207363616E34
:100FF0002065727220636F6C0D0A0000A41B002034
:10100000B01B0020580000206368673A2530347810
:101010002C207374613A253034780D0A00000000EA
:101020000000FFFF14000020B0B4CFC23A25730ABD
:1010300000000000041C0020281C0020500000209C
:1010400082F820000020704710B5EF20FFF7B6FFB0
:10105000002010BD10B50346002010BD70B502463B
:1010600000200F21002312E0F94D05EBC1052E7978
:101070000125B54005EA02043CB901EB00205D1CE6
:10108000EBB2042B01DD002003E04D1E69B2002904
:10109000EADA00BF70BD7CB5EE48007800B97CBDCF
:1010A0006846FFF7DCFE0546012D4AD1EAA0DDE9DE
:1010B0000012FFF705FDED48006901990843401C47
:1010C00040B900F071FAE949886008468168E8A0F3
:1010D000FFF7F6FCE549019808610198FFF7BEFFAC
:1010E0000446E24804602146E5A0FFF7E9FCDDE99B
:1010F0000001084088B92146E4A0FFF7E1FCDB4885
:10110000407D30B92146E4A0FFF7DAFC2046FFF726
:1011100055FF0120D54908750BE0E3A0FFF7D0FC8F
:101120000198401C28B9E3A0FFF7CAFC0020CF4972
:1011300008754FF4FA60CD49C86000F035FACB4924
:101140004860CA48007D01280ED1C849886842F22B
:10115000107100F02CFA012810D1C448407D68B904
:101160000120C249487509E0C048007D30B9BF4838
:10117000407D012802D10020BC494875BB48807DD4
:1011800001281BD1B948407DC0B9B848007D01286D
:1011900014D1B64AD168506800F009FA01280DD17F
:1011A000B2480068012803D0B0490868FFF706FF7D
:1011B00000F0FAF9AD494860C820C86000BF6EE78A
:1011C00000B5FFF7B6FE00BD10B5FFF79CFEFFF7B8
:1011D000ABFE10BDA54800699D490A7B01219140E5
:1011E000084008B9012070470020FCE708B543E03B
:1011F000FFF7B7FDFFF74FFF6846FFF7A6FE009821
:10120000002839D00098C0B200EB8000AB4A02EB56
:101210008001ABA0FFF754FC0098000A00900098F2
:1012200048B10098C0B200EB8000A44A02EB8001F4
:10123000A6A0FFF745FC0098000A0090009848B16E
:101240000098C0B200EB80009C4A02EB80019FA096
:10125000FFF736FC0098000A0090009848B100980B
:10126000C0B200EB8000954A02EB800197A0FFF727
:1012700027FC97A0FFF724FCBAE700B59648006862
:10128000401C20B9FFF750FE002093490860002061
:1012900000BD00B59048006828B9FFF74AFE4FF03E
:1012A000FF308D490860002000BD00B58A48006805
:1012B00018B9FFF742FE002000BD6FF00600FBE703
:1012C00078B505460024002028606846FFF73DFEFB
:1012D000009E81480068401C08B9E01F78BD009856
:1012E00008B90020FAE70098C0B200B1641C009869
:1012F000000A00900098C0B200B1641C0098000A77
:1013000000900098C0B200B1641C0098000A0090E0
:101310000098C0B200B1641C2E602046DEE770B5B4
:1013200004460D4616466C480068401C10B96FF024
:10133000060070BD324629462046FFF78BFEF8E7CF
:1013400018B504466846FFF700FE0098C0B288B1A1
:10135000009820F0FF0068B90098EF2803D10098AA
:101360002060002018BD0098C0B25C4951F82000F0
:10137000206001E0002020600020F3E71CB501217F
:10138000102002F00DFE3F20009000208DF8040098
:1013900003208DF8050001208DF8070069465048AC
:1013A00002F050FB00204F4981F8210081F8200015
:1013B0001CBD10B5044621464BA0FFF781FB0F2C46
:1013C00010D100BFBFF34F8F4C48006800F4E060BD
:1013D0004B490843001D49490860BFF34F8F00BFC8
:1013E00000BFFEE73F4890F8201090F82000401C16
:1013F0003C4A82F82000104640F8214090F8200036
:10140000082803DB0020114681F82000002010BDD1
:101410000146344890F82000324A92F82120904248
:1014200071D0304890F8212090F82100401C2D4BBD
:1014300083F82100184650F822000860184690F8FA
:101440002100082861DB00201A4682F821005CE0B8
:1014500088A20108500000206368673A20253034D4
:10146000782C20253034780D0A000000281C00203C
:10147000B5B1C7B0CAB1BBF9CEAA25640D0A000048
:10148000B0B4CFC22025640D0A000000B0B4CFC2B2
:1014900020253038780D0A00D0B4D2BBB8F6BCFC99
:1014A000D6B525640D0A0000C6E4CBFBB1E4BBAFA2
:1014B0000D0A0000CEDEBCFC0D0A000008A30108E6
:1014C0006B65793A20257320000000002573200009
:1014D0002D2D0D0A0000000054000020ACA40108CE
:1014E00000100240401C0020D0B4C8EBD2BBB8F6BC
:1014F000BCFCD6B53D25640A000000000CED00E000
:101500000000FA05FFE7002008600020704722482D
:1015100090F82000204981F82100002070472DE933
:10152000F0410646012716B101201C4908701C48ED
:1015300002F0F3FA0446E04384B204F03F04174893
:101540000078C0B1BCB117480480322002F074F8B2
:10155000002012490870002507E004F0010008B1DE
:10156000681C47436410681CC5B2062DF5DB38467D
:10157000FFF71FFF0DE01CB901200849087008E0C3
:1015800008480088844204D00648048001200349AA
:1015900008700020BDE8F081401C0020660000209B
:1015A000001002406400002016490868704730B5FA
:1015B00002460D46FFF7F8FF0346934201D39C1AFB
:1015C00002E0D01AC0F1FF34AC4201D3012030BD9B
:1015D0000020FCE700B50246FFF7E6FF10600020A0
:1015E00000BD30B50446FFF7DFFF054606E02146A3
:1015F0002846FFF7DCFF012800D100E0F7E700BF35
:1016000030BD0000240100200020FE490860091DB3
:101610000860091D0860091D0860FA492431086046
:10162000091D0860091D0860F748F649383108604F
:101630000020091D0860704701460020012900D0E4
:1016400011B9F24B197000E0262070470146ED4AAF
:10165000121D106820F0FF0008431060704770B53D
:10166000044606E0E7483430056805F0450000B15F
:1016700000E0F7E700BF042003F0B4FB20B1042032
:1016800003F0BBFB032070BD012003F0ABFB20B1D6
:10169000012003F0B2FB0120F5E7DA4810300068C2
:1016A000A04201D01020EEE740F2FF5003F0A5FB6E
:1016B000D4481430006808210840C0B2E3E72DE99F
:1016C000FC4107460D4600260024002000900190B2
:1016D0000820CF4908601020486040208860002022
:1016E000C8604FF480600861084603F0E8FA1020F3
:1016F000FFF7B5FF044614B12046BDE8FC81C5489C
:1017000000880004C2490860372048604020886093
:101710000020C8604FF480600861084603F0CFFAEB
:101720003720FFF79CFF04460CB12046E5E74FF059
:10173000FF30B949086008204860302088600220E6
:10174000C8600020086101204861084603F0E3FA00
:101750000020AF49086033204860402088600020A6
:10176000C8604FF480600861084603F0A8FA33208F
:10177000FFF775FF04460CB12046BEE70DE04FF4BD
:10178000001003F02FFB40B19E48803000684DF8F8
:101790002600761C022E00D307E09A4834300068F9
:1017A00040F22A6108400028E9D000BF082003F079
:1017B00019FB20B1082003F020FB04209DE7022044
:1017C00003F010FB20B1022003F017FB022094E786
:1017D000202003F007FB20B1202003F00EFB0620A1
:1017E0008BE74FF4007003F0FDFA28B14FF400705E
:1017F00003F003FB072080E740F2FF5003F0FDFAFF
:1018000000980006009901F47F4140EA0120009908
:1018100001F47F0140EA1120009940EA11606860FC
:1018200001980006019901F47F4140EA01200199E5
:1018300001F47F0140EA1120019940EA116028601B
:1018400020465AE77CB50546002400200090019010
:1018500000260DB1022600E000266A481430006818
:1018600000F0007008B10E207CBD6A49098888B27A
:101870006946FFF724FF04460CB12046F4E70198BF
:1018800000F4802060B36348008800046049086069
:1018900037204860402088600020C8604FF4806096
:1018A0000861084603F00BFA3720FFF7D8FE04461C
:1018B0000CB12046D8E756480660062054494860D7
:1018C000402088600020C8604FF4806008610846AE
:1018D00003F0F5F90620FFF7C2FE04462046C3E7F1
:1018E0002520C1E770B5044600254C480078032840
:1018F00002D12725284670BD4848007838B14748AE
:101900000078012803D045480078022819D1B4F5A1
:10191000805F02D127252846EDE7E0B2FFF792FF6E
:10192000054675B93748001D006820F4C050354998
:10193000091D0860084600682043086008460068E2
:1019400008602846D7E710B50446314804600720F0
:101950002F494860402088600020C8604FF48060B4
:101960000861084603F0ABF90720FFF778FE10BDC9
:10197000F0B5014600200022284B1B7881F8563034
:10198000244B1B88A1F85430254B1B681A0E930971
:101990000B70C2F383034B7002F003038B70204B78
:1019A0001B68C3F30742CA701D4B1B88C3F3072291
:1019B0000A711B4B1A784A715B681A0E1301CB80AF
:1019C000174B5B68C3F30742CB8843EA1213CB8003
:1019D00002F00F030B72124B9B88C3F30722D3094B
:1019E0004B72C2F380138B72C2F34013CB72C2F3FB
:1019F00000130B7300234B73084B1B78C3B1074BC9
:101A00001B780FE0002C0140FF07C0007000002091
:101A1000801C00206C000020941C00206800002026
:101A2000AC1E0020012B03D0FE4B1B78032B4FD1A3
:101A300093071B0D0B61FC4B1A790B6943EA820378
:101A40000B61F94B9B681A0E0B6943EA92130B6109
:101A5000C2F3C2030B7502F007034B75F24B9B6890
:101A6000C3F3074253098B75C2F38203CB75930707
:101A70005B0F0B76EC4B1B89C3F307220B7E43EA0B
:101A8000D2130B760B695B1C0024C1E912340B7E68
:101A90009B1C012404FA03F3DC17D1E91256A5FBC1
:101AA000037C06FB03C305FB0433C1E912730C7A04
:101AB0000123A3400B650024D1E912650B6DA6FB41
:101AC000037C05FB03C306FB0433C1E912732EE05C
:101AD000D44B1B78022B2AD1D34B1A7993069B0A3D
:101AE0000B61D14B9B681A0E0B6943EA02230B6111
:101AF000CD4B9B68C3F307420B6913430B61CA4B81
:101B00001B89C3F307220B695B1C4FF40074A3FB12
:101B100004464FF480630025A4FB037C06FB03C34B
:101B200004FB0533C1E912734FF400730B65C2F374
:101B3000801301F8193F93065B0E4B70BA4B1A7A6B
:101B40004B7843EAD2134B7002F07F038B70B64B95
:101B5000DB681A0ED309CB70C2F341130B71C2F3C9
:101B600082034B7193071B0F8B71AF4BDB68C3F381
:101B700007428B7943EA92138B71C2F34013CB7106
:101B800000230B7202F001034B72A74B9B89C3F336
:101B90000722D3098B72C2F38013CB72C2F34013B6
:101BA0000B73C2F300134B73C2F381038B7302F008
:101BB0000303CB739C4B1A7B53080B7401234B74A8
:101BC0009A4B1B681A0ECA741939984B1B68C3F3D9
:101BD00007421402CC85954B1B88C3F30722CB8D9B
:101BE0001343CB85914B1A7814060C635B681A0E6D
:101BF0000B6B43EA02440C638C4B5B68C3F30742F4
:101C00000B6B43EA02240C63884B9B88C3F30722C7
:101C10000B6B13430B63854B1A7934235A54834B54
:101C20009B681A0E35235A54804B9B68C3F30742B6
:101C300014068C637D4B1B89C3F307228B6B43EA2D
:101C400002448C63794B1A7A8B6B43EA02248C63CF
:101C5000764BDB681A0E8B6B13438B63734BDB681D
:101C6000C3F307423C235B5C43EA12143C235C54FD
:101C700013071C0DCC876D4B9B89C3F30722CB8FB9
:101C80001343CB87694B1A7B540840235C540124CF
:101C900041235C54F0BD70B500264FF4803505E05B
:101CA0006348046804F0450000B103E0281EA5F174
:101CB0000105F5D100BF15B104F0040028B10326D9
:101CC000042003F09AF8304670BD012003F08AF832
:101CD00018B10126012003F090F840F2FF5003F004
:101CE0008CF83046F0E72DE9F04105460E464FF0FE
:101CF000000805E04E48076807F0450000B100E025
:101D0000F8E700BF042003F06DF828B1042003F0C9
:101D100074F80320BDE8F081012003F063F820B1DE
:101D2000012003F06AF80120F4E7414824380068F4
:101D3000A84201D01020EDE740F2FF5003F05DF81B
:101D40003B482038046804F4604018B9200C308007
:101D50004046DFE704F4005008B11320DAE704F44A
:101D6000804008B11020D5E704F4004008B10F20EE
:101D7000D0E74046CEE738B500240120009002F0BD
:101D800098FF10B92524204638BD2648007804283D
:101D900025D000202749086002204860C0208860C4
:101DA0000020C8604FF480600861084602F087FF99
:101DB000FFF771FF04460CB12046E5E71C482038C8
:101DC00000681A4908601A481C38006848601848BA
:101DD000183800688860164814380068C8601148D0
:101DE000007858B10F480078012807D00D480078D6
:101DF000062803D00B480078022821D100200D4985
:101E0000086003204860402088600020C8604FF4CC
:101E100080600861084602F052FF69460320FFF720
:101E200062FF09E068000020AC1E0020BC1E0020FC
:101E3000342C0140801C002004460CB12046A3E74E
:101E4000FE480078032816D1BDF800000004FC49C4
:101E5000086003204860402088600020C8604FF47C
:101E600080600861084602F02AFFFFF714FF04466D
:101E70000CB1204688E7F148007804282AD0BDF844
:101E80000000F0490860BDF800000004EC4908605B
:101E900009204860C02088600020C8604FF480603E
:101EA0000861084602F00BFFFFF7F5FE04460CB18F
:101EB000204669E7E4480068E4490860E248001DFC
:101EC00000684860E048083000688860DE480C30F0
:101ED0000068C860002057E710B506E0DA482030F7
:101EE000046804F0450000B100E0F7E700BF0420FB
:101EF00002F078FF20B1042002F07FFF032010BD24
:101F000040F2FF5002F079FF0020F8E770B500269C
:101F10004FF4803506E0CC482030046804F04500DA
:101F200000B103E0281EA5F10105F4D100BF15B1F1
:101F300004F0040028B10326042002F05EFF3046BE
:101F400070BD04F0400018B10026402002F055FF9B
:101F50003046F5E770B500254FF4803404E080206A
:101F600002F040FF00B103E0201EA4F10104F6D10D
:101F700000BF0CB9032070BD40F2FF5002F03DFFDE
:101F80002846F8E72DE9F047002700240026002521
:101F9000A046A1467620AE4908750020086048603A
:101FA0008860C8600861084602F05FFE032002F006
:101FB0007CFEA5481038006840F48070A2491039B2
:101FC000086000BF12E000209D49086048608860FA
:101FD000C8604FF480600861084602F070FEFFF7A9
:101FE000B9FF044604B903E0781CC7B24A2FEADB04
:101FF00000BF14B12046BDE8F0874FF4D57090497A
:10200000086008204860402088600020C8604FF4C5
:1020100080600861084602F052FEFFF777FF044631
:1020200024B90120854908704FF080490020844977
:10203000086037204860402088600020C8604FF466
:1020400080600861084602F03AFE3720FFF707FB80
:102050000446002C4BD134E0002079490860372039
:102060004860402088600020C8604FF480600861AC
:10207000084602F024FE3720FFF7F1FA04460CB1BF
:102080002046B8E7734849EA00006D4908602920F6
:102090004860402088600020C8604FF4806008617C
:1020A000084602F00CFEFFF717FF04460CB120466D
:1020B000A1E765480668012080EAD67080F0010833
:1020C0006D1CB8F1000F03D14FF6FF708542C3D3EA
:1020D0004FF6FF70854202D31B2420468BE706F0A3
:1020E0008040061E32D00220544908702EE01CE0C9
:1020F000594853490860012048604020886000200A
:10210000C8604FF480600861084602F0D8FDFFF710
:10211000E3FE04460CB120466DE74B4806680120FB
:1021200080EAD67080F001086D1CB8F1000F03D171
:102130004FF6FF708542DBD34FF6FF70854202D326
:102140001B24204657E703203C490870204652E7ED
:102150003EB500240121414801F022FF0121C802BF
:1021600001F078FF0121C80201F0C9FF4FF4F850D7
:10217000019002208DF808008DF8090000208DF8EC
:102180000A0001208DF80B0001A9354801F05AFC26
:102190000420019001A9334801F054FC0C220821CD
:1021A0002F4801F0DAFC0C2209212D4801F0D5FC62
:1021B0000C220A212A4801F0D0FC0C220B212848CD
:1021C00001F0CBFC0C221146254801F0C6FC0C2284
:1021D0000221244801F0C1FC00214FF4006001F00D
:1021E0008EFFFFF711FA31208DF8000000208DF8E6
:1021F00001008DF8020001208DF80300684601F00F
:1022000030FBFFF7BFFE044614B9FFF7B4FD0446E8
:102210001CB91548FFF7ACFB044634B91249B1F8B4
:1022200054100804FFF78FFB044624B94FF40060F4
:10223000FFF758FB0446E4B1004817E068000020AF
:10224000801C00206C000020142C0140AC1E0020DB
:10225000681C0020000010800080FF800C004000FF
:1022600000080240000C0240D01E00200078032825
:1022700006D10020FFF7EAF90120FFF7DDF9044657
:1022800020463EBD10B5002002F00FFD002010BD1D
:1022900070B590B004460E46154600BFF94802F0EE
:1022A0002EFC0028FAD1F74802F000FB4FF0006046
:1022B0000190F54802900394049500200590069043
:1022C0004FF4806007908000089080000990002003
:1022D0000A904FF440300B9004200C9003200D9096
:1022E0004FF400000E9080100F9001A9E54802F015
:1022F0007FFB2021E34802F0CBFB0121E14802F003
:10230000B1FB10B070BD0146002002E04910421C34
:10231000D0B20129FAD170472DE9F84F814617460E
:1023200098460A9C4FF0000AD3464D464FF0FF36C0
:10233000B9F1000F02D12620BDE8F88F0020D24964
:1023400054390860D1480078022805D10402780A7F
:1023500040EAC8574FEA68280020CD4988604860A5
:10236000401E0860012048610020C86008610846DE
:1023700002F0D1FCC4486C38006800F0007008B16D
:102380000E20D9E7002C21DDB4F5006F1EDC601EA5
:102390002040D8B92046FFF7B6FF0090BD48046042
:1023A0001020BC494860402088600020C8604FF47D
:1023B00080600861084602F082FC1020FFF74FF9A8
:1023C0008246BAF1000F03D05046B5E72620B3E7A6
:1023D00000980001AE498860084644604FF0FF3025
:1023E0000860012048610220C8600020086108469A
:1023F00002F091FCA74807601120A64948604020E0
:1024000088600020C8604FF480600861084602F0D0
:1024100056FC1120FFF723F98246BAF1000F01D0D4
:10242000504689E79C48007800285AD1FDF7C3FE42
:1024300017E04FF4004002F0D5FC70B14FF0000BF4
:1024400005E09148006845F82B000BF1010BBBF14A
:10245000080FF6D32035914E03E00EB904206BE748
:10246000761E89484C38006840F22A6108400028EE
:10247000DFD0082002F0B6FC20B1082002F0BDFC3D
:10248000042059E7022002F0ADFC20B1022002F046
:10249000B4FC022050E7202002F0A4FC20B1202050
:1024A00002F0ABFC062047E74FF4007002F09AFC04
:1024B00028B14FF4007002F0A0FC07203CE703E0D5
:1024C0007148006828602D1D4FF4001002F08AFC4E
:1024D0000028F5D1FDF771FE40F2FF5002F08DFCAF
:1024E00039E06D480078012835D100206C4908702A
:1024F0006C4908706C49087063484438006840F2C1
:102500002A3108436049443908605F4854380068FC
:1025100040F008005C4954390860002221464846D2
:10252000FFF7B6FE00E0761E56485838006800F007
:10253000006038B95C48007820B95948007808B97B
:10254000002EF0D10EB90420F6E65548007810B1FF
:10255000534890F800A05046EEE62DE9FF5F17467D
:102560009846DDE90E464FF00009CA464FF0FF35A8
:102570004E49009808600020434954390860434898
:102580000078022805D10402780A40EAC8574FEAC9
:10259000682800203E4988604860401E086001208D
:1025A00048610020C8600861084602F0B4FB364864
:1025B0006C38006800F0007018B10E2004B0BDE85F
:1025C000F09F002C21DDB4F5006F1EDC601E204062
:1025D000D8B92046FFF797FE83462E4804601020A6
:1025E0002C494860402088600020C8604FF480601B
:1025F0000861084602F063FB1020FFF730F88146BF
:10260000B9F1000F03D04846D8E72620D6E7012EBF
:102610007DD906FB04F0B0F1007F01D32620CDE781
:102620004FEA0B101A49886006FB04F048604FF02F
:10263000FF300860012048610220C8600020086166
:10264000084602F068FB13480760122011494860F1
:10265000402088600020C8604FF480600861084610
:1026600002F02DFB1220FEF7FAFF8146B9F1000FB0
:1026700001D04846A2E70848007800287ED1FDF73F
:102680009AFD33E058640240802C0140680000202D
:10269000941C0020801C002070000020FFFF7F00A1
:1026A00072000020710000207300002074000020E0
:1026B0004FF4004002F096FBA0B14FF0000A07E093
:1026C000FE480068FE49096841F82A000AF1010A3B
:1026D000BAF1080FF4D3FA4800682030F8490860CE
:1026E000F84D03E00DB9042068E76D1EF3484C383F
:1026F000006840F22A3108400028D9D0082002F0B2
:1027000071FB28B1082002F078FB042056E79CE01A
:10271000022002F067FB20B1022002F06EFB0220D3
:102720004CE7202002F05EFB20B1202002F065FB88
:10273000062043E74FF4007002F054FB28B14FF439
:10274000007002F05AFB072038E709E0DB48006818
:10275000DB4909680860DA480068001DD84908604C
:102760004FF4001002F03EFB0028EFD14FF48070D0
:1027700002F038FB20B3D448007800E027E038B1FD
:10278000D1480078012803D0CF480078022817D11B
:102790000020CE4908600C2048604020886000205E
:1027A000C8604FF480600861084602F088FA0C2087
:1027B000FEF755FF8146B9F1000F01D04846FDE60E
:1027C000FDF7FBFC40F2FF5002F017FB3DE0C04874
:1027D0000078012839D10020BE4908700120BE4987
:1027E00008700020BD490870B4484438006840F2C1
:1027F0002A310843B14944390860B0485438006868
:1028000040F00800AD495439086006FB04F100228D
:102810000098FFF73DFD00E06D1EB148006800F034
:10282000006008B9002DF7D10DB90420C6E600BF3D
:10283000AA48007818B9A74800780028F8D0A54819
:10284000007810B1A34890F800904846B6E61CB551
:102850000446002001900090A248008800049B4993
:1028600008600D204860402088600020C8604FF458
:1028700080600861084602F022FA90484C380068EF
:10288000009003E08D484C3800680090009800F0FC
:1028900045000028F6D0012002F0A4FA20B1012062
:1028A00002F0ABFA01201CBD042002F09BFA20B11B
:1028B000042002F0A2FA0320F5E78048703800688F
:1028C0000D2801D01020EEE740F2FF5002F095FAFB
:1028D0007A486C38006801900198C0F3432020705A
:1028E0000020E0E72DE9FF5F86B017469846149D6B
:1028F0000026002005900490002481460390824623
:1029000002900195DDF818B0DDF818B0BBF1000FAA
:1029100003D126200AB0BDE8F09F00206749543952
:102920000860714988604860401E08600120486165
:102930000020C8600861084602F0EDF95F486C3875
:10294000006800F0007008B10E20E3E75E480078F0
:10295000022805D10502780A40EAC8574FEA6828DC
:10296000002D1FDDB5F5006F1CDC681E2840C8B9BE
:102970002846FFF7C8FC05905448056010205349CD
:102980004860402088600020C8604FF48060086183
:10299000084602F094F91020FEF761FE06461EB1CB
:1029A0003046B7E72620B5E74E480088000447497F
:1029B00008600D204860402088600020C8604FF407
:1029C00080600861084602F07AF90D20FEF747FEA4
:1029D00006460EB130469DE738486C3800680390D3
:1029E0004FF0FF341CE0641E3E4800880004374965
:1029F00008600D204860402088600020C8604FF4C7
:102A000080600861084602F05AF90D20FEF727FEA3
:102A100006460EB130467DE728486C3800680390C2
:102A2000039800F4807008B9002CDCD10CB929207F
:102A300070E72648076018202449486040208860D5
:102A40000020C8604FF480600861084602F037F942
:102A50001820FEF704FE06460EB130465AE7002065
:102A60001D490870059800011F49886008464560A7
:102A70004FF0FF300860012048610020C860086105
:102A8000084602F048F94FF0FF341148007800285A
:102A900070D1FDF790FB5CE04FF4804002F0A2F9AA
:102AA00088B30198A0EB090020283BD20198A0EB45
:102AB000090000F00300E8B9019817E0802C0140FC
:102AC00074000020FFFF7F0068000020801C0020B1
:102AD00070000020720000207100002073000020B0
:102AE000006402406C000020941C0020A0EB090050
:102AF000800804E00198A0EB09008008401C0290C7
:102B00004FF0000A0AE020E0F849DBF80000086016
:102B10000AF1010A0BF1040B09F10409029882453C
:102B2000F2D30FE04FF0000A05E05BF82A00EF490E
:102B300008600AF1010ABAF1080FF6D30BF1200B75
:102B400009F120096FF0404403E00CB90420E1E6EC
:102B5000641EE6484C38006840F21A6108400028BC
:102B60009AD0082002F03EF928B1082002F045F979
:102B70000420CFE623E0022002F034F920B1022045
:102B800002F03BF90220C5E6102002F02BF920B13B
:102B9000102002F032F90520BCE64FF4007002F07C
:102BA00021F928B14FF4007002F027F90720B1E6AF
:102BB000FDF703FB40F2FF5002F01FF943E0CC4861
:102BC000007801283FD10020CA490870CA4908701E
:102BD000CA490870C5484438006840F21A310843B1
:102BE000C24944390860402229460698FFF750FB45
:102BF000BE485438006840F00800BC4954390860A9
:102C000000E0641EBE48006800F0006008B9002CB7
:102C1000F7D11CB9FFF79CFA04207BE64FF0FF3494
:102C200000E0641EB548007820B9B248007808B9C1
:102C3000002CF6D10CB904206CE6AE48007810B137
:102C4000AC48007866E640F2FF5002F0D6F804A8DF
:102C5000FFF7FDFD064603E004A8FFF7F8FD064672
:102C60003EB99DF810000728F6D09DF81000062800
:102C7000F2D030464EE62DE9FF5F84B0DDE9124721
:102C80000026002003900290002580468146019096
:102C900007FB04FBDDF810A0DDF810A0BAF1000F6F
:102CA00003D1262008B0BDE8F09F00208F49543999
:102CB0000860944988604860401E086001204861AF
:102CC0000020C8600861084602F025F887486C3883
:102CD000006800F0007008B10E20E3E78A48007831
:102CE000022808D10402DDE90601400A40EAC15089
:102CF0004912CDE90601002C1FDDB4F5006F1CDC84
:102D0000601E2040C8B92046FFF7FDFA03907F48B7
:102D1000046010207D494860402088600020C86021
:102D20004FF480600861084601F0C9FF1020FEF7EB
:102D300096FC06461EB13046B4E72620B2E7012FC6
:102D40006FD907FB04F0B0F1007F01D32620A9E77B
:102D50006D48007838B16C480078012803D06A4883
:102D6000007802282DD16A4800880004674908606D
:102D700037204860402088600020C8604FF48060A1
:102D80000861084601F09BFF3720FEF768FC064605
:102D90000EB1304686E75D48076017205B49486002
:102DA000402088600020C8604FF4806008610846B9
:102DB00001F085FF1720FEF752FC06460EB13046A3
:102DC00070E75249069808601920486040208860E2
:102DD0000020C8604FF480600861084601F06FFF72
:102DE0001920FEF73CFC06460EB130465AE7039820
:102DF00000014449886007FB04F048604FF0FF3051
:102E00000860012048610020C8600861084601F0A0
:102E100082FF37480078002867D1451EFDF7CBF9BF
:102E200040E0F6E04FF4804001F0DCFFA8B3ABEBEC
:102E3000080020281ED2ABEB080000F0030018B9F0
:102E4000ABEB0800800803E0ABEB08008008401CF7
:102E500001904FF0000909E02449DAF80000086009
:102E600009F101090AF1040A08F1040801988145F1
:102E7000F2D30FE04FF0000905E05AF829001B4992
:102E8000086009F10109B9F1080FF6D30AF1200A27
:102E900008F120086FF0404504E0FFE70DB9042079
:102EA00000E76D1E11484C38006840F21A310840A6
:102EB0000028B7D0082001F095FF20B1082001F0CC
:102EC0009CFF0420EEE6022001F08CFF20B10220DE
:102ED00001F093FF0220E5E6102001F083FFC8B166
:102EE000102001F08AFF0520DCE64BE0802C014039
:102EF000700000207200002071000020730000208C
:102F000000640240941C002068000020801C002007
:102F10006C0000204FF4007001F064FF28B14FF402
:102F2000007001F06AFF0720BCE64FF4807001F0EA
:102F300059FF00B3F548007838B1F448007801280B
:102F400003D0F2480078022815D10020F04908602B
:102F50000C204860402088600020C8604FF48060EA
:102F60000861084601F0ABFE0C20FEF778FB064630
:102F70000EB1304696E6FDF720F940F2FF5001F021
:102F80003CFF46E0E3480078012842D10020E249B6
:102F900008700120E14908700020E1490870E1480B
:102FA000006840F21A310843DE49086007FB04F16B
:102FB00040220498FFF76CF9DA481038006840F0B6
:102FC0000800D849103908604FF0FF3500E06D1E49
:102FD000D548006800F0006008B9002DF7D11DB990
:102FE000FFF7B6F804205DE64FF0FF3500E06D1EF8
:102FF000CB48007820B9C848007808B9002DF6D130
:103000000DB904204EE6C448007810B1C2480078DB
:1030100048E640F2FF5001F0F0FE02A8FFF717FC6F
:10302000064603E002A8FFF712FC06463EB99DF8EB
:1030300008000728F6D09DF808000628F2D0304690
:1030400030E610B54FF4807001F0CCFE80B3B34889
:103050000078012814D10020AD4908600C20486098
:10306000402088600020C8604FF4806008610846F6
:1030700001F025FE0C20FEF7F2FAA749087002E0E5
:103080000020A5490870A748001F006840F4807020
:10309000A449091F0860081D00684CF23A318843B2
:1030A000A049086001209E4908709B48007810BD27
:1030B000FFE7022001F096FE68B1022001F09DFEBC
:1030C000984800684CF23A318843964908600220DB
:1030D00091490870EBE7082001F084FE68B10820F0
:1030E00001F08BFE8F4800684CF23A3188438D49DD
:1030F0000860042088490870D9E7202001F072FE9A
:1031000068B1202001F079FE864800684CF23A311F
:1031100088438449086006207F490870C7E710206B
:1031200001F060FE68B1102001F067FE7D48006884
:103130004CF23A3188437B49086005207649087093
:10314000B5E74FF4007001F04DFE70B14FF4007020
:1031500001F053FE734800684CF23A3188437149DC
:10316000086007206C490870A1E700209FE710B5B0
:10317000FFF767FF10BD70B50446002514B926257A
:10318000284670BD694800880004614908600D2028
:103190004860402088600020C8604FF4806008616B
:1031A000084601F08CFD0D20FEF759FA05460DB1D9
:1031B0002846E6E75B482838006820602846E0E7B4
:1031C00008B5002000906846FFF7D5FF08B1FF2042
:1031D00008BD0098C0F34320FAE72DE9FE4F83466F
:1031E0000E4691460020029000253446474800785C
:1031F00018B1680240EAD45564020BF00300F0B144
:103200004FF0000A18E04FF4007000904FEA4A2097
:10321000071945EBE0733A464548FFF77DF8029001
:103220004FF400724249584615F0FCFF0BF5007B45
:103230000AF1010000F0FF0ACA45E4DB16E0B9F12B
:10324000010F09D14FF4007022462B4600905846DA
:10325000FFF762F8029009E04FF4007022462B4617
:10326000CDE900095846FFF778F902900298BDE8C9
:10327000FE8F2DE9FE4F06468946924600200290B9
:1032800000254C462148007818B1680240EAD45520
:10329000640206F00300F0B14FF0000B18E04FF4A9
:1032A00000723146224815F0BDFF4FF400700090C7
:1032B0004FEA4B20071945EBE0733A461C48FFF7ED
:1032C00011FB029006F500760BF1010000F0FF0BF8
:1032D000D345E4DB16E0BAF1010F09D14FF40070D9
:1032E00022462B4600903046FFF7FCFA029009E098
:1032F0004FF4007022462B46CDE9000A3046FFF716
:10330000BAFC02900298BDE8FE8F00006800002021
:10331000801C00207000002072000020710000203E
:10332000730000203C2C0140006402406C0000202F
:10333000AC1C002000B587B00121084600F030FE2B
:103340000121480700F075FE1020059003208DF83C
:10335000180002208DF81B0005A9364800F072FB0A
:1033600000200190029003900220049001A9002007
:1033700001F09FF90121002001F0B8F90021084671
:1033800001F002FA07B000BD38B50446E0B28DF88E
:10339000000020128DF801009DF801008038000126
:1033A0009DF8001040EA211085B22946002001F066
:1033B000EBF938BD00B587B00121084600F0F0FDFB
:1033C0000121480700F035FE2020059003208DF8EC
:1033D000180002208DF81B0005A9164800F032FBEA
:1033E00000200190029003900220049001A9102077
:1033F00001F05FF90121102001F078F90021084661
:1034000001F0CFF907B000BD38B50446E0B28DF841
:10341000000020128DF801009DF8010080380001A5
:103420009DF8001040EA211085B22946002001F0E5
:10343000B8F938BD000002401CB50121084600F073
:10344000AFFD0320009001208DF8040000208DF8CE
:10345000060003208DF8050001208DF8070069465D
:10346000564800F0EFFA1CBD7FB505460C46012119
:10347000022000F0DEFD0295ADF804400020ADF81A
:103480000600ADF80C0001A94D4801F07EFD0122B7
:1034900011464B4802F01AFA0121494801F0FEFD9D
:1034A0001D208DF8000001208DF8010003208DF80B
:1034B000020001208DF80300684600F0D2F9FFF702
:1034C000BBFF7FBD10B500213D4801F0E7FD0021A5
:1034D000022000F0AEFD10BD10B50121374800F00C
:1034E0002FFB10BD10B50121344800F027FB10BDA3
:1034F00010B534480078B8B13348006833490988BA
:1035000030F8110084B22046FFF73EFF2E480068D5
:103510002E49098800EB4100408884B22046FFF71D
:1035200073FFFFF7DFFF16E0294800682749098885
:1035300030F8110084B22046FFF726FF24480068C7
:103540002249098800EB4100408884B22046FFF7F9
:103550005BFFFFF7C1FF1D480088801C1B490880E6
:1035600008460088B0F5106F0CDB1648007818B1DB
:1035700000201449087002E0012012490870002060
:103580001249088001210E4802F0C8F910BD70B53B
:1035900005460C460C4805600D4804600DA0FDF77B
:1035A0008FFA70BD10B50221044800F0C7FA10BDB3
:1035B00010B50221014800F0C3FA10BD000002401E
:1035C00000040040840000207800002086000020D5
:1035D0007C000020C9E8D6C3BAC3C1CB444143B57F
:1035E000C462756666D6B8D5EB0A000070B50446AD
:1035F0006FF0040000F082F9E11704EB5171C1F3A0
:10360000C7012F4A1170E11704EB5171CD104FF42F
:103610007A70454301202B4908804FF0E020006973
:1036200040F002004FF0E021086108464561006962
:1036300040F00100086170BDFEB504464FF47A7099
:10364000B4FBF0F03C21B0FBF1F085B24FF47A709E
:10365000B4FBF0F0B0FBF1F201FB12064FF47A700C
:10366000B4FBF0F100FB114702A800213B463246B3
:10367000CDE900102946002009F0B6FEFEBD70B568
:10368000044608E044F2A01501E0FCF78BFD281E7B
:10369000A5F10105F9D1201EA4F10104F2D170BDFC
:1036A00070B5044607E0112501E0FCF77BFD281EFC
:1036B000A5F10105F9D1201EA4F10104F3D170BDDB
:1036C0008A0000208C00002000BF704700BF554AD0
:1036D000128802F04002002AF9D0C2B2514B9A80FF
:1036E000704700BF4F49098801F040010029F9D017
:1036F0004C498880704710B588B0044601210846BF
:1037000000F04EFC0121102000F0A4FC072209214A
:10371000454800F022FA07220A21434800F01DFA2A
:103720004FF4C060069002208DF81C008DF81D003B
:1037300000208DF81E0001208DF81F0006A93A48D0
:1037400000F080F902940020ADF80C00ADF80E00F6
:10375000ADF81000ADF814000C20ADF8120002A96D
:10376000304800F0D8FD01212E4800F05CFE4021D9
:103770002C4800F040FF012240F22551294800F07A
:1037800008FF25208DF8040003208DF805008DF832
:10379000060001208DF8070001A800F062F808B0CB
:1037A00010BD10B505F01EFF40F225511D4800F078
:1037B0002BFF10B31B4800F065FEC4B21B48008805
:1037C00000F40040C8B91948008800F4804060B196
:1037D0000A2C03D000201549088020E013480088F7
:1037E00040F400401149088019E00D2C06D10F4823
:1037F000008840F480400D49088010E00B480088A4
:10380000C0F30D000A490C5408480088401C0749C1
:10381000088008460088C72801DD0020088005F0E0
:10382000F2FE10BD00100140000002409400002094
:10383000281F00200648804706480047FEE7FEE7AD
:10384000FEE7FEE7FEE7FEE7FEE7FEE7FEE7FEE750
:10385000510900088901000832490143324A1160C8
:10386000704770B5002100230F22C4781CB32E4C82
:10387000246804F4E064C4F5E064C4F30721C1F1F2
:103880000404E3B20A4144789C40E1B284781440D5
:1038900021430C07210E254C05786155047804F06E
:1038A0001F050124AC4005786D11AD0005F1E02540
:1038B000C5F8004109E0047804F01F050124AC407C
:1038C0001B4D0678761145F8264070BD194A0A400E
:1038D0000243154B1B1F1A60704739B1124A121D63
:1038E00012680243104B1B1D1A6006E00E4A121D9F
:1038F000126882430C4B1B1D1A607047042808D1C4
:103900004FF0E021096941F004014FF0E02211611C
:1039100007E04FF0E021096921F004014FF0E022B7
:10392000116170470000FA050CED00E000E400E0D2
:1039300080E100E080FFFF1F10B50446A0488442EC
:1039400008D10121084600F096FB0021012000F07B
:1039500092FB76E09B48844208D10121022000F0CE
:103960008AFB0021022000F086FB6AE09648844230
:1039700008D10121042000F07EFB0021042000F08A
:103980007AFB5EE09148844208D10121082000F0D2
:1039900072FB0021082000F06EFB52E08C4884424C
:1039A00008D10121102000F066FB0021102000F05A
:1039B00062FB46E08748844208D10121202000F0C4
:1039C0005AFB0021202000F056FB3AE08248844256
:1039D00008D10121402000F04EFB0021402000F0E2
:1039E0004AFB2EE07D48844208D10121802000F06E
:1039F00042FB0021802000F03EFB22E07848844218
:103A000008D10121801500F036FB0021A01500F03F
:103A100032FB16E07348844208D10121401500F0C2
:103A20002AFB0021601500F026FB0AE06E48844264
:103A300007D10121001500F01EFB0021201500F028
:103A40001AFB10BDF0B50A4600210023002400BF78
:103A50003DE0012505FA01F3156805EA03049C42DF
:103A600034D105684F000326BE40B5430560157983
:103A70004E00B5400668354305601579012D02D02A
:103A80001579022D16D185684F000326BE40B54337
:103A9000856055794E00B540866835438560456838
:103AA00001268E40B5434560456896798E40B6B292
:103AB00035434560C5684F000326BE40B543C56029
:103AC000D5794E00B540C6683543C560491C1029FC
:103AD000BFD3F0BD4FF6FF7101600021017141714C
:103AE0008171C171704708B54FF480320092009A1D
:103AF0000A430092009AC261C161009AC261C26920
:103B00000092C269009208BD0246002013690B4072
:103B10000BB1012000E0002070470146086980B227
:103B200070470246002053690B400BB1012000E0B2
:103B3000002070470146486980B270470183704792
:103B4000418370470AB1018300E0418370474161BE
:103B5000704742694A4042617047F0B50023002433
:103B60004D07ED0E02FA05F3CE1000F1200555F8D1
:103B700026504E07F70E0F26BE40B543CF1000F17A
:103B8000200646F82750CE1000F1200555F82650A3
:103B900045EA0304CE1000F1200545F82640F0BDAB
:103BA00010B503460C4622B921461846FFF7C8FF58
:103BB00005E0012A03D121461846FFF7BFFF10BDDB
:103BC000000002400004024000080240000C0240D5
:103BD000001002400014024000180240001C024085
:103BE000002002400024024000280240F9480068FA
:103BF00040F00100F74908600020F64908310860EC
:103C0000F4480068F4490840F2490860F348091D87
:103C10000860F348EF4984310860F0481038091D06
:103C20000860EC48006820F48020EA490860002021
:103C3000E8490C310860E7498C3108607047002181
:103C4000E44A921C117011460870704710B5014685
:103C50000022002300204A11012A02D1DD4C2368F2
:103C600008E0022A03D1DB4C7034236802E0D94C0F
:103C70007434236801F01F02012494401C400CB1ED
:103C8000012000E0002010BD38B500200090002485
:103C9000002500BF3120FFF7D9FF05460098401CE2
:103CA00000900098B0F5A04F01D0002DF2D0312047
:103CB000FFF7CCFF08B1012400E00024204638BD06
:103CC00001460020C34A106820F0F80040EAC10015
:103CD00010607047C349086070470021BD4A7032C8
:103CE00011701170012802D004280AD104E00121CA
:103CF000B84A7032117005E00521B64A7032117071
:103D000000E000BF00BF7047B7490860704770B55A
:103D1000049C41EA82150126C6EB530645EA064596
:103D2000054345EA0465AB4E361D356070BDAD49AF
:103D300008667047820142EA0172A64B84331A601A
:103D40007047A8498866704710B5830143EA01634C
:103D500043EA02739F4C8834236010BDA149086771
:103D60007047A049C864704702460020994B083349
:103D7000186820F0EC6042EA01031843954B0833C1
:103D80001860704702460020924B0833186820F0F4
:103D9000784042EA010318438E4B0833186070479D
:103DA000014600208B4A0832106820F003000843C7
:103DB0001060704787480830006800F00C007047BA
:103DC00001460020834A0832106820F0F0000843C2
:103DD00010607047014600207E4A0832106820F4C7
:103DE000E05008431060704701460020794A0832CD
:103DF000106820F4604040EAC10010607047F0B5E0
:103E0000002100220024022500260223714F0837DA
:103E10003F6807F00C0121B1042905D0082937D1EA
:103E200005E0724F076036E0714F076033E0694F7D
:103E30003F1D3F68C7F38056664F3F1D3F6807F040
:103E40003F036EB16A4FB7FBF3F7DFF888C10CF19F
:103E5000040CDCF800C0CCF3881C07FB0CF40CE06D
:103E6000624FB7FBF3F7DFF86CC10CF1040CDCF820
:103E700000C0CCF3881C07FB0CF4564F3F1D3F6875
:103E8000C7F301477F1C7D00B4FBF5F7076002E034
:103E9000564F076000BF00BF4E4F08373F6807F01E
:103EA000F0010909534F7A5C0768D7404760494FD2
:103EB00008373F6807F4E051890A4E4F7A5C47683B
:103EC000D7408760434F08373F6807F46041490B8C
:103ED000484F7A5C4768D740C760F0BD002100F4C6
:103EE0004072B2F5407F0AD13A4A0832116821F493
:103EF000F811414A02401143364A08321160354AEE
:103F000070321268C0F30B031A43324B70331A60DD
:103F10007047354944390860704733494039086073
:103F2000704736490860704701460020294A8C32A4
:103F3000106820F01F004A1E1043264A8C32106081
:103F4000704701460020234A8C32106820F4F85054
:103F50004A1E40EA02201F4A8C3210607047014618
:103F600000201C4A8C32106820F440100843106076
:103F7000704701460020174A8C32106820F4400038
:103F800008431060704701460020124A8C321068C6
:103F900020F44030084310607047194908607047AA
:103FA00039B10C4A3032126802430A4B30331A607E
:103FB00006E0084A303212688243064B30331A60FA
:103FC0007047F9B1034A343212680243014B34336B
:103FD0001A601CE000380240FFFFF6EA10300024AF
:103FE0000030002000004742800E47420024F400C9
:103FF00000127A0096000020FFFCFF0F5C01474290
:10400000E01147428F4A126882438E4B1A60704714
:1040100039B18C4A121D126802438A4B1B1D1A606B
:1040200006E0884A121D12688243864B1B1D1A60E7
:10403000704739B1834A0C3212680243814B0C330A
:104040001A6006E07F4A0C32126882437D4B0C33C3
:104050001A60704739B17B4A103212680243794BBB
:1040600010331A6006E0774A103212688243754BAB
:1040700010331A60704739B1724A243A1268024309
:10408000704B243B1A6006E06E4A243A1268824361
:104090006C4B243B1A60704739B16A4A203A126867
:1040A0000243684B203B1A6006E0664A203A1268D9
:1040B0008243644B203B1A60704739B1614A1C3A15
:1040C000126802435F4B1C3B1A6006E05D4A1C3AD3
:1040D000126882435B4B1C3B1A60704739B1594AE6
:1040E000143A12680243574B143B1A6006E0554AD3
:1040F000143A12688243534B143B1A60704739B12B
:10410000504A103A126802434E4B103B1A6006E0C8
:104110004C4A103A126882434A4B103B1A6070476F
:1041200039B1484A1C3212680243464B1C331A60AC
:1041300006E0444A1C3212688243424B1C331A6028
:10414000704739B13F4A2032126802433D4B203359
:104150001A6006E03B4A203212688243394B203312
:104160001A60704739B1374A243212680243354B1E
:1041700024331A6006E0334A243212688243314BFA
:1041800024331A60704739B12E4A2C321268024328
:104190002C4B2C331A6006E02A4A2C3212688243D8
:1041A000284B2C331A60704739B1264A30321268D6
:1041B0000243244B30331A6006E0224A3032126840
:1041C0008243204B30331A607047012808D11D49C3
:1041D0003C31096841F008011A4A3C32116007E09D
:1041E00018493C31096821F00801164A3C32116037
:1041F000704739B1134A273A12780243114B273BD3
:104200001A7006E00F4A273A127882430D4B273B7B
:104210001A7070470B484030006840F080700949C0
:1042200040310860704701460020064A283A12686B
:104230000A400AB1012000E00020704701492639F8
:10424000087070473438024010B50446FA4884427A
:1042500008D101211020FFF752FF00211020FFF7A5
:104260004EFF57E0F548844209D101214804FFF789
:1042700035FF00214FF40030FFF730FF4AE0F048EF
:10428000844209D101218804FFF728FF00214FF45F
:104290008020FFF723FF3DE0EA48844209D1012155
:1042A000C804FFF71BFF00214FF40020FFF716FFA3
:1042B00030E0E548844209D101210805FFF70EFFEF
:1042C00000214FF48010FFF709FF23E0DF4884420C
:1042D00008D101212020FFF712FF00212020FFF745
:1042E0000EFF17E0DA48844209D101218807FFF761
:1042F000F5FE00214FF08040FFF7F0FE0AE0D548C0
:10430000844207D101214005FFF7E8FE0021600546
:10431000FFF7E4FE10BD2DE9FF4705460E460024D9
:10432000A14600BFA046B08900B100BF2C8A24F48A
:104330004054F08804432C82AC8941F20C608443E1
:10434000B08831890843718908430443AC81AC8A41
:1043500024F44074B0890443AC826846FFF74FFDF3
:10436000B548854202D0B948854202D1DDF80C90AB
:1043700001E0DDF80890A88900F4004040B109EBA5
:10438000C90000EB091031684900B0FBF1F707E004
:1043900009EBC90000EB091031688900B0FBF1F7A7
:1043A0006420B7FBF0F004012009642101FB1078C0
:1043B000A88900F4004040B1322000EBC800B0FBF7
:1043C000F1F000F00700044308E0322000EB081091
:1043D0006421B0FBF1F000F00F0004432C81BDE834
:1043E000FF874FF41651016000218180C180018157
:1043F0000C21418100218181704710B502460020C7
:10440000108A20F470600B884C8823438C882343E7
:10441000CC8823431843108210BD002101804180C5
:104420008180C180704721B1828942F4005282812B
:1044300004E082894DF6FF731A4082817047028B37
:1044400002F47F420283028B0A430283704721B148
:10445000828942F40042828103E08289C2F30E0223
:104460008281704721B1828A42F40062828204E034
:10447000828A4FF2FF731A4082827047C1F30802AA
:104480008280704701468888C0F308007047028A1E
:104490004FF6F0731A400282028A0A430282704782
:1044A00021B1828942F00202828104E082894FF6C2
:1044B000FD731A408281704782894FF2FF731A4060
:1044C000828182890A4382817047028A4FF6DF73B4
:1044D0001A400282028A0A430282704721B1028A8C
:1044E00042F48042028204E0028A4BF6FF731A40D3
:1044F00002827047818941F001018181704721B1B9
:10450000828A42F00802828204E0828A4FF6F773C0
:104510001A4082827047028BD2B20283028B42EA37
:1045200001220283704721B1828A42F020028282F6
:1045300004E0828A4FF6DF731A408282704721B10D
:10454000828A42F01002828204E0828A4FF6EF7380
:104550001A4082827047828A4FF6FB731A40828229
:10456000828A0A438282704721B1828A42F0020223
:10457000828204E0828A4FF6FD731A40828270477D
:104580001AB1838A0B43838202E0838A8B4383823E
:104590007047F0B50346002400260025002040F6B1
:1045A0006A17B94200D100BF1846C1F3421401F0A6
:1045B0001F06012707FA06F5012C01D10C3004E093
:1045C000022C01D1103000E014301AB107682F43DB
:1045D000076002E00768AF430760F0BD02460020B5
:1045E000B1F5007F00D100BF13880B400BB1012053
:1045F00000E00020704701F40072B2F5007F00D1A6
:1046000000BFCA430280704770B5024600240023F1
:104610000025002040F66A16B14200D100BFC1F368
:10462000421501F01F03012606FA03F3012D13D1F1
:104630009689334017E0000000100140004400401C
:1046400000480040004C0040005000400014014071
:1046500000780040007C0040022D02D1168A3340D1
:1046600001E0968A33400C12012606FA04F41688FB
:10467000344013B10CB1012000E0002070BD10B532
:104680000022002340F66A14A14200D100BF0A12A2
:1046900001249440A3B2DC43048010BD10B5012175
:1046A0004807FFF71BFD00214FF00050FFF716FDF4
:1046B00010BD30B5002200237B4C226840F6FE740A
:1046C0008440A243D1E900452C438D682C43CD683A
:1046D00044EA050303FA00F42243734C226030BD20
:1046E0000021016041608160C160704739B16E4A4C
:1046F0001268012383401A436B4B1A6006E06A4A32
:104700001268012383409A43674B1A60704710B5C3
:1047100051B1654A121D126804090123A3401A43CE
:10472000614B1B1D1A6009E05F4A121D12680409E3
:104730000123A3409A435C4B1B1D1A6010BD40B17E
:104740005949091D096841F00301574A121D1160BA
:1047500007E05549091D096821F00301524A121D5D
:104760001160704710B53AB14F4B1B6801FA00F465
:1047700023434D4C236006E04B4B1B6801FA00F4C9
:10478000A343494C236010BD08B500220092464A5D
:10479000009200F10802009B1A440092009A1160F6
:1047A00008BD08B5002200923F4A009200F11402B1
:1047B000009B1A440092009A116008BD30B5002495
:1047C0000023082802D142EA012401E042EA014420
:1047D000354B00F120052B441C6030BD08B5014667
:1047E00000200090304800902C2000EB9100009AAF
:1047F000104400900098006880B208BD41B12A4A78
:1048000012684FF4805383401A43274B1A6007E025
:10481000254A12684FF4805383409A43224B1A6012
:10482000704710B53AB1204B1B6801FA00F42343DE
:104830001D4C236006E01C4B1B6801FA00F4A343E7
:10484000194C236010BD10B502460020164B3433BE
:104850001B6801FA02F423400BB1012000E00020A4
:1048600010BD01FA00F2104B34331A60704730B5B6
:104870000246002000230C4C246801FA02F504EAE9
:104880000503094C3434246801FA02F52C4014B1B4
:104890000BB1012000E0002030BD01FA00F2024B14
:1048A00034331A607047000000740040016821F042
:1048B000010101600021016041608160C16001610E
:1048C00021214161DB49884204D13D21D94A103A76
:1048D00091608CE0D7491831884205D14FF474615A
:1048E000D44A103A916082E0D2493031884205D1F1
:1048F0004FF47411CF4A103A916078E0CD494831B5
:10490000884205D14FF07461CA4A103A91606EE056
:10491000C8496031884204D1C749C64A103AD160BB
:1049200065E0C4497831884204D1C449C14A103A8B
:10493000D1605CE0BF499031884204D1C049BD4A92
:10494000103AD16053E0BB49A831884205D14FF0FD
:104950003D51B84A103AD16049E0BA49884204D181
:104960003D21B84A083A116041E0B6491831884201
:1049700005D14FF47461B34A083A116037E0B14988
:104980003031884205D14FF47411AE4A083A1160B3
:104990002DE0AC494831884205D14FF07461A94AF5
:1049A000083A116023E0A7496031884204D1A24946
:1049B000A44A121F11601AE0A2497831884204D13A
:1049C0009E49A04A121F116011E09E499031884211
:1049D00004D19B499B4A121F116008E09949A831F4
:1049E000884204D14FF03D51964A121F1160704722
:1049F00010B500220268944B1A40CC680B68234320
:104A00004C6923438C692343CC6923430C6A2343B9
:104A10004C6A23438C6A23434C6B23438C6B2343A4
:104A20001A430260426922F00702D1E90B342343A2
:104A30001A4342610B6943604B6883608B68C360B3
:104A400010BD0021016041608160C1600161416170
:104A50008161C161016241628162C162016341633E
:104A60008163704721B1026842F00102026003E0F5
:104A7000026822F001020260704721B1026842F42C
:104A80000042026003E0026822F4004202607047C4
:104A900021B1026842F02002026003E0026822F0C5
:104AA000200202607047416070470146486880B24A
:104AB000704722B1036843F40023036003E00368F6
:104AC00023F4002303600161704721B1026842F4BE
:104AD0008022026003E0026822F4802202607047B4
:104AE0000AB1016100E0C1607047014600200A6818
:104AF00002F400220AB1012000E0002070470146C4
:104B000000200A6802F001020AB1012000E0002042
:104B10007047014600204A6902F03800704730B5FE
:104B200003460A4600200024464DAB4202D24149CA
:104B3000103901E04349103902F000550DB14C68BD
:104B400000E00C68414D2C4004EA02050DB1012043
:104B500000E0002030BD02463A4B9A4202D235486E
:104B6000103801E03748103801F000531BB1374BC3
:104B70000B40C36002E0354B0B408360704710B5BB
:104B800001F080034BB122B1436943F080034361DC
:104B900003E0436923F08003436180290BD02AB1ED
:104BA000036801F01E042343036004E0036801F07E
:104BB0001E04A343036010BD70B50246002000240C
:104BC0000025204EB24202D21A4B103B01E01D4B91
:104BD000103B1F4E0E4036B11E2606EAD124166841
:104BE00006EA040502E0566906F0800501F0005669
:104BF0000EB15C6800E01C68144E344004EA010603
:104C000016B10DB1012000E0002070BD02460D4B31
:104C10009A4202D20748103801E00A48103801F0E1
:104C200000531BB1094B0B40C36002E0074B0B4024
:104C300083607047106002403D000020400F00205C
:104C400000003D20106402403F801CF07D0F7D0F6E
:104C50003C0F3C0F10B50121C802FFF750FA0021AC
:104C60004FF40060FFF74BFA10BD00216C4A116849
:104C700047F6FF629143027D83681A4343681A43F3
:104C8000C3681A4303681A4303691A431143644A09
:104C90001160704700210175016041608160C16051
:104CA000016170475F49086070475D49091F0860EE
:104CB00070475B48001F006800F003007047002148
:104CC000574B1B1D02681A601A1D11686FF30A0109
:104CD000D0E901231A43C3681A4303691A431143F5
:104CE0004F4A0832116070470021016041608160C5
:104CF000C160016170474A480C300068C0B270471B
:104D000008B5014600200090454810300844009046
:104D10000098006808BD0021414B203302681A60EA
:104D20001B1D42681A601A1D116821F0F701D0E9B5
:104D300002231A4303691A4343691A431143384A49
:104D40002832116070474FF0FF310160002141604F
:104D50008160C16001614161704731482C30006859
:104D600070472F487C30006870472D497C310860BF
:104D700070472B484430006870472B4908607047E3
:104D80002949091D086070472749083108607047A4
:104D900025490C3108607047244908607047234951
:104DA000091D0860704701218143204A08321160C3
:104DB00070471E490C31086070471B491439086060
:104DC000704739B1164A383212680243144B3833EF
:104DD0001A6006E0124A383212688243104B3833A8
:104DE0001A607047014600200D4A303212680A40AE
:104DF0000AB1012000E00020704709493431086001
:104E0000704701460020064A303212680A400AB153
:104E1000012000E0002070470149343108607047EC
:104E2000042C0140A0802542A0852542AC8125426A
:104E300010B50446FE48844208D101210846FFF718
:104E40005EF900210120FFF75AF99DE0B4F1804F8F
:104E500008D101210846FFF741F900210120FFF7A1
:104E60003DF991E0F348844208D101210220FFF787
:104E700035F900210220FFF731F985E0EE48844240
:104E800008D101210420FFF729F900210420FFF7B0
:104E900025F979E0E948844208D101210820FFF78B
:104EA0001DF900210820FFF719F96DE0E44884425C
:104EB00008D101211020FFF711F900211020FFF780
:104EC0000DF961E0DF48844208D101212020FFF77D
:104ED00005F900212020FFF701F955E0DA48844266
:104EE00008D101210220FFF70AF900210220FFF773
:104EF00006F949E0D548844209D101210804FFF7A9
:104F0000FEF800214FF48030FFF7F9F83CE0D0487C
:104F1000844209D101214804FFF7F1F800214FF440
:104F20000030FFF7ECF82FE0CA48844209D1012194
:104F30008804FFF7E4F800214FF48020FFF7DFF842
:104F400022E0C548844208D101214020FFF7C6F87D
:104F500000214020FFF7C2F816E0C048844208D183
:104F600001218020FFF7BAF800218020FFF7B6F872
:104F70000AE0BB48844207D101218015FFF7AEF853
:104F80000021A015FFF7AAF810BD00220288A84B47
:104F900098420ED0AC4B98420BD0B0F1804F08D065
:104FA000A44B984205D0A44B984202D0A34B984200
:104FB00004D14FF68F731A404B881A43A04B984286
:104FC00007D0A04B984204D04FF6FF431A400B89FC
:104FD0001A4302804B68C3620B880385944B984246
:104FE00002D0994B984201D18B7A038601238382A8
:104FF00070474FF0FF314160002101800181418005
:10500000817270470185828270470A4600210188BB
:105010004FF68F731940114301807047416270470A
:10502000C16270470146486A70470146088D704763
:1050300021B1028842F00202028004E002884FF6A9
:10504000FD731A400280704721B1028842F00402C9
:10505000028004E002884FF6FB731A40028070471A
:1050600021B1028842F08002028004E002884FF6FB
:105070007F731A400280704702884FF6F7731A4018
:10508000028002880A430280704702884FF6FF437D
:105090001A40028002880A430280704721B10288C8
:1050A00042F00102028004E002884FF6FE731A40CB
:1050B0000280704770B5002400220023058C4FF653
:1050C000FE7635400584028C8388048B4FF68F75FD
:1050D0002C40B51E2C400D882C43751E2A408D890E
:1050E0002A434D882A43524DA84202D0564DA84229
:1050F00013D14FF6F7752A40CD892A434FF6FB7539
:105100002A408D882A434FF6FF652B404FF6FF5506
:105110002B400D8A2B434D8A2B43838004838D685B
:105120004563028470BD70B5002400220023058C05
:105130004FF6EF7635400584028C8388048B48F661
:10514000FF752C404FF6FF452C400D884FF6FF763B
:1051500006EA05252C434FF6DF752A408D8906EABD
:1051600005152A434D8806EA05152A43304DA84205
:1051700002D0354DA8421DD14FF67F752A40CD890A
:105180004FF6FF7606EA05152A434FF6BF752A400B
:105190008D8806EA05152A434FF6FF352B404FF25E
:1051A000FF752B400D8A06EA85052B434D8A06EADA
:1051B00085052B43838004838D688563028470BDDD
:1051C00070B5002400220023058C4FF6FF663540A1
:1051D0000584028C8388848B4FF68F752C404FF6A4
:1051E000FC752C400D882C434FF6FF552A408D89C5
:1051F0004FF6FF7606EA05252A434D8806EA05257F
:105200002A430B4DA84202D00F4DA84238D14FF28D
:10521000FF752A40CD894FF6FF7606EA05252A4319
:105220004FF6FF352A408D8806EA05252A4319E006
:10523000000001400004004000080040000C004055
:1052400000100040001400400004014000400140F4
:10525000004401400048014000180040001C00408C
:10526000002000404EF6FF752B404DF6FF752B4099
:105270000D8A06EA05152B434D8A06EA05152B43D0
:10528000838084838D68C563028470BD70B50022FD
:1052900000230024058C4EF6FF7635400584038CF0
:1052A0008488828B48F6FF752A404FF6FF452A40D6
:1052B0000D884FF6FF7606EA05252A434DF6FF7561
:1052C0002B408D8906EA05352B434D8806EA0535C6
:1052D0002B43FE4DA84202D0FD4DA84208D14BF60B
:1052E000FF752C400D8A4FF6FF7606EA85152C4394
:1052F000848082838D680564038470BD00210180F1
:105300004180818081608181C181018241827047B9
:1053100070B50346002000241846183001258D4042
:10532000ACB21D8CA5431D8409B108290AD100EB3C
:10533000610005684FF68F763540056005681543B6
:1053400005600FE00D1FC5F34E052844056848F6BB
:10535000FF763540056005684FF6FF7606EA0226BF
:105360003543056070BD4163704781637047C16319
:105370007047016470470A460021018B4FF68F7316
:1053800019401143018370470A460021018B48F6FA
:10539000FF7319404FF6FF7303EA02231943018399
:1053A00070470A460021818B4FF68F7319401143D5
:1053B000818370470A460021818B48F6FF731940AC
:1053C0004FF6FF7303EA02231943818370470A46AD
:1053D0000021018B4FF6F773194011430183704789
:1053E0000A460021018B4FF2FF7319404FF6FF73FD
:1053F00003EA02231943018370470A460021818B87
:105400004FF6F77319401143818370470A46002114
:10541000818B4FF2FF7319404FF6FF7303EA0223AB
:105420001943818370470A460021018B4FF6FB73B5
:1054300019401143018370470A460021018B4FF642
:10544000FF3319404FF6FF7303EA02231943018328
:1054500070470A460021818B4FF6FB7319401143B8
:10546000818370470A460021818B4FF6FF33194034
:105470004FF6FF7303EA02231943818370470A46FC
:105480000021018B4FF67F73194011430183704750
:105490000A460021018BC1F30E014FF6FF7303EAA8
:1054A00002231943018370470A460021818B4FF67E
:1054B0007F7319401143818370470A460021818B15
:1054C000C1F30E014FF6FF7303EA022319438183F0
:1054D00070470A460021018C4FF6FD7319401143B5
:1054E000018470470A460021018C4FF6F77319407A
:1054F0001143018470470A460021018C4FF6DF7387
:1055000019404FF6FF7303EA0213194301847047F1
:105510000A460021018C4FF67F7319404FF6FF7346
:1055200003EA02131943018470470A460021018CE3
:105530004FF6FF5319404FF6FF7303EA0223194356
:10554000018470470A460021018C4FF2FF73194015
:105550004FF6FF7303EA02231943018470470A469A
:105560000021018C4DF6FF7319404FF6FF7303EADB
:10557000023319430184704730B5002301248C4065
:10558000A3B2048C9C430484048C02FA01F5ADB2EE
:105590002C43048430BD30B5002304248C40A3B2D6
:1055A000048C9C430484048C02FA01F5ADB22C43B4
:1055B000048430BD828B4FF2FF331A408283828B8A
:1055C0004FF6FF7303EA01231A4382837047F0B555
:1055D0000C461546002100220026078C4EF6FF7C63
:1055E00007EA0C070784818B028C4FF6FF7707EAE6
:1055F000043640F6FF4739404FF6FF7707EA0527A4
:1056000039434FF6FF7707EA0337394345F6FF770B
:105610003A4046F480573A4381830284F0BD828B3E
:105620004FF6F3731A408283828B0A43828370475A
:10563000F0B50C461546002100220026078C4FF6D7
:10564000FF6C07EA0C070784818B028C4FF6FF770B
:1056500007EA04264FF60C7739404FF6FF7707EA42
:1056600003172F4339434FF2FF573A4046F48077F0
:105670003A4381830284F0BD028B4FF2FF331A401C
:105680000283028B4FF6FF7303EA01231A4302835E
:105690007047F0B50C461546002100220026078C05
:1056A0004FF6EF7C07EA0C070784018B028C4FF65C
:1056B000FF7707EA041640F6FF4739404FF6FF77B9
:1056C00007EA033739434FF6FF7703E00000014054
:1056D0000004014007EA052739434FF65F773A4057
:1056E00046F010073A4301830284F0BD028B4FF667
:1056F000F3731A400283028B0A4302837047F0B5AA
:105700000C46154600210022068C4FF6FE773E40DF
:105710000684018B028C4FF60C7631407E1C06EA23
:1057200003162E4331434FF6F576324044F001061E
:10573000324301830284F0BD70B505460C462088D3
:1057400050B92389A28861882846FFF7D8FFE188ED
:105750002846FFF7CBFF25E0208804280AD12389BB
:10576000A28861882846FFF794FFE1882846FFF762
:1057700083FF17E0208808280AD12389A28861883E
:105780002846FFF755FFE1882846FFF748FF09E064
:105790002389A28861882846FFF719FFE1882846F7
:1057A000FFF708FF70BD0021018041800121818049
:1057B0000021C180018170472DE9F04105460C466A
:1057C00000260127608808B9022600E00026A0888C
:1057D000012801D1022700E001272088A0B92389F0
:1057E000A28861882846FFF78AFFE1882846FFF7EC
:1057F0007DFF23893A4631462846FFF74AFFE18874
:105800002846FFF739FF13E02389A28861882846DC
:10581000FFF73FFFE1882846FFF72EFF23893A462E
:1058200031462846FFF76BFFE1882846FFF75EFF09
:10583000BDE8F0810146486B70470146886B7047B0
:105840000146C86B70470146086C70470A884B8850
:105850001A438B881A43CB881A430B891A434B8906
:105860001A438B891A43A0F8442070470021018015
:1058700041808180C180018141818181704731B146
:10588000B0F8442042F40042A0F8442005E0B0F80B
:105890004420C2F30E02A0F84420704721B1828850
:1058A00042F00402828004E082884FF6FB731A40C3
:1058B0008280704721B1828842F00102828004E038
:1058C00082884FF6FE731A40828070471AB183892E
:1058D0000B43838102E083898B43838170478182FC
:1058E000704702460020138A0B400BB1012000E0F4
:1058F00000207047CA430282704730B5024600203C
:1059000000230024158A05EA0103958905EA0104AC
:1059100013B10CB1012000E0002030BDCA43028267
:10592000704741EA0203A0F8483070471AB18389F2
:105930000B43838102E083898B438381704721B1CC
:10594000828842F00802828004E082884FF6F77372
:105950001A408280704701894FF6F8721140018128
:1059600070470A46002101894FF68F731940114391
:105970000181704730B504460D4629462046FFF7A1
:10598000F0FF208940F00700208130BD2DE9F04173
:1059900004460D4616461F46602D06D13B460122A1
:1059A00031462046FFF775FE05E03B4601223146B1
:1059B0002046FFF7A4FE29462046FFF7D2FF2089A4
:1059C00040F007002081BDE8F08130B50C46002191
:1059D0000189C9B24FF6FF7505EA03251543254332
:1059E0002943018130BD2DE9F04105460E46174699
:1059F0009846002443463A4631462846FFF7E5FFDD
:105A00002C894FF6F870044044F007044FF68F706D
:105A1000044044F070042C81BDE8F081F0B50446E8
:105A20000D4616461F463B46324629462046FFF79E
:105A3000CCFF208940F480402081F0BD82884FF661
:105A40008F731A40828082880A438280704702895D
:105A50004FF6F8731A40028102890A4302817047A7
:105A600002894FF67F731A40028102890A4302813C
:105A70007047F0B50C4615461E4600210022002353
:105A80000189028B038C4FF6F877394021434FF69A
:105A9000FC473A4040F201173A434FF6DD773B406E
:105AA0004FF6FF7707EA06172F433B430181028336
:105AB0000384F0BD21B1828842F08002828004E03C
:105AC00082884FF67F731A4082807047A0F850108A
:105AD0007047000030B943F2DB028100A1F1C04100
