:020000040800F2
:100000008830012061360008490700084B070008C6
:1000100055070008590700085D07000800000000A8
:100020000000000000000000000000006107000860
:100030006307000800000000977A01081F9000087D
:100040007B3600087B3600087B3600087B360008CC
:100050007B3600087B3600087B3600087B360008BC
:100060007B3600087B3600087B3600087B360008AC
:100070007B3600087B3600087B3600087B3600089C
:100080007B3600087B3600087B3600087B3600088C
:100090007B3600087B3600087B3600087B3600087C
:1000A0007B3600087B3600087B3600087B3600086C
:1000B0007B360008A53300087B3600087B36000835
:1000C0007B3600087B3600087B3600087B3600084C
:1000D0007B360008CD3500087B3600087B360008EB
:1000E0007B3600087B3600087B3600087B3600082C
:1000F0007B3600087B3600087B3600087B3600081C
:100100007B360008012F00087B3600087B3600088C
:100110007B3600087B3600087B3600087B360008FB
:100120007B3600087B3600087B3600087B360008EB
:100130007B3600087B3600087B3600087B360008DB
:100140007B3600087B3600087B3600087B360008CB
:100150007B3600087B3600087B3600087B360008BB
:100160007B3600087B3600087B3600087B360008AB
:100170007B3600087B3600087B3600087B3600089B
:100180007B3600087B360008DFF80CD017F0A0FBA8
:1001900000480047650300088830012000BF704711
:1001A00000BF000030BF72B6704762B6704780F380
:1001B0000888704710B5B34890F8560030B1012850
:1001C00008D002280AD0032810D10BE0AEA000F01E
:1001D000FBFB0BE0B2A000F0F7FB07E0B6A000F0DD
:1001E000F3FB03E0BAA000F0EFFB00BF00BFA5489F
:1001F00090F82C10BCA000F0E7FBA248B0F8541017
:10020000C0A000F0E1FB9F48D0E91220030343EABD
:100210001251C0A000F0D8FB9A48016DC3A000F0B5
:10022000D3FB10BD38B50446C6A000F0CDFBCAA074
:1002300011F06CF8CEA000F0C7FB6946D3480BF074
:1002400032FEBDF80010D2A000F0BEFB38BD0EB5E6
:10025000D7A000F0B9FB0CE000F0DBFC00F07CFE66
:1002600002A800210A230A46CDE9001008460CF036
:1002700043FFF1E78CB0A82003F012F9D2A000F000
:10028000A3FB0BA80BF01BFBD2A000F09DFB0BA85F
:10029000032100220592CDE90621089011464FF472
:1002A0000072D248D0F8CC00D04BCDE90130CDE976
:1002B000032101200023CE4ACEA10090D2480BF0AA
:1002C00062FDD2A000F080FBD6A000F07DFB0BA861
:1002D000032100220592CDE90621089011464FF432
:1002E0000072D748D0F8CC00D54BCDE90130CDE92C
:1002F000032102200023D34AD3A10090A3480BF08E
:1003000042FDD5A000F060FB2BE04021D94803F06E
:100310002FFB8021D74803F029FB0BA800214FF4C5
:100320007A730A46CDE9001008460CF0E5FE40213C
:10033000D04803F01BFB8021CE4803F019FB0BA82B
:1003400000214FF47A730A46CDE9001008460CF0FC
:10035000D3FE0AA800F015FF044614B10A9800F075
:10036000FFFCD2E700B58DB005F04DFD06F0E0FBD7
:100370004FF4E13003F0D4F805F00FFF00F006FB76
:1003800000F01DFD00F0DAFE00200DF040FB15E04E
:10039000B9A000F019FB4FF4FA7000F0CCFFBAA03E
:1003A00000F012FB4FF4FA7000F0C5FFBA48006885
:1003B00008B9012000E00020B749086001F086FD7F
:1003C0000028E5D1FFF7F6FE0DF01AFCB349012233
:1003D0000868B3A10FF0B4F80EE0B2A000F0F4FA90
:1003E0004FF4FA7000F0A7FFAB48006808B901208D
:1003F00000E00020A84908600AAA0BA9AFA00DF0F0
:1004000095FC0028E9D10B98810AADA000F0DCFA38
:100410000A98810AB0A000F0D7FA16F037F9B5A013
:1004200000F0D2FA0823B6A20121084616F00DFD0D
:100430000CA808F0CAFEB6A000F0C6FA0CA803216A
:1004400000220592CDE90621089011464FF4007272
:10045000B348D0F8CC00B24BCDE90130CDE903214F
:1004600001200023AF4AB0A10090B3480BF08BFCF1
:100470000CA809F0B2F8B1A000F0A6FA00200DB067
:1004800000BD0000801E002043617264205479701A
:10049000653A534453432056312E310D0A00000073
:1004A0004361726420547970653A53445343205633
:1004B000322E300D0A0000004361726420547970BE
:1004C000653A534448432056322E300D0A0000004E
:1004D0004361726420547970653A4D4D4320436105
:1004E00072640D0A0000000043617264204D616E69
:1004F00075666163747572657249443A25640D0AC4
:100500000000000043617264205243413A25640DAB
:100510000A00000043617264204361706163697482
:10052000793A2564204D420D0A000000436172644F
:1005300020426C6F636B53697A653A25640D0A0D2E
:100540000A000000BDF8C8EBD2F4C0D6B2A5B7C50A
:10055000C8CECEF10A0000006D757369632FCEDE40
:10056000CBF9CEBD20284C697665292E6D703300FD
:10057000D5FDD4DAC9BEB3FDD2F4C0D6C8CECEF113
:10058000BFD8D6C6BFE9A3A1A3A10A00E0120020EC
:10059000C9BEB3FDD2F4C0D6C8CECEF1BFD8D6C640
:1005A000BFE9BDE1CAF86572723D3D25640A0000ED
:1005B000BDF8C8EBCFB5CDB3BCFCC5CCC9A8C3E86A
:1005C000C8CECEF10A0000004C4544617070C8CE20
:1005D000CEF10A000D0AD5FDD4DAB4B4BDA8CFB56A
:1005E000CDB3C8CECEF10D0A00000000E00A002015
:1005F0004F02000853797374656D205461736B204A
:100600005374617274000000440A00200D0AB4B4EF
:10061000BDA8CFB5CDB3C8CECEF1BDE1CAF80D0AA5
:10062000000000000D0AD5FDD4DAB4B4BDA8D2F4A0
:10063000C0D6B2A5B7C5C8CECEF10D0A00000000E5
:100640007C130020250200086D7033205461736B09
:1006500020537461727400000D0AB4B4BDA8D2F4C2
:10066000C0D6B2A5B7C5C8CECEF1BDE1CAF80D0A55
:1006700000000000000002405344204361726420E7
:100680004572726F72210A00506C65617365204378
:100690006865636B21200A009802404240290120CE
:1006A000303A00005344204361726420466174660E
:1006B00073204572726F722100000000300000004C
:1006C000534420546F74616C2053697A653A2564F1
:1006D000204D420A00000000534420204672656508
:1006E0002053697A653A202564202020204D420A53
:1006F00000000000B4F2BFAA6C6364C6C10A000027
:10070000D2D1BEADB4F2BFAA6C6364C6C100000012
:10071000B3F5CABCBBAF686F6F6BBAAFCAFD0A0056
:100720004402002075020008417070205461736B10
:100730002053746172740000A8010020BFAACABCD3
:10074000C8CECEF10A000000704707A000F03CF9C7
:1007500000BFFEE700BFFEE700BFFEE700BFFEE709
:1007600070477047704770470AD3B2BCFEB4EDCEF5
:10077000F3A3ACBDF8C8EBCBC0D1ADBBB70A00004A
:100780000CB50020019000907548006840F480305E
:100790007349086000BF7248006800F400300090A0
:1007A0000198401C0190009818B90198B0F5A04F2D
:1007B000F1D16B48006810F4003F02D00120009096
:1007C00001E0002000900098012845D164484030A5
:1007D000006840F08050624940310860614800681C
:1007E00040F440405F4908605D48083000685C495B
:1007F000083108600846006840F400400860084678
:10080000006840F4A05008605748091F0860081F9E
:10081000006840F08070091F086000BF5048006801
:1008200010F0007FFAD040F20570504908604C4843
:100830000830006820F00300494908310860084684
:10084000006840F00200086000BF454808300068BA
:1008500000F00C000828F8D10CBD10B54448006821
:1008600040F47000424908603D48006840F00100D3
:100870003B49086000203A49083108603848006860
:100880003C490840364908603B48091D0860081F7C
:10089000006820F48020091F0860002030490C31D6
:1008A0000860FFF76DFF4FF0006031498039086044
:1008B00010BD70B500200022022300240221284D23
:1008C00008352D6805F00C0020B1042806D0082852
:1008D00034D107E0294D2A4E356033E0294D284EAA
:1008E00035602FE01E4D2D1D2D68C5F380541C4D25
:1008F0002D1D2D6805F03F0154B1224DB5FBF1F5DA
:10090000174E361D3668C6F3881605FB06F209E059
:100910001A4DB5FBF1F5124E361D3668C6F3881632
:1009200005FB06F20E4D2D1D2D68C5F301456D1C0E
:100930006B00B2FBF3F5124E356003E00F4D104E25
:10094000356000BF00BF064D08352D68C5F303159F
:100950000D4E705D0A4D2D68C540094E356070BD65
:10096000003802400070004008544007003C02403C
:1009700088ED00E0FFFFF6FE103000240024F400B4
:100980000000002000127A00040000201CB50121A4
:10099000084603F01DFAC020009001208DF80400E5
:1009A00000208DF8060003208DF8050001208DF849
:1009B00007006946034802F05DFFC021014802F0CC
:1009C000D5FF1CBD000002400FB430B5C1B0684671
:1009D00020B9002041B030BC5DF814FB45A8409020
:1009E0006846409A449917F09BF86C46002505E04C
:1009F000207802F08CFD641C681CC5B220780028A9
:100A0000F6D140900A2000F096FC2846E2E77FB538
:100A100005460E460020029000241DE0002C09DD52
:100A2000E11704EB11710911B4EB011102D10DA012
:100A3000FFF7CAFF285D8DF808009DF808100AA08E
:100A4000FFF7C2FF03A8002104230A46CDE90010E6
:100A500008460CF051FB641CB442DFD301A0FFF741
:100A6000B3FF7FBD0D0A0000253032582000000082
:100A70001CB50121102003F0ABF94FF4F060009099
:100A800001208DF8040000208DF8060003208DF869
:100A9000050001208DF807006946F64802F0EAFEDD
:100AA0004FF4F040009000208DF804008DF806000F
:100AB00003208DF8050001208DF807006946ED48F8
:100AC00002F0D8FE4FF4F061EA4802F04FFF1CBD7F
:100AD0007CB5044600208DF804008DF80600032044
:100AE0008DF8050001208DF807004FF4F0652946C8
:100AF000E04802F03BFF2CB1802000906946DD48C1
:100B000002F0B8FE012C06D04FF4807000906946C8
:100B1000D84802F0AFFE022C06D04FF400700090CF
:100B20006946D44802F0A6FE032C06D04FF480603C
:100B300000906946CF4802F09DFE01208DF8040028
:100B400000208DF8060003208DF8050001208DF8A7
:100B5000070034B1012C0FD0022C1AD0032C32D153
:100B600024E0802000906946C24802F083FE802184
:100B7000C04802F0FDFE2AE04FF480700090694604
:100B8000BC4802F077FE4FF48071BA4802F0F0FEE4
:100B90001DE04FF4007000906946B64802F06AFE0E
:100BA0004FF40071B34802F0E3FE10E04FF48060B0
:100BB00000906946AF4802F05DFE4FF48061AD4899
:100BC00002F0D6FE03E0ACA0FFF7FEFE00BF00BFC0
:100BD00000207CBD70B50446A64802F0B6FE05466E
:100BE000C5F3C3202060002070BD10B5FFF740FFA3
:100BF0000020FFF76DFF0020A4490872401E086026
:100C0000486000204872A24981F8510081F85000E4
:100C100010BD08B56846FFF7DDFF009800F00F0033
:100C20009A49097A890088409A490968084499498B
:100C300008609648007A401C944908720846007A79
:100C4000042805DB9348008880B2009000200872D9
:100C50008E49087AFFF73CFF8C48007A002855D16E
:100C60008A4840688B490968884206D089480068EC
:100C7000864948600020487245E0844800688549FC
:100C8000096888423CD08148407A401C7F494872BC
:100C90000846407A022836DB084600687D49096824
:100CA00048407B4991F85010794A42F8310010468B
:100CB00090F8500052F830107648026876A0FFF79E
:100CC00083FE74480068724991F85010704A02EB34
:100CD000C1014860104690F85000401C114681F850
:100CE0005000084690F850000A2802DB002081F8E6
:100CF000500068480068654908600020487202E0BA
:100D00000020624948726A486249086008BD01468D
:100D10005F4890F850005E4A92F8512090421DD0F2
:100D20005B4890F851005A4A52F83000086010466B
:100D300090F8510002EBC00040684860104690F8FF
:100D40005100401C82F85100104690F851000A28CA
:100D500002DB002082F85100012070470020FCE7F0
:100D600010B50446102C27D2DFE804F008090A0B5E
:100D70000C0D0E0F1011161718191A1B00BF00BF0B
:100D800000BF00BF00BF00BF00BF00BF00BF2146C3
:100D900048A0FFF719FE10E000BF00BF00BF00BF72
:100DA00000BFA4F10A0000EB8000454A02EB4001BD
:100DB00044A0FFF709FE00E000BF00BF10BD10B562
:100DC0000020434981F8210081F8200041498875BD
:100DD00008754875401E0861FFF707FF002010BD29
:100DE00001203D4908700020704700203A490870F2
:100DF0007047374890F82000354981F821000020DD
:100E000070470146324890F82000314A92F821207C
:100E1000904216D02E4890F8212090F82100401CD6
:100E20002B4B83F82100184650F822000860184622
:100E300090F82100082806DB00201A4682F82100DD
:100E400001E000200860002070470146204890F82B
:100E500020001F4A92F82120904207D01C4890F8A9
:100E600021001B4A52F82000086001E000200860C1
:100E700000207047001002406B6579207363616E3B
:100E80002065727220636F6C0D0A00007C1B0020CD
:100E9000881B0020580000206368673A25303478AA
:100EA0002C207374613A253034780D0A000000005C
:100EB0000000FFFFB0B4CFC23A25640A0000000072
:100EC00014000020B0B4CFC23A25730A000000001D
:100ED000DC1B0020001C0020500000200146DA48E6
:100EE00090F8202090F82000401CD74B83F8200079
:100EF000184640F8221090F82000082803DB002054
:100F00001A4682F820000020704710B5EF20FFF746
:100F1000E5FF002010BD10B50346002010BD70B5E0
:100F2000024600200F21002312E0C84D05EBC10549
:100F30002E790125B54005EA02043CB901EB0020F9
:100F40005D1CEBB2042B01DD002003E04D1E69B2F5
:100F50000029EADA00BF70BD7CB5BD48007800B951
:100F60007CBD6846FFF7D3FE0546012D4AD1B9A0E6
:100F7000DDE90012FFF728FDBB480069019908432D
:100F8000401C08D100F0AAF9B7498860084681687A
:100F9000B6A0FFF719FDB449019808610198FFF761
:100FA000BEFF0446B04804602146B4A0FFF70CFD24
:100FB000DDE90001084211D12146B3A0FFF704FD8D
:100FC000A948407D30B92146B2A0FFF7FDFC20467C
:100FD000FFF784FF0120A44908750BE0B1A0FFF7DB
:100FE000F3FC0198401C05D1B1A0FFF7EDFC0020F7
:100FF0009D4908754FF4FA609B49C86000F06EF98E
:10100000994948609848007D01280ED19649886822
:1010100042F2107100F065F9012810D19248407D2C
:1010200068B901209049487509E08F48007D30B9C2
:101030008D48407D012802D100208B4948758A489F
:10104000807D01281BD18848407DC0B98648007D3D
:10105000012814D1844AD168506800F042F901286F
:101060000DD181480068012803D07F490868FFF747
:1010700035FF00F033F97C494860C820C86000BFE4
:101080006EE700B5FFF7B1FE00BD10B5FFF797FEA4
:10109000FFF7A6FE10BD744800696C490A7B012168
:1010A0009140084201D1012070470020FCE708B5BB
:1010B00043E0FFF7AEFDFFF74FFF6846FFF7A1FEE5
:1010C0000098002839D00098C0B200EB80007A4A1E
:1010D00002EB800179A0FFF777FC0098000A0090EE
:1010E000009848B10098C0B200EB8000724A02EB51
:1010F000800175A0FFF768FC0098000A0090009836
:1011000048B10098C0B200EB80006B4A02EB80014E
:101110006DA0FFF759FC0098000A0090009848B1B4
:101120000098C0B200EB8000634A02EB800166A029
:10113000FFF74AFC65A0FFF747FCBAE700B5654832
:101140000068401C04D1FFF74BFE00206149086095
:10115000002000BD00B55F48006828B9FFF745FED4
:101160004FF0FF305B490860002000BD00B55948D2
:10117000006818B9FFF73DFE002000BD6FF00600C3
:10118000FBE778B505460024002028606846FFF795
:1011900038FE009E4F480068401C01D1C01F78BD3A
:1011A000009808B90020FAE7009810F0FF0F00D06F
:1011B000641C0098000A0090009810F0FF0F00D007
:1011C000641C0098000A0090009810F0FF0F00D0F7
:1011D000641C0098000A0090009810F0FF0F00D0E7
:1011E000641C2E602046DAE770B504460D461646AC
:1011F00038480068401C01D1C01F70BD32462946E6
:101200002046FFF788FEF8E718B504466846FFF762
:10121000F8FD009810F0FF0F11D0009830F0FF009B
:101220000DD10098EF2803D100982060002018BD50
:101230000098C0B2284951F82000206001E0002049
:1012400020600020F3E70000DC1B0020EC84010894
:10125000500000206368673A20253034782C202520
:101260003034780D0A000000001C0020B5B1C7B072
:10127000CAB1BBF9CEAA25640D0A0000B0B4CFC232
:101280002025640D0A000000B0B4CFC220253038FC
:10129000780D0A00D0B4D2BBB8F6BCFCD6B5256434
:1012A0000D0A0000C6E4CBFBB1E4BBAF0D0A0000A1
:1012B000CEDEBCFC0D0A00006C8501086B65793A36
:1012C0002025732000000000257320002D2D0D0A1D
:1012D0000000000054000020108701081E49086823
:1012E000704730B502460D46FFF7F8FF03469342BC
:1012F00001D39C1A02E0D01AC0F1FF34AC4201D3F2
:10130000012030BD0020FCE700B50246FFF7E6FFF4
:101310001060002000BD30B50446FFF7DFFF054632
:1013200006E021462846FFF7DCFF012800D100E057
:10133000F7E700BF30BD70B5044608E044F2A015E1
:1013400001E0FEF72BFF2800A5F10105F9D12000EF
:10135000A4F10104F2D170BD200100200020FE495B
:101360000860091D0860091D0860091D0860FA4928
:1013700024310860091D0860091D0860F748F64916
:10138000383108600020091D0860704701460020C0
:10139000012900D011B9F24B197000E026207047E6
:1013A0000146ED4A121D106820F0FF00084310604E
:1013B000704770B5044606E0E7483430056815F01C
:1013C000450F00D000E0F7E700BF042003F01DFC4C
:1013D00020B1042003F024FC032070BD012003F0A1
:1013E00014FC20B1012003F01BFC0120F5E7DA48D2
:1013F00010300068A04201D01020EEE740F2FF500C
:1014000003F00EFCD4481430006808210840C0B234
:10141000E3E72DE9FC4107460D46002600240020A5
:10142000009001900820CF490860102048604020BB
:1014300088600020C8604FF480600861084603F0AF
:1014400054FB1020FFF7B5FF044614B12046BDE859
:10145000FC81C54800880004C24908603720486004
:10146000402088600020C8604FF480600861084612
:1014700003F03BFB3720FFF79CFF04460CB12046EE
:10148000E5E74FF0FF30B949086008204860302098
:1014900088600220C8600020086101204861084679
:1014A00003F04FFB0020AF49086033204860402024
:1014B00088600020C8604FF480600861084603F02F
:1014C00014FB3320FFF775FF04460CB12046BEE73E
:1014D0000DE04FF4001003F098FB40B19E488030BF
:1014E00000684DF82600761C022E00D306E09A48CC
:1014F0003430006840F22A610842EAD000BF082078
:1015000003F083FB20B1082003F08AFB04209EE750
:10151000022003F07AFB20B1022003F081FB0220BD
:1015200095E7202003F071FB20B1202003F078FB29
:1015300006208CE74FF4007003F067FB28B14FF4EE
:10154000007003F06DFB072081E740F2FF5003F0CD
:1015500067FB00980006009901F47F4140EA0120F2
:10156000009901F47F0140EA1120009940EA1160DE
:10157000686001980006019901F47F4140EA01206A
:10158000019901F47F0140EA1120019940EA1160BC
:10159000286020465BE77CB50546002400200090CB
:1015A000019000260DB1022600E000266A481430A2
:1015B000006810F0007F01D00E207CBD6A490988C8
:1015C00088B26946FFF725FF04460CB12046F4E7D0
:1015D000019810F4802F2CD06348008800046149E2
:1015E000086037204860402088600020C8604FF4C1
:1015F00080600861084603F078FA3720FFF7D9FECB
:1016000004460CB12046D8E75648066006205549E6
:101610004860402088600020C8604FF48060086106
:10162000084603F062FA0620FFF7C3FE0446204690
:10163000C3E72520C1E770B5044600254C48007873
:10164000032802D12725284670BD4948007838B1C3
:1016500047480078012803D045480078022819D16E
:10166000B4F5805F02D127252846EDE7E0B2FFF709
:1016700092FF054675B93848001D006820F4C05037
:101680003549091D0860084600682043086008467F
:10169000006808602846D7E710B504463148046062
:1016A000072030494860402088600020C8604FF41F
:1016B00080600861084603F018FA0720FFF779FEFA
:1016C00010BDF0B5014600200022294B1B7881F89F
:1016D0005630254B1B88A1F85430264B1B681A0E38
:1016E00093090B70C2F383034B7002F003038B70FA
:1016F000204B1B68C3F30742CA701E4B1B88C3F301
:1017000007220A711B4B1A784A715B681A0E130183
:10171000CB80184B5B68C3F30742CB8843EA1213B4
:10172000CB8002F00F030B72124B9B88C3F307228E
:10173000D3094B72C2F380138B72C2F34013CB7286
:10174000C2F300130B7300234B73094B1B78C3B117
:10175000074B1B78012B0FE0002C0140FF07C00056
:101760006C000020301C002068000020441C002079
:10177000640000205C1E002003D0FE4B1B78032B6E
:101780004FD193071B0D0B61FB4B1A790B6943EA91
:1017900082030B61F84B9B681A0E0B6943EA9213A4
:1017A0000B61C2F3C2030B7502F007034B75F24BDA
:1017B0009B68C3F3074253098B75C2F38203CB7551
:1017C00093075B0F0B76EC4B1B89C3F307220B7E51
:1017D00043EAD2130B760B695B1C0024C1E9123477
:1017E0000B7E9B1C012404FA03F3DC17D1E912568B
:1017F000A5FB037C06FB03C305FB0433C1E912739D
:101800000C7A0123A3400B650024D1E912650B6D0E
:10181000A6FB037C05FB03C306FB0433C1E912737B
:101820002EE0D44B1B78022B2AD1D34B1A79930686
:101830009B0A0B61D04B9B681A0E0B6943EA02238B
:101840000B61CD4B9B68C3F307420B6913430B61DC
:10185000C94B1B89C3F307220B695B1C4FF400744F
:10186000A3FB04464FF480630025A4FB037C06FB26
:1018700003C304FB0533C1E912734FF400730B6516
:10188000C2F3801301F8193F93065B0E4B70BA4BFD
:101890001A7A4B7843EAD2134B7002F07F038B70B5
:1018A000B54BDB681A0ED309CB70C2F341130B7131
:1018B000C2F382034B7193071B0F8B71AE4BDB6836
:1018C000C3F307428B7943EA92138B71C2F340133F
:1018D000CB7100230B7202F001034B72A64B9B8964
:1018E000C3F30722D3098B72C2F38013CB72C2F306
:1018F00040130B73C2F300134B73C2F381038B735A
:1019000002F00303CB739C4B1A7B53080B74012327
:101910004B749A4B1B681A0ECA74A1F11901974BAC
:101920001B68C3F307424FEA0224CC85934B1B8804
:10193000C3F30722CB8D43EA0203CB858F4B1A7882
:101940004FEA02640C635B684FEA13620B6B43EA75
:1019500002440C63894B5B68C3F307420B6B43EA99
:1019600002240C63854B9B88C3F307220B6B43EA6D
:1019700002030B63814B1A794FF034035A547F4BA7
:101980009B684FEA13624FF035035A547B4B9B68B8
:10199000C3F307424FEA02648C63784B1B89C3F39D
:1019A00007228B6B43EA02448C63744B1A7A8B6B6D
:1019B00043EA02248C63714BDB684FEA13628B6B42
:1019C00043EA02038B636D4BDB68C3F307424FF0BE
:1019D0003C035B5C43EA12144FF03C035C544FEA57
:1019E00002734FEA1354CC87644B9B89C3F30722DD
:1019F000CB8F43EA0203CB87604B1A7B4FEA52043A
:101A00004FF040035C544FF001044FF041035C542D
:101A1000F0BD70B500264FF4803505E058480468E5
:101A200014F0450F00D003E02800A5F10105F5D121
:101A300000BF15B114F0040F05D00326042003F0F5
:101A4000EFF8304670BD012003F0DFF818B1012631
:101A5000012003F0E5F840F2FF5003F0E1F83046D2
:101A6000F0E72DE9F04105460E464FF0000805E08D
:101A70004348076817F0450F00D000E0F8E700BFC3
:101A8000042003F0C2F828B1042003F0C9F80320B1
:101A9000BDE8F081012003F0B8F820B1012003F087
:101AA000BFF80120F4E7364824380068A84201D086
:101AB0001020EDE740F2FF5003F0B2F83048203834
:101AC000046814F4604F03D1200C30804046DFE7F7
:101AD00014F4005F01D01320DAE714F4804F01D032
:101AE0001020D5E714F4004F01D00F20D0E7404676
:101AF000CEE738B500240120009002F0F0FF10B9C5
:101B00002524204638BD1B480078042825D0002015
:101B10001C49086002204860C02088600020C8601E
:101B20004FF480600861084602F0DFFFFFF771FFA5
:101B300004460CB12046E5E71148203800680F49FB
:101B400008600F481C38006848600D481838006865
:101B500088600B4814380068C86006480078B0B147
:101B600004480078012812D00248007806280ED0D8
:101B7000004809E0640000205C1E00206C1E00206C
:101B8000342C0140301C00200078022816D100209F
:101B9000FE49086003204860402088600020C8603B
:101BA0004FF480600861084602F09FFF69460320F9
:101BB000FFF757FF04460CB12046A3E7F44800782E
:101BC000032816D1BDF800000004F0490860032086
:101BD0004860402088600020C8604FF48060086141
:101BE000084602F082FFFFF714FF04460CB12046BE
:101BF00088E7E748007804282AD0BDF80000E549C6
:101C00000860BDF800000004E04908600920486051
:101C1000C02088600020C8604FF4806008610846DA
:101C200002F063FFFFF7F5FE04460CB1204669E7BA
:101C3000D9480068D9490860D748001D0068486045
:101C4000D548083000688860D3480C300068C86008
:101C5000002057E710B506E0CF482030046814F0A4
:101C6000450F00D000E0F7E700BF042002F0CDFFF1
:101C700020B1042002F0D4FF032010BD40F2FF5039
:101C800002F0CEFF0020F8E770B500264FF4803553
:101C900006E0C1482030046814F0450F00D003E08E
:101CA0002800A5F10105F4D100BF15B114F0040F0F
:101CB00005D00326042002F0B3FF304670BD14F0B7
:101CC000400F03D00026402002F0AAFF3046F5E77F
:101CD00070B500254FF4803404E0802002F095FFB9
:101CE00000B103E02000A4F10104F6D100BF0CB95B
:101CF000032070BD40F2FF5002F092FF2846F8E743
:101D00002DE9F0470027002400260025A046A14623
:101D10007620A34908750020086048608860C86084
:101D20000861084602F0B7FE032002F0D4FE9A488C
:101D30001038006840F4807097491039086000BF7F
:101D400012E000209149086048608860C8604FF444
:101D500080600861084602F0C8FEFFF7B9FF04463C
:101D600004B903E0781CC7B24A2FEADB00BF14B104
:101D70002046BDE8F0874FF4D570844908600820FC
:101D80004860402088600020C8604FF4806008618F
:101D9000084602F0AAFEFFF777FF044624B90120A7
:101DA0007B4908704FF0804900207849086037204F
:101DB0004860402088600020C8604FF4806008615F
:101DC000084602F092FE3720FFF7F3FA0446002C93
:101DD0004BD134E000206D49086037204860402036
:101DE00088600020C8604FF480600861084602F0F7
:101DF0007CFE3720FFF7DDFA04460CB12046B8E739
:101E0000684849EA0000614908602920486040208C
:101E100088600020C8604FF480600861084602F0C6
:101E200064FEFFF717FF04460CB12046A1E75A48AD
:101E30000668012080EAD67080F001086D1CB8F1B8
:101E4000000F03D14FF6FF708542C3D34FF6FF70EA
:101E5000854202D31B2420468BE706F08040060013
:101E600032D002204A4908702EE01CE04E48474913
:101E7000086001204860402088600020C8604FF45E
:101E800080600861084602F030FEFFF7E3FE04467A
:101E90000CB120466DE740480668012080EAD67004
:101EA00080F001086D1CB8F1000F03D14FF6FF70F0
:101EB0008542DBD34FF6FF70854202D31B242046B8
:101EC00057E7032032490870204652E73EB5002408
:101ED0000121364801F07CFF0121C80201F0D2FF48
:101EE0000121C80202F023F84FF4F85001900220BB
:101EF0008DF808008DF8090000208DF80A000120F7
:101F00008DF80B0001A92A4801F0B4FC04200190CF
:101F100001A9284801F0AEFC0C220821244801F058
:101F200034FD0C220921224801F02FFD0C220A2148
:101F30001F4801F02AFD0C220B211D4801F025FD50
:101F40000C2211461A4801F020FD0C2202211948EA
:101F500001F01BFD00214FF4006001F0E8FFFFF7E6
:101F6000FDF931208DF8000000208DF801008DF87A
:101F7000020001208DF80300684601F088FBFFF79E
:101F8000BFFE0446CCB9FFF7B4FD15E0301C0020BD
:101F90006400002068000020142C01405C1E00201A
:101FA000181C0020000010800080FF800C00400002
:101FB00000080240000C024004461CB9FE48FFF72E
:101FC00080FB044634B9FC49B1F854100804FFF70B
:101FD00063FB044624B94FF40060FFF72CFB044672
:101FE0001CB1F6480078032806D10F20FFF7D8F976
:101FF0000120FFF7CBF9044620463EBD10B5002076
:1020000002F069FD002010BD70B590B004460E4688
:10201000154600BFEA4802F08AFC0028FAD1E848D9
:1020200002F05CFB4FF000600190E64802900394E0
:1020300004950020059006904FF480600790800082
:1020400008908000099000200A904FF440300B90D7
:1020500004200C9003200D904FF400000E9080108F
:102060000F9001A9D64802F0DBFB2021D44802F0F2
:1020700027FC0121D24802F00DFC10B070BD0146D2
:10208000002002E04910421CD0B20129FAD1704769
:102090002DE9F84F8146174698460A9C4FF0000AF2
:1020A000D3464D464FF0FF36B9F1000F02D126203E
:1020B000BDE8F88F0020C34954390860BF48007854
:1020C000022805D10402780A40EAC8574FEA682876
:1020D0000020BD4988604860401E086001204861BA
:1020E0000020C8600861084602F02BFDB5486C3836
:1020F000006810F0007F01D00E20D9E7002C21DD10
:10210000B4F5006F1EDC601E20421BD12046FFF795
:10211000B6FF0090AD4804601020AC4948604020F4
:1021200088600020C8604FF480600861084602F0B3
:10213000DCFC1020FFF73DF98246BAF1000F03D016
:102140005046B5E72620B3E7009800019E49886015
:10215000084644604FF0FF300860012048610220CB
:10216000C86000200861084602F0EBFC9748076051
:10217000112096494860402088600020C8604FF4D4
:1021800080600861084602F0B0FC1120FFF711F9E9
:102190008246BAF1000F01D0504689E78C4800789A
:1021A000002859D1FDF7FFFF17E04FF4004002F07F
:1021B0002CFD70B14FF0000B05E08248006845F837
:1021C0002B000BF1010BBBF1080FF6D32035814E2C
:1021D00003E00EB904206BE7761E7A484C3800689D
:1021E00040F22A610842E0D0082002F00EFD20B142
:1021F000082002F015FD04205AE7022002F005FD38
:1022000020B1022002F00CFD022051E7202002F054
:10221000FCFC20B1202002F003FD062048E74FF42B
:10222000007002F0F2FC28B14FF4007002F0F8FCEC
:1022300007203DE703E06348006828602D1D4FF448
:10224000001002F0E2FC0028F5D1FDF7AEFF40F2ED
:10225000FF5002F0E5FC39E05D480078012835D1F7
:1022600000205D4908705D4908705D490870554857
:102270004438006840F22A31084352494439086022
:1022800050485438006840F008004E4954390860FE
:10229000002221464846FFF7B7FE00E0761E484878
:1022A0005838006810F0006F07D14D48007820B909
:1022B0004948007808B9002EF0D10EB90420F7E69D
:1022C0004548007810B1444890F800A05046EFE629
:1022D0002DE9FF5F17469846DDE90E464FF00009ED
:1022E000CA464FF0FF353F49009808604FF00000A4
:1022F0003D49086031480078022805D10402780A77
:1023000040EAC8574FEA682800202F498860486093
:10231000401E0860012048610020C860086108462E
:1023200002F00FFC30481838006810F0007F03D02E
:102330000E2004B0BDE8F09F002C21DDB4F5006F45
:102340001EDC601E20421BD12046FFF798FE83460C
:102350001E48046010201D4948604020886000200D
:10236000C8604FF480600861084602F0BEFB102090
:10237000FFF71FF88146B9F1000F03D04846D8E7B0
:102380002620D6E7012E70D906FB04F0B0F1007FBD
:1023900001D32620CDE74FEA0B100B49886006FBDE
:1023A00004F048604FF0FF300860012048610220CF
:1023B000C8600020086119E0801E00206400002031
:1023C00058640240802C0140441C0020301C002036
:1023D0006C000020FFFF7F006E0000206D000020D9
:1023E0006F000020700000202C2C0140084602F0F5
:1023F000A8FBFA4807601220F8494860402088602E
:102400000020C8604FF480600861084602F06DFB50
:102410001220FEF7CEFF8146B9F1000F01D04846E9
:1024200087E7EF48007800287DD1FDF7BCFE1EE06D
:102430004FF4004002F0E9FBA0B14FF0000A07E0C2
:10244000E8480068E849096841F82A000AF1010AE9
:10245000BAF1080FF4D3E44800682030E24908607C
:10246000E24D04E015B9042063E7ADE06D1EDD48E0
:102470004C38006840F22A310842D9D0082002F0D6
:10248000C4FB20B1082002F0CBFB042051E702205E
:1024900002F0BBFB20B1022002F0C2FB022048E7A1
:1024A000202002F0B2FB20B1202002F0B9FB062070
:1024B0003FE74FF4007002F0A8FB28B14FF4007022
:1024C00002F0AEFB072034E709E0C6480068C649C1
:1024D00009680860C4480068001DC34908604FF4DB
:1024E000001002F092FB0028EFD14FF4807002F050
:1024F0008CFB20B3BE48007838B1BD480078012875
:1025000003D0BB480078022819D10020B3490860E5
:102510000C204860402088600020C8604FF4806034
:102520000861084600E011E002F0DFFA0C20FEF737
:1025300040FF8146B9F1000F01D04846F9E6FDF7AA
:1025400034FE40F2FF5002F06BFB3DE0A4480078FF
:10255000012839D10020A74908700120A649087038
:102560000020A64908709F484438006840F22A318C
:1025700008439C49443908609A485438006840F040
:10258000080098495439086006FB04F100220098BD
:10259000FFF73AFD00E06D1E9948006810F0006FEB
:1025A00001D1002DF7D10DB90420C2E600BF934838
:1025B000007818B98F4800780028F8D08D48007846
:1025C00010B18C4890F800904846B2E61CB504461D
:1025D0000020019000908B48008800047F4908602B
:1025E0000D204860402088600020C8604FF4806063
:1025F0000861084602F079FA7A484C380068009081
:1026000003E078484C3800680090009810F0450FBF
:10261000F7D0012002F0F9FA20B1012002F000FB0E
:1026200001201CBD042002F0F0FA20B1042002F0C9
:10263000F7FA0320F5E76B48703800680D2801D0E1
:102640001020EEE740F2FF5002F0EAFA65486C38DD
:10265000006801900198C0F3432020700020E0E75B
:102660002DE9FF5F86B017469846149D4FF000068F
:1026700030460590049004468146039082460290BD
:102680000195DDF818B0DDF818B0BBF1000F03D1EB
:1026900026200AB0BDE8F09F002052495439086056
:1026A000594988604860401E086001204861002048
:1026B000C8600861084602F044FA4A486C3800686D
:1026C00010F0007F01D00E20E3E74948007802288F
:1026D00005D10502780A40EAC8574FEA6828002D5C
:1026E0001FDDB5F5006F1CDC681E284219D1284695
:1026F000FFF7C5FC05903948056010203749486050
:10270000402088600020C8604FF48060086108465F
:1027100002F0EBF91020FEF74CFE06461EB13046E3
:10272000B7E72620B5E73748008800042B49086042
:102730000D204860402088600020C8604FF4806011
:102740000861084602F0D1F90D20FEF732FE064678
:102750000EB130469DE723486C38006803904FF077
:10276000FF341CE0641E2748008800041B490860F1
:102770000D204860402088600020C8604FF48060D1
:102780000861084602F0B1F90D20FEF712FE064678
:102790000EB130467DE713486C380068039003980B
:1027A00010F4807F01D1002CDCD10CB9292070E716
:1027B0000A480760182009494860402088600020C6
:1027C000C8604FF480600861084602F08EF9182056
:1027D000FEF7EFFD0646CEB130465AE7301C00202A
:1027E0006C000020802C014070000020FFFF7F0063
:1027F000640000206E0000206D0000206F000020AB
:102800000064024068000020441C00200020F849B9
:10281000087005980001F7498860084645604FF048
:10282000FF300860012048610020C8600861084648
:1028300002F087F94FF0FF34EF48007800287BD191
:10284000FDF7B1FC43E04FF4804002F0DEF9C8B37D
:102850000198A0EB0900202821D20198A0EB0900E3
:1028600010F0030F04D10198A0EB0900800804E0E8
:102870000198A0EB09008008401C02904FF0000A6C
:1028800009E0DE49DBF8000008600AF1010A0BF1FB
:10289000040B09F1040902988245F2D30FE04FF0CE
:1028A000000A05E05BF82A00D44908600AF1010A31
:1028B000BAF1080FF6D30BF1200B09F120096FF0E4
:1028C000404404E0FFE70CB90420E2E6641ECB4874
:1028D0004C38006840F21A610842B4D0082002F077
:1028E00094F920B1082002F09BF90420D1E60220DF
:1028F00002F08BF920B1022002F092F90220C8E622
:10290000102002F082F920B1102002F089F9052090
:10291000BFE64FF4007002F078F930B14FF4007068
:1029200002F07EF90720B4E606E0FDF73EFC40F237
:10293000FF5002F075F943E0AF48007801283FD11D
:102940000020AF490870AA490870AE490870AB482A
:102950004438006840F21A310843A84944390860F5
:10296000402229460698FFF74FFBA44854380068D8
:1029700040F00800A1495439086000E0641EA248F4
:10298000006810F0006F01D1002CF7D11CB9FFF7DF
:102990009DFA04207DE64FF0FF3400E0641E994864
:1029A000007820B99648007808B9002CF6D10CB907
:1029B00004206EE69248007810B19148007868E6ED
:1029C00040F2FF5002F02CF904A8FFF7FFFD064685
:1029D00003E004A8FFF7FAFD06463EB99DF8100093
:1029E0000728F6D09DF810000628F2D0304650E6B1
:1029F0002DE9FF5F84B0DDE9124700260020039037
:102A00000290002580468146019007FB04FBDDF81B
:102A100010A0DDF810A0BAF1000F03D1262008B0F5
:102A2000BDE8F09F002075495439086071498860FD
:102A30004860401E0860012048610020C8600861AD
:102A4000084602F07EF86D486C38006810F0007F90
:102A500001D00E20E3E76D480078022808D1040277
:102A6000DDE90601400A40EAC1504912CDE90601FC
:102A7000002C1FDDB4F5006F1CDC601E204219D154
:102A80002046FFF7FCFA039061480460102060497B
:102A90004860402088600020C8604FF48060086172
:102AA000084602F022F81020FEF783FC06461EB10D
:102AB0003046B4E72620B2E7012F6FD907FB04F0B8
:102AC000B0F1007F01D32620A9E75048007838B143
:102AD0004E480078012803D04C48007802282DD1B8
:102AE0004C48008800044A4908603720486040206C
:102AF00088600020C8604FF480600861084601F0DB
:102B0000F4FF3720FEF755FC06460EB1304686E747
:102B10003F48076017203E494860402088600020F9
:102B2000C8604FF480600861084601F0DEFF17209E
:102B3000FEF73FFC06460EB1304670E73449069872
:102B4000086019204860402088600020C8604FF469
:102B500080600861084601F0C8FF1920FEF729FCD3
:102B600006460EB130465AE70398000121498860B5
:102B700007FB04F048604FF0FF3008600120486117
:102B80000020C8600861084601F0DBFF1A480078A1
:102B9000002871D1451EFDF706FB54E0F7E04FF425
:102BA000804002F032F810B3ABEB0800202833D29B
:102BB000ABEB080010F0030F03D1ABEB080080086B
:102BC00003E0ABEB08008008401C01904FF00009C7
:102BD00009E00A49DAF80000086009F101090AF180
:102BE000040A08F1040801988145F2D324E026E0A4
:102BF0006D000020441C00206C000020802C01404F
:102C00006E0000206F00002000640240640000207D
:102C1000301C0020680000204FF0000905E05AF841
:102C20002900F849086009F10109B9F1080FF6D344
:102C30000AF1200A08F120086FF0404503E00DB9C1
:102C40000420ECE66D1EEF484C38006840F21A3163
:102C50000842A4D0082001F0D8FF20B1082001F0DC
:102C6000DFFF0420DBE6022001F0CFFF28B10220C5
:102C700001F0D6FF0220D2E640E0102001F0C5FFAF
:102C800020B1102001F0CCFF0520C8E64FF4007001
:102C900001F0BBFF28B14FF4007001F0C1FF072025
:102CA000BDE64FF4807001F0B0FF00B3D648007865
:102CB00038B1D5480078012803D0D34800780228DD
:102CC00015D10020D14908600C2048604020886060
:102CD0000020C8604FF480600861084601F005FFDD
:102CE0000C20FEF766FB06460EB1304697E6FDF770
:102CF0005CFA40F2FF5001F093FF48E0C4480078CE
:102D0000012844D10020C34908700120C24908703D
:102D10000020C2490870BB484438006840F21A31AC
:102D20000843B8494439086007FB04F1402204987D
:102D3000FFF76AF9B3485438006840F00800B14919
:102D4000543908604FF0FF3500E06D1EB44800684C
:102D500010F0006F01D1002DF7D11DB9FFF7B6F8C3
:102D600004205CE64FF0FF3500E06D1EAB480078B4
:102D700020B9A848007808B9002DF6D10DB9042073
:102D80004DE6A448007810B1A248007847E640F22A
:102D9000FF5001F045FF02A8FFF718FC064603E0CC
:102DA00002A8FFF713FC06463EB99DF80800072865
:102DB000F6D09DF808000628F2D030462FE610B570
:102DC0004FF4807001F021FF88B393480078012808
:102DD00014D100208D4908600C2048604020886094
:102DE0000020C8604FF480600861084601F07DFE55
:102DF0000C20FEF7DEFA8749087002E000208549C2
:102E0000087080484838006840F480707D4948392F
:102E10000860081D00684CF23A318843794944390A
:102E2000086001207D4908707A48007810BDFFE7EE
:102E3000022001F0EAFE78B1022001F0F1FE7148B3
:102E4000443800684CF23A3188436E49443908608E
:102E5000022070490870E9E7082001F0D6FE78B139
:102E6000082001F0DDFE6748443800684CF23A3132
:102E70008843644944390860042066490870D5E7EE
:102E8000202001F0C2FE78B1202001F0C9FE5D488B
:102E9000443800684CF23A3188435A494439086052
:102EA00006205C490870C1E7102001F0AEFE78B141
:102EB000102001F0B5FE5348443800684CF23A3116
:102EC0008843504944390860052052490870ADE7ED
:102ED0004FF4007001F099FE80B14FF4007001F0E2
:102EE0009FFE4848443800684CF23A3188434549CF
:102EF0004439086007204749087097E7002095E7A4
:102F000010B5FFF75CFF10BD70B50446002514B97D
:102F10002625284670BD4348008800043B490860C8
:102F20000D204860402088600020C8604FF4806019
:102F30000861084601F0D9FD0D20FEF73AFA054672
:102F40000DB12846E6E72F486C3800682060284617
:102F5000E0E708B5002000906846FFF7D5FF08B10C
:102F6000FF2008BD0098C0F34320FAE72DE9FE4F8B
:102F700083460E46914600200290002534462248A2
:102F8000007818B1680240EAD45564021BF0030FC0
:102F90001ED04FF0000A18E04FF4007000904FEA86
:102FA0004A20071945EBE0733A461F48FFF770F8CF
:102FB00002904FF400721C49584614F04FFA0BF57A
:102FC000007B0AF1010000F0FF0ACA45E4DB16E0CD
:102FD000B9F1010F09D14FF4007022462B46009041
:102FE0005846FFF755F8029009E04FF4007022466A
:102FF0002B46CDE900095846FFF76AF9029002987E
:10300000BDE8FE8F802C014064000020301C0020B1
:103010006C0000206E0000206D0000206F0000207A
:1030200000640240680000205C1C00202DE9FE4F77
:103030000646894692460020029000254C462148CB
:10304000007818B1680240EAD455640216F0030F04
:103050001ED04FF0000B18E04FF4007231461A48B2
:1030600014F0FCF94FF4007000904FEA4B20071960
:1030700045EBE0733A461448FFF7F2FA029006F582
:1030800000760BF1010000F0FF0BD345E4DB16E006
:10309000BAF1010F09D14FF4007022462B4600907F
:1030A0003046FFF7DDFA029009E04FF40070224647
:1030B0002B46CDE9000A3046FFF79AFC02900298B1
:1030C000BDE8FE8F640000205C1C002000B587B0C6
:1030D0000121022000F07CFE0121880300F0C1FEE6
:1030E0004FF46040059002208DF8180000208DF804
:1030F0001A0003208DF8190001208DF81B0005A986
:10310000374800F0B7FB05220D21354800F03DFCA3
:1031100005220E21324800F038FC05220F213048EC
:1031200000F033FC0121880300F0F0FE00214FF491
:10313000804000F0EBFE4FF44040ADF800004FF44B
:103140008270ADF802000020ADF80400ADF8060072
:10315000ADF808004FF40070ADF80A003820ADF863
:103160000C000020ADF80E000720ADF810006946F5
:103170001C4801F0C3FD01211A4801F0B7FE07B059
:1031800000BD10B50446174800884FF6C7710840C7
:10319000144908800846008820430880012111480E
:1031A00001F0A4FE10BD10B5044600BF02210D4879
:1031B00001F066FF0028F9D021460A4801F017FF08
:1031C00010BD70B504460D46002605E02078FFF7D7
:1031D000EAFF641C701C86B2AE42F7DB70BD0000D3
:1031E000000402400038004000B587B001210846C5
:1031F00000F0EEFD0121480700F033FE102005909D
:1032000003208DF8180002208DF81B0005A9364810
:1032100000F030FB00200190029003900220049007
:1032200001A9002001F05DF90121002001F076F9EB
:103230000021084601F0C0F907B000BD38B50446CA
:10324000E0B28DF8000020128DF801009DF8010019
:10325000803800019DF8001040EA211085B229460F
:10326000002001F0A9F938BD00B587B0012108465A
:1032700000F0AEFD0121480700F0F3FD202005908D
:1032800003208DF8180002208DF81B0005A91648B0
:1032900000F0F0FA002001900290039002200490C8
:1032A00001A9102001F01DF90121102001F036F9CB
:1032B0000021084601F08DF907B000BD38B504467D
:1032C000E0B28DF8000020128DF801009DF8010099
:1032D000803800019DF8001040EA211085B229468F
:1032E000002001F076F938BD000002401CB5012134
:1032F000084600F06DFD0320009001208DF80400C9
:1033000000208DF8060003208DF8050001208DF8BF
:1033100007006946564800F0ADFA1CBD7FB505466A
:103320000C460121022000F09CFD0295ADF80440FE
:103330000020ADF80600ADF80C0001A94D4801F0E1
:103340007CFF012211464B4802F018FC012149483C
:1033500001F0FCFF1D208DF8000001208DF8010018
:1033600003208DF8020001208DF80300684600F06C
:103370008EF9FFF7BBFF7FBD10B500213D4801F07E
:10338000E5FF0021022000F06CFD10BD10B5012109
:10339000374800F0EDFA10BD10B50121344800F0B7
:1033A000E5FA10BD10B534480078B8B1334800686C
:1033B0003349098830F8110084B22046FFF73EFFF8
:1033C0002E4800682E49098800EB4100408884B2ED
:1033D0002046FFF773FFFFF7DFFF16E0294800687C
:1033E0002749098830F8110084B22046FFF726FFEC
:1033F000244800682249098800EB4100408884B2D3
:103400002046FFF75BFFFFF7C1FF1D480088801CC7
:103410001B49088008460088B0F5106F0CDB164881
:10342000007818B100201449087002E00120124908
:10343000087000201249088001210E4802F0C6FBE6
:1034400010BD70B505460C460C4805600D4804607B
:103450000DA0FDF7B9FA70BD10B50221044800F0C7
:1034600085FA10BD10B50221014800F081FA10BDA7
:103470000000024000040040740000207C00002096
:103480007600002080000020C9E8D6C3BAC3C1CBB3
:10349000444143B5C462756666D6B8D5EB0A0000F0
:1034A00070B504466FF0040000F03FF9E11704EB3B
:1034B0005171C1F3C7010D4A1170E11704EB51714D
:1034C000CD104FF47A7045430120094908804FF030
:1034D000E020006940F002004FF0E021086108465A
:1034E0004561006940F00100086170BD880000205E
:1034F0008A000020014600BF704700BF544A12886E
:1035000012F0400FFAD0C2B2514B9A80704700BF00
:103510004F49098811F0400FFAD04D498880704713
:1035200010B588B004460121084600F051FC012185
:10353000102000F0A7FC07220921464800F025FAD8
:1035400007220A21434800F020FA4FF4C060069099
:1035500002208DF81C008DF81D0000208DF81E0043
:1035600001208DF81F0006A93A4800F083F9029463
:103570000020ADF80C00ADF80E00ADF81000ADF86D
:1035800014000C20ADF8120002A9314800F0DBFD58
:1035900001212F4800F05FFE40212D4800F043FF3D
:1035A000012240F225512A4800F00BFF25208DF81A
:1035B000040003208DF805008DF8060001208DF829
:1035C000070001A800F063F808B010BD10B505F0C1
:1035D0007BFE40F225511E4800F02EFF10B31C4820
:1035E00000F068FEC4B21C48008810F4004F2BD1D4
:1035F0001948008810F4804F0CD00A2C03D000200A
:103600001549088020E01448008840F40040124921
:10361000088019E00D2C06D10F48008840F4804046
:103620000D49088010E00C480088C0F30D000B49DC
:103630000C5409480088401C074908800846008847
:10364000C72801DD0020088005F04FFE10BD0000F6
:1036500000100140000002408C000020D81E002015
:103660000648804706480047FEE7FEE7FEE7FEE71C
:10367000FEE7FEE7FEE7FEE7FEE7FEE75B08000881
:103680008901000833490143334A1160704770B51E
:10369000002100230F22C47824B32F4C246804F4A3
:1036A000E064C4F5E064C4F30721C1F10404E3B2AB
:1036B0000A4144789C40E1B28478144021430C07CD
:1036C000210E264C05786155047804F01F0501246D
:1036D000AC4005786D114FF0E02606EB8505C5F886
:1036E000004109E0047804F01F040125A5401C4CAA
:1036F0000678761144F8265070BD1A4A0A400243F3
:10370000154B1B1F1A60704739B1134A121D1268FE
:103710000243114B1B1D1A6006E00F4A121D12686E
:1037200082430D4B1B1D1A607047042808D14FF0CF
:10373000E021096941F004014FF0E022116107E046
:103740004FF0E021096921F004014FF0E0221161FE
:10375000704700000000FA050CED00E000E400E016
:1037600080E100E080FFFF1F10B50446A0488442BE
:1037700008D10121084600F096FB0021012000F04D
:1037800092FB76E09B48844208D10121022000F0A0
:103790008AFB0021022000F086FB6AE09648844202
:1037A00008D10121042000F07EFB0021042000F05C
:1037B0007AFB5EE09148844208D10121082000F0A4
:1037C00072FB0021082000F06EFB52E08C4884421E
:1037D00008D10121102000F066FB0021102000F02C
:1037E00062FB46E08748844208D10121202000F096
:1037F0005AFB0021202000F056FB3AE08248844228
:1038000008D10121402000F04EFB0021402000F0B3
:103810004AFB2EE07D48844208D10121802000F03F
:1038200042FB0021802000F03EFB22E078488442E9
:1038300008D10121801500F036FB0021A01500F011
:1038400032FB16E07348844208D10121401500F094
:103850002AFB0021601500F026FB0AE06E48844236
:1038600007D10121001500F01EFB0021201500F0FA
:103870001AFB10BDF0B50A4600210023002400BF4A
:103880003DE0012505FA01F3156805EA03049C42B1
:1038900034D105684F000326BE40B5430560157955
:1038A0004E00B5400668354305601579012D02D0FC
:1038B0001579022D16D185684F000326BE40B54309
:1038C000856055794E00B54086683543856045680A
:1038D00001268E40B5434560456896798E40B6B264
:1038E00035434560C5684F000326BE40B543C560FB
:1038F000D5794E00B540C6683543C560491C1029CE
:10390000BFD3F0BD4FF6FF7101600021017141711D
:103910008171C171704708B54FF480320092009AEE
:103920000A430092009AC261C161009AC261C269F1
:103930000092C269009208BD0246002013690B4242
:1039400001D0012000E0002070470146086980B2E4
:1039500070470246002053690B4201D0012000E06D
:10396000002070470146486980B270470183704764
:10397000418370470AB1018300E041837047416190
:10398000704742694A4042617047F0B50023002405
:103990004D07ED0E02FA05F3CE1000F1200555F8A3
:1039A00026504E07F70E0F26BE40B543CF1000F14C
:1039B000200646F82750CE1000F1200555F8265075
:1039C00045EA0304CE1000F1200545F82640F0BD7D
:1039D00010B503460C4622B921461846FFF7C8FF2A
:1039E00005E0012A03D121461846FFF7BFFF10BDAD
:1039F000000002400004024000080240000C0240A7
:103A0000001002400014024000180240001C024056
:103A1000002002400024024000280240F9480068CB
:103A200040F00100F74908600020F64908310860BD
:103A3000F4480068F4490840F2490860F348091D59
:103A40000860F348EF4984310860F0481038091DD8
:103A50000860EC48006820F48020EA4908600020F3
:103A6000E8490C310860E7498C3108607047002153
:103A7000E44A921C117011460870704710B5014657
:103A80000022002300204A11012A02D1DD4C2368C4
:103A900008E0022A03D1DB4C7034236802E0D94CE1
:103AA0007434236801F01F02012494401C4201D0A9
:103AB000012000E0002010BD38B500200090002457
:103AC000002500BF3120FFF7D9FF05460098401CB4
:103AD00000900098B0F5A04F01D0002DF2D0312019
:103AE000FFF7CCFF08B1012400E00024204638BDD8
:103AF00001460020C34A106820F0F80040EAC100E7
:103B000010607047C349086070470021BD4A703299
:103B100011701170012802D004280AD104E001219B
:103B2000B84A7032117005E00521B64A7032117042
:103B300000E000BF00BF7047B7490860704770B52C
:103B4000049C41EA82150126C6EB530645EA064568
:103B5000054345EA0465AB4E361D356070BDAD4981
:103B600008667047820142EA0172A64B84331A60EC
:103B70007047A8498866704710B5830143EA01631E
:103B800043EA02739F4C8834236010BDA149086743
:103B90007047A049C864704702460020994B08331B
:103BA000186820F0EC6042EA01031843954B083393
:103BB0001860704702460020924B0833186820F0C6
:103BC000784042EA010318438E4B0833186070476F
:103BD000014600208B4A0832106820F00300084399
:103BE0001060704787480830006800F00C0070478C
:103BF00001460020834A0832106820F0F000084394
:103C000010607047014600207E4A0832106820F498
:103C1000E05008431060704701460020794A08329E
:103C2000106820F4604040EAC10010607047F0B5B1
:103C3000002100220024022500260223714F0837AC
:103C40003F6807F00C0121B1042905D0082937D1BC
:103C500005E0724F076036E0714F076033E0694F4F
:103C60003F1D3F68C7F38056664F3F1D3F6807F012
:103C70003F036EB16A4FB7FBF3F7DFF888C10CF171
:103C8000040CDCF800C0CCF3881C07FB0CF40CE03F
:103C9000624FB7FBF3F7DFF86CC10CF1040CDCF8F2
:103CA00000C0CCF3881C07FB0CF4564F3F1D3F6847
:103CB000C7F301477F1C7D00B4FBF5F7076002E006
:103CC000564F076000BF00BF4E4F08373F6807F0F0
:103CD000F0010909534F7A5C0768D7404760494FA4
:103CE00008373F6807F4E051890A4E4F7A5C47680D
:103CF000D7408760434F08373F6807F46041490B5E
:103D0000484F7A5C4768D740C760F0BD002100F497
:103D10004072B2F5407F0AD13A4A0832116821F464
:103D2000F811414A02401143364A08321160354ABF
:103D300070321268C0F30B031A43324B70331A60AF
:103D40007047354944390860704733494039086045
:103D5000704736490860704701460020294A8C3276
:103D6000106820F01F004A1E1043264A8C32106053
:103D7000704701460020234A8C32106820F4F85026
:103D80004A1E40EA02201F4A8C32106070470146EA
:103D900000201C4A8C32106820F440100843106048
:103DA000704701460020174A8C32106820F440000A
:103DB00008431060704701460020124A8C32106898
:103DC00020F440300843106070471949086070477C
:103DD00039B10C4A3032126802430A4B30331A6050
:103DE00006E0084A303212688243064B30331A60CC
:103DF0007047F9B1034A343212680243014B34333D
:103E00001A601CE000380240FFFFF6EA1030002480
:103E10000030002000004742800E47420024F4009A
:103E200000127A0094000020FFFCFF0F5C01474263
:103E3000E01147428F4A126882438E4B1A607047E6
:103E400039B18C4A121D126802438A4B1B1D1A603D
:103E500006E0884A121D12688243864B1B1D1A60B9
:103E6000704739B1834A0C3212680243814B0C33DC
:103E70001A6006E07F4A0C32126882437D4B0C3395
:103E80001A60704739B17B4A103212680243794B8D
:103E900010331A6006E0774A103212688243754B7D
:103EA00010331A60704739B1724A243A12680243DB
:103EB000704B243B1A6006E06E4A243A1268824333
:103EC0006C4B243B1A60704739B16A4A203A126839
:103ED0000243684B203B1A6006E0664A203A1268AB
:103EE0008243644B203B1A60704739B1614A1C3AE7
:103EF000126802435F4B1C3B1A6006E05D4A1C3AA5
:103F0000126882435B4B1C3B1A60704739B1594AB7
:103F1000143A12680243574B143B1A6006E0554AA4
:103F2000143A12688243534B143B1A60704739B1FC
:103F3000504A103A126802434E4B103B1A6006E09A
:103F40004C4A103A126882434A4B103B1A60704741
:103F500039B1484A1C3212680243464B1C331A607E
:103F600006E0444A1C3212688243424B1C331A60FA
:103F7000704739B13F4A2032126802433D4B20332B
:103F80001A6006E03B4A203212688243394B2033E4
:103F90001A60704739B1374A243212680243354BF0
:103FA00024331A6006E0334A243212688243314BCC
:103FB00024331A60704739B12E4A2C3212680243FA
:103FC0002C4B2C331A6006E02A4A2C3212688243AA
:103FD000284B2C331A60704739B1264A30321268A8
:103FE0000243244B30331A6006E0224A3032126812
:103FF0008243204B30331A607047012808D11D4995
:104000003C31096841F008011A4A3C32116007E06E
:1040100018493C31096821F00801164A3C32116008
:10402000704739B1134A273A12780243114B273BA4
:104030001A7006E00F4A273A127882430D4B273B4D
:104040001A7070470B484030006840F08070094992
:1040500040310860704701460020064A283A12683D
:104060000A4201D0012000E00020704701492639B2
:10407000087070473438024010B50446FA4884424C
:1040800008D101211020FFF752FF00211020FFF777
:104090004EFF57E0F548844209D101214804FFF75B
:1040A00035FF00214FF40030FFF730FF4AE0F048C1
:1040B000844209D101218804FFF728FF00214FF431
:1040C0008020FFF723FF3DE0EA48844209D1012127
:1040D000C804FFF71BFF00214FF40020FFF716FF75
:1040E00030E0E548844209D101210805FFF70EFFC1
:1040F00000214FF48010FFF709FF23E0DF488442DE
:1041000008D101212020FFF712FF00212020FFF716
:104110000EFF17E0DA48844209D101218807FFF732
:10412000F5FE00214FF08040FFF7F0FE0AE0D54891
:10413000844207D101214005FFF7E8FE0021600518
:10414000FFF7E4FE10BD2DE9FF4705460E460024AB
:10415000A14600BFA046B08900B100BF2C8A24F45C
:104160004054F08804432C82AC8941F20C608443B3
:10417000B08831890843718908430443AC81AC8A13
:1041800024F44074B0890443AC826846FFF74FFDC5
:10419000B548854202D0B948854202D1DDF80C907D
:1041A00001E0DDF80890A88910F4004F08D009EB71
:1041B000C90000EB091031684900B0FBF1F707E0D6
:1041C00009EBC90000EB091031688900B0FBF1F779
:1041D0006420B7FBF0F004012009642101FB107892
:1041E000A88910F4004F08D0322000EBC800B0FBC3
:1041F000F1F000F00700044308E0322000EB081063
:104200006421B0FBF1F000F00F0004432C81BDE805
:10421000FF874FF41651016000218180C180018128
:104220000C21418100218181704710B50246002098
:10423000108A20F470600B884C8823438C882343B9
:10424000CC8823431843108210BD00210180418097
:104250008180C180704721B1828942F400528281FD
:1042600004E082894DF6FF731A4082817047028B09
:1042700002F47F420283028B0A430283704721B11A
:10428000828942F40042828103E08289C2F30E02F5
:104290008281704721B1828A42F40062828204E006
:1042A000828A4FF2FF731A4082827047C1F308027C
:1042B0008280704701468888C0F308007047028AF0
:1042C0004FF6F0731A400282028A0A430282704754
:1042D00021B1828942F00202828104E082894FF694
:1042E000FD731A408281704782894FF2FF731A4032
:1042F000828182890A4382817047028A4FF6DF7386
:104300001A400282028A0A430282704721B1028A5D
:1043100042F48042028204E0028A4BF6FF731A40A4
:1043200002827047818941F001018181704721B18A
:10433000828A42F00802828204E0828A4FF6F77392
:104340001A4082827047028BD2B20283028B42EA09
:1043500001220283704721B1828A42F020028282C8
:1043600004E0828A4FF6DF731A408282704721B1DF
:10437000828A42F01002828204E0828A4FF6EF7352
:104380001A4082827047828A4FF6FB731A408282FB
:10439000828A0A438282704721B1828A42F00202F5
:1043A000828204E0828A4FF6FD731A40828270474F
:1043B0001AB1838A0B43838202E0838A8B43838210
:1043C0007047F0B503460024002600250020A1F523
:1043D00010676A3F00D100BF1846C1F3421401F0D4
:1043E0001F06012707FA06F5012C01D10C3004E065
:1043F000022C01D1103000E014301AB107682F43AD
:10440000076002E00768AF430760F0BD0246002086
:10441000B1F5007F00D100BF13880B4201D001200D
:1044200000E00020704701F40072B2F5007F00D177
:1044300000BFCA430280704770B5024600240023C3
:1044400000250020A1F510666A3E00D100BFC1F32F
:10445000421501F01F03012606FA03F3012D13D1C3
:104460009689334017E000000010014000440040EE
:1044700000480040004C0040005000400014014043
:1044800000780040007C0040022D02D1168A3340A3
:1044900001E0968A33400C12012606FA04F41688CD
:1044A000344013B10CB1012000E0002070BD10B504
:1044B00000220023A1F510646A3C00D100BF0A125B
:1044C00001249440A3B2DC43048010BD10B5012147
:1044D0004807FFF71BFD00214FF00050FFF716FDC6
:1044E00010BD30B5002200237B4C226840F6FE74DC
:1044F0008440A243D1E900452C438D682C43CD680C
:1045000044EA050303FA00F42243734C226030BDF1
:104510000021016041608160C160704739B16E4A1D
:104520001268012383401A436B4B1A6006E06A4A03
:104530001268012383409A43674B1A60704710B595
:1045400051B1654A121D126804090123A3401A43A0
:10455000614B1B1D1A6009E05F4A121D12680409B5
:104560000123A3409A435C4B1B1D1A6010BD40B150
:104570005949091D096841F00301574A121D11608C
:1045800007E05549091D096821F00301524A121D2F
:104590001160704710B53AB14F4B1B6801FA00F437
:1045A00023434D4C236006E04B4B1B6801FA00F49B
:1045B000A343494C236010BD08B500220092464A2F
:1045C000009200F10802009B1A440092009A1160C8
:1045D00008BD08B5002200923F4A009200F1140283
:1045E000009B1A440092009A116008BD30B5002467
:1045F0000023082802D142EA012401E042EA0144F2
:10460000354B00F120052B441C6030BD08B5014638
:1046100000200090304800902C2000EB9100009A80
:10462000104400900098006880B208BD41B12A4A49
:1046300012684FF4805383401A43274B1A6007E0F7
:10464000254A12684FF4805383409A43224B1A60E4
:10465000704710B53AB1204B1B6801FA00F42343B0
:104660001D4C236006E01C4B1B6801FA00F4A343B9
:10467000194C236010BD10B502460020164B343390
:104680001B6801FA02F4234201D0012000E000205F
:1046900010BD01FA00F2104B34331A60704730B588
:1046A0000246002000230C4C246801FA02F504EABB
:1046B0000503094C3434246801FA02F52C4202D077
:1046C0000BB1012000E0002030BD01FA00F2024BE6
:1046D00034331A607047000000740040016821F014
:1046E000010101600021016041608160C1600161E0
:1046F00021214161DA49884204D13D21D84A103A4A
:1047000091608CE0D6491831884205D14FF474612C
:10471000D34A103A916082E0D1493031884205D1C4
:104720004FF47411CE4A103A916078E0CC49483188
:10473000884205D14FF07461C94A103A91606EE029
:10474000C7496031884204D1C649C54A103AD16090
:1047500065E0C3497831884204D1C349C04A103A60
:10476000D1605CE0BE499031884204D1BF49BC4A67
:10477000103AD16053E0BA49A831884205D14FF0D0
:104780003D51B74A103AD16049E0B949884204D155
:104790003D21B74A083A116041E0B54918318842D5
:1047A00005D14FF47461B24A083A116037E0B0495C
:1047B0003031884205D14FF47411AD4A083A116086
:1047C0002DE0AB494831884205D14FF07461A84AC9
:1047D000083A116023E0A6496031884204D1A1491A
:1047E000A34A121F11601AE0A1497831884204D10E
:1047F0009D499F4A121F116011E09D4990318842E6
:1048000004D19A499A4A121F116008E09849A831C8
:10481000884204D14FF03D51954A121F11607047F4
:1048200010B500220268934B1A40CC680B682343F2
:104830004C6923438C692343CC6923430C6A23438B
:104840004C6A23438C6A23434C6B23438C6B234376
:104850001A430260426922F00702D1E90B34234374
:104860001A4342610B6943604B6883608B68C36085
:1048700010BD0021016041608160C1600161416142
:104880008161C161016241628162C1620163416310
:104890008163704721B1026842F00102026003E0C7
:1048A000026822F001020260704721B1026842F4FE
:1048B0000042026003E0026822F400420260704796
:1048C00021B1026842F02002026003E0026822F097
:1048D000200202607047416070470146486880B21C
:1048E000704722B1036843F40023036003E00368C8
:1048F00023F4002303600161704721B1026842F490
:104900008022026003E0026822F480220260704785
:104910000AB1016100E0C1607047014600200A68E9
:1049200012F4002F01D0012000E000207047014662
:1049300000200A6812F0010F01D0012000E00020E1
:104940007047014600204A6902F03800704730B5D0
:1049500003460A4600200024454DAB4202D240499E
:10496000103901E04249103912F0005F01D04C6863
:1049700000E00C68404D2C40144201D0012000E0C2
:10498000002030BD02463A4B9A4202D234481038D9
:1049900001E03748103811F0005F03D0364B0B4070
:1049A000C36002E0344B0B408360704710B511F0D8
:1049B000800F09D022B1436943F08003436103E0D3
:1049C000436923F08003436180290BD02AB1036837
:1049D00001F01E042343036004E0036801F01E0499
:1049E000A343036010BD70B50246002000240025DB
:1049F0001F4EB24202D21A4B103B01E01C4B103B3F
:104A00001E4E314206D01E2606EAD124166806EA5A
:104A1000040502E0566906F0800511F0005F01D040
:104A20005C6800E01C68144E34400C4202D00DB1AA
:104A3000012000E0002070BD02460D4B9A4202D2D8
:104A40000748103801E00A48103811F0005F03D021
:104A5000094B0B40C36002E0074B0B40836070477B
:104A6000106002403D000020400F002000003D206B
:104A7000106402403F801CF07D0F7D0F3C0F3C0F07
:104A800010B50121C802FFF752FA00214FF400606F
:104A9000FFF74DFA10BD00216B4A116847F6FF621F
:104AA0009143027D83681A4343681A43C3681A43DB
:104AB00003681A4303691A431143634A116070473C
:104AC00000210175016041608160C1600161704732
:104AD0005E49086070475C49091F086070475A4882
:104AE000001F006800F0030070470021564B1B1D9B
:104AF00002681A601A1D11686FF30A01D0E90123D8
:104B00001A43C3681A4303691A4311434E4A0832D1
:104B1000116070470021016041608160C1600161E6
:104B2000704749480C300068C0B2704708B501466C
:104B3000002000904448103008440090009800681D
:104B400008BD0021404B203302681A601B1D4268DB
:104B50001A601A1D116821F0F701D0E902231A43E7
:104B600003691A4343691A431143374A28321160D3
:104B700070474FF0FF310160002141608160C160EA
:104B800001614161704730482C30006870472E4801
:104B90007C30006870472C497C31086070472A4897
:104BA0004430006870472A49086070472849091D49
:104BB00008607047264908310860704724490C3165
:104BC00008607047234908607047234908607047B0
:104BD00001218143214A11607047214908607047D3
:104BE0001B4914390860704739B1174A38321268C6
:104BF0000243154B38331A6006E0134A3832126804
:104C00008243114B38331A607047014600200E4A28
:104C1000303212680A4201D0012000E000207047C3
:104C2000094934310860704701460020064A303295
:104C300012680A4201D0012000E0002070470249BA
:104C40003431086070470000042C0140A0802542E8
:104C5000A0852542AC812542B0812542B481254200
:104C6000B881254210B50446FA48844208D1012192
:104C70008014FFF75CF90021A014FFF758F93CE01D
:104C8000F548844208D101210014FFF73FF90021C3
:104C90002014FFF73BF930E0F048844208D10121AD
:104CA000C013FFF733F90021E013FFF72FF924E0D9
:104CB000EB48844208D101214014FFF738F9002164
:104CC0006014FFF734F918E0E648844209D1012165
:104CD0000805FFF72CF900214FF48010FFF727F9A2
:104CE0000BE0E148844208D101214805FFF71FF994
:104CF00000214FF40010FFF71AF910BD10B5002283
:104D0000028802F441520B884C8823438C88234349
:104D1000CC8823430C8923434C8923438C89234328
:104D2000CC8923431A430280838B4FF2FF742340C4
:104D300083830B8A038210BD2DE9F04F00250223E7
:104D400000244FF0010900220026002794469046D7
:104D5000B0F81CA04FF2400B0AEA0B0AA0F81CA006
:104D60004FF0020AA0F820A0858BD1F808A0BAF174
:104D7000020F01D100BF80E0B1F804A0BAF1000F2A
:104D800002D14FF0010901E04FF00209DFF8DCA287
:104D9000DAF800A01AF4000F09D0DFF8D0A2DAF890
:104DA00000A02AF4000ADFF8C4B2CBF800A0DFF8B4
:104DB000BCA20AF17C0ADAF800A0CAF3881CDFF86A
:104DC000ACA20AF17C0ADAF800A0CAF30278DFF894
:104DD0009CA2AAF1040ADAF800A00AF03F07DFF863
:104DE0008CA2AAF1040ADAF800A00AF4800ABAF543
:104DF000800F08D1DFF878A2BAFBF7FA0AFB0CFAA9
:104E0000BAFBF8F607E0DFF86CA2BAFBF7FA0AFB88
:104E10000CFABAFBF8F6B1F806A0BAF5007F0ED18D
:104E20004FEA162A0AEB8A0A4FEA4A0AD1F808B072
:104E3000BAFBFBFA0AF1050A1FFA8AF20FE04FEA01
:104E4000491AB6FBFAFA0AEB8A0A4FEA4A0AD1F87B
:104E500008B0BAFBFBFA0AF1050A1FFA8AF24FF012
:104E60000A0AB2FBFAF202F00104A2EB040ACAF346
:104E70004F034FF6FF7A0AEA0424022B01DBFF2BD3
:104E800001DD02230024B1F806A04AEA040A4AEA36
:104E9000030AA0F820A0B1F804A0B1F80CB04AEAC7
:104EA0000B0AB1F802B04AEA0B0AB1F800B04AEABC
:104EB0000B0A4AF4006A4AEA05058583BDE8F08FCB
:104EC0000021018041808180C180018141818181F7
:104ED000C1810721018270470021018041808180CA
:104EE000C1800221816000218181704721B1028847
:104EF00042F04002028004E002884FF6BF731A407D
:104F00000280704721B1828B42F48062828304E088
:104F1000828B4FF6FF331A408283704702884FF22C
:104F2000FF731A40028002880A4302807047B1F57D
:104F3000804F04D1028842F48042028004E002885B
:104F40004BF6FF731A4002807047A1F57E42FF3A8C
:104F500004D0028842F48072028004E002884FF696
:104F6000FF631A400280704721B1828842F0040238
:104F7000828004E082884FF6FB731A40828070477B
:104F800021B1828842F01002828004E082884FF6CC
:104F9000EF731A408280704730B500220023848B63
:104FA0004FF240052C40848302240484828B0C88B9
:104FB000B4F5007F01D00C8814B94FF4807308E079
:104FC0000C88B4F5407F03D00C88B4F5807F00D105
:104FD00000238C888D892C434D882C431C4344F43A
:104FE00000642243828330BD0146888970478181F5
:104FF000704721B1028842F40052028004E0028826
:105000004DF6FF731A4002807047018841F48051C9
:105010000180704702460020012901D0108B00E07A
:10502000908A70470146088A70471AB183880B43FB
:10503000838002E083888B438380704730B50024EF
:1050400000230C110125A540ABB2AAB185881D43F0
:10505000858014E00030014000380040003C0040F2
:105060000034014000500140005401400838024023
:1050700000127A000024F40085889D43858030BDAD
:105080000246002013890B4201D0012000E00020DD
:105090007047CA4302817047F0B5024600200024E1
:1050A0000023002501F00F070126BE40B4B20B110A
:1050B00001269E40B3B2968806EA03051689264269
:1050C00002D00DB1012000E00020F0BD10B500229B
:1050D00001F00F040123A3409AB2D343038110BD12
:1050E00010B50446FE48844208D101210846FEF767
:1050F0001EFF00210120FEF71AFF9DE0B4F1804F52
:1051000008D101210846FEF701FF00210120FEF72A
:10511000FDFE91E0F348844208D101210220FEF710
:10512000F5FE00210220FEF7F1FE85E0EE48844204
:1051300008D101210420FEF7E9FE00210420FEF73A
:10514000E5FE79E0E948844208D101210820FEF714
:10515000DDFE00210820FEF7D9FE6DE0E448844220
:1051600008D101211020FEF7D1FE00211020FEF70A
:10517000CDFE61E0DF48844208D101212020FEF706
:10518000C5FE00212020FEF7C1FE55E0DA4884422A
:1051900008D101210220FEF7CAFE00210220FEF7FD
:1051A000C6FE49E0D548844209D101210804FEF732
:1051B000BEFE00214FF48030FEF7B9FE3CE0D0483F
:1051C000844209D101214804FEF7B1FE00214FF4C9
:1051D0000030FEF7ACFE2FE0CA48844209D101211D
:1051E0008804FEF7A4FE00214FF48020FEF79FFE06
:1051F00022E0C548844208D101214020FEF786FE06
:1052000000214020FEF782FE16E0C048844208D10B
:1052100001218020FEF77AFE00218020FEF776FE35
:105220000AE0BB48844207D101218015FEF76EFEDB
:105230000021A015FEF76AFE10BD00220288A84BCF
:1052400098420ED0AC4B98420BD0B0F1804F08D0B2
:10525000A44B984205D0A44B984202D0A34B98424D
:1052600004D14FF68F731A404B881A43A04B9842D3
:1052700007D0A04B984204D04FF6FF431A400B8949
:105280001A4302804B68C3620B880385944B984293
:1052900002D0994B984201D18B7A038601238382F5
:1052A00070474FF0FF314160002101800181418052
:1052B000817270470185828270470A460021018809
:1052C0004FF68F7319401143018070474162704758
:1052D000C16270470146486A70470146088D7047B1
:1052E00021B1028842F00202028004E002884FF6F7
:1052F000FD731A400280704721B1028842F0040217
:10530000028004E002884FF6FB731A400280704767
:1053100021B1028842F08002028004E002884FF648
:105320007F731A400280704702884FF6F7731A4065
:10533000028002880A430280704702884FF6FF43CA
:105340001A40028002880A430280704721B1028815
:1053500042F00102028004E002884FF6FE731A4018
:105360000280704770B5002400220023058C4FF6A0
:10537000FE7635400584028C8388048B4FF68F754A
:105380002C40B51E2C400D882C43751E2A408D895B
:105390002A434D882A43524DA84202D0564DA84276
:1053A00013D14FF6F7752A40CD892A434FF6FB7586
:1053B0002A408D882A434FF6FF652B404FF6FF5554
:1053C0002B400D8A2B434D8A2B43838004838D68A9
:1053D0004563028470BD70B5002400220023058C53
:1053E0004FF6EF7635400584028C8388048B48F6AF
:1053F000FF752C404FF6FF452C400D884FF6FF7689
:1054000006EA05252C434FF6DF752A408D8906EA0A
:1054100005152A434D8806EA05152A43304DA84252
:1054200002D0354DA8421DD14FF67F752A40CD8957
:105430004FF6FF7606EA05152A434FF6BF752A4058
:105440008D8806EA05152A434FF6FF352B404FF2AB
:10545000FF752B400D8A06EA85052B434D8A06EA27
:1054600085052B43838004838D688563028470BD2A
:1054700070B5002400220023058C4FF6FF663540EE
:105480000584028C8388848B4FF68F752C404FF6F1
:10549000FC752C400D882C434FF6FF552A408D8912
:1054A0004FF6FF7606EA05252A434D8806EA0525CC
:1054B0002A430B4DA84202D00F4DA84238D14FF2DB
:1054C000FF752A40CD894FF6FF7606EA05252A4367
:1054D0004FF6FF352A408D8806EA05252A4319E054
:1054E000000001400004004000080040000C0040A3
:1054F0000010004000140040000401400040014042
:10550000004401400048014000180040001C0040D9
:10551000002000404EF6FF752B404DF6FF752B40E6
:105520000D8A06EA05152B434D8A06EA05152B431D
:10553000838084838D68C563028470BD70B500224A
:1055400000230024058C4EF6FF7635400584038C3D
:105550008488828B48F6FF752A404FF6FF452A4023
:105560000D884FF6FF7606EA05252A434DF6FF75AE
:105570002B408D8906EA05352B434D8806EA053513
:105580002B43FE4DA84202D0FD4DA84208D14BF658
:10559000FF752C400D8A4FF6FF7606EA85152C43E1
:1055A000848082838D680564038470BD002101803E
:1055B0004180818081608181C18101824182704707
:1055C00070B50346002000241846183001258D4090
:1055D000ACB21D8CA5431D8409B108290AD100EB8A
:1055E000610005684FF68F76354005600568154304
:1055F00005600FE00D1FC5F34E052844056848F609
:10560000FF763540056005684FF6FF7606EA02260C
:105610003543056070BD4163704781637047C16366
:105620007047016470470A460021018B4FF68F7363
:1056300019401143018370470A460021018B48F647
:10564000FF7319404FF6FF7303EA022319430183E6
:1056500070470A460021818B4FF68F731940114322
:10566000818370470A460021818B48F6FF731940F9
:105670004FF6FF7303EA02231943818370470A46FA
:105680000021018B4FF6F7731940114301837047D6
:105690000A460021018B4FF2FF7319404FF6FF734A
:1056A00003EA02231943018370470A460021818BD4
:1056B0004FF6F77319401143818370470A46002162
:1056C000818B4FF2FF7319404FF6FF7303EA0223F9
:1056D0001943818370470A460021018B4FF6FB7303
:1056E00019401143018370470A460021018B4FF690
:1056F000FF3319404FF6FF7303EA02231943018376
:1057000070470A460021818B4FF6FB731940114305
:10571000818370470A460021818B4FF6FF33194081
:105720004FF6FF7303EA02231943818370470A4649
:105730000021018B4FF67F7319401143018370479D
:105740000A460021018BC1F30E014FF6FF7303EAF5
:1057500002231943018370470A460021818B4FF6CB
:105760007F7319401143818370470A460021818B62
:10577000C1F30E014FF6FF7303EA0223194381833D
:1057800070470A460021018C4FF6FD731940114302
:10579000018470470A460021018C4FF6F7731940C7
:1057A0001143018470470A460021018C4FF6DF73D4
:1057B00019404FF6FF7303EA02131943018470473F
:1057C0000A460021018C4FF67F7319404FF6FF7394
:1057D00003EA02131943018470470A460021018C31
:1057E0004FF6FF5319404FF6FF7303EA02231943A4
:1057F000018470470A460021018C4FF2FF73194063
:105800004FF6FF7303EA02231943018470470A46E7
:105810000021018C4DF6FF7319404FF6FF7303EA28
:10582000023319430184704730B5002301248C40B2
:10583000A3B2048C9C430484048C02FA01F5ADB23B
:105840002C43048430BD30B5002304248C40A3B223
:10585000048C9C430484048C02FA01F5ADB22C4301
:10586000048430BD828B4FF2FF331A408283828BD7
:105870004FF6FF7303EA01231A4382837047F0B5A2
:105880000C461546002100220026078C4EF6FF7CB0
:1058900007EA0C070784818B028C4FF6FF7707EA33
:1058A000043640F6FF4739404FF6FF7707EA0527F1
:1058B00039434FF6FF7707EA0337394345F6FF7759
:1058C0003A4046F480573A4381830284F0BD828B8C
:1058D0004FF6F3731A408283828B0A4382837047A8
:1058E000F0B50C461546002100220026078C4FF625
:1058F000FF6C07EA0C070784818B028C4FF6FF7759
:1059000007EA04264FF60C7739404FF6FF7707EA8F
:1059100003172F4339434FF2FF573A4046F480773D
:105920003A4381830284F0BD028B4FF2FF331A4069
:105930000283028B4FF6FF7303EA01231A430283AB
:105940007047F0B50C461546002100220026078C52
:105950004FF6EF7C07EA0C070784018B028C4FF6A9
:10596000FF7707EA041640F6FF4739404FF6FF7706
:1059700007EA033739434FF6FF7703E000000140A1
:105980000004014007EA052739434FF65F773A40A4
:1059900046F010073A4301830284F0BD028B4FF6B4
:1059A000F3731A400283028B0A4302837047F0B5F7
:1059B0000C46154600210022068C4FF6FE773E402D
:1059C0000684018B028C4FF60C7631407E1C06EA71
:1059D00003162E4331434FF6F576324044F001066C
:1059E000324301830284F0BD70B505460C46208821
:1059F00050B92389A28861882846FFF7D8FFE1883B
:105A00002846FFF7CBFF25E0208804280AD1238908
:105A1000A28861882846FFF794FFE1882846FFF7AF
:105A200083FF17E0208808280AD12389A28861888B
:105A30002846FFF755FFE1882846FFF748FF09E0B1
:105A40002389A28861882846FFF719FFE188284644
:105A5000FFF708FF70BD0021018041800121818096
:105A60000021C180018170472DE9F04105460C46B7
:105A700000260127608808B9022600E00026A088D9
:105A8000012801D1022700E001272088A0B923893D
:105A9000A28861882846FFF78AFFE1882846FFF739
:105AA0007DFF23893A4631462846FFF74AFFE188C1
:105AB0002846FFF739FF13E02389A288618828462A
:105AC000FFF73FFFE1882846FFF72EFF23893A467C
:105AD00031462846FFF76BFFE1882846FFF75EFF57
