:020000040800F2
:10000000C0230020291000084D1000084F100008E0
:100010005110000853100008551000085710000830
:100020005710000857100008571000085710000814
:100030005710000857100008239A00081F360008C0
:10004000A7070008B1070008BB070008C50700089C
:10005000CF070008D9070008E3070008ED070008EC
:10006000F7070008010800080B0800081508000839
:100070001F08000829080008330800083D08000888
:1000800047080008510800085B08000865080008D8
:100090006F08000879080008830800088D08000828
:1000A00097080008A1080008AB080008B508000878
:1000B000BF080008C9080008D3080008DD080008C8
:1000C000E7080008F1080008FB0800080509000817
:1000D0000F09000819090008230900082D09000864
:1000E00037090008410900084B09000855090008B4
:1000F0005F09000869090008730900087D09000804
:1001000087090008910900089B090008A509000853
:10011000AF090008B9090008C3090008CD090008A3
:10012000D7090008E1090008EB090008F5090008F3
:10013000FF090008090A0008130A00081D0A000840
:10014000270A0008310A00083B0A0008450A00088F
:100150004F0A0008590A0008630A00086D0A0008DF
:10016000770A0008810A00088B0A0008950A00082F
:100170009F0A0008A90A0008B30A0008BD0A00087F
:10018000C70A0008D10A0008DB0A0008ED0A0008C7
:10019000F70A0008010B00080B0B0008150B0008FC
:1001A0001F0B0008290B0008330B0008DFF80CD0E8
:1001B00009F0F4FB0048004763020008C023002058
:1001C000704770470EB500F0C2F801F037FB00F041
:1001D00037F9044635480068B4FBF0F5284603F0CB
:1001E00038FA01F0CFFD01F0A1FD02A806F03EFCB7
:1001F000002000F02CF9FFF7E4FFFFF7E1FF2FE00C
:10020000012000F086F902A8002164230A46CDE906
:100210000010084608F050FA022000F07AF902A80F
:10022000002164230A46CDE90010084608F044FA8C
:10023000032000F06EF902A8002164230A46CDE9EC
:100240000010084608F038FA042000F062F902A80D
:10025000002164230A46CDE90010084608F02CFA74
:10026000CEE700B58BB000F034FA0AA803F0ADFA7F
:100270000AA8032100220592CDE906210890114623
:1002800080220B48006B0A4BCDE90130CDE90321F8
:1002900002200023074A08A100900B4806F029FF1E
:1002A0000AA803F0A6FC00200BB000BD9C9C00082F
:1002B000A4010020C5010008417070205461736BD7
:1002C0002053746172740000EC0000201CB5002003
:1002D00000F0F7FC1020009001208DF804000020B1
:1002E0008DF8060001208DF8070002208DF805002A
:1002F0006946E74808F07EFF062000F0E2FC08208F
:10030000009001208DF8040000208DF806000120E7
:100310008DF8070002208DF805006946DD4808F0D9
:1003200069FF042000F0CDFC0C20009001208DF826
:10033000040000208DF8060001208DF8070002203F
:100340008DF805006946D44808F054FF1CBD70B50F
:1003500000F001FAD148006840F00100CF49086080
:100360000020CE4908310860CC480068CC490840DC
:10037000CA490860CB48091D0860081F006820F4BE
:100380008020091F08600846006820F47F0008608C
:100390000846006840F48030086000BF6D1CB5F569
:1003A000A06F05D2BD480068012131EA5040F5D167
:1003B000B5F5A06F00D170BD0024B84808300468BE
:1003C00024F0F00400BF0460046824F4604444F4A2
:1003D00000440460046824F4E05444F4A05404602D
:1003E000B148AE49091D0860081F006840F08070E0
:1003F000091F086000BFA9480068012131EA506068
:10040000F9D1AA48006840F00500A84908600846EC
:10041000006840F4E0600860A0480830006840F0E0
:1004200002009E490831086000BF9C4808300068FF
:1004300000F00C000828F8D1FFF748FF00BFBAE72A
:100440001FB5684609F087F8019804B010BD10B5D3
:100450000446052C29D2DFE804F00314191E2300FA
:1004600010218B4808F042FF08218A4808F03EFF1F
:100470000421894808F03AFF0821874808F036FF30
:1004800014E01021824808F031FF0FE00821814874
:1004900008F02CFF0AE004217F4808F027FF05E060
:1004A00008217D4808F022FF00E000BF00BF10BD1A
:1004B00010B50446052C29D2DFE804F00314191EF8
:1004C00023001021724808F013FF0821714808F03A
:1004D0000FFF0421704808F00BFF08216E4808F058
:1004E00007FF14E010216A4808F002FF0FE008211E
:1004F000684808F0FDFE0AE00421674808F0F8FEAD
:1005000005E00821644808F0F3FE00E000BF00BFEA
:1005100010BD70B50546052D7ED2DFE805F0033726
:10052000495B6D005A4808F0DDFE044684F0100473
:1005300004F01001564808F0D9FE102020EA04010A
:10054000534808F0D5FE534808F0CCFE044684F02A
:10055000080404F008014F4808F0C8FE082020EA0B
:1005600004014C4808F0C4FE4B4808F0BBFE0446AA
:1005700084F00C0404F00C01474808F0B7FE0C208E
:1005800020EA0401444808F0B3FE4AE0404808F07D
:10059000A9FE044684F0100404F010013C4808F061
:1005A000A5FE102020EA0401394808F0A1FE38E039
:1005B000384808F097FE044684F0080404F0080167
:1005C000344808F093FE082020EA0401314808F07E
:1005D0008FFE26E0304808F085FE044684F00404CF
:1005E00004F004012C4808F081FE042020EA0401F4
:1005F000294808F07DFE14E0274808F073FE044601
:1006000084F0080404F00801234808F06FFE082075
:1006100020EA0401204800E002E008F069FE00E062
:1006200000BF00BF70BD10B5FFF70AFF04462048A9
:10063000006840F080701E49086000201D49486035
:100640000846006840F001000860204601F067F9A4
:1006500010BD1849486870472DE9F0478246FFF7FA
:10066000EFFE4FF000098046134A002340464946FA
:1006700009F044F9064632460B465046002109F07F
:100680003DF904460D4620462946BDE8F0870000A6
:1006900000000240001802400010024000380240F2
:1006A000FFFFF6FE1030002408544007003C0240D3
:1006B000FCED00E0001000E040420F00704710B574
:1006C00004465B2C04D204F11001C8B200F020FDF6
:1006D00010BD10B500F0C8FC10BD10B504465B2C71
:1006E00004D204F11001C8B200F0B7FD10BD70B51E
:1006F00004460D4600265B2C10D200BF00BF00F060
:10070000B7FC064600BF00BFF64840F8245000BFC3
:1007100000BF304600F0B0FC00BF00BF70BD70B538
:1007200004460D4600265B2C13D200BF00BF00F02C
:100730009FFC064600BF00BF04F11001C8B2294665
:1007400000F083FE00BF00BF304600F095FC00BF04
:1007500000BF70BD704710B5002404E0E249204698
:10076000FFF7C5FF641C5B2CF8D310BD70B50446C1
:10077000002600BF00BF00F07BFC064600BF00BFA4
:1007800003F0AAF800BF00BF304600F075FC00BFC0
:1007900000BF5B2C04D2D34850F8245005B1A847C1
:1007A00003F0ABF870BD10B50020FFF7DFFF10BD00
:1007B00010B50120FFF7DAFF10BD10B50220FFF7DA
:1007C000D5FF10BD10B50320FFF7D0FF10BD10B549
:1007D0000420FFF7CBFF10BD10B50520FFF7C6FFC3
:1007E00010BD10B50620FFF7C1FF10BD10B50720E2
:1007F000FFF7BCFF10BD10B50820FFF7B7FF10BD15
:1008000010B50920FFF7B2FF10BD10B50A20FFF7A1
:10081000ADFF10BD10B50B20FFF7A8FF10BD10B540
:100820000C20FFF7A3FF10BD10B50D20FFF79EFFB2
:1008300010BD10B50E20FFF799FF10BD10B50F20A9
:10084000FFF794FF10BD10B51020FFF78FFF10BD0C
:1008500010B51120FFF78AFF10BD10B51220FFF769
:1008600085FF10BD10B51320FFF780FF10BD10B538
:100870001420FFF77BFF10BD10B51520FFF776FFA2
:1008800010BD10B51620FFF771FF10BD10B5172071
:10089000FFF76CFF10BD10B51820FFF767FF10BD04
:1008A00010B51920FFF762FF10BD10B51A20FFF731
:1008B0005DFF10BD10B51B20FFF758FF10BD10B530
:1008C0001C20FFF753FF10BD10B51D20FFF74EFF92
:1008D00010BD10B51E20FFF749FF10BD10B51F2039
:1008E000FFF744FF10BD10B52020FFF73FFF10BDFC
:1008F00010B52120FFF73AFF10BD10B52220FFF7F9
:1009000035FF10BD10B52320FFF730FF10BD10B527
:100910002420FFF72BFF10BD10B52520FFF726FF81
:1009200010BD10B52620FFF721FF10BD10B5272000
:10093000FFF71CFF10BD10B52820FFF717FF10BDF3
:1009400010B52920FFF712FF10BD10B52A20FFF7C0
:100950000DFF10BD10B52B20FFF708FF10BD10B51F
:100960002C20FFF703FF10BD10B52D20FFF7FEFE72
:1009700010BD10B52E20FFF7F9FE10BD10B52F20C9
:10098000FFF7F4FE10BD10B53020FFF7EFFE10BDED
:1009900010B53120FFF7EAFE10BD10B53220FFF789
:1009A000E5FE10BD10B53320FFF7E0FE10BD10B519
:1009B0003420FFF7DBFE10BD10B53520FFF7D6FE63
:1009C00010BD10B53620FFF7D1FE10BD10B5372091
:1009D000FFF7CCFE10BD10B53820FFF7C7FE10BDE5
:1009E00010B53920FFF7C2FE10BD10B53A20FFF751
:1009F000BDFE10BD10B53B20FFF7B8FE10BD10B511
:100A00003C20FFF7B3FE10BD10B53D20FFF7AEFE52
:100A100010BD10B53E20FFF7A9FE10BD10B53F2058
:100A2000FFF7A4FE10BD10B54020FFF79FFE10BDDC
:100A300010B54120FFF79AFE10BD10B54220FFF718
:100A400095FE10BD10B54320FFF790FE10BD10B508
:100A50004420FFF78BFE10BD10B54520FFF786FE42
:100A600010BD10B54620FFF781FE10BD10B5472020
:100A7000FFF77CFE10BD10B54820FFF777FE10BDD4
:100A800010B54920FFF772FE10BD10B54A20FFF7E0
:100A90006DFE10BD10B54B20FFF768FE10BD10B500
:100AA0004C20FFF763FE10BD10B54D20FFF75EFE32
:100AB00010BD10B54E20FFF759FE10BD10B54F20E8
:100AC000FFF754FE10BD10B55020FFF74FFE10BDCC
:100AD00010B55120FFF74AFE10BD10B55220FFF7A8
:100AE00045FE10BDA40300205507000810B5532093
:100AF000FFF73CFE10BD10B55420FFF737FE10BDC8
:100B000010B55520FFF732FE10BD10B55620FFF787
:100B10002DFE10BD10B55720FFF728FE10BD10B5F3
:100B20005820FFF723FE10BD10B55920FFF71EFE19
:100B300010BD10B55A20FFF719FE10BD70B506465E
:100B4000FFF77EFC0546672E7BD034DC192E63D080
:100B50000FDC182E6DD2DFE806F04E4F5051525385
:100B60005455565758B259B2B2B2B2B25AB25B5C8F
:100B70005D5E262E59D00BDCA6F11A000C28E9D2B6
:100B8000DFE800F04C4D4B4E4F9D509D9D9D5152C6
:100B9000632E52D008DC402E48D0602E4AD0612E01
:100BA00049D0622E45D147E0642E47D0652E46D00D
:100BB000662EF7D144E0A6F1680033287FD2DFE843
:100BC00000F0417E7E427E7E43447E454647484952
:100BD0004A4B7E4C4D7E4E4F50515F607E7E61622F
:100BE0007E7E636465666768697E6A6B6C7E6D6E27
:100BF0006F7E7E7E700000BF00BF00BF00BF00BFE1
:100C000000BF00BF00BF00BF00BF00BF00BF00BFEC
:100C100000BF00BF00BF00BF00BF00BF00BF00BFDC
:100C200000BF00BF00BF00BF00BF00BF284670BDAF
:100C300007E044E000BF00BF00BF00BF00BF00BF2F
:100C400000BF00BF00BF00BF00BF00BF00BF00BFAC
:100C500000BF00BF00BF00BF00BF00BF00BF00BF9C
:100C600000BF00BFEF480068C0F38224042C01D20B
:100C70002846DCE7E01E4400B5FBF4F52846D6E73D
:100C800000BF00BF00BF00BF00BF00BF00BF00BF6C
:100C900000BF00BF00BF00BF00BF00BF00BF00BF5C
:100CA00000BFE0480068C0F34234042C01D228465B
:100CB000BDE7E01E4400B5FBF4F52846B7E7002089
:100CC000B5E7672875D034DC1A2865D00FDC6FD201
:100CD000DFE800F04F50515253545556575859CDF4
:100CE0005ACDCDCDCDCD5BCD5C5D5E5FCD6027288F
:100CF00064D00BDCA0F11B010C29E8D2DFE801F085
:100D00004D4B4E4FB75AB7B7B75B5C5D632870D099
:100D100008DC40285ED0602868D0612867D062284F
:100D200046D165E0642865D0652864D06628F7D18F
:100D300062E0A0F168013329C9D2DFE801F05F98D1
:100D40009860989861629863646566676869986A54
:100D50006B986C6D6E6F7B7C98987D7E98987F8089
:100D600081828384859886878898898A8B989898C9
:100D70008C0000BF00BF00BF00BF00BF00BF00BFAE
:100D800000BF00BF00BF00BF00BF00BF00BF00BF6B
:100D900000BF00BF00BF00BF00BF00BF00BFA14930
:100DA000283109680122824011439E4A283211608D
:100DB0005DE022E000BF00BF00BF00BF99492C31B9
:100DC0000968A0F12002012393401943954A2C326F
:100DD00011604CE0934930310968A0F140020123D1
:100DE000934019438F4A3032116040E000BF00BF8A
:100DF00000BF00BF00BF00BF00BF00BF00BF00BFFB
:100E000000BF00BF00BF00BF00BF00BF00BF00BFEA
:100E100000BF00BF00BF00BF00BF00BF8149383125
:100E20000968A0F160020123934019437D4A3832DA
:100E300011601CE000BF00BF00BF00BF00BF00BFCB
:100E400000BF00BF00BF00BF00BF00BF00BF00BFAA
:100E500000BF00BF00BF73493C310968A0F18002A8
:100E60000123934019436F4A3C32116000BF00BF19
:100E70007047672875D034DC1A2865D00FDC6FD234
:100E8000DFE800F04F50515253545556575859CD42
:100E90005ACDCDCDCDCD5BCD5C5D5E5FCD602728DD
:100EA00064D00BDCA0F11B010C29E8D2DFE801F0D3
:100EB0004D4B4E4FB75AB7B7B75B5C5D632870D0E8
:100EC00008DC40285ED0602868D0612867D062289E
:100ED00046D165E0642865D0652864D06628F7D1DE
:100EE00062E0A0F168013329C9D2DFE801F05F9820
:100EF0009860989861629863646566676869986AA3
:100F00006B986C6D6E6F7B7C98987D7E98987F80D7
:100F100081828384859886878898898A8B98989817
:100F20008C0000BF00BF00BF00BF00BF00BF00BFFC
:100F300000BF00BF00BF00BF00BF00BF00BF00BFB9
:100F400000BF00BF00BF00BF00BF00BF00BF3549EA
:100F500028310968012282409143324A28321160C7
:100F60005DE022E000BF00BF00BF00BF2D492C3173
:100F70000968A0F12002012393409943294A2C32A9
:100F800011604CE0274930310968A0F1400201238B
:100F900093409943234A3032116040E000BF00BFC4
:100FA00000BF00BF00BF00BF00BF00BF00BF00BF49
:100FB00000BF00BF00BF00BF00BF00BF00BF00BF39
:100FC00000BF00BF00BF00BF00BF00BF15493831E0
:100FD0000968A0F16002012393409943114A383215
:100FE00011601CE000BF00BF00BF00BF00BF00BF1A
:100FF00000BF00BF00BF00BF00BF00BF00BF00BFF9
:1010000000BF00BF00BF07493C310968A0F1800262
:10101000012393409943034A3C32116000BF00BF53
:101020007047000008380240DFF83000016841F4E2
:1010300070010160BFF34F8FDFF82400016821F0D9
:1010400040410160BFF36F8F06480047FEE7FEE7AF
:10105000FEE7FEE7FEE7FEE7FEE7000088ED00E0C2
:1010600034EF00E0AD01000872B6704762B6704719
:10107000EFF3108072B6704780F31088704730BF6E
:10108000704720BF7047B0FA80F0704790FAA0F028
:10109000B0FA80F0704790FAA0F0704710B5B0F148
:1010A000005F0AD3FE4CA04207D8440104EB810341
:1010B00003F10852002414600CE0B0F1804F09D312
:1010C000F84CA04206D8440104EB810303F18442AA
:1010D0000024146010BD10B5B0F1005F0AD3F04CCD
:1010E000A04207D8440104EB810303F10852012414
:1010F00014600CE0B0F1804F09D3EA4CA04206D84E
:10110000440104EB810303F184420124146010BD07
:101110002DE9F04104464FF00008102C6BD2DFE8B7
:1011200004F0080E0F1014293E090A0B0C11120DC1
:10113000135300BF00BF00BF00BF00BF8AE000BF65
:1011400000BF00BF00BF00BF84E000BF00BFFFF7CB
:101150008FFF804600BF00BFD348006820F4803076
:10116000D149086000BF00BF4046FFF785FF00BFC0
:1011700000BF6FE000BF00BFFFF77AFF804600BFEF
:1011800000BFC948006820F40030C749086000BFAC
:1011900000BF4046FFF770FF00BF00BF5AE000BF2E
:1011A00000BFFFF765FF804600BF00BFBE48006874
:1011B00020F48020BC49086000BF00BF4046FFF714
:1011C0005BFF00BF00BF45E000BF00BFFFF750FF5F
:1011D000804600BF00BF4FF0E020006920F0010012
:1011E0004FF0E021086100BF00BF4046FFF744FF19
:1011F00000BF00BF2EE04FF0E0204068401C1021EF
:1012000001EB4010C6B2B44223DAA4F11000C117BA
:1012100000EBD161C1F34715C11700EBD161491152
:10122000A0EB4111CFB200BF00BFFFF721FF804606
:1012300000BF00BF0120B8404FF0E02101EB850165
:10124000C1F8800100BF00BF4046FFF715FF00BF97
:1012500000BF00BF00BFBDE8F0812DE9F0410446AA
:101260004FF00008102C6BD2DFE804F0080E0F10CE
:1012700014293E090A0B0C11120D135300BF00BFB5
:1012800000BF00BF00BF8AE000BF00BF00BF00BFBB
:1012900000BF84E000BF00BFFFF7EAFE804600BF4A
:1012A00000BF8148006840F480307F49086000BF7B
:1012B00000BF4046FFF7E0FE00BF00BF6FE000BF89
:1012C00000BFFFF7D5FE804600BF00BF764800682C
:1012D00040F400307449086000BF00BF4046FFF78B
:1012E000CBFE00BF00BF5AE000BF00BFFFF7C0FE4B
:1012F000804600BF00BF6C48006840F480206A4907
:10130000086000BF00BF4046FFF7B6FE00BF00BF49
:1013100045E000BF00BFFFF7ABFE804600BF00BF47
:101320004FF0E020006940F001004FF0E02108613B
:1013300000BF00BF4046FFF79FFE00BF00BF2EE08A
:101340004FF0E0204068401C102101EB4010C7B274
:10135000BC4223DAA4F11000C11700EBD161C1F344
:101360004715C11700EBD1614911A0EB4111CEB275
:1013700000BF00BFFFF77CFE804600BF00BF01201A
:10138000B0404FF0E02101EB8501C1F8000100BF42
:1013900000BF4046FFF770FE00BF00BF00BF00BFA8
:1013A000BDE8F0812DE9F04104464FF00008102C13
:1013B00019D2DFE804F0080E0F10111516090A0BF8
:1013C0000C12130D141700BF00BF00BF00BF00BFF9
:1013D00038E000BF00BF00BF00BF00BF00BF00BFBC
:1013E00000BF00BF2EE04FF0E0204068401C1021FD
:1013F00001EB4010C7B2BC4223DAA4F11000C117C0
:1014000000EBD161C1F34715C11700EBD161491160
:10141000A0EB4111CEB200BF00BFFFF729FE80460E
:1014200000BF00BF0120B0404FF0E02101EB85017B
:10143000C1F8800200BF00BF4046FFF71DFE00BF9D
:1014400000BF00BF00BFBDE8F0812DE9F0470646B0
:101450000D464FF0000A102E72D2DFE806F0080E9B
:101460000F10112E44090A0B0C5A720D889F00BFF1
:1014700000BF00BF00BF00BFE0E000BF00BFDDE075
:1014800000BF00BFFFF7F4FD824600BF00BF064863
:101490000C38046824F0FF042C43046000BF05E00E
:1014A000FFFF0F20FFFF0F4024ED00E000BF50467C
:1014B000FFF7E2FD00BF00BFC0E000BF00BFFFF7C5
:1014C000D7FD824600BF00BFC948046824F47F44AA
:1014D00044EA0524046000BF00BF5046FFF7CCFD7E
:1014E00000BF00BFAAE000BF00BFFFF7C1FD8246FA
:1014F00000BF00BFBE48046824F47F0444EA0544EA
:10150000046000BF00BF5046FFF7B6FD00BF00BF3C
:1015100094E000BF00BFFFF7ABFD824600BF00BFF5
:10152000B348001D046824F07F4444EA0564046065
:1015300000BF00BF5046FFF79FFD00BF00BF7DE02A
:1015400043E000BF00BFFFF793FD824600BF00BF2E
:10155000A7480830046824F0FF042C43046000BF4F
:1015600000BF5046FFF788FD00BF00BF66E000BF28
:1015700000BFFFF77DFD824600BF00BF9C480830DA
:10158000046824F47F0444EA0544046000BF00BFFB
:101590005046FFF771FD00BF00BF4FE000BF00BF26
:1015A000FFF766FD824600BF00BF9148083004681F
:1015B00024F07F4444EA0564046000BF00BF504645
:1015C000FFF75AFD00BF00BF38E04FF0E020406851
:1015D000401C102101EB401000F0FF094E452CDAB1
:1015E000A6F11000C11700EB9171C1F38707C11775
:1015F00000EB91718910A0EB810101F0FF0800BFA1
:1016000000BFFFF735FD824600BF00BF794850F8A4
:1016100027404FEAC801FF20884084434FEAC801B1
:1016200005FA01F00443734840F8274000BF00BFAB
:101630005046FFF721FD00BF00BF00BF00BFBDE85F
:10164000F0872DE9F04706464FF0000A102E70D2C1
:10165000DFE806F0080F1215182A3D090A0B0C499D
:101660005C0D708400BF00BF00BF00BF00BF624CB4
:10167000BAE06FF00204B7E06FF00104B4E04FF09D
:10168000FF34B1E000BF00BFFFF7F2FC824600BFAD
:1016900000BF57480568ECB200BF00BF5046FFF7D7
:1016A000EBFC00BF00BF9FE000BF00BFFFF7E0FC06
:1016B000824600BF00BF4E480568C5F3072400BF3F
:1016C00000BF5046FFF7D8FC00BF00BF8CE000BF52
:1016D00000BFFFF7CDFC824600BF00BF444805684D
:1016E000C5F3074480E000BF00BFFFF7C1FC82469E
:1016F00000BF00BF3E48001D05682C0E00BF00BFA4
:101700005046FFF7B9FC00BF00BF6DE000BF00BF4F
:10171000FFF7AEFC824600BF00BF354808300568C1
:10172000ECB200BF00BF5046FFF7A6FC00BF00BFF1
:101730005AE026E000BF00BFFFF79AFC824600BFD8
:1017400000BF2B4808300568C5F3074400BF00BF41
:101750005046FFF791FC00BF00BF45E000BF00BF4F
:10176000FFF786FC824600BF00BF214808300568AD
:101770002C0E00BF00BF5046FFF77EFC00BF00BF2D
:1017800032E04FF0E0204068401C102101EB401097
:1017900000F0FF094E4525DAA6F11000C11700EB55
:1017A0009171C1F38707C11700EB91718910A0EB0C
:1017B000810101F0FF0800BF00BFFFF759FC82461E
:1017C00000BF00BF0B4850F8275000BF00BF504675
:1017D000FFF752FC00BF00BF4FEAC80025FA00F037
:1017E000C4B200E0044C00BF00BF2046BDE8F08753
:1017F00018ED00E000E400E00080FFFF10B50024D9
:1018000000BF00BFFFF734FC044600BF00BF10213B
:10181000A34800F0FCFA00BF00BF2046FFF72CFCF5
:1018200000BF00BF10BD10B5FFF7E8FF10BD10B539
:1018300000209C490860FEF7F6FE10BD10B5FFF7CA
:10184000F6FFFFF7F0FF10BD00BFFEE770B50546DD
:101850000C46002614B900BFFFF7F6FF15B90A20A1
:10186000208070BD00BF00BFFFF702FC064600BF2E
:1018700000BF10228A49284600F080FF00BF00BF49
:101880003046FFF7F9FB00BF00BF0020208000BFFB
:10189000E7E72DE9F04105460C46002714B900BFE3
:1018A000FFF7D2FF1DB90A202080BDE8F08110218A
:1018B000284600F04BFF0646102E15D200BF00BF91
:1018C000FFF7D6FB074600BF00BF10222946744829
:1018D00000F054FF00BF00BF3846FFF7CDFB00BF4C
:1018E00000BF0020208002E04FF47A70208000BF0B
:1018F000DBE710B5FEF7ADFE0446204610BD70478D
:1019000000B5014611B900BFFFF79EFF654A106898
:1019100008B1002201E04FF4FA620A8000BD61497B
:101920000860704770B505462846FFF7ACFB0446D3
:10193000183C204670BD70B505462846FFF7A3FB4E
:101940000446103C204670BD70B505462846FFF79A
:101950009AFB044600BF204670BD30B502460B46D8
:101960004FF0FF354FF00004AD1A9C4127D24FF0E5
:10197000FF352C0CAD1A9C410FD24FF0FF352C0ACD
:10198000AD1A9C4103D2190E474C605C45E0190C1E
:10199000454C645C04F108003FE04FF0FF35FF2444
:1019A000AD1A9C4105D2190A3F4C645C04F1100049
:1019B00033E019463C4C645C04F118002DE04FF60E
:1019C000FF750024AD1A9C4115D26FF07F450024AD
:1019D000AD1A9C4107D2140E44EA0321324C645CD8
:1019E00004F1200019E0140C44EA03412E4C645C1D
:1019F00004F1280011E0FF250024AD1A9C4107D214
:101A0000140A44EA0361284C645C04F1300004E0E9
:101A10001146254C645C04F1380030BD70B50446B5
:101A20000CB9082070BD2046FFF730FB054628465C
:101A3000F8E770B504460CB9102070BD2046FFF7DA
:101A400025FB05462846F8E770B504460CB920206A
:101A500070BD2046FFF71AFB05462846F8E72DE93A
:101A6000F04304460D464FF0000184EA010085EA88
:101A70000101084302D14020BDE8F083E243E8437E
:101A8000521C40F1000102EA040601EA0507304653
:101A90003946FFF762FF8046C8F13F094846EBE749
:101AA0001005002000000020A49A000801464129EA
:101AB00003DB5A2901DC012200E00022012A08D0C0
:101AC000612903DB7A2901DC012200E00022012ADE
:101AD00001D1012200E00022104670470146412951
:101AE00003DB5A2901DC012200E00022012A08D090
:101AF000612903DB7A2901DC012200E00022012AAE
:101B000001D1012200E00022012A08D0302903DBA4
:101B1000392901DC012200E00022012A01D1012241
:101B200000E00022104670470146612903DB7A2954
:101B300001DC012200E000221046704701464129E5
:101B400003DB5A2901DC012200E000221046704725
:101B50000146302903DB392901DC012200E00022A3
:101B6000104670470146302903DB372901DC01228A
:101B700000E00022104670470146302901DB392978
:101B800007DD412901DB462903DD612903DB6629E5
:101B900001DC012200E000221046704701462029A6
:101BA00001D0092901D1012200E00022104670472E
:101BB0000146202909D00D2907D00A2905D00C2972
:101BC00003D0092901D00B2901D1012200E0002214
:101BD000104670470146202903DB7E2901DC0122E3
:101BE00000E00022104670470146212903DB7E29D0
:101BF00001DC012200E00022104670470146202946
:101C000003DB7E2901DC012200E00022012A35D11C
:101C1000202909D00D2907D00A2905D00C2903D085
:101C2000092901D00B2901D1012200E000222ABBA1
:101C3000412903DB5A2901DC012200E00022012AAC
:101C400008D0612903DB7A2901DC012200E00022AF
:101C5000012A01D1012200E00022012A08D0302906
:101C600003DB392901DC012200E00022012A01D135
:101C7000012200E000220AB9012200E00022104601
:101C8000704701464AB2002A01DB1F2901DD7F2986
:101C900001D1012200E0002210467047014641298F
:101CA00003DB5A2901DC012200E00022012A02D1D3
:101CB00001F1200200E00A46D0B2704701466129D6
:101CC00003DB7A2901DC012200E00022012A02D193
:101CD000A1F1200200E00A46D0B27047F0B50446F8
:101CE0000B462046FFF7EAFF05461846FFF7E6FFDA
:101CF0000646B54201D1012000E0002007463846E3
:101D0000F0BD000070B50446002500BF00BFFFF71E
:101D1000AFF9054600BF00BF1848046000BF00BF10
:101D20002846FFF7A9F900BF00BF70BD10B501201C
:101D3000FFF7E8FF10BD014643F23902104B03FBE9
:101D4000012222F00040704770B5002600BF00BF9E
:101D5000FFF78EF9064600BF00BF08480568284611
:101D6000FFF7E9FF04460548046000BF00BF3046A6
:101D7000FFF782F900BF00BF204670BD04000020BD
:101D80006D4EC641FC48FD4901600146416000219D
:101D90008160C160016141618161C1610162016372
:101DA000C1624162F6498163C1634FF4806101649D
:101DB00041640146F34A116070472DE9F041054640
:101DC0000B4694460027002402E03F021F43641C98
:101DD000042CFAD3604605F00306294646B1344682
:101DE00003E001F8013B401E641C08B1042CF8D349
:101DF0000A4601E080C2001F0428FBD2114602E01F
:101E000001F8013B401E0028FAD1BDE8F08130B551
:101E100005460C46224600212846FFF7CEFF30BD7E
:101E20002DE9F04F85B007468846914646463D4627
:101E3000AE4207D94A464146384601F01DF905B081
:101E4000BDE8F08F4C4607EB0900451E08EB090082
:101E5000461EA81B04900498042834D305F0030000
:101E6000029006F003010191DDE90110884201D1E1
:101E7000012000E0002000900098012823D1029862
:101E8000032810D0029840B2039008E016F8010928
:101E900005F80109641E0398401E40B2039014B176
:101EA00003980028F2DAA5F1030AA6F1030B04E077
:101EB0005BF804094AF80409241F042CF8D20AF13B
:101EC00003050BF1030604E016F8010905F8010902
:101ED000641E002CF8D100BFB1E72DE9F84F804611
:101EE0008946154615B90120BDE8F88FB8F1000FF5
:101EF00001D10020F8E7B9F1000F01D10020F3E78C
:101F00000124294608EB050209EB050302F0030C46
:101F100003F0030BDC4501D1012000E0002000901C
:101F20000098012829D1BCF1000F12D0E2460AE046
:101F3000521E5B1E107893F800E0704500D000241C
:101F4000491EAAF1010A012C03D111B1BAF1000F07
:101F5000EED1012C11D116461F4608E0361F3F1F57
:101F60003068D7F800E0704500D00024091F012C2C
:101F700001D10429F2D232463B4608E0521E5B1ED4
:101F8000107893F800E0704500D00024491E012C21
:101F900001D10029F2D12046A6E7F0B503460E464E
:101FA0001546D96BB1FBF5F005FB101CBCF1000F19
:101FB00002D0A5EB0C0200E000229419586CA0425C
:101FC00001D20020F0BD0F191144DF63586C001BD3
:101FD00058640846F6E72DE9F04106460F46B6FB81
:101FE000F3FC03FB1C6109B15C1A00E00024B2FBA6
:101FF000F3FC03FB1C2109B15D1A00E0002502EB94
:102000000508A7F1010C08FB0C4C0CEB0200BDE825
:10201000F0812DE9FE4F8046894614461E46002079
:1020200000900CB901AC00BF00202060524F00BFEF
:1020300000BFFFF71DF8009000BF00BFF86B0290D3
:10204000D7F844B04B46424601210298FFF7C3FF40
:1020500005465D450FD900BF00BF0098FFF70CF89B
:1020600000BF00BFA5EB0B00206042F2E2703080A1
:102070000020BDE8FE8F4A4641463846FFF78DFFF7
:102080008246BAF1000F0CD100BF00BF0098FEF7E6
:10209000F3FF00BF00BF256042F2E27030800020F5
:1020A000E7E700BF00BF0098FEF7E6FF00BF00BFF4
:1020B00042F2107030805046DBE72DE9FC5F0746A6
:1020C0000C4690460020009000BF00BFFEF7D0FFF6
:1020D000009000BF00BFD7F80490D9F8380008B1CD
:1020E000484600E024488246DAF84450DAF83CB02A
:1020F00000BF00BF0098FEF7BFFF00BF00BF012C6C
:102100000AD9BBFBF4F004FB10B60EB1A01B00E033
:102110000020019001982D1A42F21070A8F80000DA
:102120002846BDE8FC9F70B504460D462A46214668
:102130001148FFF7C2FF0646304670BD18B942F29B
:1021400011720A807047104A026000224260826069
:10215000C260026142618261C26102628262426364
:102160000263C26242628263C2630264426442F2F8
:1021700010720A8000BFE5E7200500204845415065
:1021800068050020080000204E4F4E452DE9FF4F06
:1021900091B00446DDE9208900200090B8F1000FDD
:1021A00002D10DF1180800BF0020C8F80000494610
:1021B0002046FFF7C3FFB9F80000A0F51C51103905
:1021C00002D015B0BDE8F08FFE48006820B942F299
:1021D000E770A9F80000F4E7DFF8ECA30020059011
:1021E00000BF00BFFEF744FF009000BF00BF129881
:1021F00080BB5546AB462E46DAF83C000D900423D2
:102200001A4614990D98FFF7E6FE049004990D986C
:1022100008440C90DDE91E2314990C98FFF7DBFEAF
:102220000390DDE9030108440590DAF8447005984D
:10223000B8427DD900BF00BF0098FEF71DFF00BF68
:1022400000BF0598C01BC8F8000042F2E270A9F870
:102250000000B6E7FFE712980B90DDE91201084491
:10226000401E0A900025AB46D64806683BE0B16B9D
:102270001298814205D1316C1398814201D13546C3
:1022800033E0B06B0990316CB06B0844401E08908D
:10229000DDE90901814200D227E009990B988842C3
:1022A00003D8DDE9091088420FD209990B988842BA
:1022B00003D308990A98884207D908990B9888424D
:1022C0000FD808990A9888420BD300BF00BF009826
:1022D000FEF7D2FE00BF00BF42F27F70A9F80000F7
:1022E0006FE7B346F668002EC1D100BF45B9254659
:1022F0001298A0631298E0631398206413986064A6
:10230000DAF83C000D9004231A4614990D98FFF753
:1023100062FE0490DAF844700498B84211D900BF04
:1023200000BF0098FEF7A8FE00BF00BF049800E0C1
:1023300024E0C01BC8F8000042F2E270A9F80000D7
:102340003FE7E86B0C90DDE91E2314990C98FFF72A
:1023500042FE03906F6C0398B8420FD900BF00BFD4
:102360000098FEF789FE00BF00BF0398C01BC8F8A5
:10237000000042F2D870A9F8000022E7149880000B
:102380000290042250460299FFF707FE0F900F9823
:1023900030BBDAF8447000BF00BF0098FEF76CFE57
:1023A00000BF00BF129858B90598B84204D90598E3
:1023B000C01BC8F800000EE00598C8F800000AE04D
:1023C0000298B84204D90298C01BC8F8000002E085
:1023D0000298C8F8000042F2E270A9F80000F0E6A6
:1023E0000020019034E02846DDE91E12FFF7D5FDFC
:1023F0000E900E9820BBE86B0C906F6C00BF00BF76
:102400000098FEF739FE00BF00BF01991498401AEA
:102410000790DDE91E2307990C98FFF7DCFD059076
:102420000598B84204D90598C01BC8F8000002E01E
:102430000598C8F8000042F2D870A9F80000C0E67C
:10244000019ADDE90E0141F822000198401C01903B
:10245000149901988842C6D3A5420DD1C4F808B09A
:10246000E660BBF1000F02D0CBF80C4001E055480C
:1024700004605EB1B46009E068691090256110984D
:1024800060616C61109808B1109804614F48206039
:1024900065600C98A06103990C980844401EE061A7
:1024A0000F9820620398A0621F9860631E982063B3
:1024B0001498E0621498606200BF00BF0098FEF7B5
:1024C000DBFD00BF00BF42F21070A9F8000000BFA2
:1024D00077E62DE9F04104460D46002700BF00BF16
:1024E000FEF7C6FD074600BF00BF666A00BF00BF1B
:1024F0003846FEF7C1FD00BF00BF42F210702880D1
:102500003046BDE8F0812DE9F04104468846154685
:10251000002700BF00BFFEF7ABFD074600BF00BFAE
:10252000606A60B900BF00BF3846FEF7A5FD00BF76
:1025300000BF42F2DE7028800020BDE8F081E16A31
:10254000606A88420BD900BF00BF3846FEF794FD91
:1025500000BF00BF42F2957028800020EDE7606A5E
:10256000401E6062D4E9080150F8216000BF00BF3E
:102570003846FEF781FD00BF00BF42F21070288090
:102580003046DAE72DE9F04704460F4615464FF08E
:10259000000900BF00BFFEF76BFD814600BF00BF12
:1025A000E06AC01B461EE06AB04213D800BF00BFFD
:1025B0004846FEF761FD00BF00BF42F295702880DB
:1025C000002005E00800002020050020504F4F4C5F
:1025D000BDE8F087606AB0420BD900BF00BF484633
:1025E000FEF74AFD00BF00BF42F295702880002030
:1025F000E7E7206A50F8268000BF00BF4846FEF794
:102600003BFD00BF00BF42F2107028804046D8E773
:102610002DE9F04704460E4617464FF0000A00BF6A
:1026200000BFFEF725FD824600BF00BFE16A606A79
:1026300088420BD300BF00BF5046FEF71DFD00BF10
:1026400000BF42F2DD703880BDE8F0874FF000082F
:10265000656A08E0206A50F82590B14502D14FF034
:10266000010803E06D1CE06AA842F3D800BFB8F18E
:10267000010F06D1D4E9080150F82100216A41F880
:102680002500D4E9080140F82160606A401C6062BE
:1026900000BF00BF5046FEF7EFFC00BF00BF42F294
:1026A0001070388000BFCFE72DE9F84F04460F4681
:1026B0001646002000904FF0FF3B00BF00BFFEF722
:1026C000D7FC009000BF00BFE16A606A88420CD36B
:1026D00000BF00BF0098FEF7CFFC00BF00BF42F272
:1026E000DD7030805846BDE8F88F4FF00009656A0C
:1026F00008E0206A50F82580B84502D14FF0010962
:1027000003E06D1CE06AA842F3D800BFB9F1010FE5
:102710000FD1E06A401EA0EB050A00BF00BF009881
:10272000FEF7AAFC00BF00BF42F210703080504696
:10273000D9E700BF00BF0098FEF79EFC00BF00BFB6
:1027400042F2887030805846CDE7000010B502464E
:102750000B461146002001E0491C401C19B10C78C1
:102760000CB19842F8D310BD30B504464FF0FF319C
:102770002046FFF7EBFF0546284630BD70B50446FE
:102780000D4616460CB9002070BD0DB90020FBE7C0
:1027900021462A46002304E010780870491C521C88
:1027A0005B1C21B11AB1107808B1B342F4D301B166
:1027B0000AB90020E8E7B34201D2002008702046A1
:1027C000E2E770B504460D464FF0FF322946204639
:1027D000FFF7D4FF0646304670BD70B503460C4681
:1027E00015460BB9002070BD0CB90020FBE70DB9F0
:1027F0001846F8E7194600E0491C11B1087800288E
:10280000FAD109B90020EEE72246002604E010784C
:102810000870491C521C761C21B11AB1107808B1FD
:10282000AE42F4D301B10AB90020DCE70020087001
:102830001846D8E770B504460D464FF0FF322946DA
:102840002046FFF7CAFF0646304670BD2DE9F0432B
:1028500005460B469446BCF1000F02D10020BDE8AE
:10286000F08335B90BB90020F9E7187842421046D9
:10287000F5E713B92A781046F1E729461C460F46BA
:1028800026467F1C761C4FF0000805E0491C641C9E
:102890007F1C761C08F10108087894F800904845E0
:1028A00005D1087818B117B10EB1E045EED3E04577
:1028B00001D10020D3E7087894F80090484505D06E
:1028C000087894F80090A0EB09020BE0087808B9AA
:1028D000002207E02FB90EB9002203E0307842420F
:1028E00000E03A781046BAE770B504460D464FF05E
:1028F000FF3229462046FFF7A9FF0646304670BD45
:102900002DE9F74F82B080460E46049818B9002092
:1029100005B0BDE8F08FB8F1000F09D10EB9002065
:10292000F6E73078FFF7BAF907467C422046EFE732
:102930003EB998F80000FFF7B1F905462C4620464D
:10294000E6E7C146B246C846C3465646CDF804A09F
:10295000D8460BF1010B019E701C0190C84699F8F6
:102960000000FFF79BF9054656469AF80000FFF76E
:1029700095F907460020009015E009F101090AF1D8
:10298000010A0BF1010B0198401C01900098401CBA
:10299000009099F80000FFF781F905469AF80000C9
:1029A000FFF77CF90746BD420BD199F8000040B112
:1029B000BBF1000F05D0019818B104990098884226
:1029C000DBD304990098884201D10020A0E7BD42E2
:1029D00001D0EC1B16E00DB9002413E0BBF1000F91
:1029E0000AD1019808B900240CE001990878FFF792
:1029F00055F907467C4205E09BF80000FFF74EF9C9
:102A000005462C46204683E770B504460D464FF038
:102A1000FF3229462046FFF773FF0646304670BD59
:102A200030B504460B4615460CB9002030BD0BB935
:102A30000020FBE72146002201E0491C521C31B175
:102A4000087820B10878A84201D09A42F5D309B994
:102A50000020EBE79A4201D30020E7E70878A8427C
:102A600001D00020E2E70846E0E770B505460C46D5
:102A700022464FF0FF312846FFF7D2FF0646304688
:102A800070BD2DE9F04305460E46174615B90020E6
:102A9000BDE8F0830EB90020FAE72C46A6F1010943
:102AA00049462046FFF752FE804644440CB90020B8
:102AB000EEE700E0641EAC4202D02078B842F9D1C3
:102AC0002078B84201D00020E2E72046E0E770B568
:102AD00005460C4622464FF0FF312846FFF7D1FF4E
:102AE0000646304670BD70B504460D4616460CB914
:102AF000002070BD0BB90020FBE721461A4605E017
:102B00000878A84200D10E70491C521E19B10878ED
:102B100008B1002AF4D12046EBE7F0B504460D4693
:102B200016464FF0FF33324629462046FFF7DBFFBB
:102B300007463846F0BD2DE9FF4F06460F461546BD
:102B40001EB9002004B0BDE8F08F0FB90020F9E7EE
:102B50000DB90020F6E7681C00D001E04FF0FF300F
:102B6000039029463046FFF7F1FD80463846039929
:102B7000FFF7ECFD04460CB93046E3E7444501D9C4
:102B80000020DFE706EB080BBBF1000F01D10020AE
:102B9000D8E707EB040BBBF1000F01D10020D1E710
:102BA000A8EB040002904FF000090020019000BF44
:102BB00006EB09000090224639460098FFF746FED2
:102BC0008246BAF1000F01D1012000E000200190FF
:102BD00009F10109019810B902988145E8D9BAF1C3
:102BE000000F01D00020ADE70098ABE770B50446B8
:102BF0000D464FF0FF3229462046FFF79CFF064660
:102C0000304670BD2DE9FF4F8DB00F4615461A9E18
:102C10001D9818B9002011B0BDE8F08F0020039076
:102C20000490012F01DA01200390022D01D3242DFD
:102C300001D90120039096B33046FEF7CBFF0290F6
:102C40000298012802D00120039028E0302E26D0DF
:102C5000A6F13000C0B207901B98012804D0A6F15D
:102C60004100C0B2069003E0A6F16100C0B2069038
:102C70000A2D02D80798A84209DB0A2D09D907981E
:102C80000A2804D3A5F10A000699884201D9012037
:102C900000E0002005900598012800D103901D9CBC
:102CA0000398002846D1DDF834A0DDF834A0CDF833
:102CB00030A001200B9007E00B98401CC0B20B9095
:102CC0000C98B0FBF5F00C900C98A842F4D2109838
:102CD000012800D100E0002009900B9909980844D0
:102CE000B84225DC002001900B98B84201DA0B981D
:102CF00000E038460A903EB1B8460A98391A099859
:102D0000081AC0B2089006E0DDE90910084400F096
:102D1000FF08002008900898002806DD302E01D119
:102D2000012000E00020049004E00020049001E075
:102D300001200390039800B1B84644441C9808B1A0
:102D400000202070641E4FF0000941E00398A8BBEA
:102D5000BAF1000F02D1B9F1000F1CD1BAFBF5F0A6
:102D600005FB10A000F0FF0BBBF10A0F04D20BF122
:102D7000300004F801090BE01B98012804D00BF186
:102D8000370004F8010903E00BF1570004F80109CA
:102D9000BAFBF5FA1AE01098012810D1049808B986
:102DA000019828B1049850B1A8F10100484506D116
:102DB0002D2004F801090120019007E003E02EB165
:102DC00004F8016902E03F2004F8010909F1010952
:102DD000C145BBD3039808B100201CE71D981AE732
:102DE0002DE9FF5F05460E4617461C46DDE90F9AA2
:102DF000DDF8388000233A46314628468DE8100732
:102E0000FFF700FF8346584604B0BDE8F09F2DE968
:102E1000FF4F85B0044689461F46DDE913AB002C01
:102E200002DA6542012601E0254600261298334663
:102E3000CDE902ABCDE9007049462846079AFFF775
:102E4000E1FE8046404609B0BDE8F08F2DE9FF4F16
:102E50008BB0064689461546B9F1000F02D10DF137
:102E6000240900BFC9F80060189810B907A8189085
:102E700000BF0021189801701EB900200FB0BDE8F6
:102E8000F08F012D01D0242D01D90020F6E7344622
:102E90002078FEF78DFE039004E0641C2078FEF796
:102EA00087FE039003980128F7D020782B2802D0C2
:102EB0002D280BD103E0641C4FF0000B09E00E98A5
:102EC000012800D1641C4FF0010B02E04FF0000B11
:102ED00000BF00BF0A9425B1082D1CD0102D36D19B
:102EE0001EE02078302814D1641C2078582802D0A5
:102EF00078280BD100BF102567783846FEF73CFED6
:102F00008246BAF1010F00D1641C01E0082500BF20
:102F100000E00A251CE02078302800D1641C17E06E
:102F20002078302812D1641C2078582802D07828C4
:102F30000AD100BF67783846FEF71EFE8246BAF116
:102F4000010F00D1641C00E000BF00BF00E000BF23
:102F500000BF4FF0000800200290019040E0277869
:102F60003846FEF7BBFD05900598012836D1384656
:102F7000FEF7EEFD06900698012804D1A7F1300077
:102F8000C0B208900FE03846FEF7CEFD04900498DA
:102F9000012804D1A7F15700C0B2089003E0A7F1BF
:102FA0003700C0B208900898A84214DA029880B995
:102FB000304850F82500404509D308FB05F808982B
:102FC00080440898804504D20120029001E001204D
:102FD0000290641C04E00120019001E001200190B6
:102FE00001980028BBD00298012801D14FF0FF388A
:102FF0000A98844202D0C9F8004001E0C9F8006094
:10300000189880F800B0404638E7F8B504460D46F9
:103010001646002003463246294600902046FFF718
:1030200015FF07463846F8BD2DE9FC4105460E461A
:10303000174601A801233A46314600902846FFF77B
:1030400005FF04469DF8040040B9B4F1004F02D3D7
:103050006FF0004000E02046804607E0B4F1004FEA
:1030600002D34FF0004000E0604280464046BDE899
:10307000FC810000A89B0008002800D170470029AF
:1030800000D17047002A00D170472DE9F81F00F0E9
:10309000030301F00304A34211D1C3F1040303F0BD
:1030A0000303012B1DD3012A00D2F2E011F8014BDA
:1030B00000F8014BA3F10103A2F10102F1E700F0D6
:1030C000010301F00104A34200D094E0012B44D39A
:1030D00011F8014B00F8014BA3F10103A2F1010229
:1030E000F4E7B2F5B47F26D3B1E8F81FA0E8F81FE3
:1030F000B1E8F81FA0E8F81FB1E8F81FA0E8F81F32
:10310000B1E8F81FA0E8F81FB1E8F81FA0E8F81F21
:10311000B1E8F81FA0E8F81FB1E8F81FA0E8F81F11
:10312000B1E8F81FA0E8F81FB1E8F81FA0E8F81F01
:10313000A2F5B472D5E7282A06D3B1E8F81FA0E8B3
:10314000F81FA2F12802F6E7042A06D351F8043B3F
:1031500040F8043BA2F10402F6E7202A42D331F8FA
:10316000023B20F8023B31F8023B20F8023B31F8E9
:10317000023B20F8023B31F8023B20F8023B31F8D9
:10318000023B20F8023B31F8023B20F8023B31F8C9
:10319000023B20F8023B31F8023B20F8023B31F8B9
:1031A000023B20F8023B31F8023B20F8023B31F8A9
:1031B000023B20F8023B31F8023B20F8023B31F899
:1031C000023B20F8023B31F8023B20F8023B31F889
:1031D000023B20F8023B31F8023B20F8023BA2F10F
:1031E0002002BAE7022A06D331F8023B20F8023B5C
:1031F000A2F10202F6E7102A42D311F8013B00F8CF
:10320000013B11F8013B00F8013B11F8013B00F8CC
:10321000013B11F8013B00F8013B11F8013B00F8BC
:10322000013B11F8013B00F8013B11F8013B00F8AC
:10323000013B11F8013B00F8013B11F8013B00F89C
:10324000013B11F8013B00F8013B11F8013B00F88C
:10325000013B11F8013B00F8013B11F8013B00F87C
:10326000013B11F8013B00F8013B11F8013B00F86C
:10327000013B11F8013B00F8013BA2F11002BAE753
:10328000012A06D311F8013B00F8013BA2F101022B
:10329000F6E7BDE8F81F704710B5F948006810B1AF
:1032A000F7480068804710BDF6480068F64909688D
:1032B00000EB8100F54908600846006820F007002F
:1032C0000860704710B5F248006810B1F048006817
:1032D000804710BD10B50446EE48006818B120467E
:1032E000EC490968884710BD10B50446EA480068F3
:1032F00018B12046E8490968884710BD10B5044652
:10330000E648006818B12046E4490968884710BDBE
:10331000F0B50446DDE9055602EB850020F0070014
:103320004FF0807C071F3846C7F800C0071F38469B
:103330003C60DFF86CC3071F3846C7F800C04FF089
:10334000123C071F3846C7F800C04FF0033C071F68
:103350003846C7F800C04FF0023C071F3846C7F890
:1033600000C0071F38463B60071F384639604FF0E2
:10337000113C071F3846C7F800C04FF0103C071F2C
:103380003846C7F800C04FF0093C071F3846C7F859
:1033900000C04FF0083C071F3846C7F800C04FF088
:1033A000073C071F3846C7F800C04FF0063C071F10
:1033B0003846C7F800C04FF0053C071F3846C7F82D
:1033C00000C04FF0043C071F3846C7F800C016F095
:1033D000040F7CD04FF0007C071F3846C7F800C0B0
:1033E000DFF8C0C2071F3846C7F800C0DFF8B8C210
:1033F000071F3846C7F800C0DFF8B0C2071F3846BD
:10340000C7F800C0DFF8A8C2071F3846C7F800C0D9
:10341000DFF8A0C2071F3846C7F800C0DFF898C21F
:10342000071F3846C7F800C0DFF890C2071F3846AC
:10343000C7F800C0DFF888C2071F3846C7F800C0C9
:10344000DFF880C2071F3846C7F800C0DFF878C22F
:10345000071F3846C7F800C0DFF870C2071F38469C
:10346000C7F800C0DFF868C2071F3846C7F800C0B9
:10347000DFF860C2071F3846C7F800C0DFF858C23F
:10348000071F3846C7F800C0DFF850C2071F38468C
:10349000C7F800C04FF0834C071F3846C7F800C07C
:1034A000DFF83CC2071F3846C7F800C0DFF834C257
:1034B000071F3846C7F800C0DFF82CC2071F384680
:1034C000C7F800C0DFF824C2071F384600E049E013
:1034D000C7F800C0DFF818C2071F3846C7F800C099
:1034E000DFF810C2071F3846C7F800C0DFF808C26F
:1034F000071F3846C7F800C04FF0824C071F3846F8
:10350000C7F800C0DFF8F4C1071F3846C7F800C08D
:10351000DFF8ECC1071F3846C7F800C0DFF8E4C188
:10352000071F3846C7F800C04FF0814C071F3846C8
:10353000C7F800C0DFF8D0C1071F3846C7F800C081
:103540004FF0804C071F3846C7F800C04FF07E5C34
:10355000071F3846C7F800C04FF0000C071F384659
:10356000C7F800C0F0BD10B56848006890F83C008E
:1035700010F0040F04D065490968086806F020FAC5
:103580006348006890F83C0010F0040F04D06049D4
:103590000968086806F021FA5E48006810B15D48C5
:1035A00000688047FDF755F80446584800685849B8
:1035B0000968884215D055480068D0F88C00201A58
:1035C00052490968C1F8880050480068D0F8900056
:1035D0004E490968D1F8881008444C490968C1F877
:1035E00090004B480068C0F88C4048480068D0F80C
:1035F000A80049490968884205D2474800684349FC
:103600000968C1F8A80000204349086010BD10B542
:103610004248006810B141480068804710BD10B5AD
:10362000002400BF00BFFDF723FD044600BF00BF1C
:103630003B480078401C3A49087000BF00BF204654
:10364000FDF71AFD00BF00BF05F0CBF900F055F9FA
:1036500010BD01464A1E4FF0E0235A61314A1068FE
:1036600020F07F4000BF10601A46126942F0050248
:103670001A611A46126942F002021A61704700008C
:1036800024000020689C00086C9C00080C000020AE
:1036900028000020180000201C000020200000202E
:1036A000A78100080000F8410000F0410000E84157
:1036B0000000E0410000D8410000D0410000C841B6
:1036C0000000C0410000B8410000B0410000A84126
:1036D0000000A04100009841000090410000884196
:1036E0000000704100006041000050410000404176
:1036F0000000304100002041000010410000E04087
:103700000000C0400000A04000004040D400002065
:10371000D80000202C00002068000020300000208D
:103720003800002020ED00E070470000002419E080
:1037300000BF00BFFDF79CFC044600BF00BFFE4871
:103740000068401CFC490860FC480068401CFB49BC
:10375000086000BF00BF2046FDF78EFC00BF00BF21
:10376000FFF79AFDE4E710B58AB004460020F2495D
:1037700008600B2000210591CDE907040691084659
:10378000EF490968EF4A1268EF4B1B68CDE9013237
:10379000CDE903103F200023AFF26F02EBA10090B0
:1037A000EF4803F0A6FC0AB010BD00210AE001EBCF
:1037B0004102EC4B03EB8200002202810260426076
:1037C0004A1CD1B24029F2D3704770B50446FFF7C6
:1037D0006BFD0020E4490870E4490870E449087072
:1037E000E4490860E4490860E4490870E449087065
:1037F000E4490870E4490860E4490860E449086065
:10380000E448006858B1E448056845B1E1480668F5
:1038100003E0761E002028602D1D002EF9D1002027
:10382000DE490860DE490860DE490860DE4908605C
:10383000DE490860DE490860DE490860DE4908703C
:1038400002F070F9FFF7B1FF204601F085FB2088F8
:1038500000B170BD204601F07EFC208800B1F8E781
:10386000204601F087FC208800B1F2E7204602F0F4
:1038700045F9208800B1ECE7204602F0ECFC2088F6
:1038800000B1E6E7204603F05CF8208800B1E0E7ED
:10389000204604F07FFC208800B1DAE72046FFF7DD
:1038A00062FF208800B1D4E7204604F07DFD208827
:1038B00000B1CEE7204603F0C2FA208800B1C8E785
:1038C000204605F08AFB208800B1C2E700F006FD23
:1038D000FFF72AFF00BFBCE7A4480078012800D00A
:1038E0007047A1480078FA2800DBF9E79E48007885
:1038F000401C9D49087000BFF2E710B500249B48AA
:103900000078012800D010BD00BFFDF7B1FB0446D0
:1039100000BF9548007828B900BF2046FDF7ACFBF2
:1039200000BFF0E790480078401E8F4908700846B5
:103930000078002805DD00BF2046FDF79DFB00BF95
:10394000E1E78B480078002805DD00BF2046FDF741
:1039500093FB00BFD7E702F0EFF8894908700846EB
:10396000007800EB40007F4951F820008249086050
:10397000084600687F490968884205D100BF204693
:10398000FDF77AFB00BFBEE77B480068D0F88400F3
:10399000401C79490968C1F8840088480068401CC7
:1039A0008649086006F038F800BF2046FDF764FB42
:1039B00000BF00BFA7E710B500246B4800780028BF
:1039C00000DD10BD6A480078002800DDF9E700BF7F
:1039D000FDF74EFB044600BF02F0AEF868490870E0
:1039E0000846007800EB40005E4951F8200062492B
:1039F0000860084600685F490968884205D100BF31
:103A00002046FDF739FB00BFDBE75B480068D0F8D4
:103A10008400401C58490968C1F884006748006860
:103A2000401C6649086005F0F2FF00BF2046FDF724
:103A300023FB00BF00BFC4E710B54D480078012844
:103A400003D1FCF706FE5049086010BD70B504466E
:103A5000002545480078002803DD46F662502080A6
:103A600070BD42480078012803D045F68960208067
:103A7000F6E73F480078FA2803DB45F2092020806A
:103A8000EEE700BF00BFFDF7F3FA054600BF00BF39
:103A900037480078401C36490870FFF7CDFF00BF5B
:103AA00000BF2846FDF7E8FA00BF00BF00202080D5
:103AB00000BFD5E710B52E48007880B9FCF7C9FDE6
:103AC00031490968441A31480068A04201D22F48A0
:103AD00004602F480068A04201D22D48046010BD48
:103AE00070B50446002520480078002803DD46F61E
:103AF0006550208070BD1D480078012803D045F630
:103B000089602080F6E71A48007818B946F66450B4
:103B10002080EFE700BF00BFFDF7AAFA054600BF0F
:103B200000BF13480078401E11490870084600780D
:103B300000284FDD00BF43E0340000207C0000205F
:103B4000449C0008409C00083C9C000875432F4F93
:103B5000532D4949492049646C65205461736B00B9
:103B6000A81900206C1A002038000020390000201D
:103B70006C000020D4000020D8000020520000205B
:103B8000530000205400002060000020640000204A
:103B9000680000206C9C0008689C00081800002049
:103BA0001C0000202000002024000020280000200D
:103BB0002C000020300000209A00002090000020FF
:103BC00000BF2846FDF758FA00BF00BF46F6635015
:103BD00020808FE7FFF76EFF00BF00BF2846FDF78C
:103BE0004BFA00BF00BFFFF7E6FE0020208000BFB9
:103BF00080E710B50446FB480078E8B901F09CFF67
:103C0000F949087008460078F8490870F6480078C5
:103C100000EB4000F64951F82000F64908600846DC
:103C20000068F54908600120EE49087005F0DEFEE5
:103C300043F69920208002E045F68A60208010BD7E
:103C400001460020088047F2C160704730B548B196
:103C50004568C1F8B45000F10804226893681D6AF1
:103C6000C56113E091F83450022D02D0072D08D120
:103C700003E0E2A5C1F8B45007E0E2A5C1F8B450F2
:103C800003E0E3A5C1F8B45000BF00BF30BDF0B5FC
:103C90008E6896F8375007893FB9012707810027BA
:103CA0004F600F600160416023E007897F1C07813E
:103CB000026806E0946894F83770AF4200DD02E0D5
:103CC0005268002AF6D100BF32B900274F6043681E
:103CD0000B60596041600CE017682FB91160002734
:103CE0000F604A60016004E013680B604A6059602D
:103CF0001160F0BD10B5C287016300230AE0002403
:103D00004C600C600C614C610C83CC61886020318C
:103D10005C1CA3B29342F2DB10BD2DE9F0410546D5
:103D200095F8370000EB4000B14901EB80042F69A2
:103D3000EE6887B946B9002020812060606095F860
:103D4000370001F01BFF0EE02089401E208100207B
:103D50003061266007E02089401E2081FE600EB998
:103D6000676000E0376100202861E860BDE8F0810D
:103D700070B504460D4645B12A462146A54804F0D3
:103D80005AFB032084F8360002E0022084F8360053
:103D90002046FFF7C2FF70BD2DE9F04105460C46F5
:103DA00016461F469448006880F834600020924907
:103DB000096881F8350039468F480068FFF7D8FF59
:103DC0006CB104F10808EC60012229468A480068B9
:103DD000FFF790FF29464046FFF759FF06E0002015
:103DE00085490968C8878449096808638248016869
:103DF0002046FFF72BFFBDE8F08110B50489012CA8
:103E000003D100240460446011E00C6824B94A68BE
:103E10000024146002600AE04C6824B90B68002496
:103E20005C60436003E00B684A685A601360048971
:103E3000641E048100244C600C6010BD2DE9F0412B
:103E40000446256BE68F0AE0D5F80C8008F10807D8
:103E500029463846FFF7D1FF2035701E86B2002E66
:103E6000F2DC0020E0872063BDE8F08130B5034636
:103E7000086BCC8F08E0C5689D4202D10361C26126
:103E800004E02030651EACB2002CF4DC00BF30BD75
:103E900010B590F8373003EB4303554C04EB830126
:103EA0000B893BB901230B810023C36003610860C8
:103EB000486009E00B895B1C0B810B68C360002321
:103EC00003610A681061086010BD10B590F83730C2
:103ED00003EB4303464C04EB83010B893BB90123FD
:103EE0000B810023C36003610860486008E00B8910
:103EF0005B1C0B810023C3604A680261D06048608C
:103F000010BD10B5044694F8370001F027FE94F870
:103F1000370036490978884203D12046FFF7D5FF9C
:103F200002E02046FFF7B4FF10BD70B505460C4611
:103F3000164694F8360008286FD2DFE800F0040532
:103F400008090607313200BF00BF00BF66E000BFAE
:103F500094F83400032804D1324621462846FFF75E
:103F600085FF00202065A4F85400266415B1204682
:103F7000FFF764FF94F83600032802D1204604F0CE
:103F8000F7FA2046FFF7BDFF002004F13404A070CB
:103F90004FF0010060704FF0000004F834093DE07C
:103FA00000BF94F83400032804D132462146284645
:103FB000FFF75CFF00202065A4F85400266415B1CB
:103FC0002046FFF73BFF204604F0D2FA042004F11C
:103FD0003404A0704FF0010060704FF0000004F84E
:103FE00034091BE03900002053000020520000205B
:103FF0006C1A0020D8000020D40000205461736B9C
:10400000205100005461736B2053656D0000000067
:1040100020000000AC000020FFE700BF00BF70BD23
:1040200030B5AFF21405C1F8B45000F108042268AD
:104030001AB193681D6AC56102E0AFF22C05C56133
:1040400030BD2DE9F04304460F4684F83770256BE8
:10405000B4F83E8013E0D5F80C9009F108063089D9
:10406000012807D929463046FFF7C7FE29463046C2
:10407000FFF70DFE2035A8F101001FFA80F8B8F116
:10408000000FE8D1BDE8F0830021016041600181AB
:10409000704703895B1C038103684B6000230B603E
:1040A000026802B1116001600389012B00D14160F7
:1040B000704730B50346086BCC8F08E0C5689D4259
:1040C00002D10361C26104E02030651EACB2002C55
:1040D000F4DC00BF30BD70B506460C46154694F8BA
:1040E0003600082852D2DFE800F004050809060768
:1040F000303100BF00BF00BF49E000BF94F834007A
:10410000032804D12A4621463046FFF7D2FF00207B
:104110002065A4F8540025642046FFF78FFE94F82C
:104120003600032802D1204604F022FA2046FFF789
:10413000E8FE002004F13404A0704FF0020060702B
:104140004FF0000004F8340921E000BF94F8340077
:10415000032804D12A4621463046FFF7AAFF002053
:104160002065A4F8540025642046FFF767FE20462A
:1041700004F0FEF9042004F13404A0704FF00200B2
:1041800060704FF0000004F8340900E000BF00BF89
:1041900070BDF0B50446059E086BCD8F0AE0C76878
:1041A000A74204D1046142610383C66104E0203068
:1041B0006F1EBDB2002DF2DC00BFF0BD2DE9F8434B
:1041C00006460C4617469846089D94F8360008287F
:1041D0005ED2DFE800F0040508090607333400BFAB
:1041E00000BF00BF55E000BF94F83400032807D19A
:1041F00043463A46214630460095FFF7CAFF03E0A2
:104200002765A4F85480256436B12046FFF716FED2
:1042100021463046FFF704FF94F83600032802D108
:10422000204604F0A5F92046FFF76BFE002004F1BC
:104230003404A070607004F834092AE000BF94F8D8
:104240003400032807D143463A46214630460095BC
:10425000FFF79FFF03E02765A4F85480256436B17B
:104260002046FFF7EBFD21463046FFF7D9FE94F8D4
:104270003600072802D1204604F07AF9042004F120
:104280003404A0704FF00000607004F8340900E0BE
:1042900000BF00BFBDE8F88310B501460C8924B10A
:1042A000012C03D0022C0CD101E000BF14E00868FF
:1042B0004A6802610024C4601461D0600A604860EA
:1042C0000AE008684A68C36800241C61C46002618F
:1042D000D0600B60486000BF00BF10BD244A254974
:1042E000254A264A2649274A2748284A284A294A49
:1042F000294A2A482A482B4A2B482C4A2C482D4A1E
:104300002D482E482E482F482F4A304A304A3148EF
:10431000314A324A324833483348344834483548C1
:104320003548364A364A374A374A3848384839488D
:10433000394A3A4A3A4A3B483B483C483C493D485E
:104340003D4A3E4A3E4A3F4A3F4A404A404A414827
:10435000414A424A42484348434A444A4448454AFB
:10436000454A4648464800BF00BF00BF70470000AE
:10437000D09C0008349E0008D19C0008D29C000804
:10438000D49C0008D89C0008DC9C0008D99C00083C
:10439000049D0008059D0008069D0008089D000872
:1043A0000A9D00080E9D0008109D0008309D000821
:1043B000329D0008349D0008369D0008389D000895
:1043C0003A9D00083C9D0008689D0008699D000812
:1043D0006A9D00086C9D00086E9D00086F9D000896
:1043E000709D0008729D0008749D0008769D00086D
:1043F000789D00087A9D00087C9D0008AC9D00080F
:10440000AD9D0008AE9D0008AF9D0008B09D00085E
:10441000B29D0008B49D0008DC9D0008DD9D0008E9
:10442000DE9D0008DF9D0008E09D0008E29D000879
:10443000E49D0008E89D0008E99D0008EA9D000849
:10444000EB9D0008EC9D0008ED9D0008EE9D000826
:10445000EF9D0008F09D0008F29D0008F39D000804
:10446000F49D0008F69D0008F89D0008F99D0008DD
:10447000FC9D00082C9E00082D9E00082E9E000822
:10448000309E0008F7A1C16100214161F649096829
:1044900011B90021816105E0F34909688161F249A0
:1044A00009684861F049086070472DE9F041044609
:1044B0000F4616461D464FF00008EC4800780028CD
:1044C00004DD42F6E1602880BDE8F0811CB945F6C4
:1044D000C3502880F8E700BF00BFFCF7C9FD804645
:1044E00000BF00BFE2482060676026620020606273
:1044F00004F10800FFF7C8FD2046FFF7C3FFDD48C1
:104500000088401CDB49088000BF00BF4046FCF724
:10451000B3FD00BF00BF0020288000BFD4E770B506
:104520000446D5482060D5A060600020206204F1D8
:1045300008052846FFF7A8FD70BD426981693AB9B0
:10454000C94B196009B100234B610023836109E065
:1045500019B900239361436104E091614A6100232A
:104560008361436170472DE9FC5F05468846144628
:1045700000200090BD480078002805DD43F2C920E6
:1045800020800020BDE8FC9F25B945F6C35020805F
:104590000020F7E7B8F1000F03D0B8F1010F02D106
:1045A00000E000BF04E045F6256020800020E9E738
:1045B00000BFAF492868884204D045F6C450208027
:1045C0000020DFE700BF00BFFCF752FD009000BFF6
:1045D00000BF05F10809B9F808603746B8F1000FC7
:1045E00003D0B8F1010F49D120E0A7B92846FFF761
:1045F000A4FFA0480088401E9E4908802846FFF777
:104600008EFF00BF00BF0098FCF736FD00BF00BF63
:104610000020208009E000BF00BF0098FCF72CFDBF
:1046200000BF00BF47F25F10208032E0FCF711F8B6
:1046300001900AE0D9F800A0DAF808B059462846F7
:10464000019AFFF748FD701E86B2002EF2D128466F
:10465000FFF773FF87480088401E86490880284678
:10466000FFF75DFF00BF00BF0098FCF705FD00BF2E
:1046700000BFFFF7A0F9002020800AE000BF00BFC4
:104680000098FCF7F9FC00BF00BF45F625602080CC
:1046900000BF00BF384675E72DE9F04106460F46DA
:1046A00014461D46DDF81880764800684467754852
:1046B0000068A0F87C50002072490968886743466A
:1046C000012239463046FFF767FBBDE8F0812DE94E
:1046D000F04F8BB00546884693469946DDE9147441
:1046E0000020019061480078002806DD46F2AE10F7
:1046F000208000200BB0BDE8F08F25B945F6C350EF
:1047000020800020F6E748F20101A9EB010089456D
:1047100037D01ADC40F20111A9EB010089452CD0F9
:104720000CDCB9F1010F24D0B9F1020F22D0B9F19C
:10473000040F20D0B9F1080F2BD11DE001281DD0A6
:1047400003281CD0072824D11AE0B0F5807F1CD0A4
:1047500006DC012816D0032815D0072819D113E04C
:10476000A0F58070013811D0022810D0062810D191
:104770000EE000BF00BF00BF00BF00BF00BF00BF12
:1047800000BF00BF00BF00BF00BF00BF00BF00BF31
:1047900004E045F6256020800020ABE700BF3449E7
:1047A0002868884204D045F6C45020800020A1E744
:1047B00019F4807F02D04FF0010A01E04FF0000AA7
:1047C0000FB10020386009F00F000A9000BF00BF51
:1047D000FCF74EFC019000BF00BF0A9801287DD075
:1047E00002287CD0042802D0082879D15EE0286A0B
:1047F00000EA0806464516D1BAF1010F02D1286A2F
:10480000B04328621F48006886670FB1686A386045
:1048100000BF00BF0198FCF72FFC00BF00BF0020C5
:104820002080304666E719F4004F0BD000BF00BF70
:104830000198FCF721FC00BF00BF46F2B0102080B9
:10484000002057E71048007800281FDD00BF00BF98
:104850000198FCF711FC00BF00BF46F663502080B2
:10486000002047E7200000003C0000203800002026
:10487000464C4147400000204E4F4E453F464C417C
:1048800047000000D40000206C0000204B46424648
:10489000294602A8CDF800B0FFF7FEFE00BF00BF1A
:1048A0000198FCF7E9FB00BF00BFEEE0286A00EAD0
:1048B0000806D6B1BAF1010F02D1286AB0432862C6
:1048C000FA48006886670FB1686A386000BF00BFA9
:1048D0000198FCF7D1FB00BF00BF02E034E07EE0AE
:1048E000C7E000202080304604E719F4004F0BD0C9
:1048F00000BF00BF0198FCF7BFFB00BF00BF46F23E
:10490000B01020800020F5E6E948007800280BDD93
:1049100000BF00BF0198FCF7AFFB00BF00BF46F629
:10492000635020800020E5E64B464246294602A817
:10493000CDF800B0FFF7B0FE00BF00BF0198FCF754
:104940009BFB00BF00BFA0E0286A28EA000646459E
:1049500016D1BAF1010F02D1286A30432862D34838
:10496000006886670FB1686A386000BF00BF0198B1
:10497000FCF782FB00BF00BF002020803046B9E674
:1049800019F4004F0BD000BF00BF0198FCF774FB77
:1049900000BF00BF46F2B01020800020AAE6C44845
:1049A000007800280BDD00BF00BF0198FCF764FB16
:1049B00000BF00BF46F66350208000209AE64B46B9
:1049C0004246294602A8CDF800B0FFF765FE00BFB9
:1049D00000BF0198FCF750FB00BF00BF55E0286AFC
:1049E00028EA0006B6B1BAF1010F02D1286A3043B5
:1049F0002862AE48006886670FB1686A386000BFF9
:104A000000BF0198FCF738FB00BF00BF00202080EA
:104A100030466FE619F4004F0BD000BF00BF01987D
:104A2000FCF72AFB00BF00BF46F2B0102080002038
:104A300060E69F48007800280BDD00BF00BF0198AA
:104A4000FCF71AFB00BF00BF46F663502080002031
:104A500050E64B464246294602A8CDF800B0FFF783
:104A60001BFE00BF00BF0198FCF706FB00BF00BFA4
:104A70000BE000BF00BF0198FCF7FEFA00BF00BFCB
:104A800045F625602080002034E600BFFEF793FF46
:104A900000BF00BFFCF7ECFA019000BF00BF8348E5
:104AA000006890F8350030B101280CD0022828D0D9
:104AB000032836D117E01FB17C480068006C3860CD
:104AC0000020208038E01FB178480068006C386012
:104AD00000BF00BF0198FCF7CFFA00BF00BF46F24D
:104AE000A910208028E00FB10020386000BF00BF6F
:104AF0000198FCF7C1FA00BF00BF47F2D92020801F
:104B00001AE01FB169480068006C386000BF00BF40
:104B10000198FCF7B1FA00BF00BF45F6C2502080F3
:104B20000AE000BF00BF0198FCF7A6FA00BF00BF73
:104B300046F62E60208000BF00BF208808B100200C
:104B4000D8E55A480068866FBAF1010F20D10A985B
:104B500001280BD002280AD0042802D008280AD144
:104B600000E000BF286AB043286210E000BF286A56
:104B7000304328620BE000BF00BF0198FCF77CFACD
:104B800000BF00BF45F6256020800020B2E500BFD1
:104B900000BF00BF0198FCF76FFA00BF00BF002004
:104BA00020803046A6E52DE9F05F05460E46144606
:104BB0004FF0000A3F480078002805DD46F2AA10B1
:104BC00020800020BDE8F09F25B945F6C350208025
:104BD0000020F7E74EB1B6F5807F07D0B6F5004F5D
:104BE00005D0B6F5014F04D102E000BF00BF00BF01
:104BF00004E045F6256020800020E3E700BF2E4951
:104C00002868884204D045F6C45020800020D9E7A7
:104C100000BF00BFFCF72CFA824600BF00BF05F1C1
:104C20000807388958B900BF00BF5046FCF724FA7E
:104C300000BF00BF46F2AB1020800020C2E74FF05B
:104C40000008FBF706FD83460FE03868D0F80890AF
:104C50005A4649462846FFF768F908F101001FFA4D
:104C600080F8B6F5807F00D002E038890028ECDCBF
:104C700000BF00BF00BF5046FCF7FEF900BF00BFF9
:104C800016F4004F01D1FEF796FE0020208040462A
:104C900098E770B5044600260648007800280DDD28
:104CA00046F2AE102080002070BD0000D40000202D
:104CB0006C00002038000020464C414700BF00BF78
:104CC000FCF7D6F9064600BF00BFA7480068856F0D
:104CD00000BF00BF3046FCF7CFF900BF00BF002087
:104CE00020802846E0E770B504460D46164604F1DC
:104CF000340465644FF0000060702070E660A078B6
:104D0000A4F1340408281DD2DFE800F004050809E6
:104D10000706171800BF00BF00BF14E000BF94F8DB
:104D20003600032802D1204603F022FC2046FFF77C
:104D3000E8F8002084F8360005E000BF042084F87D
:104D4000360000E000BF00BF2046FFF777F870BDD7
:104D50002DE9F04F85B00446894692469B46DDF822
:104D600038800020009000BF00BFFCF781F9009060
:104D700000BF00BFBAF1000F0BD0BAF1010F0ED087
:104D8000BAF5004F06D06FF400401AEB00000CD1CA
:104D900006E000BF206A40EA0900206214E000BF7C
:104DA000206A20EA090020620EE000BF00BF0098E0
:104DB000FCF762F900BF00BF45F62560A8F80000C7
:104DC000002005B0BDE8F08F00BFC4F824B004F1A6
:104DD000080001900198008958B900BF00BF0098F1
:104DE000FCF74AF900BF00BF0020A8F80000206AC5
:104DF000E7E701980768BD6853E07868029095F886
:104E00007C0000F00F000390039801281ED00228B8
:104E100029D0042802D0082830D10CE0206A696F1C
:104E200000EA0106686FB04204D15A46314628466E
:104E3000FFF759FF2FE0206A696F00EA010626B1EB
:104E40005A4631462846FFF74EFF24E0686F216A34
:104E500020EA0106686FB04204D15A46314628461E
:104E6000FFF741FF17E0686F216A20EA010626B1CB
:104E70005A4631462846FFF736FF0CE000BF00BF18
:104E80000098FCF7F9F800BF00BF43F6FF20A8F830
:104E90000000002095E700BF029F0FB1BD6800E051
:104EA0000025002DA9D100BF00BF0098FCF7E4F851
:104EB00000BF00BF1AF4004F01D1FEF77CFD00BF18
:104EC00000BFFCF7D5F8009000BF00BF206A049037
:104ED00000BF00BF0098FCF7CFF800BF00BF002064
:104EE000A8F8000004986CE72DE9F84305468846C9
:104EF00016461C462DB945F6C35020800020BDE85B
:104F0000F8834EB1012E08D0B6F5004F06D06FF4ED
:104F10000040301804D102E000BF00BF00BF04E031
:104F200045F6256020800020E9E700BF0F4928688A
:104F3000884204D045F6C45020800020DFE7FBF70C
:104F400088FB81464B463246414628460094FFF78F
:104F5000FFFE07463846D2E70021054A1160054AA0
:104F60001180018070470000D4000020464C41476A
:104F70003C0000204000002000218161794909683F
:104F800011B90021C16105E076490968C16175491F
:104F9000096888617349086070472DE9FF4F83B045
:104FA000044615461F46DDE91096002000906E4825
:104FB0000078002805DD45F2B960308007B0BDE813
:104FC000F08F1DB945F2BB603080F7E7022F03DA9E
:104FD00045F2BC603080F1E7B9F1040F03D245F22D
:104FE000C1603080EAE74FF0030ABAF1000F0DD03C
:104FF00015EA0A0F03D045F2BB603080DEE719EAFC
:105000000A0F03D045F2C1603080D7E7AB46A8460F
:10501000781E80B201900020029007E0C844CBF8CF
:105020000080C3460298401C80B20290DDE9011066
:105030008842F3DB0020CBF8000000BF00BFFCF784
:1050400017F8009000BF00BF484820600498A06097
:105050006560E560A7826782A4F810902046FFF79C
:105060008BFF43480088401C4149088000BF00BFB7
:105070000098FCF701F800BF00BF0020308000BF9F
:105080009CE72DE9F04104460D4600272CB945F276
:10509000BF6028800020BDE8F08100BF00BFFBF7A3
:1050A000E7FF074600BF00BFA08A58B900BF00BF96
:1050B0003846FBF7E1FF00BF00BF45F2C260288021
:1050C0000020E8E7E6683068E060A08A401EA08221
:1050D00000BF00BF3846FBF7CFFF00BF00BF002076
:1050E00028803046D7E72DE9F04104460E461546A4
:1050F000002724B945F2BF602880BDE8F0811EB9C1
:1051000045F2BE602880F8E700BF00BFFBF7B0FFA4
:10511000074600BF00BFA08A618A88420ADB00BF41
:1051200000BF3846FBF7A8FF00BF00BF45F2BA60DA
:105130002880E2E7E0683060E660A08A401CA08238
:1051400000BF00BF3846FBF797FF00BF00BF00203D
:10515000288000BFD1E70021024A1160044A118073
:105160000180704744000020380000204D454D204C
:105170004800002070B50146844D2D681DB945F2E8
:105180001E750D8070BD824D2D881DB945F21D75AF
:105190000D80F7E77D4D28682A6810327C4D2D88F8
:1051A0006D1EACB2002308E0026000254560058159
:1051B000C560103010325D1CABB2A342F4DB002599
:1051C000056045600581C560704D2D68714E356084
:1051D0006F4D2D88B5800025F58035810D8000BF8D
:1051E000D0E710B5014648894B89002B17DD0A68C6
:1051F000684B1B681360674C4B6823602346DB8851
:105200004C891B1B634CE38023469B884C892344B9
:10521000604CA38000234B818B810B604B6010BDE1
:105220000181002242818281026042607047F0B5B4
:1052300004460D46608940B90020288002B1106004
:1052400046F2925018800020F0BD61684E680889CF
:1052500028800AB1C868106008686060606818B982
:1052600000202060608102E06089401E6081494822
:1052700000680860474801608088401C454FB8803E
:105280003846C088401EF880002018803046DBE792
:105290002DE9F0410D46DDE90674B0F80AC0B0F81A
:1052A0000880C44505DB46F2935CA4F800C0BDE865
:1052B000F081DFF8E0C0BCF804C0BCF1000F04D1FD
:1052C00045F21D7CA4F800C0F1E7DFF8C8C0DCF8A7
:1052D0000010DFF8C080D1F800C0C8F800C0C44694
:1052E000BCF804C0ACF1010CA8F804C0C446BCF87A
:1052F00006C00CF1010CA8F806C0C446BCF808C0F2
:10530000B8F80680C44507DADFF888C0BCF806C0E4
:10531000DFF88080A8F808C0B0F80AC0BCF1000F20
:105320000AD1016041604FF0010CA0F80AC04FF0B3
:10533000000CC1F800C015E013F0100F07D106688B
:10534000316001604FF0000CC1F800C004E0D0F8FB
:1053500004C0C1F800C04160B0F80AC00CF1010CF3
:10536000A0F80AC0B0F80CC0B0F80A80C44503DA4F
:10537000B0F80AC0A0F80CC04D600A81CF604FF0B1
:10538000000CA4F800C000BF91E700007C9C00085E
:10539000749C0008601A0020FEA1C16100214161D7
:1053A000FD49096811B90021816105E0FA490968E0
:1053B0008161F94909684861F749086070472DE93A
:1053C000F04104460E4615460027F44800780028B0
:1053D00004DD42F6E1602880BDE8F0811CB945F6A5
:1053E000C3502880F8E700BF00BFFBF741FE074627
:1053F00000BF00BFEA48206066600020206284F899
:105400002500A062402084F8240004F10800FEF783
:105410003BFE2046FFF7C0FFE2480088401CE14900
:10542000088000BF00BF3846FBF726FE00BF00BF64
:105430000020288000BFCFE710B50446DA4820607E
:10544000DAA060600020206284F82500A06240207D
:1054500084F8240004F10800FEF716FE10BD42692E
:1054600081693AB9CC4B196009B100234B61002323
:10547000836109E019B900239361436104E09161FC
:105480004A6100238361436170472DE9FE4F054661
:105490008946144600200090C0480078002805DDA9
:1054A00043F2C92020800020BDE8FE8F25B945F6D3
:1054B000C35020800020F7E7B9F1000F03D0B9F105
:1054C000010F02D100E000BF04E045F62560208016
:1054D0000020E9E700BFB2492868884204D045F6B9
:1054E000C45020800020DFE700BF00BFFBF7C0FDF5
:1054F000009000BF00BF05F1080ABAF80870B8466E
:10550000B9F1000F03D0B9F1010F7DD122E0B8F15C
:10551000000F14D12846FFF7A2FFA2480088401EC2
:10552000A04908802846FFF787FF00BF00BF00980A
:10553000FBF7A2FD00BF00BF0020208009E000BFF4
:1055400000BF0098FBF798FD00BF00BF47F25F1057
:10555000208074E02E6A76B396F8370095F8241010
:10556000884236D096F83600082825D2DFE800F0C9
:1055700004131A1B14151C1D3046FEF7CEFB95F8BC
:10558000240086F8370096F8370000F0E7FA304636
:10559000FEF79BFC1CE000BF00BF95F8240086F8D6
:1055A000370015E000BF00BF00BF95F8241030465B
:1055B000FEF747FD0CE00CE000BF00BF0098FBF7D2
:1055C0005BFD00BF00BF46F62D60208000206BE72A
:1055D00000BFFBF73EF801900BE0DAF800B0DBF813
:1055E000080002902846DDE90121FEF774FD781ECF
:1055F00087B2002FF1D12846FFF731FF69480088B4
:10560000401E6849088000E00EE02846FFF714FFBE
:1056100000BF00BF0098FBF72FFD00BF00BFFEF7E3
:10562000CAF9002020800AE000BF00BF0098FBF705
:1056300023FD00BF00BF45F62560208000BF00BFEE
:10564000404631E72DE9F04788B005468946904647
:105650001C46109E4FF0000A50480078002805DDD7
:1056600046F2AE10308008B0BDE8F0871DB945F6AF
:10567000C3503080F7E7B8F1000F03D0B8F5004F02
:1056800002D100E000BF03E045F625603080EAE784
:1056900000BF43492868884203D045F6C450308093
:1056A000E1E70CB10020206000BF00BFFBF7E0FC89
:1056B000824600BF00BF95F82500C0B93D4800688C
:1056C00028623C48006890F8370085F824000120E3
:1056D00085F825000CB1A86A206000BF00BF5046C5
:1056E000FBF7CAFC00BF00BF00203080BBE7314998
:1056F000286A0968884212D195F82500401C85F86F
:1057000025000CB1A86A206000BF00BF5046FBF71F
:10571000B3FC00BF00BF45F282703080A3E718F4ED
:10572000004F0AD000BF00BF5046FBF7A5FC00BFEA
:1057300000BF46F2B010308095E71F48007800287F
:105740000ADD00BF00BF5046FBF796FC00BF00BF5C
:1057500046F66350308086E72F6A97F83700154980
:10576000096891F83710884250DD97F8360008280C
:1057700040D2DFE800F0042B34352D2C3637384684
:10578000FEF7CBFA0B48006890F8370087F837002F
:1057900014E00000200000004C0000203800002031
:1057A0004D555458500000204E4F4E453F4D5554D6
:1057B00045580000D40000206C00002097F8370006
:1057C00000F0CCF93846FEF763FB1EE000BF00BFD7
:1057D000CE48006890F8370087F8370015E000BF22
:1057E00000BF00BFC948006890F837103846FEF780
:1057F00028FC0AE000BF00BF5046FBF73DFC00BF9D
:1058000000BF46F62D6030802DE700BF4B460422D6
:1058100029466846FEF7C0FA00BF00BF5046FBF7B6
:105820002BFC00BF00BFFEF7C6F800BF00BFFBF7B0
:105830001FFC824600BF00BFB448006890F83500E6
:1058400030B101280CD002281AD0032821D110E051
:105850001CB1AE480068006C2060002030801CE065
:105860001CB1AA480068006C206046F2A910308084
:1058700013E00CB10020206047F2D92030800CE00A
:105880001CB1A2480068006C206045F6C250308010
:1058900003E046F62E60308000BF00BF00BF00BFAF
:1058A0005046FBF7E9FB00BF00BF00BFDBE62DE978
:1058B000F05F05460E4614464FF0000A9448007803
:1058C000002805DD46F2AA1020800020BDE8F09FE8
:1058D00025B945F6C35020800020F7E74EB1B6F554
:1058E000807F07D0B6F5004F05D0B6F5014F04D143
:1058F00002E000BF00BF00BF04E045F62560208045
:105900000020E3E700BF83492868884204D045F6B9
:10591000C45020800020D9E700BF00BFFBF7A8FBE0
:10592000824600BF00BF05F10807388958B900BF9B
:1059300000BF5046FBF7A0FB00BF00BF46F2AB1014
:1059400020800020C2E74FF00008FAF782FE83466D
:105950000FE03868D0F808905A4649462846FEF7C6
:10596000E4FA08F101001FFA80F8B6F5807F00D054
:1059700002E038890028ECDC00BF00BF00BF5046C1
:10598000FBF77AFB00BF00BF16F4004F01D1FEF712
:1059900012F800202080404698E72DE9F84F044691
:1059A000884615464FF0000A59480078002804DD63
:1059B00046F20E202880BDE8F88F1CB945F6C3508A
:1059C0002880F8E7B8F1000F03D0B8F5004F02D1F6
:1059D00000E000BF03E045F625602880EBE700BF4C
:1059E0004C492068884203D045F6C4502880E2E73D
:1059F00000BF00BFFBF73CFB824600BF00BF43492E
:105A0000206A096888420AD000BF00BF5046FBF7F1
:105A100033FB00BF00BF45F281702880CBE7FAF767
:105A200018FE0746A76294F82500401E84F825005A
:105A300094F8250000280ADD00BF00BF5046FBF7A0
:105A40001BFB00BF00BF45F283702880B3E704F161
:105A50000809B9F8080068B90020206284F8250018
:105A600000BF00BF5046FBF707FB00BF00BF002090
:105A70002880A0E72548006890F8370094F82410A3
:105A8000884219D021480068FEF747F994F82400AD
:105A90001E49096881F837001C49096891F83700E8
:105AA00000F05CF819480068FEF70FFA1748006824
:105AB00090F8370018490870D9F800008668266207
:105AC00096F8370084F82400012084F8250000238C
:105AD0001A46314620460097FEF770FB00BF00BF14
